:100000000C9414020C943C020C943C020C94521C70
:100010000C94521C0C94521C0C943C020C943C0208
:100020000C943C020C94E01B0C943C020C943C029B
:100030000C943C020C943C020C943C020C943C0248
:100040000C94771A0C943C020C94451A0C941F1AC9
:100050000C943C020C943C020C943C020C943C0228
:100060000C94C11A0C943C0200407A10F35A00A080
:10007000724E18090010A5D4E80000E87648170071
:1000800000E40B54020000CA9A3B000000E1F505B1
:10009000000080969800000040420F000000A086FB
:1000A00001000000102700000000E803000000002D
:1000B0006400000000000A000000000001000000D1
:1000C00000002C76D888DC674F0823DFC1DFAE59EB
:1000D000E1B1B796E5E3E453C63AE651997696E87E
:1000E000E6C28426EB898C9B62ED407C6FFCEFBC02
:1000F0009C9F40F2BAA56FA5F490055A2AF75C932D
:100100006B6CF9676DC11BFCE0E40D47FEF520E662
:10011000B500D0ED902E0300943577050080841E45
:10012000080000204E0A000000C80C333333330FA0
:10013000986E12831141EF8D2114893BE65516CF3D
:10014000FEE6DB18D1844B381BF77C1D901DA4BB49
:10015000E424203284725E228100C9F124ECA1E5FE
:100160003D27362D506F776572204F666600352D1E
:1001700053657420446174652F54696D6500342D96
:1001800053657420494400332D4368616E67652FC1
:10019000416464204D6173746572204E756D6265B3
:1001A0007200322D53656E64205465737420534D74
:1001B0005300312D54657374204861726477617205
:1001C00065004D656E753A004572726F72206D6103
:1001D000782073796D626F6C3A004E6577204461C8
:1001E00074652F54696D653A2000446174652F541D
:1001F000696D653A20004E6574776F726B3A200026
:1002000053696D3A2000205369676E616C3A200093
:10021000436F6E6E65637465643A20002026204942
:100220004D454920004D6F64656D3A200043686577
:10023000636B20546865200020762000290A5369EA
:10024000673D005628000A42617400630020543D57
:100250000025000A483D0030000A54696D65200001
:100260002B00683A20000A417420006B672E003D85
:1002700000494420004C4F572042415454455259A4
:1002800020210A001F1C1F1E1F1E1F1F1E1F1E1FB6
:1002900000000000240027002A00000000090003DD
:1002A000020000040508000000000000000000003B
:1002B000002043656C736975733A2000202048253F
:1002C0003A200054657374205349373032303A2055
:1002D0000020446174653A200054657374205254C0
:1002E000433A2000206973206E6F7420612076618C
:1002F0006C69642073656C656374696F6E2E00426F
:10030000796521004E657720446174652F54696DCD
:10031000653A2000205361766564202100205361F6
:100320007665642021004641494C00536D7320538B
:10033000656E643A0041542B434D47523D0053745F
:10034000616E646279000A31366820000A313468CF
:1003500020000A31326820000A20366820004279E5
:1003600065204F6C64204D6173746572203A2800DB
:1003700041542B434D47533D2200457863656C6CD7
:10038000656E7400476F6F64004F4B0042616400FC
:100390002F002859592F4D4D2F44442C48483A4D91
:1003A0004D2920456E74657220446174652C20547B
:1003B000696D65203A0020456E7465722049643A83
:1003C0000020456E746572204E756D6265723A004C
:1003D0004E6F74205365740043757272656E743A83
:1003E000200000000000230026002900000000007B
:1003F000250028002B000404040404040404020261
:1004000002020202030303030303020203010204C4
:100410000810204080010204081020010204081086
:1004200020408040CA1C8D2611241FBECFEFD8E08B
:10043000DEBFCDBF12E0A0E0B1E0E0EBFAE502C024
:1004400005900D92A03AB107D9F726E0A0EAB2E0F4
:1004500001C01D92A135B207E1F712E0C3E1D2E07D
:1004600004C02197FE010E94FE2CC231D107C9F7BA
:100470000E94951D0C944B2D0C9400006115710584
:1004800081059105E1F581E090E0A0E0B0E0809386
:100490007C0590937D05A0937E05B0937F058EEA41
:1004A00098E090937B0580937A05809170008E7F11
:1004B000809370008091B0008C7F8093B000809119
:1004C000B100877F8093B1008091B6008F7D8093CB
:1004D000B600809170008D7F809370008091B10094
:1004E00084608093B1008091B1008C7F8093B100D3
:1004F00083E890E090937905809378050895609360
:100500007C0570937D0580937E0590937F05C7CF12
:10051000909177059111FCCF91E09093770590939E
:1005200076052FEF2093750510927405260F209302
:1005300073059093720590917205880F892B8093B3
:100540007205809171058130F9F4109271058091E6
:1005500072058093BB008091BC0083FDF8CF85ECD1
:100560008093BC00809177058130E1F38091740520
:10057000861710F460917405A1E5B5E0E1E3F5E0BC
:1005800080E0861303C0089585EEEACF9D91919394
:100590008F5FF7CF80912F0590913005891B990BC4
:1005A000089508950895EF92FF920F931F93CF93AC
:1005B000DF938C017B01D0E0C0E0F701EC0FFD1F61
:1005C0006491662361F0D801ED91FC910190F08176
:1005D000E02DC8010995892B11F02196EECFCE01AF
:1005E000DF91CF911F910F91FF90EF900895AF92FF
:1005F000BF92CF92DF92EF92FF920F931F93CF9310
:10060000DF936C017B018B01040F151FEB015E0171
:10061000AE18BF08C017D10759F06991D601ED9106
:10062000FC910190F081E02DC6010995892B79F7A5
:10063000C501DF91CF911F910F91FF90EF90DF9057
:10064000CF90BF90AF900895FC01538D448D252F1E
:1006500030E0842F90E0821B930B541710F0CF965C
:10066000089501970895FC01918D828D981761F08E
:10067000A28DAE0FBF2FB11D5D968C91928D9F5FA5
:100680009F73928F90E008958FEF9FEF0895FC0184
:10069000918D828D981731F0828DE80FF11D858D37
:1006A00090E008958FEF9FEF0895FC01918D228DCA
:1006B000892F90E0805C9F4F821B91098F7399274F
:1006C000089580E895E00E94550321E0892B09F404
:1006D00020E0822F089580E090E0892B29F00E948D
:1006E000610381110C9400000895FC01A48DA80FF2
:1006F000B92FB11DA35ABF4F2C91848D90E0019664
:100700008F739927848FA689B7892C93A089B18983
:100710008C9180648C93938D848D981306C002888D
:10072000F389E02D80818F7D80830895EF92FF9281
:100730000F931F93CF93DF93EC0181E0888F9B8D04
:100740008C8D981316C0E889F989808185FF11C0C6
:10075000EE89FF896083E889F989808180648083DC
:1007600081E090E0DF91CF911F910F91FF90EF908A
:100770000895F62E0B8D10E00F5F1F4F0F7311279A
:10078000E02E8C8D8E110CC00FB607FCFACFE889D5
:10079000F989808185FFF5CFCE010E947503F1CFE5
:1007A000EB8DEC0FFD2FF11DE35AFF4FF0820B8F05
:1007B000EA89FB8980818062D2CFCF93DF93EC01FD
:1007C000888D8823B9F0AA89BB89E889F9898C9139
:1007D00085FD03C0808186FD0DC00FB607FCF7CFF5
:1007E0008C9185FFF2CF808185FFEDCFCE010E94F5
:1007F0007503E9CFDF91CF910895843081F028F41B
:100800008230E9F08330F9F00895883071F0893052
:1008100091F08530B9F4809180008F7D03C0809184
:1008200080008F778093800008958091B0008F774B
:100830008093B00008958091B0008F7DF9CF84B58A
:100840008F7784BD089584B58F7DFBCFCF93DF93E1
:10085000282F30E0F901E656FD4F8491F901E35F5E
:10086000FB4FD491F901EA50FC4FC491CC23A1F085
:1008700081110E94FD03EC2FF0E0EE0FFF1FEE51FF
:10088000FC4FA591B491EC91ED2381E090E009F447
:1008900080E0DF91CF91089580E090E0FACF1F9340
:1008A000CF93DF93282F30E0F901E656FD4F849176
:1008B000F901E35FFB4FD491F901EA50FC4FC49179
:1008C000CC23A9F0162F81110E94FD03EC2FF0E03C
:1008D000EE0FFF1FE451FC4FA591B4918FB7F89430
:1008E000EC91111108C0D095DE23DC938FBFDF910E
:1008F000CF911F910895DE2BF8CF10923005109202
:100900002F0510922C0510922B051092770581E08F
:10091000809376051092710561E082E10E944F0498
:1009200061E083E10E944F04E9EBF0E080818E7F7B
:10093000808380818D7F808380E28093B80085E40E
:100940008093BC0081ED92E09093840480938304B3
:1009500082ED92E090938204809381040895CF9376
:10096000DF9390E0FC01E35FFB4F24918A509C4FA2
:10097000FC0184918823C9F090E0880F991FFC0145
:10098000E057FD4FA591B491FC01E451FC4FC59196
:10099000D49161110DC09FB7F8948C91209582235A
:1009A0008C938881282328839FBFDF91CF9108955E
:1009B000623051F49FB7F8943C91822F8095832345
:1009C0008C93E8812E2BEFCF8FB7F894EC912E2BE0
:1009D0002C938FBFEACF3FB7F89480918103909119
:1009E0008203A0918303B091840326B5A89B05C020
:1009F0002F3F19F00196A11DB11D3FBFBA2FA92F9E
:100A0000982F8827BC01CD01620F711D811D911D9A
:100A100043E0660F771F881F991F4A95D1F7089505
:100A20008F929F92AF92BF92CF92DF92EF92FF92FE
:100A30006B017C010E94EB044B015C01C114D104E9
:100A4000E104F104B9F00E94EB04681979098A09FC
:100A50009B09683E73408105910580F321E0C21A2D
:100A6000D108E108F10888EE880E83E0981EA11CE9
:100A7000B11CE4CFFF90EF90DF90CF90BF90AF908C
:100A80009F908F9008952FB7F89460917D03709197
:100A90007E0380917F03909180032FBF0895DC0136
:100AA00050E0E4E8F2E081E0861730F49491490FD9
:100AB000511D8F5F3196F8CF633038F0CD018370D0
:100AC0009927892B11F44F5F5F4F9D012D5F3F4F99
:100AD00036952795369527956DE671E0A69FC0015E
:100AE000A79F900DB69F900D11240197820F931F21
:100AF000840F951F08954F925F926F927F928F920D
:100B00009F92AF92BF92CF92DF92EF92FF92CF93DC
:100B1000DF93EC016A017B012CE3822E912CA12C46
:100B2000B12CCB01BA01A50194010E94912C6D83D7
:100B3000CA01B901A50194010E94912C6C83C701DF
:100B4000B60120E13EE040E050E00E94912CCA0155
:100B5000B90128E130E040E050E00E94912C6B8325
:100B6000C701B60120E831E541E050E00E94912C38
:100B7000188263E9862E6EEF962EAA24AA94BA2CC8
:100B80008881782F7370C12CD12C7601C394772380
:100B900019F0C12CD12C7601260137019DE6490EB2
:100BA00091E0591E611C711C241535054605570539
:100BB00078F0240135014C185D086E087F08730138
:100BC00062012C0D3D1D4E1D5F1D8F5F8883D8CFA8
:100BD00081E089836981862F8150990BFC01EC5754
:100BE000FD4FE491711103C0623009F4EF5F8E2F65
:100BF00090E0B0E0A0E0281739074A075B0738F01B
:100C0000281B390B4A0B5B0B6F5F6983E3CF2F5FA8
:100C10002A83DF91CF91FF90EF90DF90CF90BF902C
:100C2000AF909F908F907F906F905F904F900895BE
:100C3000FC019F012F5F3F4F80818F7E803269F0E2
:100C400080E02AE0919130ED390F3A3040F4829FF4
:100C5000900D112480ED890FF5CFF901EACF0895A9
:100C600085ED8093BC008091BC0084FDFCCF109288
:100C70007705089520915903260F3327331F21321A
:100C80003105ECF420917705FC0190E080E0243000
:100C900069F082E00895A09159032191AC01475C6D
:100CA0005C4FA40FB52FB11D2C930196861798F3B6
:100CB00080915903680F6093590380E0089581E0A3
:100CC00008950895E091300580912F05E81730F4DC
:100CD000F0E0EF5CFA4F808190E008958FEF9FEF96
:100CE00008959091300580912F052FEF3FEF9817D1
:100CF00048F4E92FF0E0EF5CFA4F208130E09F5F8D
:100D000090933005C9010895CF92DF92EF92FF9240
:100D10000F931F93CF93DF937C01CB018A01209126
:100D20002E05222389F0EB016B01C40ED51ECC15D4
:100D3000DD0569F06991D701ED91FC910190F08199
:100D4000E02DC7010995F3CF642F0E943A06C80130
:100D5000DF91CF911F910F91FF90EF90DF90CF9097
:100D60000895CF93DF931F92CDB7DEB769832091AB
:100D70002E052223F9F020912B05203258F021E096
:100D800030E0FC013383228390E080E00F90DF911C
:100D9000CF91089580912C05E82FF0E0E75EFC4F9D
:100DA000998190838F5F80932C0580932B0581E040
:100DB00090E0ECCF61E0CE0101960E943A06F7CFB9
:100DC00020912B0581E0213208F044C08091770505
:100DD0008111FCCF80912D0592E09093770591E0F1
:100DE000909376059FEF909375051092740520936C
:100DF0007305A9E1B3E0E1E5F5E090E0291331C026
:100E00001092720590917205880F892B809372055C
:100E100080917105813049F51092710580917205BC
:100E20008093BB008091BC0083FDF8CF85EC80935C
:100E3000BC00809177058230E1F3809175058F3F8A
:100E4000B1F0809175058032A1F0809175058033F5
:100E500091F084E010922C0510922B0510922E0533
:100E600008953D9131939F5FC9CF85EEE0CF80E03B
:100E7000F1CF82E0EFCF83E0EDCF21E020932E058C
:100E800020E420932D0510922C0510922B05FC01D7
:100E9000608183E296E00E94B10683E296E00C94C2
:100EA000E006CF930E947D04C1E0C0932E0580E44C
:100EB00080932D0510922C0510922B0583E296E06D
:100EC0000E94E006811102C0C093800480918004DA
:100ED000CF9108951F93CF93DF93162FCFE2D6E0E3
:100EE000A881B98191E090932E0598E690932D0505
:100EF00010922C0510922B05ED91FC911197019009
:100F0000F081E02D682FCD01099588819981DC0160
:100F1000ED91FC910190F081E02D612F0995888180
:100F200099810E94E0068A83DF91CF911F910895F5
:100F300010921503109216031092170310921803C3
:100F40001092140380917805909179058093B200F6
:100F5000E0E7F0E08081816080830895209187033D
:100F6000309188032817390771F490918503809197
:100F70008603981741F0E0918503F0E0EC52FD4FB5
:100F8000808190E008958FEF9FEF0895EF92FF9298
:100F90000F931F93CF93DF93DC015C96ED90FC9051
:100FA0005D97E114F10479F481E090E013969C934D
:100FB0008E93129790E080E0DF91CF911F910F9177
:100FC000FF90EF9008955196ED91FC9152975096B5
:100FD0008C915097982F90950FB75E962C915E97B5
:100FE000122F127021FD6095F8942081112319F1C0
:100FF000282B2083E7012197F1F728E0462F50E0C6
:10100000308160FF1AC0382B3083E7012197F1F758
:10101000BA0175956795215089F7112381F0808178
:10102000892380830FBF5C968D919C910197F1F786
:1010300081E090E0C1CF2923DCCF3923E5CF908137
:10104000892BEFCF20918703309188032817390728
:1010500071F4809186032091850390E0805C9F4F1E
:10106000821B910960E470E00E947D2C089590E05D
:1010700080E008952091870330918803281739076D
:10108000B9F49091850380918603981789F0E091D7
:101090008503F0E0EC52FD4F80812091850330E024
:1010A0002F5F3F4F2F7333272093850390E00895E0
:1010B0008FEF9FEF089590E080E00895E0E7F0E083
:1010C00080818E7F80831092A10260E084E00E9484
:1010D0004F0460E087E00E944F0460E088E00C94D9
:1010E0004F04EF92FF920F931F93CF93DF93C82F7C
:1010F000162F0E945E0880918E03882341F11F5FA6
:1011000008E0C23721F007E0C73609F000E0C1E08F
:10111000D0E0812F8150990B7C0161E0802F0E94EB
:101120004F0464EF71E080E090E00E94100560E001
:10113000802F0E944F04EC16FD0631F064EF71E041
:1011400080E090E00E9410052196C11730F3DF91F6
:10115000CF911F910F91FF90EF900895CF938091C1
:101160008E03882341F18091A1028823E1F0C09190
:1011700005016C2F809104010E944F0481E0C82773
:10118000C09305016091020170910301C11104C077
:10119000609100017091010190E080E00E943E02A8
:1011A000CF910C949807809170008E7F809370008F
:1011B000CF910C945E08CF9108958F929F92AF9239
:1011C000BF92DF92EF92FF920F931F93CF93DF9323
:1011D00000D01F92CDB7DEB78EE00E942604892B87
:1011E00031F060E070E0CB010E941005F5CF93E094
:1011F000D92E812C912C54018394DA948FEFD8123C
:1012000025C061E08FE00E944F0460E08FE00E9403
:101210004F0461E08FE00E944F0460E08FE00E9485
:101220004F042B81205869817A8190E0822F0F90A2
:101230000F900F90DF91CF911F910F91FF90EF9042
:10124000DF90BF90AF909F908F90089507E010E0DF
:10125000EE24E394F12CEC0EFD1EED0CF11C61E08C
:101260008FE00E944F048EE00E942604B501A40185
:10127000002E04C0440F551F661F771F0A94D2F733
:10128000F7012081892B51F0422B408360E08FE0F1
:101290000E944F040150110910F7AFCF409542232F
:1012A000F4CF8F929F92AF92BF92CF92DF92EF9244
:1012B000FF92CF93DF93EC010E94DD086B017C016C
:1012C0000E94DD08C60ED71EE81EF91E0E94DD082A
:1012D0006C0D7D1D8E1D9F1D23E0C22ED12CE12C97
:1012E000F12CA70196010E94B32CCA01B9010E94FA
:1012F000E92A688379838A839B830E94DD084B01F6
:101300005C010E94DD08860E971EA81EB91E0E9471
:10131000DD08680D791D8A1D9B1DA70196010E949D
:10132000B32CCA01B9010E94E92A688379838A83B0
:101330009B83DF91CF91FF90EF90DF90CF90BF9094
:10134000AF909F908F900895DC01ED91FC910190FA
:10135000F081E02D0994DF92EF92FF920F931F939B
:10136000CF93DF93CDB7DEB72C970FB6F894DEBFDF
:101370000FBECDBF80912F069091300621E02093C3
:101380002E0528E620932D0510922C0510922B0592
:10139000DC01ED91FC910190F081E02D60E0099578
:1013A00080912F06909130060E94E00680933106CE
:1013B000882331F140E050E0BA01CE0101960E944D
:1013C0007B0586E0FE013196DE01179601900D92B5
:1013D0008A95E1F72F81388549855A856B857C850B
:1013E00080E090E02C960FB6F894DEBF0FBECDBF24
:1013F000DF91CF911F910F91FF90EF90DF900895B3
:1014000067E088E60E9488021092300580932F05DD
:101410008730A1F084E08093310640E050E0BA01CB
:10142000CE0107960E947B0586E0FE013796DE011D
:10143000119601900D928A95E1F7C3CF80912F0606
:1014400090913006DC01ED91FC910284F385E02D52
:1014500009958F77282F30E0F4E035952795FA9598
:10146000E1F7922F990F990F022F091B000F080F18
:1014700080912F0690913006DC01ED91FC91028461
:10148000F385E02D09959C01A4E035952795AA9553
:10149000E1F72F703327922F990F990FF22EF91A37
:1014A000FF0CF80E80912F0690913006DC01ED9133
:1014B000FC910284F385E02D099586FF7CC0982F6E
:1014C0009F71292F30E0E4E035952795EA95E1F703
:1014D000322F330F330F122F131B110F190F85FDEE
:1014E000145F80912F0690913006DC01ED91FC9104
:1014F0000284F385E02D099580912F0690913006A6
:10150000DC01ED91FC910284F385E02D09959C01AD
:1015100044E0359527954A95E1F72F703327922FB0
:10152000990F990FE22EE91AEE0CE80E80912F0622
:1015300090913006DC01ED91FC910284F385E02D61
:101540000995D82E80912F0690913006DC01ED91FF
:10155000FC910284F385E02D0995AC0164E055957A
:1015600047956A95E1F74F705527942F990F990F7A
:10157000242F291B220F280F30E0A9014053584F78
:10158000D7FE02C04C595F4F8D2D8F77405D4F8342
:10159000282F30E094E0359527959A95E1F7922F22
:1015A000990F990F291B220F280F2887E9861A8780
:1015B000FB860C870FCF9C0174E0359527957A95B3
:1015C000E1F72F703327922F990F990F122F191BC4
:1015D000110F180F86CFCF93DF93EC0162E080E408
:1015E0000E9488021092300580932F058230F0F31C
:1015F00083E296E00E947106888383E296E00E946F
:101600007106898381E090E0DF91CF910895CF93B7
:10161000DF9300D000D0CDB7DEB783EE8C83CE0150
:1016200004960E943D07CE0101960E94EB0A298193
:101630003A81322723273227A4EAB4E40E94D22C2D
:101640008D54924164E670E00E947D2C70932A05CF
:101650006093290585EE8B83CE0103960E943D079A
:10166000CE0101960E94EB0A29813A813227232775
:101670003227ADE7B0E00E94D22C0697843648F4BA
:10168000809319010F900F900F900F90DF91CF91E1
:10169000089583E6F5CFCF93A0912F06B091300641
:1016A00091E090932E0598E690932D0510922C05CD
:1016B00010922B05ED91FC9111970190F081E02D96
:1016C000682FCD01099580912F06909130060E94D8
:1016D000E006C82F8093310681111DC061E088E6C5
:1016E0000E9488021092300580932F05813031F0DE
:1016F00084E0809331068C2FCF91089580912F063E
:1017000090913006DC01ED91FC910284F385E02D8F
:101710000995C82FF0CFC0E0EECFAF92BF92CF9225
:10172000DF92EF92FF920F931F93CF93DF9300D03E
:1017300000D000D0CDB7DEB78C016B010E94180637
:10174000E82EC80103960E941806B82EC801069616
:101750000E941806A82E89E894E00E941806082F17
:101760008CE894E00E941806182F8FE894E00E94FD
:101770001806F82E4A2D6B2D8E2D90E00E944F05F5
:101780009C01A8E1B0E00E94D22C9B01AC01200F8B
:10179000311D411D511DACE3B0E00E94E12C9B01C5
:1017A000AC01210F311D411D511D0E94E12C40E172
:1017B0005EE0C49E9001C59E300DD49E300D112474
:1017C0008901330F220B330B0F0D111D211D311D0C
:1017D000AB01BC01400F511F621F731FCE01019668
:1017E0000E947B05E9801A81FB80DC80CD80BE8071
:1017F0008FE00E944B0B682F6F778FE00E946A0783
:1018000080912F069091300621E020932E0528E646
:1018100020932D0510922C0510922B05DC01ED91E3
:10182000FC910190F081E02D60E00995A0912F06D8
:10183000B09130060AE08B2D602F0E945D2C682F3E
:10184000660F680F660F6B0DED91FC91119701907B
:10185000F081E02DCD010995A0912F06B0913006C1
:101860008C2D602F0E945D2C682F660F680F660F0D
:101870006C0DED91FC9111970190F081E02DCD015F
:101880000995A0912F06B09130068D2D602F0E94F2
:101890005D2C682F660F680F660F6D0DED91FC9142
:1018A00011970190F081E02DCD010995B3E60CE987
:1018B0000E0D90E8D92EBE1510F00E2DD12C4F2D07
:1018C000612F8E2D90E00E944F05069667E070E034
:1018D0000E94692C682F811101C067E080912F065A
:1018E00090913006DC01ED91FC910190F081E02DAA
:1018F0000995A0912F06B09130068AE0E82E8F2D31
:101900006E2D0E945D2C682F660F680F660F6F0D9D
:10191000ED91FC9111970190F081E02DCD01099599
:10192000812F6E2D0E945D2C682F660F680F660F49
:10193000610F862F8D29682F70E080912F0690917E
:1019400030060E94A409A0912F06B0913006802F86
:101950006E2D0E945D2C682F660F680F660F600F5A
:10196000ED91FC9111970190F081E02DCD01099549
:1019700080912F06909130060E94E00680933106F8
:1019800026960FB6F894DEBF0FBECDBFDF91CF9184
:101990001F910F91FF90EF90DF90CF90BF90AF908D
:1019A0000895CF92DF92EF92FF920F931F93CF9300
:1019B0006B017C0120E030E0A9010E94412AC5E0D2
:1019C00087FFC4E020E030E0A901C701B6010E9412
:1019D000992B87FD0BC020E030E040E251E4C701C5
:1019E000B6010E94412A18160CF0C3E009E814E081
:1019F00021E04C2FC701B6010E94A926CF911F916B
:101A00000F91FF90EF90DF90CF900895CF92DF92EB
:101A1000EF92FF92CF93DF9300D000D0CDB7DEB727
:101A2000CE0101960E9451092091850430918604CF
:101A3000409187045091880469817A818B819C81CF
:101A40000E94D4296B017C016091170170911801EB
:101A500090E080E00E94E72A9B01AC01C701B6013B
:101A60000E94462A20E030E040E251E40E949E2B92
:101A70000E940B2C20E030E040E251E40E94462A14
:101A80006B017C012DEC3CEC4CE45DE30E94412AAF
:101A900087FD27C0C982DA82EB82FC8220E030E039
:101AA00046E953E469817A818B819C810E94992B5C
:101AB000181644F480E090E0A6E9B3E489839A83A1
:101AC000AB83BC8369817A818B819C810F900F905D
:101AD0000F900F90DF91CF91FF90EF90DF90CF901C
:101AE000089519821A821B821C82D8CFFB010190B3
:101AF0000020E9F73197AF01461B570BDC01ED9150
:101B0000FC910280F381E02D09948F929F92AF9215
:101B1000BF92EF92FF920F931F93CF93DF93CDB7B6
:101B2000DEB7A1970FB6F894DEBF0FBECDBF7C0124
:101B3000FA01CB0119A2223008F42AE08E010F5DD0
:101B40001F4F822E912CB12CA12CBF01A501940115
:101B50000E94912CF901CA016A300CF5605DD80130
:101B60006E938D01232B242B252B79F790E080E0B9
:101B7000109721F0BD01C7010E94760DA1960FB606
:101B8000F894DEBF0FBECDBFDF91CF911F910F91B3
:101B9000FF90EF90BF90AF909F908F900895695CF9
:101BA000DECF482F50E070E060E02AE082E396E06C
:101BB0000C94850DCF92DF92EF92FF920F931F93BB
:101BC000CF93DF93EC016A017B01E881F9810190F9
:101BD000F081E02D6DE209958C0144275527BA016B
:101BE0004C195D096E097F092AE0CE010E94850D1E
:101BF000800F911FDF91CF911F910F91FF90EF9078
:101C0000DF90CF9008954F925F926F927F928F9264
:101C10009F92AF92BF92CF92DF92EF92FF920F937B
:101C20001F93CF936B017C01742EAC019B010E942A
:101C30002F2C60E571E0811126C046015701E89420
:101C4000B7F82FEF3FEF4FE75FE7C501B4010E9400
:101C50002F2C81110CC02FEF3FEF4FE75FE7C5013D
:101C6000B4010E94412A64E571E0181664F02FEF78
:101C70003FEF4FE75FE4C701B6010E94992B1816AA
:101C8000ACF468E571E082E396E0CF911F910F918B
:101C9000FF90EF90DF90CF90BF90AF909F908F908C
:101CA0007F906F905F904F900C94760D2FEF3FEFE9
:101CB0004FE75FECC701B6010E94412A87FDE1CFE3
:101CC00020E030E0A901C701B6010E94412A10E0DE
:101CD00000E087FF0AC06DE282E396E00E94C6073B
:101CE0008C01F7FAF094F7F8F094C0E060E070E04F
:101CF00080E09FE37C1641F020E030E040E251E4D8
:101D00000E94462ACF5FF6CFA70196010E94D529EF
:101D10002B013C010E94B82A4B015C012AE0BC0166
:101D2000A40182E396E00E94850D7C01E00EF11E85
:101D3000CC23D1F1C501B4010E94E72A9B01AC017B
:101D4000C301B2010E94D4294B015C016EE282E31F
:101D500096E00E94C607E80EF91EC15028F120E067
:101D600030E040E251E4C501B4010E949E2B2B01FA
:101D70003C010E94B82A4B01B12CA12C2AE0B501EC
:101D8000A40182E396E00E94850DE80EF91EC501CC
:101D9000B4010E94E72A9B01AC01C301B2010E9479
:101DA000D4294B015C01D9CFC701CF911F910F916D
:101DB000FF90EF90DF90CF90BF90AF909F908F906B
:101DC0007F906F905F904F9008956FE871E00C9452
:101DD000760DCF93DF93BC0182E396E00E94D3029D
:101DE000EC0182E396E00E94E50E8C0F9D1FDF91CF
:101DF000CF9108950F931F93CF93DF93EC01AB0125
:101E0000770F660B770B77FF0DC00E94DA0D8C0100
:101E1000CE010E94E50E800F911FDF91CF911F919F
:101E20000F9108952AE00E94850DF1CF0F931F9323
:101E3000CF93DF938C01D0E0C0E06115710519F0FC
:101E40000E94760DEC01C8010E94E50E8C0F9D1FCB
:101E5000DF91CF911F910F91089582E396E00E9448
:101E6000E50E82EC91E00E94E90E82EB91E00E9487
:101E7000E90E82EA91E00E94E90E87E891E00E9473
:101E8000E90E8EE791E00E94E90E8EE691E00E9455
:101E9000E90E82E691E00C94E90E6115710511F0EE
:101EA0000C94760D90E080E008950A9734F46FE08A
:101EB00072E082E396E00C944D0F0895CF93DF9388
:101EC000CDE1D6E0898190E00E94550F89810E9482
:101ED000D10D6CE571E082E396E00E944D0F8A819E
:101EE00090E00E94550F8A810E94D10D6CE571E04F
:101EF00082E396E00E944D0F488150E04053584FD6
:101F000070E060E02AE082E396E00E94850D66E6DC
:101F100072E082E396E00E944D0F8B8190E00E9478
:101F2000550F8B810E94D10D62EE71E082E396E045
:101F30000E944D0F8C8190E00E94550F8C810E9471
:101F4000D10D62EE71E082E396E00E944D0F8D812B
:101F500090E00E94550F8D810E94D10D82E396E0A2
:101F6000DF91CF910C94E50ECF9320EE33E0F90191
:101F700001900020E9F79F01215E3340821713068C
:101F800098F4C82F68EC71E082E396E00E94D302D7
:101F90008C2F0E94D10D82E396E00E94E50E1092F4
:101FA000E00380E0CF91089581E0FCCF0F931F9371
:101FB000CF93DF9300D0CDB7DEB762E370E080E06F
:101FC00090E00E94100582E396E00E943A088C019E
:101FD0001A82198289836AE070E080E090E00E94B2
:101FE000100517FDF0CF0D30110559F00A3011051D
:101FF00041F0BE016F5F7F4F80EE93E00E940B2D9A
:10200000E2CF80E00F900F90DF91CF911F910F9161
:1020100008952F923F924F925F927F928F929F925C
:10202000AF92BF92CF92DF92EF92FF920F931F93E6
:10203000CF93DF93CDB7DEB72A970FB6F894DEBF04
:102040000FBECDBF2C018B014A012DB63EB6FA0161
:102050001082FB0101900020E9F7CF01861B970B4E
:102060000396EDB6FEB6E81AF90A0FB6F894FEBE6E
:102070000FBEEDBE2DB73EB72F5F3F4F69016EE536
:1020800071E0C8010E94312D892B21F56EE571E0C8
:10209000C6010E942A2DB801C6010E940B2D0E9484
:1020A00043057B018C0120E030E0A9016B83FC82B9
:1020B0008D831E832F83388749875A8780E895E070
:1020C0000E9455031816190654F480E895E00E9402
:1020D0003303F4CFB801C6010E942A2DE0CFB60128
:1020E00080E895E00E94160F712C0E9443059B0129
:1020F000AC0160E070E080E090E0AB80BC80CD801F
:10210000DE80EF80F88409851A850E94EC2C273E3A
:10211000334041055105610571058105910509F0BF
:1021200030F580E895E00E945503892BF1F280E8B4
:1021300095E00E943303182F1A8219828983BE0109
:102140006F5F7F4FC4010E940B2D1A3019F01FE9F9
:10215000171590F5B201C4010E94312D892B59F455
:1021600062E671E0C4010E94312D892B11F186E4F1
:10217000F40180831182C4010FB6F8943EBE0FBEF5
:102180002DBE2A960FB6F894DEBF0FBECDBFDF91ED
:10219000CF911F910F91FF90EF90DF90CF90BF9064
:1021A000AF909F908F907F905F904F903F902F9037
:1021B0000895F4011082712C7394B3CF0F931F9381
:1021C000CF93DF938C01EB010E9487298883C8019C
:1021D00001960E9487298983CE01DF91CF911F91BB
:1021E0000F910895CF92DF92EF92FF920F931F937A
:1021F000CF93DF93EB017B0124E0E20EF11C8B0116
:102200006C01C61AD70AC601800F911F0E94872948
:10221000F80181938F01EE15FF05A9F7CE01DF913B
:10222000CF911F910F91FF90EF90DF90CF90089585
:10223000CF93DF93EB010E9487298883CE01DF9142
:10224000CF910895CF92DF92EF92FF920F931F9359
:10225000CF93DF938B01C42F7B016C01C61AD70A81
:10226000C6018E0D9F1D0E948729F70181937F0172
:102270008E2F801B8C17A0F3C00FD12FD11D188279
:10228000DF91CF911F910F91FF90EF90DF90CF9052
:102290000895CF92DF92EF92FF920F931F93CF9307
:1022A000DF9300D0CDB7DEB76B017A01BC0182EAC3
:1022B00092E00E942A2D01E010E022EA32E0AE0115
:1022C0004F5F5F4FB601C9010E94EC26009739F0BD
:1022D0000F5F1F4F30E020E0E016F10684F70F900B
:1022E0000F90DF91CF911F910F91FF90EF90DF90B2
:1022F000CF900895CF93C5E049E854E065E671E0DA
:1023000089E691E00E94091080918904863481F465
:1023100064EF71E080E090E00E941005C15061F729
:102320006FE072E089E894E00E942A2DC0E027C0A7
:102330006CE270E089E894E00E94162D892B81F30D
:1023400042E050E066E672E089E894E00E944911BC
:10235000BC0189E894E00E942A2D41E050E06FE63C
:1023600071E089E894E00E944911BC0189E894E099
:102370000E942A2D89E894E00E94C726C82F60E9B0
:1023800073E08AEB93E00E94E526BC0189E894E0C3
:102390000E940B2D6CE873E0CA3068F086EF8C0F5A
:1023A00069E873E0853038F0CF5064E873E0C530F9
:1023B00010F06AE773E08AEB93E00E94E526BC0127
:1023C00089E894E0CF910C940B2D7F928F929F928D
:1023D000AF92BF92CF92DF92EF92FF920F931F9333
:1023E000CF93DF93CDB7DEB72A970FB6F894DEBF51
:1023F0000FBECDBF0E94AB095C836D83C090890383
:10240000D0908A03E0908B03F0908C0323E333E3B6
:1024100043E550E4C701B6010E94D42926E636E61A
:1024200046E65FE30E94462A20E030E048EC52E4B2
:102430000E949E2B0E940B2C0E94B82A762E1F828F
:10244000188619861A86BE01695F7F4F8AE390E07D
:102450000E94F2102F81388549855A856091B50315
:102460007091B6038091B7039091B8030E94D4296C
:1024700020E030E040E251E40E949E2B0E940B2CB1
:1024800020E030E040E251E40E94462A4B015C012A
:102490001092E00323E333E343E550E4C701B601C0
:1024A0000E94992B87FD84C126E636E646E650E475
:1024B000C701B6010E94412A18160CF479C165E7DC
:1024C00072E089E894E00E94E526BC0180EE93E08A
:1024D0000E942A2D10E061E772E089E894E00E94F2
:1024E000E526BC0180EE93E00E940B2D69EC73E0C1
:1024F00080EE93E00E940B2D6FE672E089E894E095
:102500000E94E526BC0180EE93E00E940B2D6091B5
:10251000B5037091B6038091B7039091B8030E9400
:10252000D10CBC0180EE93E00E940B2D6BE672E0B3
:1025300089E894E00E94E526BC0180EE93E00E94C9
:102540000B2D66E672E089E894E00E94E526BC0166
:1025500080EE93E00E940B2D4AE069E874E084E18C
:1025600090E00E941327BC0180EE93E00E940B2DA7
:1025700062E672E089E894E00E94E526BC0180EE04
:1025800093E00E940B2D20E030E0A901C501B401C9
:102590000E94992B18165CF460E672E089E894E0DA
:1025A0000E94E526BC0180EE93E00E940B2DC50140
:1025B000B4010E94D10CBC0180EE93E00E940B2D6F
:1025C0006BE672E089E894E00E94E526BC0180EEAB
:1025D00093E00E940B2D69E572E089E894E00E9487
:1025E000E526BC0180EE93E00E940B2D8C814AE031
:1025F00069E874E090E00E941327BC0180EE93E04C
:102600000E940B2D0D8162EE71E080EE93E00E943E
:102610000B2D0A3058F467E572E089E894E00E94D7
:10262000E526BC0180EE93E00E940B2D4AE069E8AC
:1026300074E0802F90E00E941327BC0180EE93E0AD
:102640000E940B2D112319F163E572E089E894E0F3
:102650000E94E526BC0180EE93E00E940B2D809144
:1026600019014AE069E874E090E00E941327BC0178
:1026700080EE93E00E940B2D61E572E089E894E022
:102680000E94E526BC0180EE93E00E940B2D6DE4D4
:1026900072E089E894E00E94E526BC0180EE93E0B8
:1026A0000E940B2D4AE069E874E080912905909121
:1026B0002A050E941327BC0180EE93E00E940B2D97
:1026C0006BE472E089E894E00E94E526BC0180EEAC
:1026D00093E00E940B2D66E472E089E894E00E948A
:1026E000E526BC0180EE93E00E940B2D6FE672E0C0
:1026F00089E894E00E94E526BC0180EE93E00E9408
:102700000B2D6091890370918A0380918B039091C6
:102710008C030E94D10CBC0180EE93E00E940B2D33
:1027200063E472E089E894E00E94E526BC0180EE53
:1027300093E00E940B2D4AE069E874E0872D90E059
:102740000E941327BC0180EE93E00E940B2D61E5EF
:1027500072E089E894E00E94E526BC0180EE93E0F7
:102760000E940B2D6CE372E089E894E00E94E5265C
:10277000BC0180EE93E00E940B2D0E947A1169E863
:1027800074E080EE93E02A960FB6F894DEBF0FBE99
:10279000CDBFDF91CF911F910F91FF90EF90DF9010
:1027A000CF90BF90AF909F908F907F900C940B2D07
:1027B00011E091CE0E94212D21E0892B09F020E02B
:1027C000822F0895CF93DF93EC011092E00382E310
:1027D00096E00E94E50E68ED73E082E396E00E94C9
:1027E000D302C330D10509F566E071E08FEC93E0C8
:1027F0000E94DA13882391F060ED73E082E396E0A3
:102800000E94D30261EC73E082E396E00E94D3025F
:102810000E94D60FDF91CF910C942D0F6FEC73E0D7
:1028200082E396E00E944D0FEDCFC430D10549F40C
:1028300069EC73E082E396E00E944D0F66EB73E073
:10284000E3CF259739F70E94AB0920931D063093FB
:102850001E0640931F065093200660932106709336
:1028600022060E945E0FBC0182E396E00E94160FD2
:1028700062E973E0C9CF2F923F924F925F926F92BD
:102880007F928F929F92AF92BF92CF92DF92EF9200
:10289000FF920F931F93CF93DF93CDB7DEB7669769
:1028A0000FB6F894DEBF0FBECDBF3B01542EEDB680
:1028B000FEB6FE8AED8AFC0101900020E9F731970F
:1028C0008F01081B190B68012FEFC21AD20A4DB7EE
:1028D0005EB74C195D090FB6F8945EBF0FBE4DBFD1
:1028E0006DB77EB76F5F7F4F7B01BC01C7010E9450
:1028F0002A2D8DB79EB78C199D090FB6F8949EBFEF
:102900000FBE8DBFADB7BEB711964D01A60170E0E9
:1029100060E0CD010E94042D6701C701800F911F67
:10292000F70122242394312CE817F90739F021917B
:102930002C32D1F7BFEF2B1A3B0AF6CF5101AA0C6C
:10294000BB1CEDB7FEB7EA19FB090FB6F894FEBF42
:102950000FBEEDBF2DB73EB72F5F3F4F3A87298798
:10296000A50170E060E0C9010E94042D4DB75EB77B
:102970004A195B090FB6F8945EBF0FBE4DBF6DB725
:102980007EB76F5F7F4F7C876B87A50170E060E04B
:102990008B859C850E94042DA985BA85ED92FC92B9
:1029A000EB85FC859182808230E020E041E050E0C0
:1029B0002017310701F1D6018D916D012F5F3F4F37
:1029C0008C32B1F7FD0131971082CA01880F991F2F
:1029D000E985FA85E80FF91FB183A083EB85FC85B3
:1029E0008E0F9F1FB401620F731FDC016D937C93E8
:1029F0004F5F5F4FDDCF0E9443057B018C0120E0DC
:102A000030E0A9016983FA828B831C832D833E8386
:102A10004F835887912C812C830130E020E040E0E7
:102A200050E0BA016D861E872F87388B498B5A8BF1
:102A30006B8B7C8B0E9443059B01AC0160E070E0D6
:102A400080E090E0A980BA80CB80DC80ED80FE80C1
:102A50000F8118850E94EC2CAD84BE84C12CD12C32
:102A6000E12CF12C00E010E00E94F52C08F085C06C
:102A700080E895E00E945503892BE1F280E895E01B
:102A80000E943303482E552049F010EA8116910424
:102A900008F45EC01092E003912C812CCB84DC847E
:102AA000E984FA8410E000E00215130509F3360109
:102AB000D6018D919C91FC0101900020E9F7AF01B6
:102AC00041505109481B590B5701D701ED91FC9119
:102AD000E40FF51F2081241148C0480F591FFA0147
:102AE0004082F2E0CF0ED11C22E0E20EF11CD301B5
:102AF0006D917C91F501808191810E94212D892B1E
:102B0000C9F5552021F0F401E052FC4F1082C801B4
:102B1000ED88FE880FB6F894FEBE0FBEEDBE669639
:102B20000FB6F894DEBF0FBECDBFDF91CF911F91DE
:102B30000F91FF90EF90DF90CF90BF90AF909F905C
:102B40008F907F906F905F904F903F902F9008955F
:102B5000F401E052FC4F80832FEF821A920A30EA90
:102B60008316910409F09ACF95CF70E060E00E943F
:102B7000042DB7CF0F5F1F4F97CF8FEF9FEFC8CFB9
:102B80000F931F93CF93DF9300D0CDB7DEB78C01A7
:102B90008AE189831A8260E773E080E895E00E9409
:102BA000D3026FEC73E080E895E00E944D0F66E879
:102BB00072E080E895E00E94160F40E060EE7EE251
:102BC00081E791E00E943B14892BB1F4B80180E8C1
:102BD00095E00E944D0FBE016F5F7F4F80E895E04A
:102BE0000E94160F40E060EE7EE289E791E00E94CD
:102BF0003B1421E0892B09F020E0822F0F900F90E9
:102C0000DF91CF911F910F910895BC0180E895E06D
:102C10000E94160F40E060ED77E085E891E00E94A9
:102C20003B1421E0181619060CF020E0822F0895BD
:102C3000CF92DF92EF92FF920F931F93CF93DF9388
:102C4000CDB7DEB729970FB6F894DEBF0FBECDBF64
:102C50001092B403C0908903D0908A03E0908B0354
:102C6000F0908C032AE939E949E550E4C701B6013F
:102C70000E94992B87FDE3C226E636E646E850E43B
:102C8000C701B6010E94412A18160CF4D8C261E0AF
:102C90008DE00E94AF0461E08DE00E944F046CE281
:102CA00071E080E090E00E94100580918E038823FF
:102CB000B1F00E945E0880E293E09093030180935C
:102CC000020180E490E0909301018093000184E090
:102CD0008093040181E08093A1020E9498076DE235
:102CE00072E089E894E00E94E526BC0182E396E068
:102CF0000E944D0F65E272E082E396E00E94D302EB
:102D0000E0919005F091910582E08083E0918C053F
:102D1000F0918D051082E0918E05F0918F0587E688
:102D2000808310929805E0919405F091950586E0D6
:102D30008083E0919205F09193058081886980837A
:102D4000E0919205F091930580818F7D808311E061
:102D500002E097E6F92E26E0E22E62E971E082E3D6
:102D600096E00E944D0F64E971E080E895E00E94D2
:102D7000160F41E064EF71E087E991E00E943B1497
:102D8000892B09F479C21A3009F042C060E08DE065
:102D90000E944F046AE174E080E090E00E94100518
:102DA00061E08DE00E94AF0461E08DE00E944F047D
:102DB00060E971E080E090E00E941005E0919005EC
:102DC000F09191050083E0918C05F0918D051082C2
:102DD000E0918E05F0918F05F08210929805E091B8
:102DE0009405F0919505E082E0919205F0919305AC
:102DF000808188698083E0919205F09193058081BC
:102E00008F7D808360EA71E082E396E00E944D0F3F
:102E10001F5F163109F0A1CF0E945E081092B40323
:102E2000D6C11092E00367EA71E080E895E00E9465
:102E3000160F41E068E873E18EEA91E00E943B14CE
:102E400043E050E060E971E080EE93E00E944911B8
:102E5000BC0182E396E00E94160F1092A0026DE280
:102E600072E089E894E00E94E526BC0182E396E0E6
:102E70000E944D0F60E072E082E396E00E94D30270
:102E800010E006E08091A0028630F8F469EB71E072
:102E900080E895E00E94160F41E064EF71E082EC5B
:102EA00091E00E943B14182F843018F40093A00284
:102EB000E9CF68EE73E080E090E00E941005809119
:102EC000A0028F5F8093A002DDCF42E050E062EE6F
:102ED00071E080EE93E00E944911BC0182E396E02C
:102EE0000E94160F111196C16DE272E089E894E01C
:102EF0000E94E526BC0182E396E00E944D0F66EF3A
:102F000071E082E396E00E94D30200E0E12C83E2CC
:102F1000F82E68EE73E080E090E00E94100540EE2D
:102F200053E067ED71E08DED91E00E940910892B6F
:102F300061F06AE370E080EE93E00E94162D009746
:102F400021F004960E94C726082F62E971E082E30F
:102F500096E00E944D0F013009F42CC1023009F0B7
:102F60001DC11150FA941F5F193110F4F110D1CF27
:102F7000102F1B7F113009F02AC180918E03882306
:102F8000A9F00E945E0888EB9BE090930301809378
:102F9000020180E490E0909301018093000184E0BD
:102FA000809304011093A1020E94980760E172E0EF
:102FB00082E396E00E94D30284EE91E00E9405161F
:102FC0008BEF91E00E94051681E08093B40365E0E9
:102FD00072E080E895E00E94160F40E068EE73E032
:102FE00081E192E00E943B14892BD9F51AE040EE72
:102FF00053E06EE172E084E292E00E940910809159
:10300000E003863409F0D8C0115089F78AE01092A5
:1030100089048B3009F0D2C06CE270E080EE93E05E
:103020000E94162D892B09F4C9C0053031F46BE2DA
:1030300072E089E894E00E940B2D43E050E06FE6D7
:1030400071E080EE93E00E944911BC0189E894E0B0
:103050000E940B2DE9E8F4E001900020E9F7329797
:10306000108269E874E082E396E00E944D0F66E00A
:1030700072E082E396E00E94D3020E947A1169E82E
:1030800074E082E396E00E94160F1092A0026DE2B7
:1030900072E089E894E00E94E526BC0182E396E0B4
:1030A0000E944D0F6AEE71E082E396E00E94D30227
:1030B00009E28091A002863008F087C06CED75E0CF
:1030C00080E090E00E94100515E049E854E067E3D5
:1030D00072E08DE392E00E94091062E971E082E300
:1030E00096E00E944D0F80918904863441F464EF8C
:1030F00071E080E090E00E941005115031F742E04D
:1031000050E066E872E089E894E00E944911BC0151
:1031100089E894E00E942A2D41E050E06FE671E0DA
:1031200089E894E00E944911BC01CE0101960E94F9
:103130002A2D41E050E06CE571E089E894E00E94BE
:1031400049110E94C7267C0142E050E06FE671E021
:1031500089E894E00E944911BC0189E894E00E944A
:103160002A2D8091A0028F5F8093A00285E1E8164E
:10317000F1040CF49ECF42E050E060E671E089E893
:1031800094E00E9449110E94C726BC017727CE0116
:1031900001960E948D0B0093A0028BCF053051F059
:1031A000033031F484E08E1528F0E3941150DBCE27
:1031B00000E0D9CE19E1D7CE8BE029CF6FE272E0E3
:1031C00089E894E00E940B2D4CCF893238F466E2F6
:1031D00073E089E894E00E94E52616C06AED71E08C
:1031E00082E396E00E94D3020E94AB0920931D0661
:1031F00030931E0640931F065093200660932106CD
:10320000709322060E945E0FBC0182E396E00E944A
:10321000160F06C062E0113059F161E0123041F141
:1032200029960FB6F894DEBF0FBECDBFDF91CF91C8
:103230001F910F91FF90EF90DF90CF90089542E0A3
:10324000C701B6010E94030E68E372E082E396E0D4
:103250000E94D30265E772E089E894E00E94E526C7
:10326000BC0182E396E00E94160F1092B40363E063
:1032700082E70E947108D4CF69E873E089E894E09E
:103280000E94E526BC0182E396E00E944D0F6CE1AE
:1032900072E082E396E00E94D30280E895E00E940B
:1032A0005503181619060CF0BCCD80E895E00E9475
:1032B00033036AE070E080E090E00E941005EDCFFB
:1032C000FF920F931F93CF93DF93EC01F62E0881AB
:1032D0001981C8010E948729F81621F06F2DC801B5
:1032E0000E948F29CE01DF91CF911F910F91FF9006
:1032F00008950F931F93CF93DF9300D0CDB7DEB720
:103300008B019A838983FB016081CE0101960E9423
:103310006019C8010F900F90DF91CF911F910F910D
:103320000895EF92FF920F931F93CF93DF9300D0F6
:10333000CDB7DEB78C017B019A838983FB01608165
:10334000CE0101960E9460190F5F1F4F1A830983F7
:10335000F7016181CE0101960E946019C7010F90AB
:103360000F90DF91CF911F910F91FF90EF900895F3
:10337000AF92BF92CF92DF92EF92FF920F931F9383
:10338000CF93DF9300D0CDB7DEB78B016B0124E084
:10339000C20ED11C7B015C01A61AB70AC5018E0DB5
:1033A0009F1D9A838983F70161917F01CE01019668
:1033B0000E946019EC14FD0489F7C8010F900F906A
:1033C000DF91CF911F910F91FF90EF90DF90CF9001
:1033D000BF90AF900895AF92BF92CF92DF92EF92DD
:1033E000FF920F931F93CF93DF9300D0CDB7DEB73B
:1033F0007C015B01042F10E06501C10ED11CF601B8
:103400006081FA82E982CE0101960E946019F6017C
:103410008081811101C0102FFFEFEF1AFF0A1F5F9B
:10342000101750F30F900F90DF91CF911F910F91D4
:10343000FF90EF90DF90CF90BF90AF9008951F92D4
:103440000F920FB60F9211242F933F934F935F93D8
:103450006F937F938F939F93AF93BF93EF93FF935C
:1034600080E895E00E947503FF91EF91BF91AF91C5
:103470009F918F917F916F915F914F913F912F918C
:103480000F900FBE0F901F9018951F920F920FB6BE
:103490000F9211242F938F939F93EF93FF93E091BB
:1034A0009005F09191058081E0919605F091970546
:1034B00082FD1BC09081809199058F5F8F73209151
:1034C0009A05821741F0E0919905F0E0E058FA4F33
:1034D000958F80939905FF91EF919F918F912F91F7
:1034E0000F900FBE0F901F9018958081F4CF1F9200
:1034F0000F920FB60F9211242F933F938F939F93A8
:10350000AF93BF9380917D0390917E03A0917F0341
:10351000B091800330917C0326E0230F2D3768F1B2
:1035200029E8230F0396A11DB11D20937C038093EE
:103530007D0390937E03A0937F03B09380038091DB
:10354000810390918203A0918303B091840301963B
:10355000A11DB11D8093810390938203A0938303E7
:10356000B0938403BF91AF919F918F913F912F9121
:103570000F900FBE0F901F9018950296A11DB11DC0
:10358000D4CF1F920F920FB60F9211242F933F9317
:103590004F935F936F937F938F939F93AF93BF935B
:1035A000EF93FF938091B900887F803609F44AC079
:1035B000F0F5883209F4A7C018F5803109F49BC0F2
:1035C000B8F4882309F4F9C0883009F494C0FF9155
:1035D000EF91BF91AF919F918F917F916F915F918B
:1035E0004F913F912F910F900FBE0F901F90189504
:1035F000883109F488C0803251F78093750514C072
:10360000803409F49DC040F48033B9F38833F9F66F
:103610008093750585ECB0C0803509F485C0883588
:1036200009F496C0883499F60E943006D0CF8839C4
:1036300009F48CC038F5883729F050F4883611F039
:10364000803729F683E08093770510927B0357C07B
:10365000883809F47BC0803919F0803809F0B7CF79
:1036600080917B03803208F071C0E0917B0381E0A0
:103670008E0F80937B038091BB00F0E0E55AFC4FF6
:1036800080833DC0803B39F0E0F4803A09F479C092
:10369000883A09F09CCF84E08093770510925A0312
:1036A00010925903E0918304F0918404099580916C
:1036B000590381110FC081E080935903109239039F
:1036C00009C0803C09F4A6CF883C09F4A3CF883B0D
:1036D00009F07DCFE0915A0381E08E0F80935A0369
:1036E000F0E0E75CFC4F80818093BB0090915A032F
:1036F0008091590329C0809172058093BB0085ECAD
:103700008093BC0064CF90917405809173059817E5
:1037100058F5E091740581E08E0F80937405F0E018
:10372000EF5AFA4F8081E9CFE091740581E08E0F66
:10373000809374058091BB00F0E0EF5AFA4F8083CC
:1037400090917405809173059817C8F285E8D8CFD9
:10375000E091740581E08E0F809374058091BB0029
:10376000F0E0EF5AFA4F80838091760581115CCFAB
:1037700081E08093710584EA8093BC001092770504
:1037800026CF85EC8093BC001092770580917B0357
:10379000803230F4E0917B03F0E0E55AFC4F108278
:1037A00060917B0370E0E0918104F09182048BE5ED
:1037B00093E0099510927B030ACF1092750534CFE0
:1037C0001F920F920FB60F9211242F933F934F9396
:1037D0005F936F937F938F939F93AF93BF93EF9379
:1037E000FF9380917805909179058093B200809144
:1037F000150390911603A0911703B0911803019639
:10380000A11DB11D8093150390931603A093170378
:10381000B09318038091150390911603A09117039C
:10382000B091180340917C0550917D0560917E0513
:1038300070917F0584179507A607B70710F180914F
:10384000140381111EC081E080931403809115033D
:1038500090911603A0911703B0911803841B950B48
:10386000A60BB70B8093150390931603A093170331
:10387000B0931803E0917A05F0917B0509951092B9
:103880001403FF91EF91BF91AF919F918F917F9121
:103890006F915F914F913F912F910F900FBE0F90BD
:1038A0001F9018951F920F920FB60F9211242F930D
:1038B0003F934F935F936F937F938F939F93AF93B8
:1038C000BF93EF93FF93E0918703F09188033097C4
:1038D00049F0A685B7858585968D91FF14C09C918A
:1038E0008923A1F4FF91EF91BF91AF919F918F91A7
:1038F0007F916F915F914F913F912F910F900FBEEC
:103900000F901F9018959C91892361F7A389B48922
:103910009C918589809589238C93868997890197C5
:10392000F1F7608D718DA685B785558538E020E06B
:10393000CB010197F1F7822F90E095958795282F7D
:103940004C91452309F02068315091F7868D81FD17
:1039500020958091860390E001968F73992730918E
:103960008503381799F0A0918603B0E0AC52BD4FA3
:103970002C9380938603828D938D0197F1F7A38911
:10398000B4898C919589892B8C93ACCF868D81607D
:10399000868FF1CF109283051092820588EE93E016
:1039A000A0E0B0E08093840590938505A093860500
:1039B000B09387052EE131E0309381052093800597
:1039C00025EC30E030938D0520938C0524EC30E01D
:1039D00030938F0520938E0520EC30E030939105D5
:1039E0002093900521EC30E03093930520939205CD
:1039F00022EC30E0309395052093940526EC30E0DE
:103A000030939705209396051092990510929A0588
:103A100010929B0510929C05109226061092250686
:103A20008093270690932806A0932906B0932A0630
:103A300020E331E0309324062093230610923506CC
:103A4000109234068093360690933706A09338067A
:103A5000B093390682E491E0909333068093320666
:103A6000109249061092480610924B0610924A0690
:103A700010924D0610924C0610924F0610924E0670
:103A8000609150066E7F6D7F609350066695617001
:103A900081E0682786E00E944F0461E086E00E9492
:103AA000AF04E3E1F4E0E491E0934206ECEFF3E0ED
:103AB000E491F0E0EE0FFF1FE451FC4F85919491EB
:103AC000909344068093430660E085E00E94AF0433
:103AD0008091500681FD04C061E085E00E944F04A2
:103AE00085E080933E06E2E1F4E0E491E0933F0656
:103AF000EBEFF3E0E491F0E0EE0FFF1FEE51FC4F2F
:103B000085919491909341068093400683E296E0DC
:103B10009093300680932F061092310640E050E0DB
:103B2000BA018DE196E00C947B05CF93DF93CDB77E
:103B3000DEB765970FB6F894DEBF0FBECDBF7894A1
:103B400084B5836084BD85B5836085BD80916E003A
:103B5000816080936E0082E080938100809181007B
:103B600081608093810080918000816080938000DB
:103B70008091B10084608093B1008091B000816039
:103B80008093B00086E880937A001092C10061E0D3
:103B900083E00E94AF0461E083E00E944F04109232
:103BA0004D0610924C0610924B0610924A06109247
:103BB0004906109248068DEC90E090934F06809352
:103BC0004E0680913E06873108F04BC025E530E077
:103BD00030934906209348062BEC30E030934B0697
:103BE00020934A0620E930E030934D0620934C069E
:103BF0002091680094E0883054F091E08E303CF0E1
:103C000092E0843124F091E0863109F490E0922B27
:103C1000909368002DE630E0883074F08E300CF41C
:103C20008AC084313CF086310CF485C030E020E05D
:103C3000863111F42CE630E0309346062093450699
:103C400088300CF07BC091E001C0990F8A95EAF7AB
:103C5000892F8093470680914E0690914F060197D9
:103C6000F1F780914C0690914D06892B49F1E09136
:103C70008703F091880306E0E233F00709F13097FB
:103C800039F0A389B4899C918589809589238C9387
:103C9000809150068E7F809350061092860310927A
:103CA000850382E396E09093880380938703E091F5
:103CB0004506F0914606808190914706892B8083C6
:103CC00061E088E00E94AF0460E088E00E944F0459
:103CD00061E087E00E94AF0460E087E00E944F044B
:103CE00061E084E00E94AF0460E084E00E944F0441
:103CF00062E082E00E94AF0482E00E942604892BE9
:103D000039F481E080938E0361E087E00E944F04E4
:103D100010918D03163000F582E00E942604892B55
:103D2000D9F41F5F10938D036CE271E080E090E0A6
:103D30000E941005EDCF2BE630E07ECF8E3014F4DC
:103D4000885081CF863114F48E507DCF863111F4A6
:103D500080E47FCF80E07DCF60E087E00E944F0469
:103D600066E071E083EA93E00E942A2D66E071E04C
:103D70008FEC93E00E942A2D0E947D040E9451073F
:103D80001A86BE01665F7F4F81E090E00E941811A5
:103D90008EE480937C006BE470E080E090E00E9411
:103DA000100580917A00806480937A0080917A0077
:103DB00086FDFCCF8091780020917900322F282F4A
:103DC000032E000C440B550B64EB7BE281E190E089
:103DD0000E94B32CCA01B901645671098109910985
:103DE0000E94E92A20E030E04AE754E40E94462A93
:103DF00020E030E040E251E40E949E2B0E940B2C18
:103E000020E030E040E251E40E94462A6B017C0150
:103E1000C0928903D0928A03E0928B03F0928C03C4
:103E20002AE037ED43E550E40E94412A87FF80C134
:103E30001A821982BE016F5F7F4F81E090E00E947D
:103E400091191A860E94AB0920931D0630931E0615
:103E500040931F065093200660932106709322061C
:103E60008A85882309F47DC18EE00E944B0B682F60
:103E700067648EE00E946A0780912F069091300659
:103E800021E020932E0528E620932D0510922C0585
:103E900010922B05DC01ED91FC910190F081E02D59
:103EA00067E0099570E060E080912F069091300600
:103EB0000E94A40970E060E080912F069091300686
:103EC0000E94A40960E870E080912F06909130066E
:103ED0000E94A40960E870E080912F06909130065E
:103EE0000E94A40980912F06909130060E94E0065E
:103EF000809331068FE00E944B0B682F6C7F8FE020
:103F00000E946A0745E069EC73E082E890E00E9455
:103F1000221141E16FEC73E088E890E00E942211E9
:103F200066E071E08FEC93E00E94DA1364E472E0E3
:103F3000811102C06FEC73E089E894E00E942A2DA1
:103F400082E396E00E94E50E63E572E082E396E08C
:103F50000E944D0F65E572E082E396E00E944D0FEE
:103F600066E672E082E396E00E944D0F69E874E035
:103F700082E396E00E944D0F66E672E082E396E0EF
:103F80000E944D0F69EC73E082E396E00E944D0FB2
:103F900066E672E082E396E00E944D0F609189032D
:103FA00070918A0380918B0390918C0342E00E9470
:103FB000030E66E672E082E396E00E944D0F0E94D7
:103FC0005E0FBC0182E396E00E944D0F65E874E04D
:103FD0008EE290E00E94F21067E171E086E390E0EB
:103FE0000E94DE1064EF71E080E090E00E943E02EB
:103FF000809170008E7F8093700061E08FE00E945E
:10400000AF0460E08EE00E94AF0460E08FE00E94A9
:104010004F0480918D03863008F463C061E084E032
:104020000E944F0469E572E082E396E00E94160F59
:1040300010928D0310918D03163008F49AC060E041
:1040400084E00E944F04163008F0A9C085E894E08F
:104050000E94510961E084E00E944F0468E97AE31C
:1040600080E090E00E94100560E087E00E944F042D
:1040700019821A821B821C82CE0101960E9451096C
:1040800065E874E08EE290E00E94B8192091850402
:1040900030918604409187045091880469817A8127
:1040A0008B819C810E94D4296B017C0120E030E04F
:1040B0004AEF54E40E94412A63E087FDE7C0C7014C
:1040C000B6010E94B82A709318016093170167E146
:1040D00071E086E390E00E94911962E087E60E9419
:1040E00071088091B903882309F446C20E94D60F53
:1040F00080EE93E00E94C7268330910509F49DC1AC
:104100000CF0C6C08130910509F4E6C0029709F4AD
:1041100068C160EE73E082E396E00E944D0F84EE8A
:1041200092E00E94E90E82E396E00E94E50E82C1D1
:104130008A85811187CE2AE939E949E550E4C7012A
:10414000B6010E94992B87FD7DCE81E090E09A8395
:104150008983BE016F5F7F4F0E94911981E08A873A
:1041600071CE8EE00E944B0B8C7B682F64608EE0DA
:10417000C7CE82E00E942604892B09F060CF1F5F22
:1041800010938D0364EF71E080E090E00E941005D1
:1041900062E971E082E396E00E944D0F4BCF6EE53D
:1041A00072E082E396E00E94160F61E087E00E94D1
:1041B0004F0410928D0310918D03163038F160E09A
:1041C00087E00E944F041630B0F161E088E00E9461
:1041D0004F0410928D0310918D03163008F099C58D
:1041E00082E00E942604892B09F089C51F5F109385
:1041F0008D0364EF71E080E090E00E94100562E9B9
:1042000071E082E396E00E944D0FE5CF82E00E94CC
:104210002604892BA1F61F5F10938D0364EF71E0D4
:1042200080E090E00E94100562E971E082E396E090
:104230000E944D0FC0CF66E071E08FEC93E00E94CA
:10424000DA13811122C00E94060D0E94070B809193
:10425000B403811102C00E9418168091B403882310
:1042600009F43FCF0E94E51180EE93E00E94C01553
:104270006FEC73E082E396E00E94160F60EE73E04D
:1042800082E396E00E94160F2CCF62E082E727CFF0
:104290008530910509F42AC10CF4FCC0069709F099
:1042A00038CF8FEF92E00E94E90E1092B90362E3DB
:1042B00070E080E090E00E94100560E08DE00E94D8
:1042C0004F0460E083E00E944F0468EE73E080E0FA
:1042D00090E00E94100550C066E273E08FE893E022
:1042E0000E94E526BC01CE0101960E942A2D69E8B4
:1042F00073E0CE010A960E94E52669ED72E082E342
:1043000096E00E94D3028EE00E944B0BBE0187FD17
:1043100040C08091310681113CC0665F7F4F82E3CF
:1043200096E00E944D0F61ED72E082E396E00E94FC
:10433000D3020E94AB0920931D0630931E064093C2
:104340001F065093200660932106709322060E9458
:104350005E0F63EC72E082E396E00E94D3020E945B
:104360005107BE0181111CC06F5F7F4F82E396E051
:104370000E94160F0E942D0F80E090E0892B09F417
:10438000B0CE0E946103882309F4ABCE0E940000E6
:10439000A8CE6F5F7F4F82E396E00E94160FD9CFC1
:1043A000665F7F4F82E396E00E944D0F0E94070BED
:1043B0006CEB72E082E396E00E94D30280911901D7
:1043C0000E94D10D61EB72E082E396E00E94D3027D
:1043D0006091290570912A0582E396E00E94FA0E09
:1043E000C9CF8091B403811102C00E941816809138
:1043F000B4038823F9F00E94E5116BE273E082E3D5
:1044000096E00E94D30280EE93E00E94C01569E816
:1044100073E0811102C066E273E08AEB93E00E94D0
:10442000E526BC0182E396E00E94160F60E08DE075
:104430000E944F041092E0039FCF83E090E00E941F
:10444000E21381E10E94B40F882309F495CF809193
:10445000E00341E166E071E0882311F060EE73E073
:1044600088E890E00E94EB1941E16FEC73E088E886
:1044700090E00E94221182E396E00E94E50E60EE39
:1044800073E082E396E00E944D0F8DE193E00E947D
:10449000E90ED0CF84E090E00E94E21385E00E9414
:1044A000B40F882309F468CF45E062E672E082E841
:1044B00090E00E94EB1945E060EE73E082E890E046
:1044C0000E94EB1945E069EC73E082E890E00E94FD
:1044D000221182E396E00E94E50E69EC73E082E32C
:1044E00096E00E944D0F84E193E0D1CF85E090E00B
:1044F0000E94E2138EE00E94B40F882309F43CCF9F
:1045000041E050E06FE671E080EE93E00E944911D7
:10451000BC01CE0101960E942A2D42E050E06FE6D8
:1045200071E080EE93E00E944911BC0189E894E0BB
:104530000E942A2D70E060E0CE0101960E948D0B52
:1045400064E073E082E396E00E94D3020E94AB092C
:1045500020931D0630931E0640931F06509320069D
:1045600060932106709322060E945E0FBC0182E3D5
:1045700096E00E94160F5ECF0E94AB09752E209325
:104580001D0630931E0640931F065093200660932D
:104590002106709322068AE08D870E94070B68E649
:1045A00072E082E396E00E944D0F809119010E9413
:1045B000D10D6DE672E082E396E00E944D0F4091CE
:1045C000290550912A05052E000C660B770B77FF05
:1045D00050C082E396E00E94DA0D0E94060D6093BF
:1045E000B5037093B6038093B7039093B80364E761
:1045F00072E082E396E00E944D0F6091B5037091E6
:10460000B6038091B7039091B80342E00E94030E75
:1046100082E396E00E94E50EBE01635F7F4F89E072
:1046200090E00E941811B6E07B1229C065EB73E0A0
:104630008AE090E00E94B81969E275E08AE190E0B2
:104640000E94911969E171E08AE290E00E94791973
:104650008D85781649F089E090E09A838983672DEB
:10466000CE0101960E9460198EE393E00E94E90E4C
:1046700024CE2AE082E396E00E94850DAECFECE0E6
:104680007E1211C065EB73E08EE090E00E94B819D5
:1046900069E275E082E290E00E94911969E171E0BF
:1046A0008BE290E0D3CFFEE07F1211C065EB73E0A8
:1046B00082E190E00E94B81969E275E08EE190E035
:1046C0000E94911969E171E08CE290E0BFCF20E196
:1046D000E22E7E1011C065EB73E086E190E00E944F
:1046E000B81969E275E086E290E00E94911969E1EB
:1046F00071E08DE290E0AACF94E1F92E7F10A8CF6F
:104700008091B403811102C00E9418168091B403F5
:10471000882309F49DCF89E990E00E9487298823A6
:1047200009F4A8C01A86BE01665F7F4F89E990E050
:104730000E9418118A8581508A87BE01665F7F4F6B
:1047400089E990E00E9479196FEC73E08AEB93E0BD
:104750000E94E5261C01612C0E9443057B018C010F
:1047600020E030E0A9016E87FF86888B198B2A8BA9
:104770003B8B4C8B5D8B6AE772E080E895E00E9492
:10478000160F1092E003912C812C0E9443059B018F
:10479000AC0160E070E080E090E0AE84BF84C88847
:1047A000D988EA88FB880C891D890E94EC2C27385F
:1047B000334141055105610571058105910509F0F8
:1047C00080F580E895E00E945503892BF1F280E89E
:1047D00095E00E943303182F1A8219828983BE0143
:1047E0006F5F7F4F80EE93E00E940B2D1A3089F4AB
:1047F00068E872E080EE93E00E94312D009739F076
:104800008114910421F402960E94C7264C01109253
:10481000E0036DE871E080EE93E00E94312D892B7A
:1048200081F28110A7C11EE164EF71E080E090E0A9
:104830000E9410051150C1F763948820B9F06EE50D
:1048400073E089E894E00E94E5260E94C01541E1EA
:1048500066E071E088E890E00E94EB1941E16FECBE
:1048600073E088E890E00E94221104C004E006157D
:1048700008F072CF66E071E08FEC93E00E94DA13EB
:104880008111E6CE0E94E5111C8619821A821B82D4
:104890001C821B861A86BE016F5F7F4F8AE090E004
:1048A0000E94F210BE01665F7F4F8AE190E00E9495
:1048B000DE1068E573E089E894E00E94E526BC011B
:1048C00080EE93E00E940B2D69817A818B819C811F
:1048D0000E94D10CBC0180EE93E00E940B2D60E998
:1048E00073E089E894E00E94E526BC0180EE93E045
:1048F0000E940B2D4AE069E874E08A859B850E943E
:104900001327BC0180EE93E00E940B2DBE01645F73
:104910007F4F8AE290E00E94181160E973E089E815
:1049200094E00E94E526BC0180EE93E00E940B2DEE
:104930008C854AE069E874E090E00E941327BC018E
:1049400080EE93E00E940B2DBE016F5F7F4F8EE0E3
:1049500090E00E94F210BE01665F7F4F82E290E01D
:104960000E94DE1062E573E089E894E00E94E5268B
:10497000BC0180EE93E00E940B2D69817A818B81CE
:104980009C810E94D10CBC0180EE93E00E940B2D13
:1049900060E973E089E894E00E94E526BC0180EEBE
:1049A00093E00E940B2D4AE069E874E08A859B85BC
:1049B0000E941327BC0180EE93E00E940B2DBE01E4
:1049C000645F7F4F8BE290E00E94181160E973E012
:1049D00089E894E00E94E526BC0180EE93E00E9405
:1049E0000B2D8C854AE069E874E090E00E94132763
:1049F000BC0180EE93E00E940B2DBE016F5F7F4FE4
:104A000082E190E00E94F210BE01665F7F4F8EE16E
:104A100090E00E94DE106CE473E089E894E00E946C
:104A2000E526BC0180EE93E00E940B2D69817A811E
:104A30008B819C810E94D10CBC0180EE93E00E948E
:104A40000B2D60E973E089E894E00E94E526BC0143
:104A500080EE93E00E940B2D4AE069E874E08A85BD
:104A60009B850E941327BC0180EE93E00E940B2DD2
:104A7000BE01645F7F4F8CE290E00E94181160E9F4
:104A800073E089E894E00E94E526BC0180EE93E0A3
:104A90000E940B2D8C854AE069E874E090E00E944A
:104AA0001327BC0180EE93E00E940B2DBE016F5FC7
:104AB0007F4F86E190E00E94F210BE01665F7F4F5B
:104AC00086E290E00E94DE1066E473E089E894E0FC
:104AD0000E94E526BC0180EE93E00E940B2D6981C7
:104AE0007A818B819C810E94D10CBC0180EE93E085
:104AF0000E940B2D60E973E089E894E00E94E526AE
:104B0000BC0180EE93E00E940B2D4AE069E874E05E
:104B10008A859B850E941327BC0180EE93E00E944A
:104B20000B2DBE01645F7F4F8DE290E00E94181153
:104B300060E973E089E894E00E94E526BC0180EE1C
:104B400093E00E940B2D8C854AE069E874E090E0C8
:104B50000E941327BC0180EE93E00E940B2D80EE93
:104B600093E00E94C01560ED77E080E090E00E9445
:104B700010056ECD0E9443057B018C0120E030E0E2
:104B8000A9016E87FF86888B198B2A8B3B8B4C8BF8
:104B90005D8B65E373E080E895E00E94D302482CCA
:104BA000512CB20180E895E00E94FA0E109289041F
:104BB0000E9443059B01AC0160E070E080E090E062
:104BC000AE84BF84C888D988EA88FB880C891D898F
:104BD0000E94EC2C273833414105510561057105D0
:104BE0008105910511F008F05BC080E895E00E9416
:104BF0005503892B09F44BC080E895E00E943303EC
:104C0000182F1A8219828983BE016F5F7F4F89E84E
:104C100094E00E940B2D1A3041F76BE872E089E8AE
:104C200094E00E94312D892BE9F06CE270E089E874
:104C300094E00E94162D8C010E5F1F4F62E270E01F
:104C4000C8010E94162D009739F0DC011C92B801B2
:104C500083EA93E00E942A2DB8E5B093890410926C
:104C60008A04C3CF80918904883571F46DE070E0C7
:104C700089E894E00E94162DFC0110826AE874E035
:104C800080EE93E00E942A2D10928904AECF62E953
:104C900072E080EE93E00E94312D892B09F488CFD9
:104CA00060EE73E089E893E00E94DA13882371F0E4
:104CB00063EA73E0C1010E94DA1381111BC061E94C
:104CC00071E0C1010E94DA13811114C0812C66E9E0
:104CD00072E080E895E00E944D0FB20180E895E017
:104CE0000E94FA0E40E068E873E181E192E00E94E0
:104CF0003B14A2CD86E0682E88248394E8CF81E01F
:104D00008093B9030E942D0F60E088E00E944F0459
:104D1000E8C981E08093B903F7CF82E491E09093F2
:104D200033068093320680918703909188038253E3
:104D3000964071F4E0914506F0914606908180918D
:104D400047068095892380831092880310928703F9
:104D50000895EF920F931F93CF93DF93E80134E010
:104D600047FD34E1042E000C550B57FF03C051954D
:104D700041955109E32E022F242FAE010E944027B6
:104D8000CE01DF91CF911F910F91EF900895FC011B
:104D900088279927E89421912032E9F3293010F0EF
:104DA0002E30C8F32B3241F02D3239F4689404C010
:104DB0000E941E27820F911D219120532A30C0F39B
:104DC0001EF4909581959F4F0895FB01DC0105909D
:104DD0000D920020E1F70895FA01A191B0810097AA
:104DE00019F41097E1F0CD01DC01CD010D90002008
:104DF00011F4C00113C0FB012191222319F02015E9
:104E0000D9F7F3CFFB012191201519F41E921196C9
:104E100006C02223C1F70D900020A1F7D001FA01AE
:104E2000A193B0830895BB274A3031F4992322F42B
:104E3000BDE2909581959F4F0C9427277AE0979F2C
:104E4000902D879F802D910D11240895BB27FB0184
:104E50005527AA27880F991FAA1FA41710F0A41B73
:104E600083955051B9F7A05DAA3308F0A95DA193CD
:104E7000009779F7B111B1931192CB010C94772976
:104E8000A9E0B0E0E6E4F7E20C94A3296A01F22E6F
:104E9000B02E102FFBE3AF2EA01608F41BE31F5F0C
:104EA000012F27E0AE014F5F5F4F0E949F28BC019A
:104EB0008981982F9970913009F43FC09BE2E1FC01
:104EC00004C09E2D9170E0FC3AC05E2D5071E82F19
:104ED000E87083FF46C084E0911101C083E0EF2DAC
:104EE000E81B8F1508F0E0E0D6018E2F20E2552355
:104EF00051F1992329F0D6019C93C60101966C01CA
:104F000096012D5F3F4FE2FE24C08EE4D6018C93C4
:104F100091E411969C93119712968C93D9018E2F40
:104F200090E281111BC0E20FF32FF11D10828EEF72
:104F30009FEF2996ECE00C94BF299DE2C6CF90E24A
:104F4000C4CF2D9381508111FCCFCE0ED11CE0E057
:104F5000D0CF8EE6D6018C9391E6DBCF9D93815026
:104F6000E0CF482F447082FF3DC084E0911101C022
:104F700083E08F1510F4EF2DE81BD6018E2F20E271
:104F8000552309F1992329F0D6019C93C601019676
:104F90006C0196012D5F3F4FE2FE1BC089E4D601F4
:104FA0008C938EE411968C93119786E412968C93D1
:104FB000D9018E2F90E2882309F4B5CF9D938150BB
:104FC000FACF2D9381508111FCCFCE0ED11CE0E0A1
:104FD000D9CF89E6D6018C938EE611968C931197E2
:104FE00086E6E4CF9B0177FF02C030E020E0A1E03D
:104FF000B0E0911102C0B0E0A0E0F9013196AE0F2F
:10500000BF1F8B2C912CBB2009F461C05401EFEF22
:10501000AE1ABE0AAA0DBB1DFA161B0619F014F033
:105020004F2D4A1B511188C0E3FC59C07601A42FB3
:10503000B0E2A1114FC0C40ED11C992309F45BC08A
:1050400040E0D6011196F60190836D01552309F4D5
:1050500048C0012F060F9A81582F507184FF03C05A
:10506000913309F4015010160CF047C0093008F0D4
:1050700008E0EEE2FE2E5B01A01AB10885019194D2
:10508000819491082F3F320729F4D601FC92F60152
:1050900031966F016217730794F1021713077CF5BD
:1050A000DB01A21BB30BAA24A394B12CAC0EBD1E32
:1050B000AA0DBB1D11968C9121503109D601119674
:1050C00028153905F4F0F60180836D01DBCFB12C92
:1050D000A12CA0CFF701B1937F01A150AACF9111CC
:1050E000B0CFD601942F50E302C05D93915091113F
:1050F000FCCFC40ED11C40E0ACCF01E0BACF80E3BE
:10510000DBCF6217730731F4963388F4953311F4CB
:10511000552369F0F6018083FD01842F90E281110F
:1051200008C0A40FB11D1C9290E080E002CF81E383
:10513000F1CF91938150F3CF911183CF8ACF283053
:1051400008F027E03327DA01990F311D87FD9160C0
:1051500000966105710539F432602E5F3D9330E3AE
:105160002A95E1F708959F3F30F080387105610579
:1051700009F03C5F3C5F3D93913008F08068911DE1
:10518000DF93CF931F930F93FF92EF92192F987F86
:105190009695E92F96959695E90FFF27EE53FF4FC9
:1051A00099273327EE24FF24A701E70105900894EF
:1051B000079428F4360FE71EF81E491F511D660F8D
:1051C000771F881F991F0694A1F70590079428F46C
:1051D000E70EF81E491F561FC11D770F881F991F24
:1051E000661F0694A1F70590079428F4F80E491F4E
:1051F000561FC71FD11D880F991F661F771F069462
:10520000A1F70590079420F4490F561FC71FD81F18
:10521000990F661F771F881F0694A9F78491109530
:10522000177041F0D695C79557954795F794E79431
:105230001A95C1F7E8E6F0E068941590159135915C
:105240006591959105907FE27395E118F10A430B02
:10525000560BC90BD009C0F7E10CF11E431F561FB6
:10526000C91FD01D7EF4703311F48A95E6CFE894FF
:10527000015030F0080F0AF40027021708F4202F1D
:105280002395022F7A3328F079E37D932A95E9F765
:1052900010C07D932A9589F6069497956795379562
:1052A00017951794E118F10A430B560BC90BD00957
:1052B00098F023957E9173957A3308F070E37C9390
:1052C0002013B8F77E9170617D9330F0839571E380
:1052D0007D9370E32A95E1F71124EF90FF900F91F1
:1052E0001F91CF91DF91992787FD90950895DC015B
:1052F000FC01672F71917723E1F7329704C07C910D
:105300006D9370836291AE17BF07C8F30895F99942
:10531000FECF92BD81BDF89A992780B50895262FBA
:10532000F999FECF1FBA92BD81BD20BD0FB6F8948A
:10533000FA9AF99A0FBE019608952F923F924F92D2
:105340005F926F927F928F929F92AF92BF92CF9215
:10535000DF92EF92FF920F931F93CF93DF93CDB71E
:10536000DEB7CA1BDB0B0FB6F894DEBF0FBECDBF96
:1053700009942A88398848885F846E847D848C8467
:105380009B84AA84B984C884DF80EE80FD800C8170
:105390001B81AA81B981CE0FD11D0FB6F894DEBF53
:1053A0000FBECDBFED0108955058BB27AA270E941C
:1053B000EC290C945F2B0E94512B38F00E94582B43
:1053C00020F039F49F3F19F426F40C944E2B0EF480
:1053D000E095E7FB0C94482BE92F0E94702B58F3C3
:1053E000BA17620773078407950720F079F4A6F5CA
:1053F0000C94922B0EF4E0950B2EBA2FA02D0B01DE
:10540000B90190010C01CA01A0011124FF27591B09
:1054100099F0593F50F4503E68F11A16F040A22F0F
:10542000232F342F4427585FF3CF46953795279580
:10543000A795F0405395C9F77EF41F16BA0B620B7F
:10544000730B840BBAF09150A1F0FF0FBB1F661FC6
:10545000771F881FC2F70EC0BA0F621F731F841F09
:1054600048F4879577956795B795F7959E3F08F02F
:10547000B0CF9395880F08F09927EE0F97958795F1
:1054800008950E94242B08F481E008950E945A2A6E
:105490000C945F2B0E94582B58F00E94512B40F027
:1054A00029F45F3F29F00C94482B51110C94932B55
:1054B0000C944E2B0E94702B68F39923B1F3552363
:1054C00091F3951B550BBB27AA2762177307840717
:1054D00038F09F5F5F4F220F331F441FAA1FA9F3AD
:1054E00035D00E2E3AF0E0E832D091505040E6959B
:1054F000001CCAF72BD0FE2F29D0660F771F881FFC
:10550000BB1F261737074807AB07B0E809F0BB0BEE
:10551000802DBF01FF2793585F4F3AF09E3F510502
:1055200078F00C94482B0C94932B5F3FE4F3983E57
:10553000D4F3869577956795B795F7959F5FC9F7EB
:10554000880F911D9695879597F90895E1E0660F6C
:10555000771F881FBB1F621773078407BA0720F0E5
:10556000621B730B840BBA0BEE1F88F7E09508954E
:105570000E94782B88F09F5798F0B92F9927B75140
:10558000B0F0E1F0660F771F881F991F1AF0BA95E7
:10559000C9F714C0B13091F00E94922BB1E0089588
:1055A0000C94922B672F782F8827B85F39F0B93F7A
:1055B000CCF3869577956795B395D9F73EF490959A
:1055C0008095709561957F4F8F4F9F4F0895E89418
:1055D00009C097FB3EF490958095709561957F4F3B
:1055E0008F4F9F4F9923A9F0F92F96E9BB279395E9
:1055F000F695879577956795B795F111F8CFFAF4F9
:10560000BB0F11F460FF1BC06F5F7F4F8F4F9F4F29
:1056100016C0882311F096E911C0772321F09EE887
:10562000872F762F05C0662371F096E8862F70E0ED
:1056300060E02AF09A95660F771F881FDAF7880FC7
:105640009695879597F90895990F0008550FAA0B1D
:10565000E0E8FEEF16161706E807F907C0F0121685
:105660001306E407F50798F0621B730B840B950B88
:1056700039F40A2661F0232B242B252B21F40895DD
:105680000A2609F4A140A6958FEF811D811D08957A
:1056900097F99F6780E870E060E008959FEF80ECE5
:1056A000089500240A941616170618060906089588
:1056B00000240A9412161306140605060895092EEE
:1056C0000394000C11F4882352F0BB0F40F4BF2B5D
:1056D00011F460FF04C06F5F7F4F8F4F9F4F08959D
:1056E00057FD9058440F551F59F05F3F71F0479593
:1056F000880F97FB991F61F09F3F79F08795089578
:10570000121613061406551FF2CF4695F1DF08C096
:10571000161617061806991FF1CF869571056105B3
:1057200008940895E894BB2766277727CB0197F95B
:1057300008950E94242B08F48FEF08950E94B12B46
:105740000C945F2B0E94512B38F00E94582B20F0B4
:10575000952311F00C94482B0C944E2B11240C948F
:10576000932B0E94702B70F3959FC1F3950F50E01F
:10577000551F629FF001729FBB27F00DB11D639F03
:10578000AA27F00DB11DAA1F649F6627B00DA11DA9
:10579000661F829F2227B00DA11D621F739FB00D4F
:1057A000A11D621F839FA00D611D221F749F3327BF
:1057B000A00D611D231F849F600D211D822F762F58
:1057C0006A2F11249F5750409AF0F1F088234AF035
:1057D000EE0FFF1FBB1F661F771F881F91505040A1
:1057E000A9F79E3F510580F00C94482B0C94932B05
:1057F0005F3FE4F3983ED4F3869577956795B79528
:10580000F795E7959F5FC1F7FE2B880F911D969541
:10581000879597F908950E94782BE8F09E37E8F075
:105820009639B8F49E3848F4672F782F8827985F08
:10583000F9CF86957795679593959539D0F3B62FDF
:10584000B1706B0F711D811D20F487957795679559
:1058500093950C94342C0C944F2C0C94932B0E9405
:10586000242B880B990B0895882371F4772321F05A
:105870009850872B762F07C0662311F499270DC007
:105880009051862B70E060E02AF09A95660F771FA2
:10589000881FDAF7880F9695879597F908959F3FA7
:1058A00031F0915020F4879577956795B795880FDB
:1058B000911D9695879597F90895991B79E004C0F5
:1058C000991F961708F0961B881F7A95C9F780953F
:1058D0000895AA1BBB1B51E107C0AA1FBB1FA61737
:1058E000B70710F0A61BB70B881F991F5A95A9F789
:1058F00080959095BC01CD01089597FB072E16F475
:10590000009407D077FD09D00E94692C07FC05D0D0
:105910003EF4909581959F4F0895709561957F4FC6
:105920000895A1E21A2EAA1BBB1BFD010DC0AA1FE0
:10593000BB1FEE1FFF1FA217B307E407F50720F0F8
:10594000A21BB30BE40BF50B661F771F881F991F73
:105950001A9469F760957095809590959B01AC01BC
:10596000BD01CF010895052E97FB1EF400940E94FF
:10597000CA2C57FD07D00E94912C07FC03D04EF48F
:105980000C94CA2C50954095309521953F4F4F4F20
:105990005F4F089590958095709561957F4F8F4FDB
:1059A0009F4F0895A29FB001B39FC001A39F700DA8
:1059B000811D1124911DB29F700D811D1124911D17
:1059C00008950E94D22CA59F900DB49F900DA49F86
:1059D000800D911D112408952A193B094C095D0978
:1059E0006E097F09800B910B08952A153B054C0524
:1059F0005D056E057F05800791070895EE0FFF1F77
:105A00000590F491E02D0994DC0101C06D934150A3
:105A10005040E0F70895FB01DC010D900020E9F70C
:105A2000119701900D920020E1F70895FC018191FA
:105A3000861721F08823D9F7992708953197CF0148
:105A40000895FB01DC018D91019080190110D9F3BB
:105A5000990B0895FB01DC0101900D920020E1F704
:105A60000895FB0151915523A9F0BF01DC014D912F
:105A700045174111E1F759F4CD010190002049F09B
:105A80004D9140154111C9F3FB014111EFCF81E068
:105A900090E00197089512E0C3E1D2E004C0FE0156
:105AA0000E94FE2C2196C431D107C9F7F894FFCF8C
:105AB000F401F40102013130303030303030303018
:105AC0003031000000000024131E00000000960387
:105AD000F7022403DD0355033303470300000000EE
