:100000000C9410020C9438020C9438020C94B21B1D
:100010000C94B21B0C94B21B0C9438020C94380252
:100020000C9438020C94401B0C9438020C94380247
:100030000C9438020C9438020C9438020C94380258
:100040000C94D7190C9438020C94A5190C947F19B0
:100050000C9438020C9438020C9438020C94380238
:100060000C94211A0C94380200407A10F35A00A024
:10007000724E18090010A5D4E80000E87648170071
:1000800000E40B54020000CA9A3B000000E1F505B1
:10009000000080969800000040420F000000A086FB
:1000A00001000000102700000000E803000000002D
:1000B0006400000000000A000000000001000000D1
:1000C00000002C76D888DC674F0823DFC1DFAE59EB
:1000D000E1B1B796E5E3E453C63AE651997696E87E
:1000E000E6C28426EB898C9B62ED407C6FFCEFBC02
:1000F0009C9F40F2BAA56FA5F490055A2AF75C932D
:100100006B6CF9676DC11BFCE0E40D47FEF520E662
:10011000B500D0ED902E0300943577050080841E45
:10012000080000204E0A000000C80C333333330FA0
:10013000986E12831141EF8D2114893BE65516CF3D
:10014000FEE6DB18D1844B381BF77C1D901DA4BB49
:10015000E424203284725E228100C9F124ECA1E5FE
:100160003D27362D506F776572204F666600352D1E
:1001700053657420446174652F54696D6500342D96
:1001800053657420494400332D4368616E67652FC1
:10019000416464204D6173746572204E756D6265B3
:1001A0007200322D53656E64205465737420534D74
:1001B0005300312D54657374204861726477617205
:1001C00065004D656E753A004572726F72206D6103
:1001D000782073796D626F6C3A004E6577204461C8
:1001E00074652F54696D653A2000446174652F541D
:1001F000696D653A20004E6574776F726B3A200026
:1002000053696D3A2000205369676E616C3A200093
:10021000436F6E6E65637465643A20002026204942
:100220004D454920004D6F64656D3A200043686577
:10023000636B20546865200020762000290A5369EA
:10024000673D005628000A42617400630020543D57
:100250000025000A483D0030000A54696D65200001
:100260002B00683A20000A417420006B672E003D85
:1002700000494420004C4F572042415454455259A4
:1002800020210A001F1C1F1E1F1E1F1F1E1F1E1FB6
:1002900000000000240027002A00000000090003DD
:1002A000020000040508000000000000000000003B
:1002B000002043656C736975733A2000202048253F
:1002C0003A200054657374205349373032303A2055
:1002D0000020446174653A200054657374205254C0
:1002E000433A200041542B434D47523D000A3136DA
:1002F0006820000A31346820000A31326820000A80
:100300002036682000427965204F6C64204D61736F
:10031000746572203A2800206973206E6F74206122
:100320002076616C69642073656C656374696F6EB7
:100330002E0042796521004E657720446174652F57
:1003400054696D653A200020536176656420210070
:100350002053617665642021004641494C00536D6D
:10036000732053656E643A0041542B434D47533D0F
:100370002200457863656C6C656E7400476F6F642E
:10038000004F4B00426164002F002859592F4D4DFA
:100390002F44442C48483A4D4D2920456E746572CF
:1003A00020446174652C2054696D65203A00204515
:1003B0006E7465722049643A0020456E746572203F
:1003C0004E756D6265723A004E6F7420536574000D
:1003D00043757272656E743A2000000000002300BD
:1003E0002600290000000000250028002B0004043E
:1003F00004040404040402020202020203030303CD
:1004000003030202030102040810204080010204D9
:100410000810200102040810204080402A1CA82552
:1004200011241FBECFEFD8E0DEBFCDBF12E0A0E0A9
:10043000B1E0E6EEF8E502C005900D92AE37B107E7
:10044000D9F726E0AEE7B2E001C01D92AF32B207A5
:10045000E1F712E0CFE0D2E004C02197FE010E9454
:10046000192CCE30D107C9F70E94F51C0C94662CCC
:100470000C9400006115710581059105E1F581E09D
:1004800090E0A0E0B0E080935A0590935B05A093C4
:100490005C05B0935D058DE798E0909359058093D6
:1004A0005805809170008E7F809370008091B0001D
:1004B0008C7F8093B0008091B100877F8093B100E2
:1004C0008091B6008F7D8093B600809170008D7F03
:1004D000809370008091B10084608093B10080911E
:1004E000B1008C7F8093B10083E890E09093570532
:1004F00080935605089560935A0570935B05809329
:100500005C0590935D05C7CF909155059111FCCF87
:1005100091E090935505909354052FEF2093530548
:1005200010925205260F20935105909350059091FB
:100530005005880F892B8093500580914F0581309D
:10054000F9F410924F05809150058093BB00809183
:10055000BC0083FDF8CF85EC8093BC0080915505ED
:100560008130E1F380915205861710F460915205B5
:10057000AFE2B5E0EFE0F5E080E0861303C0089558
:1005800085EEEACF9D9191938F5FF7CF80910D0516
:1005900090910E05891B990B089508950895EF9287
:1005A000FF920F931F93CF93DF938C017B01D0E0D9
:1005B000C0E0F701EC0FFD1F6491662361F0D801E4
:1005C000ED91FC910190F081E02DC8010995892BF6
:1005D00011F02196EECFCE01DF91CF911F910F91B7
:1005E000FF90EF900895AF92BF92CF92DF92EF927B
:1005F000FF920F931F93CF93DF936C017B018B01CD
:10060000040F151FEB015E01AE18BF08C017D1071C
:1006100059F06991D601ED91FC910190F081E02DA6
:10062000C6010995892B79F7C501DF91CF911F91FB
:100630000F91FF90EF90DF90CF90BF90AF90089513
:10064000FC01538D448D252F30E0842F90E0821BD8
:10065000930B541710F0CF96089501970895FC015D
:10066000918D828D981761F0A28DAE0FBF2FB11DB5
:100670005D968C91928D9F5F9F73928F90E008950D
:100680008FEF9FEF0895FC01918D828D981731F0C7
:10069000828DE80FF11D858D90E008958FEF9FEF1B
:1006A0000895FC01918D228D892F90E0805C9F4FF1
:1006B000821B91098F73992708958EE595E00E941A
:1006C000510321E0892B09F420E0822F089580E076
:1006D00090E0892B29F00E945D0381110C940000A9
:1006E0000895FC01A48DA80FB92FB11DA35ABF4FC7
:1006F0002C91848D90E001968F739927848FA68921
:10070000B7892C93A089B1898C9180648C93938D47
:10071000848D981306C00288F389E02D80818F7D37
:1007200080830895EF92FF920F931F93CF93DF93EF
:10073000EC0181E0888F9B8D8C8D981316C0E88921
:10074000F989808185FF11C0EE89FF896083E8897E
:10075000F98980818064808381E090E0DF91CF918E
:100760001F910F91FF90EF900895F62E0B8D10E0E2
:100770000F5F1F4F0F731127E02E8C8D8E110CC051
:100780000FB607FCFACFE889F989808185FFF5CF9C
:10079000CE010E947103F1CFEB8DEC0FFD2FF11D07
:1007A000E35AFF4FF0820B8FEA89FB8980818062D8
:1007B000D2CFCF93DF93EC01888D8823B9F0AA893B
:1007C000BB89E889F9898C9185FD03C0808186FD0C
:1007D0000DC00FB607FCF7CF8C9185FFF2CF80815B
:1007E00085FFEDCFCE010E947103E9CFDF91CF915C
:1007F0000895843081F028F48230E9F08330F9F0F4
:100800000895883071F0893091F08530B9F4809185
:1008100080008F7D03C0809180008F77809380005F
:1008200008958091B0008F778093B00008958091F3
:10083000B0008F7DF9CF84B58F7784BD089584B5DE
:100840008F7DFBCFCF93DF93282F30E0F901E65661
:10085000FD4F8491F901EB5FFB4FD491F901E25117
:10086000FC4FC491CC23A1F081110E94F903EC2F1D
:10087000F0E0EE0FFF1FE652FC4FA591B491EC9112
:10088000ED2381E090E009F480E0DF91CF910895BD
:1008900080E090E0FACF1F93CF93DF93282F30E0D2
:1008A000F901E656FD4F8491F901EB5FFB4FD491BE
:1008B000F901E251FC4FC491CC23A9F0162F81110C
:1008C0000E94F903EC2FF0E0EE0FFF1FEC51FC4FFC
:1008D000A591B4918FB7F894EC91111108C0D095FF
:1008E000DE23DC938FBFDF91CF911F910895DE2B24
:1008F000F8CFCF93DF9390E0FC01EB5FFB4F2491A7
:1009000082519C4FFC0184918823C9F090E0880FAC
:10091000991FFC01E057FD4FA591B491FC01EC51EA
:10092000FC4FC591D49161110DC09FB7F8948C9183
:10093000209582238C938881282328839FBFDF9171
:10094000CF910895623051F49FB7F8943C91822F73
:10095000809583238C93E8812E2BEFCF8FB7F8946B
:10096000EC912E2B2C938FBFEACF3FB7F894809158
:100970005F0390916003A0916103B091620326B57B
:10098000A89B05C02F3F19F00196A11DB11D3FBFC7
:10099000BA2FA92F982F8827BC01CD01620F711D96
:1009A000811D911D43E0660F771F881F991F4A958F
:1009B000D1F708958F929F92AF92BF92CF92DF921C
:1009C000EF92FF926B017C010E94B5044B015C0128
:1009D000C114D104E104F104B9F00E94B50468190E
:1009E00079098A099B09683E73408105910580F366
:1009F00021E0C21AD108E108F10888EE880E83E0F0
:100A0000981EA11CB11CE4CFFF90EF90DF90CF9017
:100A1000BF90AF909F908F9008952FB7F8946091FA
:100A20005B0370915C0380915D0390915E032FBF27
:100A30000895DC0150E0E4E8F2E081E0861730F44C
:100A40009491490F511D8F5F3196F8CF633038F084
:100A5000CD0183709927892B11F44F5F5F4F9D0162
:100A60002D5F3F4F36952795369527956DE671E0BA
:100A7000A69FC001A79F900DB69F900D11240197CE
:100A8000820F931F840F951F08954F925F926F926C
:100A90007F928F929F92AF92BF92CF92DF92EF920E
:100AA000FF92CF93DF93EC016A017B012CE3822E4E
:100AB000912CA12CB12CCB01BA01A50194010E946B
:100AC000AC2B6D83CA01B901A50194010E94AC2B26
:100AD0006C83C701B60120E13EE040E050E00E9497
:100AE000AC2BCA01B90128E130E040E050E00E949F
:100AF000AC2B6B83C701B60120E831E541E050E043
:100B00000E94AC2B188263E9862E6EEF962EAA24E3
:100B1000AA94BA2C8881782F7370C12CD12C7601BD
:100B2000C394772319F0C12CD12C7601260137010B
:100B30009DE6490E91E0591E611C711C2415350576
:100B40004605570578F0240135014C185D086E08FC
:100B50007F08730162012C0D3D1D4E1D5F1D8F5FCF
:100B60008883D8CF81E089836981862F8150990B52
:100B7000FC01EC57FD4FE491711103C0623009F4A0
:100B8000EF5F8E2F90E0B0E0A0E0281739074A070A
:100B90005B0738F0281B390B4A0B5B0B6F5F6983CF
:100BA000E3CF2F5F2A83DF91CF91FF90EF90DF900B
:100BB000CF90BF90AF909F908F907F906F905F90FD
:100BC0004F900895FC019F012F5F3F4F80818F7EE2
:100BD000803269F080E02AE0919130ED390F3A30AF
:100BE00040F4829F900D112480ED890FF5CFF9011B
:100BF000EACF089585ED8093BC008091BC0084FD10
:100C0000FCCF10925505089520913703260F332706
:100C1000331F21323105ECF420915505FC0190E0A1
:100C200080E0243069F082E00895A091370321919B
:100C3000AC01495E5C4FA40FB52FB11D2C930196FA
:100C4000861798F380913703680F6093370380E02D
:100C5000089581E008951092550581E08093540530
:100C600010924F0561E082E10E944B0461E083E154
:100C70000E944B04E9EBF0E080818E7F80838081CD
:100C80008D7F808380E28093B80085E48093BC00F0
:100C900008950895E0910E0580910D05E81730F450
:100CA000F0E0E15FFA4F808190E008958FEF9FEFD1
:100CB000089590910E0580910D052FEF3FEF981745
:100CC00048F4E92FF0E0E15FFA4F208130E09F5FC8
:100CD00090930E05C9010895CF92DF92EF92FF9293
:100CE0000F931F93CF93DF937C01CB018A01209157
:100CF0000C05222389F0EB016B01C40ED51ECC1527
:100D0000DD0569F06991D701ED91FC910190F081C9
:100D1000E02DC7010995F3CF642F0E940406C80196
:100D2000DF91CF911F910F91FF90EF90DF90CF90C7
:100D30000895CF93DF931F92CDB7DEB769832091DB
:100D40000C052223F9F020910905203258F021E00A
:100D500030E0FC013383228390E080E00F90DF914C
:100D6000CF91089580910A05E82FF0E0E950FD4FFA
:100D7000998190838F5F80930A058093090581E0B4
:100D800090E0ECCF61E0CE0101960E940406F7CF1F
:100D90002091090581E0213208F044C08091550579
:100DA0008111FCCF80910B0592E09093550591E065
:100DB000909354059FEF9093530510925205209302
:100DC0005105A7EFB2E0EFE2F5E090E0291331C062
:100DD0001092500590915005880F892B80935005F3
:100DE00080914F05813049F510924F058091500553
:100DF0008093BB008091BC0083FDF8CF85EC80938D
:100E0000BC00809155058230E1F3809153058F3FFE
:100E1000B1F0809153058032A1F080915305803369
:100E200091F084E010920A051092090510920C05C9
:100E300008953D9131939F5FC9CF85EEE0CF80E06B
:100E4000F1CF82E0EFCF83E0EDCF21E020930C05DE
:100E500020E420930B0510920A0510920905FC016D
:100E6000608181E096E00E94990681E096E00C9412
:100E7000C8061F93CF93DF93162FCDE0D6E0A8814D
:100E8000B98191E090930C0598E690930B05109230
:100E90000A0510920905ED91FC9111970190F081DE
:100EA000E02D682FCD01099588819981DC01ED91B4
:100EB000FC910190F081E02D612F09958881998145
:100EC0000E94C8068A83DF91CF911F9108951092E6
:100ED000F3021092F4021092F5021092F6021092B0
:100EE000F20280915605909157058093B200E0E799
:100EF000F0E08081816080830895209165033091C6
:100F000066032817390771F4909163038091640395
:100F1000981741F0E0916303F0E0EE54FD4F8081BB
:100F200090E008958FEF9FEF0895EF92FF920F9357
:100F30001F93CF93DF93DC015C96ED90FC905D975F
:100F4000E114F10479F481E090E013969C938E9380
:100F5000129790E080E0DF91CF911F910F91FF9069
:100F6000EF9008955196ED91FC91529750968C9187
:100F70005097982F90950FB75E962C915E97122FF1
:100F8000127021FD6095F8942081112319F1282B0E
:100F90002083E7012197F1F728E0462F50E03081C8
:100FA00060FF1AC0382B3083E7012197F1F7BA01AF
:100FB00075956795215089F7112381F080818923E8
:100FC00080830FBF5C968D919C910197F1F781E032
:100FD00090E0C1CF2923DCCF3923E5CF9081892B45
:100FE000EFCF20916503309166032817390771F41C
:100FF000809164032091630390E0805C9F4F821B8B
:10100000910960E470E00E94982B089590E080E0E0
:101010000895209165033091660328173907B9F4C4
:101020009091630380916403981789F0E0916303C2
:10103000F0E0EE54FD4F80812091630330E02F5F9C
:101040003F4F2F7333272093630390E008958FEF72
:101050009FEF089590E080E00895E0E7F0E0808160
:101060008E7F808310927F0260E084E00E944B04B8
:1010700060E087E00E944B0460E088E00C944B0441
:10108000EF92FF920F931F93CF93DF93C82F162FEA
:101090000E942D0880916C03882341F11F5F08E0B6
:1010A000C23721F007E0C73609F000E0C1E0D0E028
:1010B000812F8150990B7C0161E0802F0E944B04AD
:1010C00064EF71E080E090E00E94DA0460E0802F3D
:1010D0000E944B04EC16FD0631F064EF71E080E0F5
:1010E00090E00E94DA042196C11730F3DF91CF918E
:1010F0001F910F91FF90EF900895CF9380916C0313
:10110000882341F180917F028823E1F0C09105019D
:101110006C2F809104010E944B0481E0C827C0938A
:1011200005016091020170910301C11104C0609139
:1011300000017091010190E080E00E943A02CF919D
:101140000C946707809170008E7F80937000CF9120
:101150000C942D08CF9108958F929F92AF92BF92D9
:10116000DF92EF92FF920F931F93CF93DF9300D004
:101170001F92CDB7DEB78EE00E942204892B31F09A
:1011800060E070E0CB010E94DA04F5CF93E0D92E45
:10119000812C912C54018394DA948FEFD81225C0BE
:1011A00061E08FE00E944B0460E08FE00E944B04FE
:1011B00061E08FE00E944B0460E08FE00E944B04EE
:1011C0002B81205869817A8190E0822F0F900F90B7
:1011D0000F90DF91CF911F910F91FF90EF90DF90D3
:1011E000BF90AF909F908F90089507E010E0EE249D
:1011F000E394F12CEC0EFD1EED0CF11C61E08FE090
:101200000E944B048EE00E942204B501A401002E2E
:1012100004C0440F551F661F771F0A94D2F7F701C9
:101220002081892B51F0422B408360E08FE00E94A7
:101230004B040150110910F7AFCF40954223F4CF72
:101240008F929F92AF92BF92CF92DF92EF92FF92D6
:10125000CF93DF93EC010E94AC086B017C010E94EC
:10126000AC08C60ED71EE81EF91E0E94AC086C0D15
:101270007D1D8E1D9F1D23E0C22ED12CE12CF12C53
:10128000A70196010E94CE2BCA01B9010E94042A2F
:10129000688379838A839B830E94AC084B015C013D
:1012A0000E94AC08860E971EA81EB91E0E94AC08AC
:1012B000680D791D8A1D9B1DA70196010E94CE2BEA
:1012C000CA01B9010E94042A688379838A839B83B7
:1012D000DF91CF91FF90EF90DF90CF90BF90AF90D4
:1012E0009F908F900895DC01ED91FC910190F08129
:1012F000E02D0994CF93DF93EC0162E080E40E943B
:10130000840210920E0580930D058230F0F381E087
:1013100096E00E945906888381E096E00E94590673
:10132000898381E090E0DF91CF910895CF93DF939F
:1013300000D000D0CDB7DEB783EE8C83CE0104960B
:101340000E942507CE0101960E947A0929813A81DF
:10135000322723273227A4EAB4E40E94ED2B8D54D0
:10136000924164E670E00E94982B709308056093A8
:10137000070585EE8B83CE0103960E942507CE01DB
:1013800001960E947A0929813A8132272327322740
:10139000ADE7B0E00E94ED2B0697843648F48093C9
:1013A00019010F900F900F900F90DF91CF9108953A
:1013B00083E6F5CFDF92EF92FF920F931F93CF93C7
:1013C000DF93CDB7DEB72C970FB6F894DEBF0FBE14
:1013D000CDBF80910D0690910E0621E020930C0563
:1013E00028E620930B0510920A0510920905DC01EE
:1013F000ED91FC910190F081E02D60E009958091E4
:101400000D0690910E060E94C80680930F06882351
:1014100031F140E050E0BA01CE0101960E9445054D
:1014200086E0FE013196DE01179601900D928A95B5
:10143000E1F72F81388549855A856B857C8580E069
:1014400090E02C960FB6F894DEBF0FBECDBFDF91B3
:10145000CF911F910F91FF90EF90DF90089567E07B
:1014600088E60E94840210920E0580930D05873055
:10147000A1F084E080930F0640E050E0BA01CE0175
:1014800007960E94450586E0FE013796DE0111961B
:1014900001900D928A95E1F7C3CF80910D0690914E
:1014A0000E06DC01ED91FC910284F385E02D099597
:1014B0008F77282F30E0F4E035952795FA95E1F7FE
:1014C000922F990F990F022F091B000F080F80917F
:1014D0000D0690910E06DC01ED91FC910284F385DE
:1014E000E02D09959C01A4E035952795AA95E1F793
:1014F0002F703327922F990F990FF22EF91AFF0CA4
:10150000F80E80910D0690910E06DC01ED91FC9194
:101510000284F385E02D099586FF7CC0982F9F718A
:10152000292F30E0E4E035952795EA95E1F7322F51
:10153000330F330F122F131B110F190F85FD145F7B
:1015400080910D0690910E06DC01ED91FC910284D4
:10155000F385E02D099580910D0690910E06DC0132
:10156000ED91FC910284F385E02D09959C0144E006
:10157000359527954A95E1F72F703327922F990FCC
:10158000990FE22EE91AEE0CE80E80910D0690916B
:101590000E06DC01ED91FC910284F385E02D0995A6
:1015A000D82E80910D0690910E06DC01ED91FC91F4
:1015B0000284F385E02D0995AC0164E055954795CB
:1015C0006A95E1F74F705527942F990F990F242FA3
:1015D000291B220F280F30E0A9014053584FD7FE96
:1015E00002C04C595F4F8D2D8F77405D4F83282F60
:1015F00030E094E0359527959A95E1F7922F990F71
:10160000990F291B220F280F2887E9861A87FB8646
:101610000C870FCF9C0174E0359527957A95E1F7FB
:101620002F703327922F990F990F122F191B110F1B
:10163000180F86CFCF93A0910D06B0910E0691E0C2
:1016400090930C0598E690930B0510920A05109262
:101650000905ED91FC9111970190F081E02D682F23
:10166000CD01099580910D0690910E060E94C80645
:10167000C82F80930F0681111DC061E088E60E948B
:10168000840210920E0580930D05813031F084E0C4
:1016900080930F068C2FCF91089580910D06909125
:1016A0000E06DC01ED91FC910284F385E02D099595
:1016B000C82FF0CFC0E0EECFAF92BF92CF92DF92B3
:1016C000EF92FF920F931F93CF93DF9300D000D040
:1016D00000D0CDB7DEB78C016B010E94E205E82E89
:1016E000C80103960E94E205B82EC80106960E9422
:1016F000E205A82E87E694E00E94E205082F8AE61C
:1017000094E00E94E205182F8DE694E00E94E20525
:10171000F82E4A2D6B2D8E2D90E00E9419059C010C
:10172000A8E1B0E00E94ED2B9B01AC01200F311D20
:10173000411D511DACE3B0E00E94FC2B9B01AC01AC
:10174000210F311D411D511D0E94FC2B40E15EE027
:10175000C49E9001C59E300DD49E300D1124890188
:10176000330F220B330B0F0D111D211D311DAB014A
:10177000BC01400F511F621F731FCE0101960E94D2
:101780004505E9801A81FB80DC80CD80BE808FE03A
:101790000E941A0B682F6F778FE00E9439078091A3
:1017A0000D0690910E0621E020930C0528E620936B
:1017B0000B0510920A0510920905DC01ED91FC91D0
:1017C0000190F081E02D60E00995A0910D06B091A7
:1017D0000E060AE08B2D602F0E94782B682F660F73
:1017E000680F660F6B0DED91FC9111970190F081E0
:1017F000E02DCD010995A0910D06B0910E068C2D1E
:10180000602F0E94782B682F660F680F660F6C0D93
:10181000ED91FC9111970190F081E02DCD0109959A
:10182000A0910D06B0910E068D2D602F0E94782B91
:10183000682F660F680F660F6D0DED91FC91119783
:101840000190F081E02DCD010995B3E60CE90E0D74
:1018500090E8D92EBE1510F00E2DD12C4F2D612FF2
:101860008E2D90E00E941905069667E070E00E94B8
:10187000842B682F811101C067E080910D06909143
:101880000E06DC01ED91FC910190F081E02D0995AF
:10189000A0910D06B0910E068AE0E82E8F2D6E2DD8
:1018A0000E94782B682F660F680F660F6F0DED9101
:1018B000FC9111970190F081E02DCD010995812FC8
:1018C0006E2D0E94782B682F660F680F660F610FD0
:1018D000862F8D29682F70E080910D0690910E065D
:1018E0000E947309A0910D06B0910E06802F6E2DF7
:1018F0000E94782B682F660F680F660F600FED91BE
:10190000FC9111970190F081E02DCD010995809116
:101910000D0690910E060E94C80680930F0626962B
:101920000FB6F894DEBF0FBECDBFDF91CF911F91F0
:101930000F91FF90EF90DF90CF90BF90AF90089500
:10194000CF92DF92EF92FF920F931F93CF936B0191
:101950007C0120E030E0A9010E945C29C5E087FFFE
:10196000C4E020E030E0A901C701B6010E94B42A1A
:1019700087FD0BC020E030E040E251E4C701B60132
:101980000E945C2918160CF0C3E007E614E021E081
:101990004C2FC701B6010E94C425CF911F910F9112
:1019A000FF90EF90DF90CF900895CF92DF92EF926B
:1019B000FF92CF93DF9300D000D0CDB7DEB7CE013A
:1019C00001960E94200920916304309164044091A3
:1019D00065045091660469817A818B819C810E94A3
:1019E000EF286B017C01609117017091180190E064
:1019F00080E00E94022A9B01AC01C701B6010E944F
:101A0000612920E030E040E251E40E94B92A0E94BE
:101A1000262B20E030E040E251E40E9461296B0176
:101A20007C012DEC3CEC4CE45DE30E945C2987FDDD
:101A300027C0C982DA82EB82FC8220E030E046E9EE
:101A400053E469817A818B819C810E94B42A1816A3
:101A500044F480E090E0A6E9B3E489839A83AB8301
:101A6000BC8369817A818B819C810F900F900F904C
:101A70000F90DF91CF91FF90EF90DF90CF9008957E
:101A800019821A821B821C82D8CFFB010190002090
:101A9000E9F73197AF01461B570BDC01ED91FC9143
:101AA0000280F381E02D09948F929F92AF92BF92B2
:101AB000EF92FF920F931F93CF93DF93CDB7DEB7D3
:101AC000A1970FB6F894DEBF0FBECDBF7C01FA011F
:101AD000CB0119A2223008F42AE08E010F5D1F4FBE
:101AE000822E912CB12CA12CBF01A50194010E9442
:101AF000AC2BF901CA016A300CF5605DD8016E9318
:101B00008D01232B242B252B79F790E080E0109773
:101B100021F0BD01C7010E94450DA1960FB6F894B2
:101B2000DEBF0FBECDBFDF91CF911F910F91FF9010
:101B3000EF90BF90AF909F908F900895695CDECF3B
:101B40004F925F926F927F928F929F92AF92BF92CD
:101B5000CF92DF92EF92FF920F931F93CF936B017F
:101B60007C01742EAC019B010E944A2B60E571E060
:101B7000811126C046015701E894B7F82FEF3FEFD7
:101B80004FE75FE7C501B4010E944A2B81110CC0E9
:101B90002FEF3FEF4FE75FE7C501B4010E945C29DB
:101BA00064E571E0181664F02FEF3FEF4FE75FE454
:101BB000C701B6010E94B42A1816ACF468E571E0BA
:101BC00080E196E0CF911F910F91FF90EF90DF9011
:101BD000CF90BF90AF909F908F907F906F905F90CD
:101BE0004F900C94450D2FEF3FEF4FE75FECC7018F
:101BF000B6010E945C2987FDE1CF20E030E0A90119
:101C0000C701B6010E945C2910E000E087FF0AC00E
:101C10006DE280E196E00E9495078C01F7FAF0945E
:101C2000F7F8F094C0E060E070E080E09FE37C169D
:101C300041F020E030E040E251E40E946129CF5FB2
:101C4000F6CFA70196010E94F0282B013C010E94CB
:101C5000D3294B015C012AE0BC01A40180E196E09C
:101C60000E94540D7C01E00EF11ECC23D1F1C50180
:101C7000B4010E94022A9B01AC01C301B2010E947F
:101C8000EF284B015C016EE280E196E00E9495072F
:101C9000E80EF91EC15028F120E030E040E251E4A6
:101CA000C501B4010E94B92A2B013C010E94D3292D
:101CB0004B01B12CA12C2AE0B501A40180E196E0F2
:101CC0000E94540DE80EF91EC501B4010E94022ABB
:101CD0009B01AC01C301B2010E94EF284B015C01E2
:101CE000D9CFC701CF911F910F91FF90EF90DF9057
:101CF000CF90BF90AF909F908F907F906F905F90AC
:101D00004F9008956DE871E00C94450DCF93DF93EB
:101D1000BC0180E196E00E94CF02EC0180E196E0F8
:101D20000E94820E8C0F9D1FDF91CF910895CF925C
:101D3000DF92EF92FF920F931F93CF93DF93EC010B
:101D40006B01770FEE08FF08F7FE23C0E881F981E9
:101D50000190F081E02D6DE209958C014427552713
:101D6000BA014C195D096E097F092AE0CE010E9473
:101D7000540D080F191FCE010E94820E800F911F73
:101D8000DF91CF911F910F91FF90EF90DF90CF9057
:101D900008952AE0B701A6010E94540D8C01EBCFF3
:101DA0000F931F93CF93DF938C01D0E0C0E06115B8
:101DB000710519F00E94450DEC01C8010E94820EC8
:101DC0008C0F9D1FDF91CF911F910F91089580E19E
:101DD00096E00E94820E82EC91E00E94860E82EBD9
:101DE00091E00E94860E82EA91E00E94860E87E8CA
:101DF00091E00E94860E8EE791E00E94860E8EE6AC
:101E000091E00E94860E82E691E00C94860E6115A8
:101E1000710511F00C94450D90E080E00895CF938A
:101E200023EC33E0F90101900020E9F79F01245CE5
:101E3000334082171306C8F4C82F68EC71E080E1C4
:101E400096E00E94CF024C2F50E070E060E02AE064
:101E500080E196E00E94540D80E196E00E94820E9F
:101E60001092C30380E0CF91089581E0FCCF0F93DF
:101E70001F93CF93DF9300D0CDB7DEB762E370E05E
:101E800080E090E00E94DA0480E196E00E94090878
:101E90008C011A82198289836AE070E080E090E008
:101EA0000E94DA0417FDF0CF0D30110559F00A3009
:101EB000110541F0BE016F5F7F4F83EC93E00E94FC
:101EC000262CE2CF80E00F900F90DF91CF911F91F1
:101ED0000F9108952F923F924F925F927F928F922F
:101EE0009F92AF92BF92CF92DF92EF92FF920F93A9
:101EF0001F93CF93DF93CDB7DEB72A970FB6F89431
:101F0000DEBF0FBECDBF2C018B014A012DB63EB600
:101F1000FA011082FB0101900020E9F7CF01861B36
:101F2000970B0396EDB6FEB6E81AF90A0FB6F894C9
:101F3000FEBE0FBEEDBE2DB73EB72F5F3F4F69010E
:101F40006CE571E0C8010E944C2C892B21F56CE5F1
:101F500071E0C6010E94452CB801C6010E94262CE2
:101F60000E940D057B018C0120E030E0A9016B830C
:101F7000FC828D831E832F83388749875A878EE59D
:101F800095E00E9451031816190654F48EE595E069
:101F90000E942F03F4CFB801C6010E94452CE0CF68
:101FA000B6018EE595E00E94D00E712C0E940D05C1
:101FB0009B01AC0160E070E080E090E0AB80BC8011
:101FC000CD80DE80EF80F88409851A850E94072C79
:101FD000273E334041055105610571058105910595
:101FE00009F030F58EE595E00E945103892BF1F25E
:101FF0008EE595E00E942F03182F1A82198289839B
:10200000BE016F5F7F4FC4010E94262C1A3019F069
:102010001FE9171590F5B201C4010E944C2C892BC1
:1020200059F460E671E0C4010E944C2C892B11F137
:1020300086E4F40180831182C4010FB6F8943EBE99
:102040000FBE2DBE2A960FB6F894DEBF0FBECDBFD1
:10205000DF91CF911F910F91FF90EF90DF90CF9084
:10206000BF90AF909F908F907F905F904F903F90E8
:102070002F900895F4011082712C7394B3CF0F93B5
:102080001F93CF93DF938C01EB010E94A2288883DA
:10209000C80101960E94A2288983CE01DF91CF91C9
:1020A0001F910F910895CF92DF92EF92FF920F93BD
:1020B0001F93CF93DF93EB017B0124E0E20EF11C31
:1020C0008B016C01C61AD70AC601800F911F0E94AE
:1020D000A228F80181938F01EE15FF05A9F7CE0123
:1020E000DF91CF911F910F91FF90EF90DF90CF90F4
:1020F0000895CF93DF93EB010E94A2288883CE013D
:10210000DF91CF910895CF92DF92EF92FF920F93DC
:102110001F93CF93DF938B01C42F7B016C01C61AF1
:10212000D70AC6018E0D9F1D0E94A228F701819338
:102130007F018E2F801B8C17A0F3C00FD12FD11DD4
:102140001882DF91CF911F910F91FF90EF90DF9058
:10215000CF900895CF92DF92EF92FF920F931F934B
:10216000CF93DF9300D0CDB7DEB76B017A01BC010E
:1021700080E892E00E94452C01E010E020E832E087
:10218000AE014F5F5F4FB601C9010E94072600975D
:1021900039F00F5F1F4F30E020E0E016F10684F7C2
:1021A0000F900F90DF91CF911F910F91FF90EF90C3
:1021B000DF90CF900895CF93C5E047E654E063E603
:1021C00071E087E691E00E946A0F8091670486348F
:1021D00081F464EF71E080E090E00E94DA04C15085
:1021E00061F76DE072E087E694E00E94452CC0E064
:1021F00027C06CE270E087E694E00E94312C892BC6
:1022000081F342E050E067E572E087E694E00E94E7
:10221000AA10BC0187E694E00E94452C41E050E002
:102220006DE671E087E694E00E94AA10BC0187E6A3
:1022300094E00E94452C87E694E00E94E225C82F96
:1022400068E873E08DE993E00E940026BC0187E610
:1022500094E00E94262C64E873E0CA3068F086EFB0
:102260008C0F61E873E0853038F0CF506CE773E095
:10227000C53010F062E773E08DE993E00E9400261C
:10228000BC0187E694E0CF910C94262C7F928F922C
:102290009F92AF92BF92CF92DF92EF92FF920F93F5
:1022A0001F93CF93DF93CDB7DEB72A970FB6F8947D
:1022B000DEBF0FBECDBF0E94DA095C836D83C09084
:1022C0006703D0906803E0906903F0906A0323E30A
:1022D00033E343E550E4C701B6010E94EF2826E648
:1022E00036E646E65FE30E94612920E030E048ECF4
:1022F00052E40E94B92A0E94262B0E94D329762EEE
:102300001F82188619861A86BE01695F7F4F8AE38D
:1023100090E00E9453102F81388549855A8560913D
:102320009703709198038091990390919A030E946A
:10233000EF2820E030E040E251E40E94B92A0E94F8
:10234000262B20E030E040E251E40E9461294B015D
:102350005C011092C30323E333E343E550E4C70178
:10236000B6010E94B42A87FD84C126E636E646E619
:1023700050E4C701B6010E945C2918160CF479C11B
:1023800065E772E087E694E00E940026BC0183ECDA
:1023900093E00E94452C10E061E772E087E694E04C
:1023A0000E940026BC0183EC93E00E94262C6CEA7C
:1023B00073E083EC93E00E94262C6FE672E087E6E0
:1023C00094E00E940026BC0183EC93E00E94262C3E
:1023D00060919703709198038091990390919A036B
:1023E0000E94A00CBC0183EC93E00E94262C6BE6BB
:1023F00072E087E694E00E940026BC0183EC93E043
:102400000E94262C66E672E087E694E00E94002691
:10241000BC0183EC93E00E94262C4AE067E674E05E
:1024200084E190E00E942E26BC0183EC93E00E94A0
:10243000262C62E672E087E694E00E940026BC014A
:1024400083EC93E00E94262C20E030E0A901C50136
:10245000B4010E94B42A18165CF460E672E087E6C4
:1024600094E00E940026BC0183EC93E00E94262C9D
:10247000C501B4010E94A00CBC0183EC93E00E9452
:10248000262C6BE672E087E694E00E940026BC01F1
:1024900083EC93E00E94262C69E572E087E694E0E5
:1024A0000E940026BC0183EC93E00E94262C8C81C4
:1024B0004AE067E674E090E00E942E26BC0183ECBF
:1024C00093E00E94262C0D8160EE71E083EC93E096
:1024D0000E94262C0A3058F467E572E087E694E003
:1024E0000E940026BC0183EC93E00E94262C4AE067
:1024F00067E674E0802F90E00E942E26BC0183ECFA
:1025000093E00E94262C112319F163E572E087E61F
:1025100094E00E940026BC0183EC93E00E94262CEC
:10252000809119014AE067E674E090E00E942E264F
:10253000BC0183EC93E00E94262C61E572E087E603
:1025400094E00E940026BC0183EC93E00E94262CBC
:102550006DE472E087E694E00E940026BC0183EC03
:1025600093E00E94262C4AE067E674E0809107051C
:10257000909108050E942E26BC0183EC93E00E94F6
:10258000262C6BE472E087E694E00E940026BC01F2
:1025900083EC93E00E94262C66E472E087E694E0E8
:1025A0000E940026BC0183EC93E00E94262C6FE67B
:1025B00072E087E694E00E940026BC0183EC93E081
:1025C0000E94262C609167037091680380916903D3
:1025D00090916A030E94A00CBC0183EC93E00E94DE
:1025E000262C63E472E087E694E00E940026BC019A
:1025F00083EC93E00E94262C4AE067E674E0872D86
:1026000090E00E942E26BC0183EC93E00E94262CD1
:1026100061E572E087E694E00E940026BC0183EC4D
:1026200093E00E94262C6CE372E087E694E00E941F
:102630000026BC0183EC93E00E94262C0E94DB1054
:1026400067E674E083EC93E02A960FB6F894DEBF59
:102650000FBECDBFDF91CF911F910F91FF90EF90F3
:10266000DF90CF90BF90AF909F908F907F900C9411
:10267000262C11E091CE0E943C2C21E0892B09F000
:1026800020E0822F0895CF93DF93EC011092C303D3
:1026900080E196E00E94820E60ED73E080E196E0BA
:1026A0000E94CF02C330D10509F566E071E082EBEC
:1026B00093E00E943B13882391F068EC73E080E183
:1026C00096E00E94CF0269EB73E080E196E00E9401
:1026D000CF020E94370FDF91CF910C94E70E62EB8F
:1026E00073E080E196E00E94070FEDCFC430D10582
:1026F00049F46CEA73E080E196E00E94070F6EEA0D
:1027000073E0E3CF259739F70E94DA092093FB05A0
:102710003093FC054093FD055093FE056093FF0543
:102720007093000670E060E080E196E00E94D00EB9
:102730006AE873E0CACF2F923F924F925F926F92F6
:102740007F928F929F92AF92BF92CF92DF92EF9241
:10275000FF920F931F93CF93DF93CDB7DEB76697AA
:102760000FB6F894DEBF0FBECDBF3B01542EEDB6C1
:10277000FEB6FE8AED8AFC0101900020E9F7319750
:102780008F01081B190B68012FEFC21AD20A4DB72F
:102790005EB74C195D090FB6F8945EBF0FBE4DBF12
:1027A0006DB77EB76F5F7F4F7B01BC01C7010E9491
:1027B000452C8DB79EB78C199D090FB6F8949EBF16
:1027C0000FBE8DBFADB7BEB711964D01A60170E02B
:1027D00060E0CD010E941F2C6701C701800F911F8F
:1027E000F70122242394312CE817F90739F02191BD
:1027F0002C32D1F7BFEF2B1A3B0AF6CF5101AA0CAE
:10280000BB1CEDB7FEB7EA19FB090FB6F894FEBF83
:102810000FBEEDBF2DB73EB72F5F3F4F3A872987D9
:10282000A50170E060E0C9010E941F2C4DB75EB7A2
:102830004A195B090FB6F8945EBF0FBE4DBF6DB766
:102840007EB76F5F7F4F7C876B87A50170E060E08C
:102850008B859C850E941F2CA985BA85ED92FC92E0
:10286000EB85FC859182808230E020E041E050E001
:102870002017310701F1D6018D916D012F5F3F4F78
:102880008C32B1F7FD0131971082CA01880F991F70
:10289000E985FA85E80FF91FB183A083EB85FC85F4
:1028A0008E0F9F1FB401620F731FDC016D937C9329
:1028B0004F5F5F4FDDCF0E940D057B018C0120E053
:1028C00030E0A9016983FA828B831C832D833E83C8
:1028D0004F835887912C812C830130E020E040E029
:1028E00050E0BA016D861E872F87388B498B5A8B33
:1028F0006B8B7C8B0E940D059B01AC0160E070E04E
:1029000080E090E0A980BA80CB80DC80ED80FE8002
:102910000F8118850E94072CAD84BE84C12CD12C58
:10292000E12CF12C00E010E00E94102C08F085C092
:102930008EE595E00E945103892BE1F28EE595E04A
:102940000E942F03482E552049F010EA8116910469
:1029500008F45EC01092C303912C812CCB84DC84DC
:10296000E984FA8410E000E00215130509F336014A
:10297000D6018D919C91FC0101900020E9F7AF01F7
:1029800041505109481B590B5701D701ED91FC915A
:10299000E40FF51F2081241148C0480F591FFA0188
:1029A0004082F2E0CF0ED11C22E0E20EF11CD301F6
:1029B0006D917C91F501808191810E943C2C892B45
:1029C000C9F5552021F0F401ED53FC4F1082C801E8
:1029D000ED88FE880FB6F894FEBE0FBEEDBE66967B
:1029E0000FB6F894DEBF0FBECDBFDF91CF911F9120
:1029F0000F91FF90EF90DF90CF90BF90AF909F909E
:102A00008F907F906F905F904F903F902F900895A0
:102A1000F401ED53FC4F80832FEF821A920A30EAC3
:102A20008316910409F09ACF95CF70E060E00E9480
:102A30001F2CB7CF0F5F1F4F97CF8FEF9FEFC8CFE0
:102A40000F931F93CF93DF9300D0CDB7DEB78C01E8
:102A50008AE189831A8268E673E08EE595E00E9438
:102A6000CF0262EB73E08EE595E00E94070F65E60A
:102A700072E08EE595E00E94D00E40E060EE7EE2CE
:102A80008FE691E00E949B13892BB1F4B8018EE58B
:102A900095E00E94070FBE016F5F7F4F8EE595E0C6
:102AA0000E94D00E40E060EE7EE287E791E00E9457
:102AB0009B1321E0892B09F020E0822F0F900F90CB
:102AC000DF91CF911F910F910895BC018EE595E0A4
:102AD0000E94D00E40E060ED77E083E891E00E9434
:102AE0009B1321E0181619060CF020E0822F0895A0
:102AF000CF92DF92EF92FF920F931F93CF93DF93CA
:102B0000CDB7DEB729970FB6F894DEBF0FBECDBFA5
:102B100010929B03C0906703D0906803E090690314
:102B2000F0906A032AE939E949E550E4C701B601A2
:102B30000E94B42A87FDE3C226E636E646E850E462
:102B4000C701B6010E945C2918160CF4D8C261E0D6
:102B50008DE00E94790461E08DE00E944B046CE2FC
:102B600071E080E090E00E94DA0480916C03882399
:102B7000B1F00E942D0880E293E0909303018093CE
:102B8000020180E490E0909301018093000184E0D1
:102B90008093040181E080937F020E9467076DE2C9
:102BA00072E087E694E00E940026BC0180E196E096
:102BB0000E94070F65E272E080E196E00E94CF027A
:102BC000E0916E05F0916F0582E08083E0916A05E7
:102BD000F0916B051082E0916C05F0916D0587E630
:102BE000808310927605E0917205F091730586E07E
:102BF0008083E0917005F091710580818869808300
:102C0000E0917005F091710580818F7D808311E0E6
:102C100002E097E6F92E26E0E22E60E971E080E11D
:102C200096E00E94070F62E971E08EE595E00E9450
:102C3000D00E41E064EF71E085E991E00E949B13C2
:102C4000892B09F479C21A3009F042C060E08DE0A6
:102C50000E944B046AE174E080E090E00E94DA0494
:102C600061E08DE00E94790461E08DE00E944B04F8
:102C700060E971E080E090E00E94DA04E0916E0586
:102C8000F0916F050083E0916A05F0916B05108269
:102C9000E0916C05F0916D05F08210927605E0915F
:102CA0007205F0917305E082E0917005F091710575
:102CB000808188698083E0917005F0917105808141
:102CC0008F7D80836EE971E080E196E00E94070FBE
:102CD0001F5F163109F0A1CF0E942D0810929B03AF
:102CE000D6C11092C30365EA71E08EE595E00E94BB
:102CF000D00E41E068E873E18CEA91E00E949B13FA
:102D000043E050E06EE871E083EC93E00E94AA108B
:102D1000BC0180E196E00E94D00E10927E026DE22E
:102D200072E087E694E00E940026BC0180E196E014
:102D30000E94070F60E072E080E196E00E94CF02FF
:102D400010E006E080917E028630F8F467EB71E0D7
:102D50008EE595E00E94D00E41E064EF71E080ECDA
:102D600091E00E949B13182F843018F400937E0288
:102D7000E9CF68EE73E080E090E00E94DA04809191
:102D80007E028F5F80937E02DDCF42E050E060EEF6
:102D900071E083EC93E00E94AA10BC0180E196E010
:102DA0000E94D00E111196C16DE272E087E694E0A8
:102DB0000E940026BC0180E196E00E94070F66EFAA
:102DC00071E080E196E00E94CF0200E0E12C83E216
:102DD000F82E68EE73E080E090E00E94DA0443ECA5
:102DE00053E065ED71E08BED91E00E946A0F892B55
:102DF00061F06AE370E083EC93E00E94312C00976D
:102E000021F004960E94E225082F60E971E080E13C
:102E100096E00E94070F013009F42CC1023009F03E
:102E20001DC11150FA941F5F193110F4F110D1CF68
:102E3000102F1B7F113009F02AC180916C03882369
:102E4000A9F00E942D0888EB9BE0909303018093EA
:102E5000020180E490E0909301018093000184E0FE
:102E60008093040110937F020E94670760E172E083
:102E700080E196E00E94CF0282EE91E00E9465150B
:102E800089EF91E00E94651581E080939B0363E0E8
:102E900072E08EE595E00E94D00E40E068EE73E0AF
:102EA0008FE092E00E949B13892BD9F51AE043EC46
:102EB00053E06CE172E082E292E00E946A0F80913E
:102EC000C303863409F0D8C0115089F78AE0109204
:102ED00067048B3009F0D2C06CE270E083EC93E0C1
:102EE0000E94312C892B09F4C9C0053031F469E204
:102EF00072E087E694E00E94262C43E050E06DE605
:102F000071E083EC93E00E94AA10BC0187E694E094
:102F10000E94262CE7E6F4E001900020E9F73297C2
:102F2000108267E674E080E196E00E94070F66E099
:102F300072E080E196E00E94CF020E94DB1067E61B
:102F400074E080E196E00E94D00E10927E026DE265
:102F500072E087E694E00E940026BC0180E196E0E2
:102F60000E94070F6AEE71E080E196E00E94CF02B6
:102F700009E280917E02863008F087C06CED75E032
:102F800080E090E00E94DA0415E047E654E065E353
:102F900072E08BE392E00E946A0F60E971E080E1E9
:102FA00096E00E94070F80916704863441F464EF35
:102FB00071E080E090E00E94DA04115031F742E0C5
:102FC00050E065E672E087E694E00E94AA10BC013A
:102FD00087E694E00E94452C41E050E06DE671E008
:102FE00087E694E00E94AA10BC01CE0101960E94DF
:102FF000452C41E050E062E472E087E694E00E94F4
:10300000AA100E94E2257C0142E050E06DE671E0EA
:1030100087E694E00E94AA10BC0187E694E00E9433
:10302000452C80917E028F5F80937E0285E1E816B9
:10303000F1040CF49ECF42E050E06EE571E087E6CB
:1030400094E00E94AA100E94E225BC017727CE01DD
:1030500001960E945C0B00937E028BCF053051F0ED
:10306000033031F484E08E1528F0E3941150DBCE68
:1030700000E0D9CE19E1D7CE8BE029CF6DE272E026
:1030800087E694E00E94262C4CCF893240F469E513
:1030900073E087E694E00E940026BC0116C06AED4A
:1030A00071E080E196E00E94CF020E94DA0920934D
:1030B000FB053093FC054093FD055093FE0560939E
:1030C000FF057093000670E060E080E196E00E94EA
:1030D000D00E06C062E0113059F161E0123041F1CA
:1030E00029960FB6F894DEBF0FBECDBFDF91CF910A
:1030F0001F910F91FF90EF90DF90CF90089542E0E5
:10310000C701B6010E94A00D68E372E080E196E07D
:103110000E94CF0265E772E087E694E00E940026F5
:10312000BC0180E196E00E94D00E10929B0363E008
:1031300082E70E944008D4CF61E873E087E694E01C
:103140000E940026BC0180E196E00E94070F6CE11E
:1031500072E080E196E00E94CF028EE595E00E9449
:103160005103181619060CF0BCCD8EE595E00E94AF
:103170002F036AE070E080E090E00E94DA04EDCF77
:10318000FF920F931F93CF93DF93EC01F62E0881EC
:103190001981C8010E94A228F81621F06F2DC801DC
:1031A0000E94AA28CE01DF91CF911F910F91FF902D
:1031B00008950F931F93CF93DF9300D0CDB7DEB761
:1031C0008B019A838983FB016081CE0101960E9465
:1031D000C018C8010F900F90DF91CF911F910F91F0
:1031E0000895AF92BF92CF92DF92EF92FF920F932A
:1031F0001F93CF93DF9300D0CDB7DEB78B016B0168
:1032000024E0C20ED11C7B015C01A61AB70AC501DD
:103210008E0D9F1D9A838983F70161917F01CE01F5
:1032200001960E94C018EC14FD0489F7C8010F90A4
:103230000F90DF91CF911F910F91FF90EF90DF9052
:10324000CF90BF90AF900895EF92FF920F931F938E
:10325000CF93DF9300D0CDB7DEB78C017B019A838B
:103260008983FB016081CE0101960E94C0180F5F27
:103270001F4F1A830983F7016181CE0101960E94D5
:10328000C018C7010F900F90DF91CF911F910F9140
:10329000FF90EF900895AF92BF92CF92DF92EF929E
:1032A000FF920F931F93CF93DF9300D0CDB7DEB77C
:1032B0007C015B01042F10E06501C10ED11CF601F9
:1032C0006081FA82E982CE0101960E94C018F6015F
:1032D0008081811101C0102FFFEFEF1AFF0A1F5FDD
:1032E000101750F30F900F90DF91CF911F910F9116
:1032F000FF90EF90DF90CF90BF90AF9008951F9216
:103300000F920FB60F9211242F933F934F935F9319
:103310006F937F938F939F93AF93BF93EF93FF939D
:103320008EE595E00E947103FF91EF91BF91AF91FF
:103330009F918F917F916F915F914F913F912F91CD
:103340000F900FBE0F901F9018951F920F920FB6FF
:103350000F9211242F938F939F93EF93FF93E091FC
:103360006E05F0916F058081E0917405F09175050F
:1033700082FD1BC09081809177058F5F8F732091B4
:103380007805821741F0E0917705F0E0E25AFA4FB4
:10339000958F80937705FF91EF919F918F912F915A
:1033A0000F900FBE0F901F9018958081F4CF1F9241
:1033B0000F920FB60F9211242F933F938F939F93E9
:1033C000AF93BF9380915B0390915C03A0915D03E9
:1033D000B0915E0330915A0326E0230F2D3768F138
:1033E00029E8230F0396A11DB11D20935A03809352
:1033F0005B0390935C03A0935D03B0935E038091A5
:103400005F0390916003A0916103B0916203019604
:10341000A11DB11D80935F0390936003A09361038E
:10342000B0936203BF91AF919F918F913F912F9184
:103430000F900FBE0F901F9018950296A11DB11D01
:10344000D4CF1F920F920FB60F9211242F933F9358
:103450004F935F936F937F938F939F93AF93BF939C
:10346000EF93FF938091B900887F803609F44AC0BA
:10347000F0F5883209F4A7C018F5803109F49BC033
:10348000B8F4882309F4F9C0883009F494C0FF9196
:10349000EF91BF91AF919F918F917F916F915F91CC
:1034A0004F913F912F910F900FBE0F901F90189545
:1034B000883109F488C0803251F78093530514C0D5
:1034C000803409F49DC040F48033B9F38833F9F6B1
:1034D0008093530585ECB0C0803509F485C08835EC
:1034E00009F496C0883499F60E94FA05D0CF88393D
:1034F00009F48CC038F5883729F050F4883611F07B
:10350000803729F683E0809355051092590357C000
:10351000883809F47BC0803919F0803809F0B7CFBA
:1035200080915903803208F071C0E091590381E025
:103530008E0F809359038091BB00F0E0E75CFC4F55
:1035400080833DC0803B39F0E0F4803A09F479C0D3
:10355000883A09F09CCF84E0809355051092380397
:1035600010923703E0916D03F0916E0309958091FD
:10357000370381110FC081E0809337031092170346
:1035800009C0803C09F4A6CF883C09F4A3CF883B4E
:1035900009F07DCFE091380381E08E0F80933803EE
:1035A000F0E0E95EFC4F80818093BB00909138038E
:1035B0008091370329C0809150058093BB0085EC32
:1035C0008093BC0064CF909152058091510598176B
:1035D00058F5E091520581E08E0F80935205F0E09E
:1035E000E15DFA4F8081E9CFE091520581E08E0FD5
:1035F000809352058091BB00F0E0E15DFA4F80833B
:1036000090915205809151059817C8F285E8D8CF5E
:10361000E091520581E08E0F809352058091BB00AE
:10362000F0E0E15DFA4F80838091540581115CCF19
:1036300081E080934F0584EA8093BC001092550589
:1036400026CF85EC8093BC001092550580915903DC
:10365000803230F4E0915903F0E0E75CFC4F1082D7
:103660006091590370E0E0916F03F091700389E37A
:1036700093E00995109259030ACF1092530534CF65
:103680001F920F920FB60F9211242F933F934F93D7
:103690005F936F937F938F939F93AF93BF93EF93BA
:1036A000FF9380915605909157058093B2008091C9
:1036B000F3029091F402A091F502B091F602019606
:1036C000A11DB11D8093F3029093F402A093F50223
:1036D000B093F6028091F3029091F402A091F5026A
:1036E000B091F60240915A0550915B0560915C05DE
:1036F00070915D0584179507A607B70710F18091B3
:10370000F20281111EC081E08093F2028091F302E7
:103710009091F402A091F502B091F602841B950BF2
:10372000A60BB70B8093F3029093F402A093F502DB
:10373000B093F602E0915805F09159050995109261
:10374000F202FF91EF91BF91AF919F918F917F9185
:103750006F915F914F913F912F910F900FBE0F90FE
:103760001F9018951F920F920FB60F9211242F934E
:103770003F934F935F936F937F938F939F93AF93F9
:10378000BF93EF93FF93E0916503F0916603309749
:1037900049F0A685B7858585968D91FF14C09C91CB
:1037A0008923A1F4FF91EF91BF91AF919F918F91E8
:1037B0007F916F915F914F913F912F910F900FBE2D
:1037C0000F901F9018959C91892361F7A389B48964
:1037D0009C918589809589238C9386899789019707
:1037E000F1F7608D718DA685B785558538E020E0AD
:1037F000CB010197F1F7822F90E095958795282FBF
:103800004C91452309F02068315091F7868D81FD58
:1038100020958091640390E001968F7399273091F1
:103820006303381799F0A0916403B0E0AE54BD4F24
:103830002C9380936403828D938D0197F1F7A38974
:10384000B4898C919589892B8C93ACCF868D8160BE
:10385000868FF1CF109261051092600588EE93E09B
:10386000A0E0B0E08093620590936305A0936405A7
:10387000B09365052EE131E030935F0520935E053E
:1038800025EC30E030936B0520936A0524EC30E0A2
:1038900030936D0520936C0520EC30E030936F057C
:1038A00020936E0521EC30E0309371052093700574
:1038B00022EC30E0309373052093720526EC30E063
:1038C0003093750520937405109277051092780552
:1038D0001092790510927A05109204061092030650
:1038E0008093050690930606A0930706B0930806FA
:1038F00020E331E030930206209301061092130674
:10390000109212068093140690931506A093160643
:10391000B093170682E491E090931106809310060D
:103920001092270610922606109229061092280659
:1039300010922B0610922A0610922D0610922C0639
:1039400060912E066E7F6D7F60932E066695617086
:1039500081E0682786E00E944B0461E086E00E94D7
:103960007904EBE0F4E0E491E0932006E4EFF3E087
:10397000E491F0E0EE0FFF1FEC51FC4F8591949124
:10398000909322068093210660E085E00E947904EE
:1039900080912E0681FD04C061E085E00E944B0409
:1039A00085E080931C06EAE0F4E0E491E0931D06D4
:1039B000E3EFF3E0E491F0E0EE0FFF1FE652FC4F7F
:1039C0008591949190931F0680931E0681E096E066
:1039D00090930E0680930D0610920F0640E050E083
:1039E000BA018BEF95E00C944505CF93DF93CDB7EB
:1039F000DEB765970FB6F894DEBF0FBECDBF7894E3
:103A000084B5836084BD85B5836085BD80916E007B
:103A1000816080936E0082E08093810080918100BC
:103A2000816080938100809180008160809380001C
:103A30008091B10084608093B1008091B00081607A
:103A40008093B00086E880937A001092C10061E014
:103A500083E00E94790461E083E00E944B041092AD
:103A60002B0610922A061092290610922806109210
:103A70002706109226068DEC90E090932D068093F9
:103A80002C0680911C06873108F04BC025E530E0FC
:103A900030932706209326062BEC30E0309329063E
:103AA0002093280620E930E030932B0620932A0645
:103AB0002091680094E0883054F091E08E303CF022
:103AC00092E0843124F091E0863109F490E0922B69
:103AD000909368002DE630E0883074F08E300CF45E
:103AE0008AC084313CF086310CF485C030E020E09F
:103AF000863111F42CE630E030932406209323061F
:103B000088300CF07BC091E001C0990F8A95EAF7EC
:103B1000892F8093250680912C0690912D06019780
:103B2000F1F780912A0690912B06892B49F1E091BB
:103B30006503F091660306E0E031F00709F1309784
:103B400039F0A389B4899C918589809589238C93C8
:103B500080912E068E7F80932E0610926403109221
:103B6000630380E196E09093660380936503E091A0
:103B70002306F0912406808190912506892B80836D
:103B800061E088E00E94790460E088E00E944B04D4
:103B900061E087E00E94790460E087E00E944B04C6
:103BA00061E084E00E94790460E084E00E944B04BC
:103BB00062E082E00E94790482E00E942204892B64
:103BC00039F481E080936C0361E087E00E944B044C
:103BD00010916B03163000F582E00E942204892BBD
:103BE000D9F41F5F10936B036CE271E080E090E00A
:103BF0000E94DA04EDCF2BE630E07ECF8E3014F455
:103C0000885081CF863114F48E507DCF863111F4E7
:103C100080E47FCF80E07DCF60E087E00E944B04AE
:103C200066E071E086E893E00E94452C66E071E072
:103C300082EB93E00E94452C10920E0510920D0528
:103C400010920A05109209050E942B068DEC92E055
:103C500090936E0380936D038EEC92E090937003CB
:103C600080936F031A86BE01665F7F4F81E090E00C
:103C70000E9479108EE480937C006BE470E080E019
:103C800090E00E94DA0480917A00806480937A0048
:103C900080917A0086FDFCCF809178002091790098
:103CA000322F282F032E000C440B550B64EB7BE2C4
:103CB00081E190E00E94CE2BCA01B90164567109DE
:103CC000810991090E94042A20E030E04AE754E487
:103CD0000E94612920E030E040E251E40E94B92ACC
:103CE0000E94262B20E030E040E251E40E9461294E
:103CF0006B017C01C0926703D0926803E092690374
:103D0000F0926A032AE037ED43E550E40E945C2913
:103D100087FF73C11A821982BE016F5F7F4F81E0F6
:103D200090E00E9424191A860E94DA092093FB056C
:103D30003093FC054093FD055093FE056093FF050D
:103D4000709300068A85882309F470C18EE00E9472
:103D50001A0B682F67648EE00E94390780910D0668
:103D600090910E0621E020930C0528E620930B0588
:103D700010920A0510920905DC01ED91FC91019069
:103D8000F081E02D67E0099570E060E080910D061C
:103D900090910E060E94730970E060E080910D061C
:103DA00090910E060E94730960E870E080910D0604
:103DB00090910E060E94730960E870E080910D06F4
:103DC00090910E060E94730980910D0690910E0647
:103DD0000E94C80680930F068FE00E941A0B682F7E
:103DE0006C7F8FE00E94390745E06CEA73E082E85F
:103DF00090E00E94831041E162EB73E088E890E07C
:103E00000E94831080E196E00E94820E64E472E0DA
:103E100080E196E00E94070F66E472E080E196E0A0
:103E20000E94070F67E572E080E196E00E94070FAD
:103E300062EB73E080E196E00E94070F67E572E0B5
:103E400080E196E00E94070F6CEA73E080E196E063
:103E50000E94070F67E572E080E196E00E94070F7D
:103E600070E060E080E196E00E94070F67E572E095
:103E700080E196E00E94070F6091670370916803EC
:103E80008091690390916A0342E00E94A00D80E155
:103E900096E00E94820E63E674E08EE290E00E945B
:103EA000531067E171E086E390E00E943F1064EFF9
:103EB00071E080E090E00E943A02809170008E7F75
:103EC0008093700061E08FE00E94790460E08EE0F2
:103ED0000E94790460E08FE00E944B0480916B03A4
:103EE000863008F463C061E084E00E944B046AE419
:103EF00072E080E196E00E94D00E10926B03109168
:103F00006B03163008F49AC060E084E00E944B0412
:103F1000163008F0A3C083E694E00E94200961E017
:103F200084E00E944B0468E97AE380E090E00E941C
:103F3000DA0460E087E00E944B0419821A821B8237
:103F40001C82CE0101960E942009209163043091C9
:103F50006404409165045091660469817A818B8183
:103F60009C810E94EF286B017C0120E030E04AEF49
:103F700054E40E945C2963E087FDC6C0C701B60116
:103F80000E94D329709318016093170167E171E0D3
:103F900086E390E00E94241963E674E08EE290E0EC
:103FA0000E94F11862E087E60E94400880919C031D
:103FB000882309F446C20E94370F83EC93E00E94E5
:103FC000E2258330910509F49EC10CF09FC0813039
:103FD000910509F4BFC0029709F469C163EC73E06D
:103FE00080E196E00E94070F87E193E00E94860E31
:103FF00080E196E00E94820E83C18A85811194CE71
:104000002AE939E949E550E4C701B6010E94B42A1A
:1040100087FD8ACE81E090E09A838983BE016F5F3D
:104020007F4F0E94241981E08A877ECE8EE00E9415
:104030001A0B8C7B682F64608EE0D4CE82E00E94E5
:104040002204892B09F060CF1F5F10936B0364EF8C
:1040500071E080E090E00E94DA0451CF6FE472E0FA
:1040600080E196E00E94D00E61E087E00E944B0460
:1040700010926B0310916B03163060F060E087E0E4
:104080000E944B041630A8F081E080939C030E94AC
:10409000E70E8CCF82E00E942204892B79F71F5F04
:1040A00010936B0364EF71E080E090E00E94DA040B
:1040B000E1CF66E071E082EB93E00E943B13811157
:1040C00022C00E94D50C0E94960980919B03811109
:1040D00002C00E94781580919B03882309F466CF63
:1040E0000E94461183EC93E00E94201562EB73E07E
:1040F00080E196E00E94D00E63EC73E080E196E0F0
:104100000E94D00E53CF62E082E74ECF85309105FA
:1041100009F452C10CF424C1069709F05FCF82E381
:1041200093E00E94860E10929C0362E370E080E0B0
:1041300090E00E94DA0460E08DE00E944B0460E0B1
:1041400083E00E944B0468EE73E080E090E00E9400
:10415000DA0472C069E573E082E793E00E9400260A
:10416000BC01CE0101960E94452C61E873E0CE01AE
:104170000A960E94002669ED72E080E196E00E94B6
:10418000CF028EE00E941A0BBE0187FD62C08091B3
:104190000F0681115EC0665F7F4F80E196E00E944E
:1041A000D00E61ED72E080E196E00E94CF020E94A5
:1041B000DA092093FB053093FC054093FD055093ED
:1041C000FE056093FF057093000663EC72E080E1EA
:1041D00096E00E94CF0210920E0510920D051092EB
:1041E0000A05109209050E942B068DEC92E090932F
:1041F0006E0380936D038EEC92E090937003809336
:104200006F0311E010930C0580E480930B0581E0AF
:1042100096E00E94C806811102C01093710380913C
:104220007103BE0181111CC06F5F7F4F80E196E07A
:104230000E94D00E0E94E70E80E090E0892B09F4E6
:10424000B5CE0E945D03882309F4B0CE0E94000021
:10425000ADCE6F5F7F4F80E196E00E94D00EB5CF6C
:10426000665F7F4F80E196E00E94070F0E949609EB
:104270006CEB72E080E196E00E94CF024091190160
:1042800050E070E060E02AE080E196E00E94540D8A
:1042900061EB72E080E196E00E94CF026091070539
:1042A0007091080580E196E00E94970EC3CF80913F
:1042B0009B03811102C00E94781580919B03882383
:1042C000F9F00E9446116EE573E080E196E00E94ED
:1042D000CF0283EC93E00E94201561E873E0811126
:1042E00002C069E573E08DE993E00E940026BC01FD
:1042F00080E196E00E94D00E60E08DE00E944B04C9
:104300001092C30399CF83E090E00E94431381E1B0
:104310000E940F0F882309F48FCF8091C30341E1DE
:1043200066E071E0882311F063EC73E088E890E0C8
:104330000E944B1941E162EB73E088E890E00E9433
:10434000831080E196E00E94820E63EC73E080E1CE
:1043500096E00E94070F80E593E00E94860ED0CF82
:1043600084E090E00E94431385E00E940F0F8823B1
:1043700009F462CF45E063E572E082E890E00E94D4
:104380004B1945E063EC73E082E890E00E944B1922
:1043900045E06CEA73E082E890E00E94831080E1DF
:1043A00096E00E94820E6CEA73E080E196E00E9443
:1043B000070F87E493E0D1CF85E090E00E9443139C
:1043C0008EE00E940F0F882309F436CF41E050E0C1
:1043D0006DE671E083EC93E00E94AA10BC01CE016F
:1043E00001960E94452C42E050E06DE671E083ECBE
:1043F00093E00E94AA10BC0187E694E00E94452C3D
:1044000070E060E0CE0101960E945C0B67E373E010
:1044100080E196E00E94CF020E94DA092093FB051A
:104420003093FC054093FD055093FE056093FF0516
:104430007093000670E060E080E196E00E94D00E8C
:104440005FCF0E94DA09752E2093FB053093FC059F
:104450004093FD055093FE056093FF0570930006A1
:104460008AE08D870E9496090E94D50C609397037D
:10447000709398038093990390939A03BE01635FAE
:104480007F4F89E090E00E947910B6E07B1220C057
:1044900067E973E08AE090E00E94F11867E075E058
:1044A0008AE190E00E94241969E171E08AE290E0DB
:1044B0000E94D9188D85781609F43DCE89E090E0E8
:1044C0009A838983672DCE0101960E94C01833CE4E
:1044D000ECE07E1211C067E973E08EE090E00E948C
:1044E000F11867E075E082E290E00E94241969E12A
:1044F00071E08BE290E0DCCFFEE07F1211C067E953
:1045000073E082E190E00E94F11867E075E08EE1CF
:1045100090E00E94241969E171E08CE290E0C8CF3C
:1045200020E1E22E7E1011C067E973E086E190E0A1
:104530000E94F11867E075E086E290E00E9424197D
:1045400069E171E08DE290E0B3CF94E1F92E7F1044
:10455000B1CF80919B03811102C00E947815809198
:104560009B03882309F4A6CF89E990E00E94A22842
:10457000882309F4A8C01A86BE01665F7F4F89E9C7
:1045800090E00E9479108A8581508A87BE01665F1B
:104590007F4F89E990E00E94D91862EB73E08DE9C2
:1045A00093E00E9400261C01612C0E940D057B01F6
:1045B0008C0120E030E0A9016E87FF86888B198B83
:1045C0002A8B3B8B4C8B5D8B69E572E08EE595E029
:1045D0000E94D00E1092C303912C812C0E940D05D5
:1045E0009B01AC0160E070E080E090E0AE84BF84AD
:1045F000C888D988EA88FB880C891D890E94072C05
:104600002738334141055105610571058105910543
:1046100009F080F58EE595E00E945103892BF1F2B7
:104620008EE595E00E942F03182F1A821982898344
:10463000BE016F5F7F4F83EC93E00E94262C1A30FF
:1046400089F467E672E083EC93E00E944C2C0097BB
:1046500039F08114910421F402960E94E2254C0164
:104660001092C3036BE871E083EC93E00E944C2C42
:10467000892B81F28110A7C11EE164EF71E080E017
:1046800090E00E94DA041150C1F763948820B9F0D9
:1046900065E073E087E694E00E9400260E94201502
:1046A00041E166E071E088E890E00E944B1941E149
:1046B00062EB73E088E890E00E94831004C004E09D
:1046C000061508F072CF66E071E082EB93E00E947D
:1046D0003B138111EFCE0E9446111C8619821A826B
:1046E0001B821C821B861A86BE016F5F7F4F8AE089
:1046F00090E00E945310BE01665F7F4F8AE190E018
:104700000E943F106FEF72E087E694E00E9400265F
:10471000BC0183EC93E00E94262C69817A818B8115
:104720009C810E94A00CBC0183EC93E00E94262C8B
:1047300068E873E087E694E00E940026BC0183EC01
:1047400093E00E94262C4AE067E674E08A859B8508
:104750000E942E26BC0183EC93E00E94262CBE0111
:10476000645F7F4F8AE290E00E94791068E873E00E
:1047700087E694E00E940026BC0183EC93E00E944F
:10478000262C8C854AE067E674E090E00E942E2695
:10479000BC0183EC93E00E94262CBE016F5F7F4F2B
:1047A0008EE090E00E945310BE01665F7F4F82E270
:1047B00090E00E943F1069EF72E087E694E00E946B
:1047C0000026BC0183EC93E00E94262C69817A814B
:1047D0008B819C810E94A00CBC0183EC93E00E9421
:1047E000262C68E873E087E694E00E940026BC016E
:1047F00083EC93E00E94262C4AE067E674E08A8509
:104800009B850E942E26BC0183EC93E00E94262CFF
:10481000BE01645F7F4F8BE290E00E94791068E8F0
:1048200073E087E694E00E940026BC0183EC93E0ED
:104830000E94262C8C854AE067E674E090E00E9496
:104840002E26BC0183EC93E00E94262CBE016F5FF4
:104850007F4F82E190E00E945310BE01665F7F4F60
:104860008EE190E00E943F1063EF72E087E694E0F3
:104870000E940026BC0183EC93E00E94262C6981F3
:104880007A818B819C810E94A00CBC0183EC93E017
:104890000E94262C68E873E087E694E00E940026D8
:1048A000BC0183EC93E00E94262C4AE067E674E0AA
:1048B0008A859B850E942E26BC0183EC93E00E9492
:1048C000262CBE01645F7F4F8CE290E00E9479103D
:1048D00068E873E087E694E00E940026BC0183EC60
:1048E00093E00E94262C8C854AE067E674E090E015
:1048F0000E942E26BC0183EC93E00E94262CBE0170
:104900006F5F7F4F86E190E00E945310BE01665FAB
:104910007F4F86E290E00E943F106DEE72E087E6E6
:1049200094E00E940026BC0183EC93E00E94262CB8
:1049300069817A818B819C810E94A00CBC0183ECEF
:1049400093E00E94262C68E873E087E694E00E94DA
:104950000026BC0183EC93E00E94262C4AE067E627
:1049600074E08A859B850E942E26BC0183EC93E02F
:104970000E94262CBE01645F7F4F8DE290E00E9472
:10498000791068E873E087E694E00E940026BC0195
:1049900083EC93E00E94262C8C854AE067E674E065
:1049A00090E00E942E26BC0183EC93E00E94262C0E
:1049B00083EC93E00E94201560ED77E080E090E0CA
:1049C0000E94DA0477CD0E940D057B018C0120E066
:1049D00030E0A9016E87FF86888B198B2A8B3B8B71
:1049E0004C8B5D8B64EE72E08EE595E00E94CF0209
:1049F000482C512CB2018EE595E00E94970E109242
:104A000067040E940D059B01AC0160E070E080E04E
:104A100090E0AE84BF84C888D988EA88FB880C8976
:104A20001D890E94072C2738334141055105610536
:104A300071058105910511F008F05BC08EE595E0E8
:104A40000E945103892B09F44BC08EE595E00E942A
:104A50002F03182F1A8219828983BE016F5F7F4F3F
:104A600087E694E00E94262C1A3041F76AE672E04D
:104A700087E694E00E944C2C892BE9F06CE270E010
:104A800087E694E00E94312C8C010E5F1F4F62E29A
:104A900070E0C8010E94312C009739F0DC011C92B3
:104AA000B80186E893E00E94452CB8E5B09367040E
:104AB00010926804C3CF80916704883571F46DE06B
:104AC00070E087E694E00E94312CFC01108268E6D9
:104AD00074E083EC93E00E94452C10926704AECF03
:104AE00061E772E083EC93E00E944C2C892B09F47F
:104AF00088CF63EC73E081E893E00E943B13882346
:104B000071F066E873E0C1010E943B1381111BC084
:104B10006FE871E0C1010E943B13811114C0812C28
:104B200065E772E08EE595E00E94070FB2018EE521
:104B300095E00E94970E40E068E873E18FE092E014
:104B40000E949B13A2CD86E0682E88248394E8CF30
:104B500082E491E0909311068093100680916503A2
:104B6000909166038051964071F4E0912306F09194
:104B70002406908180912506809589238083109258
:104B80006603109265030895EF920F931F93CF93DE
:104B9000DF93E80134E047FD34E1042E000C550BAF
:104BA00057FF03C0519541955109E32E022F242F41
:104BB000AE010E945B26CE01DF91CF911F910F9134
:104BC000EF900895FC0188279927E89421912032DD
:104BD000E9F3293010F02E30C8F32B3241F02D329A
:104BE00039F4689404C00E943926820F911D2191E6
:104BF00020532A30C0F31EF4909581959F4F08955D
:104C0000FB01DC0105900D920020E1F70895FA0107
:104C1000A191B081009719F41097E1F0CD01DC016A
:104C2000CD010D90002011F4C00113C0FB012191B2
:104C3000222319F02015D9F7F3CFFB01219120157C
:104C400019F41E92119606C02223C1F70D90002080
:104C5000A1F7D001FA01A193B0830895BB274A3090
:104C600031F4992322F4BDE2909581959F4F0C94E5
:104C700042267AE0979F902D879F802D910D1124D9
:104C80000895BB27FB015527AA27880F991FAA1F44
:104C9000A41710F0A41B83955051B9F7A05DAA3357
:104CA00008F0A95DA193009779F7B111B193119222
:104CB000CB010C949228A9E0B0E0E1E6F6E20C9476
:104CC000BE286A01F22EB02E102FFBE3AF2EA016E5
:104CD00008F41BE31F5F012F27E0AE014F5F5F4F1A
:104CE0000E94BA27BC018981982F9970913009F4EC
:104CF0003FC09BE2E1FC04C09E2D9170E0FC3AC0F5
:104D00005E2D5071E82FE87083FF46C084E091115A
:104D100001C083E0EF2DE81B8F1508F0E0E0D6011D
:104D20008E2F20E2552351F1992329F0D6019C932F
:104D3000C60101966C0196012D5F3F4FE2FE24C033
:104D40008EE4D6018C9391E411969C931197129660
:104D50008C93D9018E2F90E281111BC0E20FF32FAB
:104D6000F11D10828EEF9FEF2996ECE00C94DA286B
:104D70009DE2C6CF90E2C4CF2D9381508111FCCF2C
:104D8000CE0ED11CE0E0D0CF8EE6D6018C9391E61A
:104D9000DBCF9D938150E0CF482F447082FF3DC010
:104DA00084E0911101C083E08F1510F4EF2DE81B12
:104DB000D6018E2F20E2552309F1992329F0D6013F
:104DC0009C93C60101966C0196012D5F3F4FE2FE58
:104DD0001BC089E4D6018C938EE411968C931197B5
:104DE00086E412968C93D9018E2F90E2882309F4E1
:104DF000B5CF9D938150FACF2D9381508111FCCF77
:104E0000CE0ED11CE0E0D9CF89E6D6018C938EE698
:104E100011968C93119786E6E4CF9B0177FF02C031
:104E200030E020E0A1E0B0E0911102C0B0E0A0E0ED
:104E3000F9013196AE0FBF1F8B2C912CBB2009F4CA
:104E400061C05401EFEFAE1ABE0AAA0DBB1DFA16DF
:104E50001B0619F014F04F2D4A1B511188C0E3FCBA
:104E600059C07601A42FB0E2A1114FC0C40ED11CCD
:104E7000992309F45BC040E0D6011196F6019083B6
:104E80006D01552309F448C0012F060F9A81582F50
:104E9000507184FF03C0913309F4015010160CF0D7
:104EA00047C0093008F008E0EEE2FE2E5B01A01AD0
:104EB000B10885019194819491082F3F320729F41C
:104EC000D601FC92F60131966F016217730794F1D7
:104ED000021713077CF5DB01A21BB30BAA24A394D2
:104EE000B12CAC0EBD1EAA0DBB1D11968C9121508C
:104EF0003109D601119628153905F4F0F6018083A1
:104F00006D01DBCFB12CA12CA0CFF701B1937F01B4
:104F1000A150AACF9111B0CFD601942F50E302C077
:104F20005D9391509111FCCFC40ED11C40E0ACCFE9
:104F300001E0BACF80E3DBCF6217730731F4963319
:104F400088F4953311F4552369F0F6018083FD014F
:104F5000842F90E2811108C0A40FB11D1C9290E033
:104F600080E002CF81E3F1CF91938150F3CF911193
:104F700083CF8ACF283008F027E03327DA01990F52
:104F8000311D87FD916000966105710539F432602D
:104F90002E5F3D9330E32A95E1F708959F3F30F06F
:104FA00080387105610509F03C5F3C5F3D939130AD
:104FB00008F08068911DDF93CF931F930F93FF92AA
:104FC000EF92192F987F9695E92F96959695E90F70
:104FD000FF27EE53FF4F99273327EE24FF24A70125
:104FE000E70105900894079428F4360FE71EF81E91
:104FF000491F511D660F771F881F991F0694A1F73F
:105000000590079428F4E70EF81E491F561FC11D8E
:10501000770F881F991F661F0694A1F705900794C4
:1050200028F4F80E491F561FC71FD11D880F991F5E
:10503000661F771F0694A1F70590079420F4490F87
:10504000561FC71FD81F990F661F771F881F06940A
:10505000A9F784911095177041F0D695C79557958B
:105060004795F794E7941A95C1F7E8E6F0E068945D
:105070001590159135916591959105907FE2739505
:10508000E118F10A430B560BC90BD009C0F7E10C2C
:10509000F11E431F561FC91FD01D7EF4703311F43B
:1050A0008A95E6CFE894015030F0080F0AF4002703
:1050B000021708F4202F2395022F7A3328F079E382
:1050C0007D932A95E9F710C07D932A9589F6069479
:1050D00097956795379517951794E118F10A430B43
:1050E000560BC90BD00998F023957E9173957A33AE
:1050F00008F070E37C932013B8F77E9170617D9384
:1051000030F0839571E37D9370E32A95E1F71124E4
:10511000EF90FF900F911F91CF91DF91992787FD1D
:1051200090950895DC01FC01672F71917723E1F7D9
:10513000329704C07C916D9370836291AE17BF0764
:10514000C8F30895F999FECF92BD81BDF89A9927C9
:1051500080B50895262FF999FECF1FBA92BD81BD63
:1051600020BD0FB6F894FA9AF99A0FBE01960895E9
:105170002F923F924F925F926F927F928F929F9267
:10518000AF92BF92CF92DF92EF92FF920F931F9355
:10519000CF93DF93CDB7DEB7CA1BDB0B0FB6F89406
:1051A000DEBF0FBECDBF09942A88398848885F8446
:1051B0006E847D848C849B84AA84B984C884DF80B7
:1051C000EE80FD800C811B81AA81B981CE0FD11D9B
:1051D0000FB6F894DEBF0FBECDBFED010895505855
:1051E000BB27AA270E9407290C947A2A0E946C2ABE
:1051F00038F00E94732A20F039F49F3F19F426F406
:105200000C94692A0EF4E095E7FB0C94632AE92FCD
:105210000E948B2A58F3BA17620773078407950711
:1052200020F079F4A6F50C94AD2A0EF4E0950B2E3F
:10523000BA2FA02D0B01B90190010C01CA01A001E8
:105240001124FF27591B99F0593F50F4503E68F143
:105250001A16F040A22F232F342F4427585FF3CF84
:10526000469537952795A795F0405395C9F77EF455
:105270001F16BA0B620B730B840BBAF09150A1F09E
:10528000FF0FBB1F661F771F881FC2F70EC0BA0F24
:10529000621F731F841F48F4879577956795B795AC
:1052A000F7959E3F08F0B0CF9395880F08F09927A7
:1052B000EE0F9795879508950E943F2A08F481E0A4
:1052C00008950E9475290C947A2A0E94732A58F036
:1052D0000E946C2A40F029F45F3F29F00C94632A65
:1052E00051110C94AE2A0C94692A0E948B2A68F3FF
:1052F0009923B1F3552391F3951B550BBB27AA278F
:1053000062177307840738F09F5F5F4F220F331FC8
:10531000441FAA1FA9F335D00E2E3AF0E0E832D090
:1053200091505040E695001CCAF72BD0FE2F29D093
:10533000660F771F881FBB1F261737074807AB0765
:10534000B0E809F0BB0B802DBF01FF2793585F4FDA
:105350003AF09E3F510578F00C94632A0C94AE2AE3
:105360005F3FE4F3983ED4F3869577956795B795BC
:10537000F7959F5FC9F7880F911D9695879597F9C7
:105380000895E1E0660F771F881FBB1F6217730740
:105390008407BA0720F0621B730B840BBA0BEE1F55
:1053A00088F7E09508950E94932A88F09F5798F017
:1053B000B92F9927B751B0F0E1F0660F771F881F1A
:1053C000991F1AF0BA95C9F714C0B13091F00E9434
:1053D000AD2AB1E008950C94AD2A672F782F882765
:1053E000B85F39F0B93FCCF3869577956795B3955B
:1053F000D9F73EF490958095709561957F4F8F4FCA
:105400009F4F0895E89409C097FB3EF490958095CE
:10541000709561957F4F8F4F9F4F9923A9F0F92F7A
:1054200096E9BB279395F695879577956795B795F8
:10543000F111F8CFFAF4BB0F11F460FF1BC06F5FDE
:105440007F4F8F4F9F4F16C0882311F096E911C0F0
:10545000772321F09EE8872F762F05C0662371F011
:1054600096E8862F70E060E02AF09A95660F771F25
:10547000881FDAF7880F9695879597F90895990F01
:105480000008550FAA0BE0E8FEEF16161706E8070E
:10549000F907C0F012161306E407F50798F0621B2F
:1054A000730B840B950B39F40A2661F0232B242B04
:1054B000252B21F408950A2609F4A140A6958FEF23
:1054C000811D811D089597F99F6780E870E060E075
:1054D00008959FEF80EC089500240A94161617068D
:1054E00018060906089500240A94121613061406D5
:1054F00005060895092E0394000C11F4882352F038
:10550000BB0F40F4BF2B11F460FF04C06F5F7F4FEF
:105510008F4F9F4F089557FD9058440F551F59F0D6
:105520005F3F71F04795880F97FB991F61F09F3F90
:1055300079F087950895121613061406551FF2CFB9
:105540004695F1DF08C0161617061806991FF1CF09
:1055500086957105610508940895E894BB27662730
:105560007727CB0197F908950E943F2A08F48FEF1F
:1055700008950E94CC2A0C947A2A0E946C2A38F052
:105580000E94732A20F0952311F00C94632A0C9446
:10559000692A11240C94AE2A0E948B2A70F3959FDD
:1055A000C1F3950F50E0551F629FF001729FBB271A
:1055B000F00DB11D639FAA27F00DB11DAA1F649FB6
:1055C0006627B00DA11D661F829F2227B00DA11D69
:1055D000621F739FB00DA11D621F839FA00D611DEF
:1055E000221F749F3327A00D611D231F849F600D10
:1055F000211D822F762F6A2F11249F5750409AF039
:10560000F1F088234AF0EE0FFF1FBB1F661F771FC4
:10561000881F91505040A9F79E3F510580F00C948F
:10562000632A0C94AE2A5F3FE4F3983ED4F3869548
:1056300077956795B795F795E7959F5FC1F7FE2B2F
:10564000880F911D9695879597F908950E94932A42
:10565000E8F09E37E8F09639B8F49E3848F4672FA2
:10566000782F8827985FF9CF8695779567959395DA
:105670009539D0F3B62FB1706B0F711D811D20F4D9
:1056800087957795679593950C944F2B0C946A2B7F
:105690000C94AE2A0E943F2A880B990B0895882308
:1056A00071F4772321F09850872B762F07C066235B
:1056B00011F499270DC09051862B70E060E02AF01C
:1056C0009A95660F771F881FDAF7880F969587954A
:1056D00097F908959F3F31F0915020F48795779581
:1056E0006795B795880F911D9695879597F90895B9
:1056F000991B79E004C0991F961708F0961B881F24
:105700007A95C9F780950895AA1BBB1B51E107C084
:10571000AA1FBB1FA617B70710F0A61BB70B881F41
:10572000991F5A95A9F780959095BC01CD010895D0
:1057300097FB072E16F4009407D077FD09D00E943E
:10574000842B07FC05D03EF4909581959F4F0895DA
:10575000709561957F4F0895A1E21A2EAA1BBB1B7D
:10576000FD010DC0AA1FBB1FEE1FFF1FA217B3072D
:10577000E407F50720F0A21BB30BE40BF50B661F43
:10578000771F881F991F1A9469F760957095809507
:1057900090959B01AC01BD01CF010895052E97FBAB
:1057A0001EF400940E94E52B57FD07D00E94AC2BFD
:1057B00007FC03D04EF40C94E52B509540953095A2
:1057C00021953F4F4F4F5F4F08959095809570956D
:1057D00061957F4F8F4F9F4F0895A29FB001B39F58
:1057E000C001A39F700D811D1124911DB29F700DEA
:1057F000811D1124911D08950E94ED2BA59F900DF0
:10580000B49F900DA49F800D911D112408952A1915
:105810003B094C095D096E097F09800B910B0895C6
:105820002A153B054C055D056E057F058007910730
:105830000895EE0FFF1F0590F491E02D0994DC010F
:1058400001C06D9341505040E0F70895FB01DC0129
:105850000D900020E9F7119701900D920020E1F7DB
:105860000895FC018191861721F08823D9F79927A3
:1058700008953197CF010895FB01DC018D910190CE
:1058800080190110D9F3990B0895FB01DC010190F7
:105890000D920020E1F70895FB0151915523A9F0E5
:1058A000BF01DC014D9145174111E1F759F4CD01DC
:1058B0000190002049F04D9140154111C9F3FB01C1
:1058C0004111EFCF81E090E00197089512E0CFE021
:1058D000D2E004C0FE010E94192C2196C031D107EC
:0658E000C9F7F894FFCFA8
:1058E600F401F401020131303030303030303030E4
:1058F6003031000000000024131E00000000920357
:10590600F3022003D90351032F03430300000000D1
:1059160099066C062A084906C60259064A06000078
:1059260000009507F3022A084906F10709087D07D2
:105936006E616E00696E66006F76660041542B00DC
:105946004F4B00435351002B4353513A002C003E1A
:105956002C4552524F52002B434D47532C45525221
:105966004F52004552524F520D0A2C4F4B0D0A0012
:105976002E004154004F4B2C4552524F52006D6F32
:10598600645265620041542B47534E004F4B0D0A3B
:105996002C52454144590041542B4350494E3F0037
:1059A60052454144592C4E4F2053494D2C53494D95
:1059B6002050494E00435245473F002B435245472E
:1059C6003A0041542B43504D533D22534D222C2235
:1059D600534D222C22534D220041542B434D474612
:1059E6003D310041542B434F50533D332C30004F33
:1059F6004B0D0A2C4552524F520D0A00434F50533D
:105A06003F002B434F50533A00C2AE2000554E4B39
:105A16004E4F574E0043434C4B3F002B43434C4B9A
:105A26003A002F004600302E31004B4C42520053B4
:105A36004D530020202020200041542B434D474C3D
:105A46003D22414C4C22004C3A002B434D47523AE2
:0E5A5600004F4B0D0041542B434D47443D0083
:00000001FF
