:100000000C946B020C9493020C9493020C94D71CE6
:100010000C94D71C0C94D71C0C9493020C94930250
:100020000C9493020C94401F0C9493020C94930232
:100030000C9493020C9493020C9493020C949302EC
:100040000C9437250C9493020C94F4270C942628D6
:100050000C9493020C9493020C9493020C949302CC
:100060000C94D2210C94930200407A10F35A00A011
:10007000724E18090010A5D4E80000E87648170071
:1000800000E40B54020000CA9A3B000000E1F505B1
:10009000000080969800000040420F000000A086FB
:1000A00001000000102700000000E803000000002D
:1000B0006400000000000A000000000001000000D1
:1000C00000002C76D888DC674F0823DFC1DFAE59EB
:1000D000E1B1B796E5E3E453C63AE651997696E87E
:1000E000E6C28426EB898C9B62ED407C6FFCEFBC02
:1000F0009C9F40F2BAA56FA5F490055A2AF75C932D
:100100006B6CF9676DC11BFCE0E40D47FEF520E662
:10011000B500D0ED902E0300943577050080841E45
:10012000080000204E0A000000C80C333333330FA0
:10013000986E12831141EF8D2114893BE65516CF3D
:10014000FEE6DB18D1844B381BF77C1D901DA4BB49
:10015000E424203284725E228100C9F124ECA1E5FE
:100160003D272043656C736975733A200020204851
:10017000253A200054657374205349373032303AA1
:10018000200020446174653A200054657374205245
:1001900054433A20004E657720446174652F5469BA
:1001A0006D653A2000446174652F54696D653A208D
:1001B000005374616E6462790041542B434D475380
:1001C0003D220020526567697374657265642C2056
:1001D000726F616D696E670020556E6B6E6F776E22
:1001E0000020526567697374726174696F6E206470
:1001F000656E696564002043757272656E746C7912
:1002000020736561726368696E672061206E65772F
:10021000206F70657261746F720020526567697338
:1002200074657265642C20686F6D65206E657477E7
:100230006F726B00204E6F7420726567697374650E
:1002400072656400205374617475733A2000205203
:10025000656D61696E696E6720004E6574776F72B7
:100260006B3A200053696D3A20002076200020531D
:1002700069676E616C3A2000436F6E6E65637465EA
:10028000643A2000202620494D454920004D6F64E6
:10029000656D3A2000202D3E2000506F776572205A
:1002A0006F66662061667465723A20004572726FEF
:1002B00072206D61782073796D626F6C3A002859F5
:1002C000592F4D4D2F44442C48483A4D4D29204537
:1002D0006E74657220446174652C2054696D6520CC
:1002E0003A0020456E7465722049643A0020456EDC
:1002F000746572204E756D6265723A004E6F74209F
:100300005365740043757272656E743A2000362D21
:10031000506F776572204F666600352D53657420E7
:10032000446174652F54696D6500342D53657420E4
:10033000494400332D4368616E67652F4164642032
:100340004D6173746572204E756D62657200322D59
:1003500054657374204D6F64656D2F534D53003198
:100360002D54657374204861726477617265004D25
:10037000656E753A004E657720446174652F546947
:100380006D653A200020536176656420210020537A
:1003900061766564202100536D732053656E643A65
:1003A000004E756D626572204E6F74205365740047
:1003B00020696E20746865206C61737420686F75A5
:1003C00072002D000A43617574696F6E21205765B4
:1003D000696768742000436865636B205468652012
:1003E000004C4F57204241545445525920210A0095
:1003F000457863656C6C656E740063003000476F10
:100400006F640042616400494420003D006B672E28
:10041000000A417420000A31366820000A3134682D
:1004200020000A31326820000A2036682000683A2D
:1004300020002B000A54696D6520000A4261740097
:10044000562800290A5369673D0020543D000A4898
:100450003D0025004641494C004F4B002F001F1C1A
:100460001F1E1F1E1F1F1E1F1E1F0000000900034E
:100470000200000405080000000000000000000069
:10048000000102040810204080010204081020012D
:1004900002040810204080400404040404040404FE
:1004A0000202020202020303030303030202030027
:1004B000000000230026002900000000002500287D
:1004C000002B0000000000240027002A0000C90BB8
:1004D000C3205628E20B11241FBECFEFD8E0DEBFA9
:1004E000CDBF12E0A0E0B1E0EEE6F3E602C0059079
:1004F0000D92AE39B107D9F726E0AEE9B2E001C0FE
:100500001D92AB35B207E1F712E0CAE6D2E004C0B3
:100510002197FE010E94062EC736D107C9F70E9417
:10052000F12A0C94AA310C940000CF92DF92EF9242
:10053000FF920F931F93CF93DF93EB017B0124E096
:10054000E20EF11C8B016C01C61AD70AC601800F9E
:10055000911F0E945D31F80181938F01EE15FF0517
:10056000A9F7CE01DF91CF911F910F91FF90EF90EE
:10057000DF90CF9008950F931F93CF93DF938C015B
:10058000EB010E945D318883C80101960E945D31B4
:100590008983CE01DF91CF911F910F910895CF9361
:1005A000DF93EB010E945D318883CE01DF91CF9113
:1005B0000895FF920F931F93CF93DF93EC01F62ED4
:1005C00008811981C8010E945D31F81621F06F2D54
:1005D000C8010E946531CE01DF91CF911F910F912B
:1005E000FF900895EF92FF920F931F93CF93DF93A5
:1005F00000D0CDB7DEB78C017B019A838983FB01E4
:100600006081CE0101960E94D9020F5F1F4F1A83AD
:100610000983F7016181CE0101960E94D902C701C9
:100620000F900F90DF91CF911F910F91FF90EF905E
:100630000895AF92BF92CF92DF92EF92FF920F9305
:100640001F93CF93DF9300D0CDB7DEB78B016B0143
:1006500024E0C20ED11C7B015C01A61AB70AC501B9
:100660008E0D9F1D9A838983F70161917F01CE01D1
:1006700001960E94D902EC14FD0489F7C8010F907D
:100680000F90DF91CF911F910F91FF90EF90DF902E
:10069000CF90BF90AF900895CF93DF9300D0CDB7A8
:1006A000DEB79A83898360910101CE0101960E9491
:1006B000D90281E091E00F900F90DF91CF910895E2
:1006C000DC01ED91FC910190F081E02D09940A97F5
:1006D00034F467ED71E080E894E00C94E328089529
:1006E000CF93DF93EC01898190E00E9467034AE099
:1006F00050E0698180E894E00E94D9296BE171E0C3
:1007000080E894E00E94E3288A8190E00E946703D9
:100710004AE050E06A8180E894E00E94D9296BE1C8
:1007200071E080E894E00E94E328688170E0605303
:10073000784F4AE050E080E894E00E94F22961E2BC
:1007400071E080E894E00E94E3288B8190E00E94B1
:1007500067034AE050E06B8180E894E00E94D92969
:1007600067E471E080E894E00E94E3288C8190E0E7
:100770000E9467034AE050E06C8180E894E00E94A8
:10078000D92967E471E080E894E00E94E3288D8134
:1007900090E00E9467034AE050E06D8180E894E0B9
:1007A0000E94E0296CEC71E080E894E0DF91CF9149
:1007B0000C94082980E894E00E94F2286FE673E028
:1007C00080E894E00E94F6286FE573E080E894E00A
:1007D0000E94F6286EE473E080E894E00E94F62818
:1007E00063E373E080E894E00E94F6286AE273E035
:1007F00080E894E00E94F6286AE173E080E894E0E3
:100800000E94F6286EE073E080E894E00E94F628EB
:1008100010922C0310922B030895CF932FED33E009
:10082000F90101900020E9F79F01205E3340821713
:10083000130698F4C82F6CEA72E080E894E00E94F6
:10084000BF284AE050E06C2F80E894E00E94E02945
:100850001092DF0380E0CF91089581E0FCCFBC01CE
:100860008EEB95E00C94082980E894E00E94F22831
:1008700061EB71E080E894E00E94F6286AE070E0A5
:1008800080E090E00E94B22560E08DE00E94782632
:1008900060E083E00E94782668EE73E080E090E0FC
:1008A0000C94B22561E08FE00E943C2660E08EE06F
:1008B0000E943C2660E08FE00C9478268EE00E9437
:1008C000A62621E0892B09F020E0822F08958F923F
:1008D0009F92AF92BF92DF92EF92FF920F931F937E
:1008E000CF93DF9300D01F92CDB7DEB70E945E0496
:1008F000811106C060E070E0CB010E94B225F6CF06
:1009000093E0D92E812C912C54018394DA948FEFAB
:10091000D81225C061E08FE00E94782660E08FE069
:100920000E94782661E08FE00E94782660E08FE0E8
:100930000E9478262B81205869817A8190E0822F4D
:100940000F900F900F90DF91CF911F910F91FF901B
:10095000EF90DF90BF90AF909F908F90089507E049
:1009600010E0EE24E394F12CEC0EFD1EED0CF11CD6
:1009700061E08FE00E9478268EE00E94A626B501F5
:10098000A401002E04C0440F551F661F771F0A9450
:10099000D2F7F7012081892B51F0422B408360E090
:1009A0008FE00E9478260150110910F7AFCF4095D3
:1009B0004223F4CFCF92DF92EF92FF92CF93DF9357
:1009C000D82FC0E0C12CD12C7601CD1741F00E9468
:1009D0006704C60ED71EE81EF91ECF5FF6CF2C2F78
:1009E00030E050E040E0C701B6010E94E72DCA01A7
:1009F000B901DF91CF91FF90EF90DF90CF900895F4
:100A00000E94EF1E1092260360E084E00E94782688
:100A100060E087E00E94782660E088E00C94782609
:100A20008091D1028823B1F00E94000588EB9BE001
:100A3000909305018093040180E490E0909303017A
:100A40008093020184E08093060181E08093260375
:100A50000C94D91E08958091D1028823B1F00E9490
:100A6000000580E293E0909305018093040180E407
:100A700090E0909303018093020184E0809306014B
:100A800081E0809326030C94D91E08958091D102B1
:100A9000882331F1809126038823F1F060910001D1
:100AA000809106010E9478268091000191E08927BB
:100AB000809300016091040170910501811104C0CF
:100AC000609102017091030190E080E046E455E0FE
:100AD0000E94CD1E0C94D91E0E94EF1E0C9400059E
:100AE0000895AF92BF92CF92DF92EF92FF920F9351
:100AF0001F93CF93DF9300D0CDB7DEB77C015B01AE
:100B0000042F10E01017A8F46501C10ED11CF601E6
:100B10006081FA82E982CE0101960E94D902F60133
:100B20008081811101C0102FFFEFEF1AFF0A1F5FB4
:100B3000E9CF0F900F90DF91CF911F910F91FF9010
:100B4000EF90DF90CF90BF90AF900895EF92FF921B
:100B50000F931F93CF93DF938B01040F111DEB01B4
:100B60007C01E61AF70AC017D10739F0C7018C0FCC
:100B70009D1F0E945D318993F6CF1882DF91CF913E
:100B80001F910F91FF90EF900895EF92FF920F93B6
:100B90001F93CF93DF93C82FD62F0E94000580911B
:100BA000D102882381F1DF5FC23639F1C23739F1D2
:100BB000C73639F5C7E001E010E08D2F8150990B61
:100BC0007C010D1700F561E08C2F0E94782664EF00
:100BD00071E080E090E00E94B22560E08C2F0E94DE
:100BE0007826E016F10631F064EF71E080E090E0E5
:100BF0000E94B2250F5F1F4FE4CFC4E0DCCFC8E0F6
:100C0000DACFC0E0D8CFDF91CF911F910F91FF9045
:100C1000EF9008950F931F93CF93DF938C01EB0117
:100C20008FE794E00E94752364E670E00E94B12D86
:100C3000F801718360838FE794E00E9490238436EB
:100C400030F48883DF91CF911F910F91089583E64F
:100C5000F8CF0E94982E21E0892B09F020E0822F06
:100C60000895CF92DF92EF92FF920F931F93CF934D
:100C7000DF936B017C01D42F20E030E0A9010E94BA
:100C80006E2BC5E087FFC4E020E030E0A901C7017A
:100C9000B6010E94CD2C87FD0BC020E030E040E281
:100CA00051E4C701B6010E946E2B18160CF0C3E088
:100CB0000FE313E02D2F4C2FC701B6010E94382EF1
:100CC000DF91CF911F910F91FF90EF90DF90CF9028
:100CD0000895CF92DF92EF92FF920F931F93CF93DD
:100CE000DF9300D0CDB7DEB77B016A01BC018EE98E
:100CF00092E00E94A12E90E080E001E010E02EE959
:100D000032E0C016D10674F0AE014F5F5F4FB701FD
:100D1000C9010E94C22E009729F00F5F1F4F30E0DB
:100D200020E0EFCF0F900F90DF91CF911F910F91A7
:100D3000FF90EF90DF90CF900895CF93DF93EC0179
:100D400083E00E94DA040E941D2C688379838A83E1
:100D50009B8383E00E94DA040E941D2C68837983C0
:100D60008A839B83DF91CF910895CF92DF92EF9298
:100D7000FF921F93CF93DF9300D000D0CDB7DEB7A3
:100D8000182FCE0101960E949D06209127033091D5
:100D900028034091290350912A0369817A818B812C
:100DA0009C810E94012B6B017C0160910701709175
:100DB000080190E080E00E941B2C9B01AC01C70160
:100DC000B6010E94732B20E030E040E251E40E9423
:100DD000D22C0E943F2D20E030E040E251E40E94FE
:100DE000732B6B017C01111128C0C982DA82EB825E
:100DF000FC8220E030E046E953E469817A818B810E
:100E00009C810E94CD2C181644F480E090E0A6E965
:100E1000B3E489839A83AB83BC8369817A818B81B4
:100E20009C810F900F900F900F90DF91CF911F91A9
:100E3000FF90EF90DF90CF9008952DEC3CEC4CE4C8
:100E40005DE30E946E2B87FFD0CF19821A821B822E
:100E50001C82CFCFCF92DF92EF92FF92CF93DF939E
:100E600000D000D000D0CDB7DEB787E293E00E947B
:100E70009D0661E084E00E94782668E97AE380E0DC
:100E800090E00E94B22560E087E00E9478261982F7
:100E90001A821B821C82CE0101960E949D0667E287
:100EA00073E08EE290E00E941903209127033091B5
:100EB00028034091290350912A0369817A818B810B
:100EC0009C810E94012B6B017C0120E030E04AEF05
:100ED00054E40E946E2B87FF11C063E082E70E94FA
:100EE000C50526960FB6F894DEBF0FBECDBFDF91C5
:100EF000CF91FF90EF90DF90CF900895C701B6019A
:100F00000E94EC2B609307017093080186E390E048
:100F10009E838D83CE0105960E94D90287E390E0DF
:100F20009E838D8360910801CE0105960E94D902AF
:100F300062E087E6D4CF8EE480937C006BE470E0BF
:100F400080E090E00E94B22580917A0080648093D6
:100F50007A0080917A0086FDFCCF80917800209104
:100F60007900322F282F032E000C440B550B64EB15
:100F70007BE281E190E00E94E72DCA01B90164564D
:100F800071098109910908950E949B070E941D2CF7
:100F900020E030E04AE754E40E94732B20E030E088
:100FA00040E251E40E94D22C0E943F2D20E030E02C
:100FB00040E251E40E94732B6093DE027093DF02E3
:100FC0008093E0029093E1020895BF92CF92DF9266
:100FD000EF92FF920F931F93CF93DF93CDB7DEB7BE
:100FE0002C970FB6F894DEBF0FBECDBF8C0168E61C
:100FF000DC018D919C910E943820F80180819181C3
:10100000DC01ED91FC910190F081E02D60E009950B
:10101000F801808191810E94C020D80112968C93A2
:10102000882341F140E050E0BA01CE0107960E94CA
:10103000AA2386E0FE013796DE01119601900D92FB
:101040008A95E1F729813A814B815C816D817E81AE
:1010500080E090E02C960FB6F894DEBF0FBECDBFB7
:10106000DF91CF911F910F91FF90EF90DF90CF9084
:10107000BF90089547E068E6F801808191810E9461
:10108000BA208730A9F084E0D80112968C9340E012
:1010900050E0BA01CE0101960E94AA2386E0FE012B
:1010A0003196DE01179601900D928A95E1F7C1CF36
:1010B000F80180819181DC01ED91FC910284F3853E
:1010C000E02D09958F770E94FA24E82EF80180819F
:1010D0009181DC01ED91FC910284F385E02D09956D
:1010E0000E94FA24D82EF80180819181DC01ED91D3
:1010F000FC910284F385E02D09950E941225C82EEB
:10110000F80180819181DC01ED91FC910284F385ED
:10111000E02D0995F80180819181DC01ED91FC9130
:101120000284F385E02D09950E94FA24B82EF80177
:1011300080819181DC01ED91FC910284F385E02DA9
:101140000995F82EF80180819181DC01ED91FC91E7
:101150000284F385E02D09950E94FA2490E08C0129
:101160000053184FF7FE02C00C591F4F8F2D8F7779
:101170000E94FA24005D09838A83BB82CC82DD82CF
:10118000EE8260CFEF92FF920F931F93CF93DF9386
:101190008C01EB0168E6DC018D919C910E94382066
:1011A000F80180819181DC01ED91FC910190F08149
:1011B000E02D67E00995F801E080F1808D810E94C3
:1011C0000825688179817695762F662777956795CA
:1011D0007727682BC7010E946003D801ED90FC902F
:1011E0008C810E9408256881798136E0660F771F1F
:1011F0003A95E1F760787727682BC7010E94600372
:10120000F801E080F1808B810E9408256881798156
:1012100045E0660F771F4A95E1F760787727682BDE
:10122000C7010E9460038A812881398128303105F5
:1012300019F4811101C087E0D801ED90FC900E9463
:1012400008256881798193E0660F771F9A95E1F709
:10125000607C7727682BC7010E946003F8018081BA
:1012600091810E94C020D80112968C93DF91CF917A
:101270001F910F91FF90EF9008951F93CF93DF93ED
:10128000EC01162F68E6888199810E9438208881B8
:101290009981DC01ED91FC910190F081E02D612FAD
:1012A0000995888199810E94C020182F8A83811115
:1012B0001AC041E068E6888199810E94BA20813095
:1012C00039F084E08A83812FDF91CF911F910895B7
:1012D00088819981DC01ED91FC910284F385E02DF8
:1012E0000995182FF0CF10E0EECFCF93DF9300D009
:1012F00000D000D01F92CDB7DEB764E574E08BE07C
:1013000093E00E94742EBC01CE0101960E94A12E92
:1013100069E574E0CE0106960E94742E6AE871E0D9
:1013200080E894E00E94BF286EE08DE293E00E9486
:101330003D09BE0187FD40C080912F0381113CC053
:101340006A5F7F4F80E894E00E94E32862E871E0E2
:1013500080E894E00E94BF288DE293E00E94E507B8
:1013600020931F03309320034093210350932203C3
:1013700060932303709324038FE193E00E94700332
:1013800064E771E080E894E00E94BF288FE794E072
:101390000E94F322BE01811116C06F5F7F4F80E86B
:1013A00094E00E94082927960FB6F894DEBF0FBE7E
:1013B000CDBFDF91CF9108956F5F7F4F80E894E0BC
:1013C0000E940829DDCF6A5F7F4F80E894E00E9489
:1013D000E32861E071E082ED92E00E940A066DE68A
:1013E00071E080E894E00E94BF284AE050E06091FC
:1013F000010180E894E00E94D92962E671E080E86A
:1014000094E00E94BF286091D2027091D3024AE01A
:1014100050E080E894E00E94BA29C5CF0F931F9353
:10142000CF93DF93EC01062F142F68E68881998112
:101430000E94382088819981DC01ED91FC91019016
:10144000F081E02D602F099588819981DC01ED9173
:10145000FC910190F081E02D612F0995888199819F
:101460000E94C0208A83DF91CF911F910F91089530
:10147000AF92BF92CF92DF92EF92FF920F931F93A2
:10148000CF93DF93EC018B016FE00E943D09482F61
:101490004F776FE0CE010E940E0A68E6888199813D
:1014A0000E94382088819981DC01ED91FC910190A6
:1014B000F081E02D60E00995E880F980D701ED9199
:1014C000FC91C080D180F80185810E940825682F99
:1014D000C701F6010995E880F980D701ED91FC91EB
:1014E000C080D180F80184810E940825682FC7013F
:1014F000F6010995E880F980D701ED91FC91C08053
:10150000D180F80183810E940825682FC701F60168
:101510000995D801EC90B3E6F12CBE1520F4ECE966
:10152000EE0E80E8F82EC8010E94B724811101C098
:1015300087E0A880B980D501ED91FC91C080D18071
:101540000E940825682FC501F6010995C880D98039
:10155000D601ED91FC91A080B180F80182810E94BA
:101560000825682FC601F5010995C880D980D801E2
:1015700011968C910E9408258F29682F70E0C60172
:101580000E94600308811981D801ED91FC91C0800F
:10159000D1808E2D0E940825682FC801F60109957B
:1015A000888199810E94C0208A83DF91CF911F9109
:1015B0000F91FF90EF90DF90CF90BF90AF90089584
:1015C000EF92FF920F931F93CF93DF93CDB7DEB7C8
:1015D0002C970FB6F894DEBF0FBECDBF7A01AB01DA
:1015E000BC01CE0107960E945F24CE0107960E949F
:1015F000C42440E15EE0E49E9001E59E300DF49E3F
:10160000300D11248901330F220B330BAB01BC01C8
:10161000400F511F621F731FCE0101960E94AA2323
:1016200086E0FE013196DE01179601900D928A95B3
:10163000E1F7BE01695F7F4F8DE293E00E94380AB7
:101640002C960FB6F894DEBF0FBECDBFDF91CF91C1
:101650001F910F91FF90EF900895CF92DF92EF923C
:10166000FF92CF93DF9300D000D000D01F92CDB770
:10167000DEB71F82BE01695F7F4F81E090E00E946C
:10168000CF020E94C4076B017C01C092DE02D0929F
:10169000DF02E092E002F092E1022AE037ED43E55A
:1016A00050E40E946E2B87FF52C01A821982BE013D
:1016B0006F5F7F4F81E090E00E94F2021F828DE217
:1016C00093E00E94E50720931F033093200340938B
:1016D00021035093220360932303709324038F818B
:1016E0006EE0882309F44CC08DE293E00E943D092E
:1016F000482F47646EE08DE293E00E940E0A84E179
:1017000090E09A8389831B821C821D821E82BE0107
:101710006F5F7F4F8DE293E00E94C2086FE08DE221
:1017200093E00E943D09482F4C7F6FE08DE293E0EB
:101730000E940E0A27960FB6F894DEBF0FBECDBFEB
:10174000DF91CF91FF90EF90DF90CF9008958F8140
:101750008111B5CF2AE939E949E550E4C701B6015D
:101760000E94CD2C87FDABCF81E090E09A838983E6
:10177000BE016F5F7F4F0E94F20281E08F839FCF97
:101780008DE293E00E943D098C7B482F44606EE01F
:10179000CDCF20E046E065E080E894E00E94AA1DFD
:1017A0008FE794E00E94F222EDE2F3E080EF94E014
:1017B00091838083128240E050E0BA018FE193E090
:1017C0000C94AA2380E894E00C944F1D2F923F9232
:1017D0004F925F926F927F928F929F92AF92BF9241
:1017E000CF92DF92EF92FF920F931F93CF93DF93ED
:1017F00000D0CDB7DEB762E370E080E090E00E94F9
:10180000B22588EE482E83E0582E612C712C98E783
:10181000292E312C2CE3E22EF12C80E894E00E945A
:10182000EA1B8C011A82198289836AE070E080E0E9
:1018300090E00E94B22517FF68C00E9481254B01ED
:101840005C018091070390910803A0910903B09176
:101850000A03A5019401281B390B4A0B5B0BCA0133
:10186000B901A30192010E94C52D2A303105ACF2C5
:101870008092070390920803A0920903B0920A0392
:1018800080912B0390912C030A9690932C038093C4
:101890002B039101281B390BC901B7010E94B12DFF
:1018A0008C01CB01B7010E94B12D6C012E363105A0
:1018B00051F480E894E00E94F2286AE972E080E83E
:1018C00094E00E94BF284AE050E0B60180E894E02E
:1018D0000E94B32967E471E080E894E00E94E32865
:1018E0004AE050E0B80180E894E00E94B32965E93D
:1018F00072E080E894E00E94BF280C0D1D1D012BB2
:1019000009F08BCF0E94340488CF0D30110579F097
:101910000A30110561F0BE016F5F7F4F8FED93E0DC
:101920000E94822E80E894E00E94F22876CF80E028
:101930000F900F90DF91CF911F910F91FF90EF903B
:10194000DF90CF90BF90AF909F908F907F906F90DF
:101950005F904F903F902F900895CF93DF93EB01CE
:101960001092DF0380E894E00E94F22864E073E0C4
:1019700080E894E00E94BF28C330D10509F56AE0F1
:1019800071E082EE92E00E942906882391F06CEFCC
:1019900072E080E894E00E94BF286DEE72E080E87B
:1019A00094E00E94BF280E94E60BDF91CF910C9437
:1019B000E60B62EE72E080E894E00E94E328EDCF4F
:1019C000C430D10549F464ED72E080E894E00E94EF
:1019D000E32862EE72E0E3CF259739F78DE293E0DA
:1019E0000E94E50720931F033093200340932103B7
:1019F0005093220360932303709324038FE193E0B9
:101A00000E947003BC0180E894E00E9408296EEBFC
:101A100072E0C5CF2F923F924F925F927F928F924A
:101A20009F92AF92BF92CF92DF92EF92FF920F936D
:101A30001F93CF93DF93CDB7DEB72C970FB6F894F3
:101A4000DEBF0FBECDBF1C017B014A0129012DB7AE
:101A50003EB73C872B87FA011082FB0101900020E2
:101A6000E9F7CF01861B970B0396281B390B0FB69E
:101A7000F8943EBF0FBE2DBF4DB75EB74F5F5F4FAF
:101A80006A016CE271E0C7010E94A82E892B31F532
:101A9000002321F16CE271E0C6010E94A12EB70182
:101AA000C6010E94822E0E9481257B018C0120E0CC
:101AB00030E0A9016B83FC828D831E832F833887DE
:101AC00049875A878EEB95E00E94CF261816190693
:101AD00054F48EEB95E00E94E926F4CFB701C601DD
:101AE0000E94A12EE0CFB6018EEB95E00E9408295E
:101AF000712C0E9481259B01AC0160E070E080E0C8
:101B000090E0AB80BC80CD80DE80EF80F8840985DA
:101B10001A850E94262E273E334041055105610556
:101B200071058105910509F028F58EEB95E00E947D
:101B3000CF26892BF1F28EEB95E00E94E926182F33
:101B40001A8219828983BE016F5F7F4FC4010E9490
:101B5000822E1A3019F01FE9171598F5B101C4014A
:101B60000E94A82E892B51F4B201C4010E94A82E14
:101B7000892B21F186E4F40180831182C401EB8476
:101B8000FC840FB6F894FEBE0FBEEDBE2C960FB6C9
:101B9000F894DEBF0FBECDBFDF91CF911F910F91A3
:101BA000FF90EF90DF90CF90BF90AF909F908F907D
:101BB0007F905F904F903F902F900895F401108296
:101BC000712C7394B2CF0F93CF93DF93D82FC5E0CE
:101BD00001E029E231E04FE353E060E371E084E3A8
:101BE00091E00E940A0D80913F03863409F046C0BF
:101BF00064EF71E080E090E00E94B225C15041F7AF
:101C000067ED71E08FE393E00E94A12EDD2309F4DC
:101C10005FC06CE574E080E393E00E94742EBC0129
:101C20008FE393E00E94822E0DC06CE574E080E3A8
:101C300093E00E94742EBC018FE393E00E94822EF9
:101C4000CA3070F463E074E080E393E00E94742E85
:101C5000BC018FE393E0DF91CF910F910C94822E22
:101C600086EF8C0F69E574E0853070F3CF506EEF2E
:101C700073E0C53048F360EF73E0E6CF6CE270E0EC
:101C80008FE393E00E948D2E892B09F4B9CF42E0B7
:101C900050E061E271E08FE393E00E946906BC01CD
:101CA0008FE393E00E94A12E41E050E06AE371E0EF
:101CB0008FE393E00E946906BC018FE393E00E94EA
:101CC000A12E8FE393E00E94562EC82FD111ADCFE5
:101CD000DF91CF910F9108957F928F929F92AF9253
:101CE000BF92CF92DF92EF92FF920F931F93CF9309
:101CF000DF93CDB7DEB72A970FB6F894DEBF0FBEDD
:101D0000CDBF8DE293E00E94E5075C836D8323E302
:101D100033E343E550E46091DE027091DF0280918D
:101D2000E0029091E1020E94012B26E636E646E6AB
:101D30005FE30E94732B20E030E048EC52E40E9405
:101D4000D22C0E943F2D0E94EC2B762E1F821886EB
:101D500019861A86BE01695F7F4F8AE390E00E9470
:101D600095022F81388549855A856091DA027091F4
:101D7000DB028091DC029091DD020E94012B20E0C9
:101D800030E040E251E40E94D22C0E943F2D20E03E
:101D900030E040E251E40E94732B6B017C01109211
:101DA000DF038090DE029090DF02A090E002B0900E
:101DB000E10223E333E343E550E4C501B4010E94AB
:101DC000CD2C87FD89C126E636E646E650E4C501FE
:101DD000B4010E946E2B18160CF47EC161EE73E004
:101DE0008FE393E00E94742EBC018FED93E00E947C
:101DF000A12E10E067E074E08FE393E00E94742E60
:101E0000BC018FED93E00E94822E64ED72E08FEDB5
:101E100093E00E94822E6BE074E08FE393E00E94D7
:101E2000742EBC018FED93E00E94822E6091DA0245
:101E30007091DB028091DC029091DD0241E00E9412
:101E40003106BC018FED93E00E94822E6DE074E0BC
:101E50008FE393E00E94742EBC018FED93E00E940B
:101E6000822E61E174E08FE393E00E94742EBC0146
:101E70008FED93E00E94822E809109014AE06FE38A
:101E800073E090E00E94E92EBC018FED93E00E9488
:101E9000822E6EE274E08FE393E00E94742EBC0108
:101EA0008FED93E00E94822E20E030E0A901C7016F
:101EB000B6010E94CD2C18165CF462E374E08FE347
:101EC00093E00E94742EBC018FED93E00E94822E5D
:101ED00041E0C701B6010E943106BC018FED93E0DD
:101EE0000E94822E6DE074E08FE393E00E94742ED6
:101EF000BC018FED93E00E94822E64E374E08FE3D7
:101F000093E00E94742EBC018FED93E00E94822E1C
:101F10008C814AE06FE373E090E00E94E92EBC01FF
:101F20008FED93E00E94822E0D8167E471E08FEDCA
:101F300093E00E94822E0A3058F46CEF73E08FE336
:101F400093E00E94742EBC018FED93E00E94822EDC
:101F50004AE06FE373E0802F90E00E94E92EBC011D
:101F60008FED93E00E94822E112319F16EE474E04C
:101F70008FE393E00E94742EBC018FED93E00E94EA
:101F8000822E809101014AE06FE373E090E00E94AD
:101F9000E92EBC018FED93E00E94822E62E574E091
:101FA0008FE393E00E94742EBC018FED93E00E94BA
:101FB000822E6AE474E08FE393E00E94742EBC01E9
:101FC0008FED93E00E94822E4AE06FE373E08091F0
:101FD000D2029091D3020E94E92EBC018FED93E0D2
:101FE0000E94822E6AEF73E08FE393E00E94742ECA
:101FF000BC018FED93E00E94822E6BE374E08FE3CF
:1020000093E00E94742EBC018FED93E00E94822E1B
:102010006BE074E08FE393E00E94742EBC018FEDBF
:1020200093E00E94822E6091DE027091DF02809127
:10203000E0029091E10241E00E943106BC018FED87
:1020400093E00E94822E60E474E08FE393E00E94AC
:10205000742EBC018FED93E00E94822E4AE06FE364
:1020600073E0872D90E00E94E92EBC018FED93E094
:102070000E94822E62E574E08FE393E00E94742E4A
:10208000BC018FED93E00E94822E63E474E08FE345
:1020900093E00E94742EBC018FED93E00E94822E8B
:1020A00081E00E94E30D6FE373E08FED93E02A96E9
:1020B0000FB6F894DEBF0FBECDBFDF91CF911F9159
:1020C0000F91FF90EF90DF90CF90BF90AF909F90D7
:1020D0008F907F900C94822E11E08CCECF92DF9265
:1020E000FF920F931F93CF93DF9366ED73E08FE31F
:1020F00093E00E94742EBC0180E894E00E94E328E3
:102100006AE572E080E894E00E94F62883E2F82E07
:10211000C0E010E0D0E099E1C92ED12C68EE73E068
:1021200080E090E00E94B22501E029E231E04FED2D
:1021300053E06CE371E082E491E00E940A0D892B88
:1021400061F06AE370E08FED93E00E948D2E0097BE
:1021500021F004960E94562EC82F69E471E080E8B1
:1021600094E00E94E3284AE050E06F2D80E894E07C
:102170000E94D92961E571E080E894E00E94E3289B
:102180004AE050E069E180E894E00E94D9296EE4D9
:1021900072E080E894E00E94BF284AE050E0B60177
:1021A0006D1B710980E894E00E94B32964E472E039
:1021B00080E894E00E94BF2864E372E0CC2341F001
:1021C0006AE172E0C13021F0C230F9F466EF71E0EB
:1021D00080E894E00E94BF2880E894E00E94F22802
:1021E000C13089F18C2F8D7F09F5D150FA94DF5FD2
:1021F000D93110F4F11092CF8C2FDF91CF911F9134
:102200000F91FF90DF90CF90089561EE71E0C330A1
:1022100041F068ED71E0C43021F0C530E9F663ECBF
:1022200071E080E894E00E94F628D6CFC53059F0DE
:10223000C33029F4153138F41F5FD150D8CF153190
:10224000D8F3C0E0D4CFD9E1D2CFFF920F931F9340
:10225000CF93DF93CDB7DEB729970FB6F894DEBFE3
:102260000FBECDBF1092040366ED73E08FE393E0E1
:102270000E94742EBC0180E894E00E94E32865EA85
:1022800071E080E894E00E94BF2889E2F82E8091F6
:102290000403863008F074C06CED75E080E090E0D7
:1022A0000E94B22515E001E029E231E04FE353E05E
:1022B00066E571E08CE591E00E940A0D63E671E04D
:1022C00080E894E00E94E32880913F03863441F443
:1022D00064EF71E080E090E00E94B225115019F7A0
:1022E00042E050E069E172E08FE393E00E9469060A
:1022F000BC018FE393E00E94A12E41E050E06AE32D
:1023000071E08FE393E00E946906BC01CE01019663
:102310000E94A12E41E050E06BE171E08FE393E079
:102320000E9469060E94562E8C0142E050E06AE34A
:1023300071E08FE393E00E946906BC018FE393E0B4
:102340000E94A12E809104038F5F809304030531C6
:1023500011050CF49CCF42E050E06EE271E08FE397
:1023600093E00E9469060E94562EAC0155276FE348
:1023700073E0CE0101960E94E00AF092040387CF39
:102380008932B8F464E574E08FE393E00E94742E20
:10239000BC0180E894E00E94082929960FB6F894C1
:1023A000DEBF0FBECDBFDF91CF911F910F91FF9088
:1023B000089565E971E080E894E00E94BF288DE20D
:1023C00093E00E94E50720931F033093200340937E
:1023D00021035093220360932303709324038FE11E
:1023E00093E00E947003D4CF2F923F924F925F925E
:1023F0006F927F928F929F92AF92BF92CF92DF9215
:10240000EF92FF920F931F93CF93DF93CDB7DEB779
:1024100066970FB6F894DEBF0FBECDBF3B01542EBA
:10242000EDB6FEB6FE8AED8AFC0101900020E9F7C8
:1024300031978F01081B190B68012FEFC21AD20ABE
:102440004DB75EB74C195D090FB6F8945EBF0FBE6D
:102450004DBF6DB77EB76F5F7F4F7B01BC01C7017A
:102460000E94A12E8DB79EB78C199D090FB6F894C6
:102470009EBF0FBE8DBFADB7BEB711964D01A60171
:1024800070E060E0CD010E947B2E6701C701800FE4
:10249000911FF70122242394312C8E179F0739F0C6
:1024A00021912C32D1F7BFEF2B1A3B0AF6CF510105
:1024B000AA0CBB1CEDB7FEB7EA19FB090FB6F894DE
:1024C000FEBF0FBEEDBF2DB73EB72F5F3F4F3A8720
:1024D0002987A50170E060E0C9010E947B2E4DB7FD
:1024E0005EB74A195B090FB6F8945EBF0FBE4DBFC9
:1024F0006DB77EB76F5F7F4F7C876B87A50170E0FC
:1025000060E08B859C850E947B2EA985BA85ED9223
:10251000FC92EB85FC859182808230E020E041E0F6
:1025200050E02017310701F1D6018D916D012F5F29
:102530003F4F8C32B1F7FD0131971082CA01880FED
:10254000991FE985FA85E80FF91FB183A083EB8510
:10255000FC858E0F9F1FB401620F731FDC016D930A
:102560007C934F5F5F4FDDCF0E9481257B018C0103
:1025700020E030E0A9016983FA828B831C832D83DC
:102580003E834F835887912C812C830130E020E0DB
:1025900040E050E0BA016D861E872F87388B498B4B
:1025A0005A8B6B8B7C8B0E9481259B01AC0160E078
:1025B00070E080E090E0A980BA80CB80DC80ED8084
:1025C000FE800F8118850E94262EAD84BE84C12C0A
:1025D000D12CE12CF12C00E010E00E942F2E08F00D
:1025E00085C08EEB95E00E94CF26892BE1F28EEB21
:1025F00095E00E94E926482E552049F010EA811600
:10260000910408F45EC01092DF03912C812CCB84DE
:10261000DC84E984FA8410E000E00215130509F374
:102620003601D6018D919C91FC0101900020E9F7C3
:10263000AF0141505109481B590B5701D701ED918A
:10264000FC91E40FF51F2081241148C0480F591F49
:10265000FA014082F2E0CF0ED11C22E0E20EF11C22
:10266000D3016D917C91F501808191810E94982E1A
:10267000892BC9F5552021F0F401E152FC4F10825D
:10268000C801ED88FE880FB6F894FEBE0FBEEDBE01
:1026900066960FB6F894DEBF0FBECDBFDF91CF9127
:1026A0001F910F91FF90EF90DF90CF90BF90AF9070
:1026B0009F908F907F906F905F904F903F902F9062
:1026C0000895F401E152FC4F80832FEF821A920AA1
:1026D00030EA8316910409F09ACF95CF70E060E05C
:1026E0000E947B2EB7CF0F5F1F4F97CF8FEF9FEFCB
:1026F000C8CFCF9326E040E855E260E070E08EEB73
:1027000095E00E94A227C1E063E671E080E894E0D2
:102710000E94E32865E671E08EEB95E00E940829AF
:1027200041E064EF71E088E691E00E94F411892BAA
:1027300081F1CA3039F560E08DE00E9478266AE1C7
:1027400074E080E090E00E94B22561E08DE00E949C
:102750003C2661E08DE00E94782660E971E080E02F
:1027600090E00E94B22526E040E855E260E070E08B
:102770008EEB95E00E94A22761E771E080E894E08B
:102780000E94E328CF5FC63109F0BECF80E0CF9131
:10279000089581E0FCCFCF93DF931092040366EDA0
:1027A00073E08FE393E00E94742EBC0180E894E014
:1027B0000E94E32864E672E080E894E00E94BF286B
:1027C000C0E0D6E0809104038630E8F488E791E029
:1027D0000E942F0441E064EF71E081E891E00E94E3
:1027E000F411C82F843018F4D0930403EBCF68EEB3
:1027F00073E080E090E00E94B225809104038F5F37
:1028000080930403DFCF42E050E067E471E08FED96
:1028100093E00E946906BC0180E894E00E940829C8
:102820008C2FDF91CF910895EF92FF920F931F931A
:10283000CF93DF9300D0CDB7DEB77C018B018AE167
:1028400089831A8269EB71E08EEB95E00E94BF28C4
:10285000B7018EEB95E00E94E32869E172E08EEB10
:1028600095E00E94082940E060EE7EE286E991E072
:102870000E94F411892BB1F4B8018EEB95E00E940F
:10288000E328BE016F5F7F4F8EEB95E00E94082921
:1028900040E060EE7EE28EE991E00E94F41121E0DA
:1028A000892B09F020E0822F0F900F90DF91CF91BC
:1028B0001F910F91FF90EF900895BC018EEB95E072
:1028C0000E94082940E060ED77E080EC91E00E94F2
:1028D000F41121E0181619060CF020E0822F08955B
:1028E000CF93DF93EB01BC018EEB95E00E940829AA
:1028F00040E0BE0183EB91E00E94F41121E0892BBE
:1029000009F020E0822FDF91CF9108950F93CF93AC
:10291000DF93D82F68EE73E08DEC91E00E94701485
:102920008823D9F1CAE001E029E231E04FED53E01C
:1029300069ED71E08FED91E00E940A0D8091DF0357
:10294000863479F5C15079F78AE010923F038B30D5
:1029500051F56CE270E08FED93E00E948D2E892B93
:1029600011F1D53031F466EE71E08FE393E00E940F
:10297000822E43E050E06AE371E08FED93E00E9425
:102980006906BC018FE393E00E94822EEFE3F3E03F
:1029900001900020E9F732971082DF91CF910F91DB
:1029A00008958BE0D2CF6AEE71E08FE393E0DF9180
:1029B000CF910F910C94822E8EEB95E00E94CF2642
:1029C000181619065CF48EEB95E00E94E9266AE081
:1029D00070E080E090E00E94B225EECF1092DF031D
:1029E00062EF71E08EEB95E00E94082941E068E813
:1029F00073E189EF91E00E94F41143E050E06BEC49
:102A000071E08FED93E00C946906CF92DF92EF9224
:102A1000FF92CF93DF9310920503C090DE02D09017
:102A2000DF02E090E002F090E1022AE939E949E5AD
:102A300050E4C701B6010E94CD2C87FDA9C026E64F
:102A400036E646E850E4C701B6010E946E2B181620
:102A50000CF49EC061E08DE00E943C2661E08DE0B8
:102A60000E9478266CE271E080E090E00E94B2253E
:102A70000E942B0566ED73E08FE393E00E94742EB5
:102A8000BC0180E894E00E94E3286DE872E080E8F1
:102A900094E00E94BF280E947913882309F463C040
:102AA00069E574E08FE393E00E94742EBC0180E836
:102AB00094E00E94E32864E872E080E894E00E94D9
:102AC000BF280E94DC14BC0180E894E00E94082921
:102AD0000E94CB1381113AC00E946E10C82FD82FCC
:102AE000DB7FD13009F043C00E94100568E772E037
:102AF00080E894E00E94BF2884E092E00E945D1488
:102B00008BE192E00E945D14D09305038C2F0E940C
:102B100086146FE373E080E894E00E94E3286EE699
:102B200072E080E894E00E94BF2881E00E94E30DFB
:102B30006FE373E080E894E00E940829DF91CF9171
:102B4000FF90EF90DF90CF900C94251162E08130E0
:102B5000D9F161E08230C1F1DF91CF91FF90EF9028
:102B6000DF90CF9008950E9400051092050364E560
:102B700074E08FE393E00E94742EBC0180E894E03F
:102B8000DF91CF91FF90EF90DF90CF900C940829C8
:102B900022E030E0B701A60180E894E00E94DC2A40
:102BA0006AE672E080E894E00E94BF2861EE73E07C
:102BB0008FE393E00E94742EBC0180E894E00E94B1
:102BC00008291092050363E082E7DF91CF91FF901F
:102BD000EF90DF90CF900C94C50561E083E00E94F8
:102BE0003C2661E083E00E94782640E855E260E000
:102BF00070E080E894E00E94D51D61E088E00E94CA
:102C00003C2660E088E00E94782661E087E00E9430
:102C10003C2660E087E00E94782661E084E00E9424
:102C20003C2660E084E00E94782661E089E00E9412
:102C30003C2660E089E00E94782662E082E00E9403
:102C40003C2682E00E94A626892B39F481E08093FD
:102C5000D10261E087E00E947826809125038630CA
:102C600088F482E00E94A626892B61F480912503D6
:102C70008F5F809325036CE271E080E090E00E941A
:102C8000B225EBCF60E087E00E9478266AE071E031
:102C900083EF92E00E94A12E6AE071E082EE92E062
:102CA0000E94A12E80EF94E00E9426208FE794E0FE
:102CB0000E94F3220E942D0B45E064ED72E082E851
:102CC00090E00E94A60541E162EE72E088E890E0A3
:102CD0000E94A6058091D4028F3F71F445E065E221
:102CE00072E082E890E00E94710545E064ED72E0D8
:102CF00082E890E00E94A6058091E2028F3F71F485
:102D000041E16AE071E088E890E00E94710541E1EC
:102D100062EE72E088E890E00E94A6056AE071E049
:102D200082EE92E00E9429066BE272E0811102C0FD
:102D300062EE72E08FE393E00E94A12E80E894E0BF
:102D40000E94F2286AE372E080E894E00E94E3289F
:102D50006CE372E080E894E00E94E32861E271E0B5
:102D600080E894E00E94E3286FE373E080E894E059
:102D70000E94E32861E271E080E894E00E94E32889
:102D800064ED72E080E894E00E94E32861E271E083
:102D900080E894E00E94E3284091DE025091DF0237
:102DA0006091E0027091E10222E030E080E894E07E
:102DB0000E94DC2A61E271E080E894E00E94E3284E
:102DC0008FE193E00E947003BC0180E894E00E94D0
:102DD000E32867E273E08EE290E00E94950286E3CA
:102DE00090E00E945D318093070187E390E00E94AC
:102DF0005D318093080146E455E064EF71E080E0C6
:102E000090E00E94CD1E0E94EF1E0E94520480910D
:102E10002503863008F4C9C061E084E00E9478266A
:102E200060E472E080E894E00E9408291092250393
:102E300080912503863050F060E084E00E9478267F
:102E4000809125038630C8F40C942A0782E00E9402
:102E5000A626892B89F7809125038F5F8093250310
:102E600064EF71E080E090E00E94B22563E671E0DB
:102E700080E894E00E94E328DBCF65E472E080E81C
:102E800094E00E94082961E087E00E947826109271
:102E9000250380912503863000F160E087E00E94E1
:102EA000782680912503863078F161E088E00E94E1
:102EB00078261092250380912503863008F45DC0A2
:102EC00081E08093D00261E089E00E9478260E9430
:102ED000DA0360E088E00C94782682E00E94A6265F
:102EE000892BD9F6809125038F5F8093250364EFAA
:102EF00071E080E090E00E94B22563E671E080E836
:102F000094E00E94E328C5CF6AE071E082EE92E08F
:102F10000E942906811127C081E00E94B50661E068
:102F200071E082ED92E00E940A0680910503811112
:102F300002C00E940515809105038823B1F10E940B
:102F40006C0E6FED73E082EE92E00E94141462EE5C
:102F500072E080E894E00E9408296FED73E080E859
:102F600094E00C94082961EA73E080E894E00E9400
:102F7000F62862E082E70C94C50582E00E94A6264E
:102F8000892B09F09DCF809125038F5F80932503C6
:102F900064EF71E080E090E00E94B22563E671E0AA
:102FA00080E894E00E94E32886CF0895CF92DF92D4
:102FB000EF92FF921F93CF93DF93CDB7DEB72897A1
:102FC0000FB6F894DEBF0FBECDBF8DE293E00E9436
:102FD000E507152F20931F0330932003409321030F
:102FE00050932203609323037093240350930603AA
:102FF0008AE0888761E071E082ED92E00E940A0633
:1030000069E472E080E894E00E94E3284AE050E03E
:103010006091010180E894E00E94D9296EE472E099
:1030200080E894E00E94E3286091D2027091D3027C
:103030004AE050E080E894E00E94B32981E00E94D9
:10304000B5066093DA027093DB028093DC02909302
:10305000DD0265E572E080E894E00E94E32840919B
:10306000DA025091DB026091DC027091DD0222E015
:1030700030E080E894E00E94DE2ABE01685F7F4F66
:1030800089E090E00E94CF02909106038885C12CD0
:10309000D12C7601981709F444C019821A821B8238
:1030A0001C82BE016F5F7F4F82E390E00E94950219
:1030B0006AED72E082E390E00E9419032091DA0247
:1030C0003091DB024091DC025091DD0269817A810E
:1030D0008B819C810E94012B6B017C01163009F0D1
:1030E000BDC06AED72E08AE090E00E94190362EDD3
:1030F00072E08AE190E00E94F2028AE290E00E948F
:103100004C0320E030E040E85FE3C701B6010E94D5
:10311000CD2C181634F48091D102811102C0109385
:10312000090180910901811371C06AE071E082EEAA
:1031300092E00E942906811169C0809105038111E6
:1031400002C00E94051580910503882309F45EC022
:103150000E946C0E20E030E040E85FE3C701B6015A
:103160000E94CD2C87FDAEC064EC73E08FE393E04A
:103170000E94742EBC018FED93E00E94822E20E00D
:1031800030E040E85FE3C701B6010E94CD2C18167D
:103190005CF462EC73E08FE393E00E94742EBC0158
:1031A0008FED93E00E94822E41E0C701B6010E949C
:1031B0003106BC018FED93E00E94822E6DE074E039
:1031C0008FE393E00E94742EBC018FED93E00E9488
:1031D000822E60EB73E08FE393E00E94742EBC01BB
:1031E0008FED93E00E94822E6FED73E082EE92E00D
:1031F0000E94141460ED77E080E090E00E94B22518
:1032000060ED77E080E090E00E94B225888581172C
:1032100049F089E090E09A838983612FCE0101967D
:103220000E94D9029091060380910901981306C06B
:103230006AED72E08AE390E00E9419030E94340470
:1032400028960FB6F894DEBF0FBECDBFDF91CF91A9
:103250001F91FF90EF90DF90CF9008951C3079F48C
:103260006AED72E08EE090E00E94190362ED72E078
:1032700082E290E00E94F2028BE290E040CF1E30AA
:1032800079F46AED72E082E190E00E94190362ED48
:1032900072E08EE190E00E94F2028CE290E02FCF8B
:1032A000103109F02ECF6AED72E086E190E00E94C5
:1032B000190362ED72E086E290E00E94F2028DE274
:1032C00090E01DCF1F8219821A821B821C821E82EF
:1032D0001D82BE016F5F7F4F8AE090E00E949502E1
:1032E000BE016B5F7F4F8AE190E00E94BB0268E203
:1032F00074E08FE393E00E94742EBC018FED93E0A5
:103300000E94822E69817A818B819C8141E00E949A
:103310003106BC018FED93E00E94822E6CE574E0D3
:103320008FE393E00E94742EBC018FED93E00E9426
:10333000822E4AE06FE373E08D819E810E94E92E28
:10334000BC018FED93E00E94822EBE01695F7F4F2A
:103350008AE290E00E94CF026CE574E08FE393E094
:103360000E94742EBC018FED93E00E94822E8F810B
:103370004AE06FE373E090E00E94E92EBC018FED1C
:1033800093E00E94822EBE016F5F7F4F8EE090E03F
:103390000E949502BE016B5F7F4F82E290E00E9427
:1033A000BB0262E274E08FE393E00E94742EBC01E2
:1033B0008FED93E00E94822E69817A818B819C81BE
:1033C00041E00E943106BC018FED93E00E94822E05
:1033D0006CE574E08FE393E00E94742EBC018FEDE6
:1033E00093E00E94822E4AE06FE373E08D819E811C
:1033F0000E94E92EBC018FED93E00E94822EBE0157
:10340000695F7F4F8BE290E00E94CF026CE574E031
:103410008FE393E00E94742EBC018FED93E00E9435
:10342000822E8F814AE06FE373E090E00E94E92EE4
:10343000BC018FED93E00E94822EBE016F5F7F4F33
:1034400082E190E00E949502BE016B5F7F4F8EE1AA
:1034500090E00E94BB026CE174E08FE393E00E9475
:10346000742EBC018FED93E00E94822E69817A81D7
:103470008B819C8141E00E943106BC018FED93E07D
:103480000E94822E6CE574E08FE393E00E94742E1C
:10349000BC018FED93E00E94822E4AE06FE373E05F
:1034A0008D819E810E94E92EBC018FED93E00E94E8
:1034B000822EBE01695F7F4F8CE290E00E94CF02B6
:1034C0006CE574E08FE393E00E94742EBC018FEDF5
:1034D00093E00E94822E8F814AE06FE373E090E0D8
:1034E0000E94E92EBC018FED93E00E94822EBE0166
:1034F0006F5F7F4F86E190E00E949502BE016B5F97
:103500007F4F86E290E00E94BB0266E174E08FE3A9
:1035100093E00E94742EBC018FED93E00E94822EF6
:1035200069817A818B819C8141E00E943106BC01D6
:103530008FED93E00E94822E6CE574E08FE393E0C0
:103540000E94742EBC018FED93E00E94822E4AE00F
:103550006FE373E08D819E810E94E92EBC018FEDA7
:1035600093E00E94822EBE01695F7F4F8DE290E062
:103570000E94CF026CE574E08FE393E00E94742E0A
:10358000BC018FED93E00E94822E8F814AE06FE3B1
:1035900073E090E00E94E92E22CECF93DF93CDB767
:1035A000DEB729970FB6F894DEBF0FBECDBF80916E
:1035B000D002882309F408C10E94E60B8FED93E046
:1035C0000E94562E8330910509F451C044F4813095
:1035D0009105E1F00297F9F00E94DA0319C08530F5
:1035E000910509F4A3C00CF473C00697A9F760E035
:1035F00089E00E9478260E94340429960FB6F89438
:10360000DEBF0FBECDBFDF91CF9108950E94750937
:103610001092DF03F2CF80910503811102C00E9456
:10362000051580910503882399F30E946C0E67E9C4
:1036300073E080E894E00E94BF286FED73E082EEB3
:1036400092E00E94141469E574E0811102C064E5FF
:1036500074E080E393E00E94742EBC0180E894E063
:103660000E94082960E08DE00E947826D1CF63E0B7
:1036700070E08FED93E00E94AD0C81E10E940D049B
:10368000882309F4BACF8091DF0341E16AE071E059
:10369000882311F06FED73E088E890E00E947105D7
:1036A00041E162EE72E088E890E00E94A60580E8C1
:1036B00094E00E94F2286FED73E080E894E00E94AD
:1036C000E3286EE873E080E894E00E94F628A0CF3B
:1036D00064E070E08FED93E00E94AD0C85E00E9405
:1036E0000D04882309F489CF45E06DE171E082E89B
:1036F00090E00E94710545E06FED73E082E890E094
:103700000E94710545E064ED72E082E890E00E945D
:10371000A60580E894E00E94F22864ED72E080E85B
:1037200094E00E94E32865E873E0CDCF65E070E0A7
:103730008FED93E00E94AD0C8EE00E940D04882373
:1037400009F45BCF41E050E06AE371E08FED93E074
:103750000E946906BC01CE0101960E94A12E42E0A2
:1037600050E06AE371E08FED93E00E946906BC01CE
:103770008FE393E00E94A12E50E040E06FE373E0FE
:10378000CE0101960E94E00A65E773E080E894E0CC
:103790000E94BF288DE293E00E94E50720931F035B
:1037A000309320034093210350932203609323031B
:1037B000709324038FE193E00E947003BC0180E8C2
:1037C00094E00E94082924CF0E94D61716CF90E0DB
:1037D00080E008952091E1043091E2042817390730
:1037E000B9F490919F048091A004981789F0E0911A
:1037F0009F04F0E0EF55FB4F808120919F0430E063
:103800002F5F3F4F2F73332720939F0490E008953D
:103810008FEF9FEF0895EF92FF920F931F93CF9337
:10382000DF93DC015C96ED90FC905D97E114F10470
:1038300079F481E090E013969C938E93129790E038
:1038400080E0DF91CF911F910F91FF90EF9008954D
:103850005196ED91FC91529750968C915097982FDC
:1038600090950FB75E962C915E97122F127021FDE6
:103870006095F8942081112319F1282B2083E7010A
:103880002197F1F728E0462F50E0308160FF1AC001
:10389000382B3083E7012197F1F7BA0175956795C9
:1038A000215089F7112381F08081892380830FBF04
:1038B0005C968D919C910197F1F781E090E0C1CFEA
:1038C0002923DCCF3923E5CF9081892BEFCF0895D1
:1038D0002091E1043091E2042817390771F49091A6
:1038E0009F048091A004981741F0E0919F04F0E0BC
:1038F000EF55FB4F808190E008958FEF9FEF089583
:103900002091E1043091E2042817390771F4809185
:10391000A00420919F0490E0805C9F4F821B91093E
:1039200060E470E00E94B12D089590E080E0089579
:10393000E091E104F091E204E817F90769F4A38942
:10394000B4899C918589809589238C931092E20497
:103950001092E10481E0089580E00895CF93DF9311
:10396000EC018A8D9B8D892B01F18091E10490916E
:10397000E2048C179D07C9F0009711F00E94981C73
:103980008E8D8E7F8E8F1092A00410929F04D09304
:10399000E204C093E104EB89FC8980819D89892B35
:1039A000808381E0DF91CF91089580E0FBCF1F926B
:1039B0000F920FB60F9211242F933F934F935F9363
:1039C0006F937F938F939F93AF93BF93EF93FF93E7
:1039D000E091E104F091E204309749F0A685B785C3
:1039E0008585968D91FF14C09C918923A1F4FF9148
:1039F000EF91BF91AF919F918F917F916F915F9167
:103A00004F913F912F910F900FBE0F901F901895DF
:103A10009C91892361F7A389B4899C9185898095BC
:103A200089238C93868997890197F1F7608D718D31
:103A3000A685B785558538E020E0CB010197F1F7E1
:103A4000822F90E095958795282F4C91452309F07A
:103A50002068315091F7868D81FD20958091A004DA
:103A600090E001968F73992730919F04381799F051
:103A7000A091A004B0E0AF55BB4F2C938093A0045D
:103A8000828D938D0197F1F7A389B4898C919589E3
:103A9000892B8C93ACCF868D8160868FF1CF2FE5FB
:103AA00032E0FC01318320830C94981C1F93CF9348
:103AB000DF93EC01162F6E8D6695617081E06827AB
:103AC000812F0E94782661E0812F0E943C26812F61
:103AD000110F990BFC01EF57FB4FE491E88BFC01B0
:103AE000E856FB4FE491F0E0EE0FFF1FE754FB4F69
:103AF000859194919A8B898BDF91CF911F91089535
:103B00001F93CF93DF93EC01162F60E0812F0E946B
:103B10003C268E8D81FD04C061E0812F0E947826B5
:103B20001C87812F110F990BFC01EF57FB4FE4917C
:103B3000ED87FC01E856FB4FE491F0E0EE0FFF1F2C
:103B4000E155FB4F859194919F878E87DF91CF91AF
:103B50001F9108951F93CF93DF93EC01162F1B82C3
:103B60001A8288EE93E0A0E0B0E08C839D83AE8360
:103B7000BF838FE592E0998388831F8A1E8A198EFE
:103B8000188E1B8E1A8E1D8E1C8E8E8D8E7F20FBA6
:103B900081F98E8F642FCE010E94561D612FCE01B8
:103BA000DF91CF911F910C94801DCF93DF93EC0197
:103BB0009A01AB011B8E1A8E198E188E1F8A1E8ACF
:103BC00060E874E88EE190E00E94E72DF901C901F8
:103BD00003972430310510F481E090E09D8F8C8FA5
:103BE0006C85673108F054C0C9019695879584317A
:103BF000910508F452C043979F8B8E8BC90105979E
:103C0000369710F481E090E0998F888FC901880F72
:103C1000991F280F391F36952795369527952D30F2
:103C2000310508F43DC02C5031093B8F2A8F90910B
:103C3000680084E0683054F081E06E303CF082E04F
:103C4000643124F081E0663109F480E0892B8093AF
:103C500068009C852DE630E0983064F09E301CF1C1
:103C6000943134F09631FCF030E020E0963111F4DC
:103C70002CE630E03C8B2B8B9830C4F481E001C003
:103C8000880F9A95EAF78D8B8C8D9D8D0197F1F7B2
:103C9000CE01DF91CF910C94AE1C81E090E0ACCFCF
:103CA00021E030E0C2CF2BE630E0E4CF9E3014F4C8
:103CB0009850E4CF963114F49E50E0CF80E49631D2
:103CC00011F380E0E0CFCF92DF92EF92FF920F935B
:103CD0001F9369017A01611571058105910509F04C
:103CE00053C081E090E0A0E0B0E08093EC049093BA
:103CF000ED04A093EE04B093EF041093EB04009353
:103D0000EA04809170008E7F809370008091B000F3
:103D10008C7F8093B0008091B100877F8093B10049
:103D20008091B6008F7D8093B600809170008D7F6A
:103D3000809370008091B10084608093B100809185
:103D4000B1008C7F8093B10020E034E244EF5AE46C
:103D5000C701B6010E94D22C20E030E040E85CE3CD
:103D60000E94D22C0E94E52B20E031E0C901861B85
:103D7000970B9093E4048093E3041F910F91FF90BD
:103D8000EF90DF90CF9008956093EC047093ED0472
:103D90008093EE049093EF04B0CF0F931F938A01AA
:103DA0002FE632E143E85AE30E94631E1F910F9110
:103DB00008951092E6041092E7041092E80410921D
:103DC000E9041092E5048091E3049091E404809367
:103DD000B200E0E7F0E08081816080830895E0E751
:103DE000F0E080818E7F808308958091E604909139
:103DF000E704A091E804B091E9040196A11DB11D6A
:103E00008093E6049093E704A093E804B093E90458
:103E10008091E6049091E704A091E804B091E90450
:103E20004091EC045091ED046091EE047091EF0428
:103E300084179507A607B70710F18091E504811153
:103E40001EC081E08093E5048091E6049091E70430
:103E5000A091E804B091E904841B950BA60BB70B65
:103E60008093E6049093E704A093E804B093E904F8
:103E7000E091EA04F091EB0409951092E5040895AD
:103E80001F920F920FB60F9211242F933F934F93CF
:103E90005F936F937F938F939F93AF93BF93EF93B2
:103EA000FF938091E3049091E4048093B2000E9418
:103EB000F51EFF91EF91BF91AF919F918F917F91EF
:103EC0006F915F914F913F912F910F900FBE0F9087
:103ED0001F9018958091240590912505891B990BB9
:103EE000089590912505809124052FEF3FEF9817B5
:103EF00048F4E92FF0E0EA5DFA4F208130E09F5F5F
:103F000090932505C9010895E09125058091240528
:103F1000E81730F4F0E0EA5DFA4F808190E0089510
:103F20008FEF9FEF08950895CF93DF93EC01E09119
:103F3000FC04F091FD043097F1F0909125058091FB
:103F400024059817C0F090E0292F30E02617370796
:103F500054F4DE01A20FB31F4C912A5D3A4FD901F0
:103F60004C939F5FF1CF1092250560932405CB0100
:103F7000DF91CF910994DF91CF910895E091FE04F4
:103F8000F091FF04309729F010920205109201057C
:103F900009940895CF93DF931F92CDB7DEB769835D
:103FA000209100052223F9F020910105203258F0DC
:103FB00021E030E0FC013383228390E080E00F9029
:103FC000DF91CF91089580910205E82FF0E0ED5F39
:103FD000FA4F998190838F5F80930205809301054A
:103FE00081E090E0ECCF61E0CE0101960E9491214A
:103FF000F7CFCF92DF92EF92FF920F931F93CF9361
:10400000DF937C01CB018A0120910005222389F0F6
:10401000EB016B01C40ED51ECC15DD0569F069916D
:10402000D701ED91FC910190F081E02DC701099538
:10403000F3CF642F0E949121C801DF91CF911F918E
:104040000F91FF90EF90DF90CF900895109225058B
:104050001092240510920205109201050E94D420AE
:104060008EEB9FE10E94BD2184E99FE10C94B82171
:1040700081E0809300056093230510920205109261
:10408000010508950C9438200F93062F21E04091EC
:10409000010563E075E0809123050E943A211092AA
:1040A000020510920105109200050F9108954F929C
:1040B0005F926F927F92AF92BF92CF92EF92FF92F8
:1040C0000F931F93CF93DF935C01F62ED42F28011B
:1040D0003901EE2019F10E943820CE2DC43008F0AD
:1040E000C3E0C150B8F028E0C29FC0011124A30171
:1040F000920104C056954795379527958A95D2F732
:10410000B901D501ED91FC910190F081E02DC5013F
:104110000995E7CF60E0C5010E9444204D2FD132C0
:1041200008F040E22C2D66E275E08F2D0E94F2200F
:104130001092250580932405DF91CF911F910F9157
:10414000FF90EF90CF90BF90AF907F906F905F9077
:104150004F900895CF92EF920F931F93C22EE12CB0
:1041600000E010E098010E9457201F910F91EF90FE
:10417000CF90089521E00C94AA2021E00C94AA206D
:1041800061E00C944420E0EFF4E01382128288EEA8
:1041900093E0A0E0B0E084839583A683B78381E7B2
:1041A00092E09183808308951092B30581E080931B
:1041B000B1051092B00561E082E10E94782661E0CD
:1041C00083E10E947826E9EBF0E080818E7F808396
:1041D00080818D7F808380E28093B80085E4809326
:1041E000BC000895413208F043C09091B30591118D
:1041F000FCCF91E09093B3052093B1052FEF20936E
:10420000460510928B05240F20938A059093B205E2
:104210009091B205880F892B8093B2058091B005EB
:10422000813009F51092B0058091B2058093BB00F2
:104230008091BC0083FDF8CF85EC8093BC00809119
:10424000B3058130E1F380918B05841710F4409120
:104250008B05ACE8B5E0962FFB018E2F891B8417E8
:1042600020F0842F089585EEE8CF8D918193F5CFCE
:1042700040E0F7CF0F93413208F04BC09091B30567
:104280009111FCCF92E09093B3050093B1059FEF9D
:104290009093460510928B0540938A05362FACE823
:1042A000B5E0FB019E2F931B941770F11092B2059D
:1042B0009091B205880F892B8093B2058091B0054B
:1042C000813029F51092B0058091B2058093BB0032
:1042D0008091BC0083FDF8CF85EC8093BC00222345
:1042E00021F08091B3058230D1F3809146058F3F54
:1042F00091F080914605803281F0809146058033AF
:1043000071F084E00F91089591919D93CBCF85EE4C
:10431000E4CF81E0F7CF80E0F5CF82E0F3CF83E018
:10432000F1CF20916805260F3327331F2132310545
:10433000ECF42091B305FC0190E080E0243069F0BA
:1043400082E00895A09168052191AC0146595A4F29
:10435000A40FB52FB11D2C930196861798F3809169
:104360006805680F6093680580E0089581E008950E
:104370009093AD058093AC0508959093AF0580931D
:10438000AE05089585ED8093BC008091BC0084FD4E
:10439000FCCF1092B305089585EC8093BC00109279
:1043A000B30508951F920F920FB60F9211242F9309
:1043B0003F934F935F936F937F938F939F93AF93AD
:1043C000BF93EF93FF938091B900887F803609F403
:1043D0004CC008F03FC0883209F4A8C018F58031FD
:1043E00009F49CC0B8F4882309F4F9C0883009F4B2
:1043F00095C0FF91EF91BF91AF919F918F917F9168
:104400006F915F914F913F912F910F900FBE0F9041
:104410001F901895883109F489C0803251F7809334
:10442000460515C0803409F49EC048F48033B9F3C2
:104430008833F9F6809346050E94CC21DACF803587
:1044400009F485C0883509F496C0883491F60E9435
:10445000C221CFCF883909F48CC038F5883729F0CC
:1044600050F4883611F0803721F683E08093B3054D
:104470001092470557C0883809F47BC0803919F07D
:10448000803809F0B6CF80914705803208F071C0BE
:10449000E091470581E08E0F809347058091BB0036
:1044A000F0E0E85BFA4F80833DC0803B39F0E0F4F8
:1044B000803A09F479C0883A09F09BCF84E0809370
:1044C000B3051092690510926805E091AE05F09170
:1044D000AF0509958091680581110FC081E0809337
:1044E000680510926A0509C0803C09F476C0883CD2
:1044F00009F473C0883B09F07CCFE091690581E045
:104500008E0F80936905F0E0E659FA4F8081809321
:10451000BB00909169058091680529C08091B20522
:104520008093BB0085EC8093BC0063CF90918B059A
:1045300080918A05981758F5E0918B0581E08E0FE0
:1045400080938B05F0E0E457FA4F8081E9CFE0914A
:104550008B0581E08E0F80938B058091BB00F0E08E
:10456000E457FA4F808390918B0580918A059817C4
:10457000C8F285E8D8CFE0918B0581E08E0F80935B
:104580008B058091BB00F0E0E457FA4F8083809167
:10459000B10581115CCF81E08093B00584EA8093FE
:1045A000BC001092B30525CF0E94CC218091470515
:1045B000803230F4E0914705F0E0E85BFA4F10827A
:1045C0006091470570E0E091AC05F091AD0588E49D
:1045D00095E00995109247050CCF85ECE0CF10923D
:1045E000460535CF089580EF94E00E94262060E4D0
:1045F00070E080EF94E00E94422080EF94E00E94FF
:10460000C020811103C081E08093B4058091B4057E
:104610000895EF92FF920F931F93CF93DF938B0137
:104620007A0160E470E080EF94E00E944220D0E0E4
:10463000C0E0CE15DF0554F40C0F1D1FF80160819A
:1046400080EF94E00E94CA1F2196F3CF80EF94E0A0
:10465000DF91CF911F910F91FF90EF900C94C020AC
:10466000EF92FF920F931F93CF93DF938B017A0109
:1046700060E470E080EF94E00E94BD20E801CE018C
:10468000801B910B8E159F0534F480EF94E00E94FF
:10469000711F8993F4CF81E090E0DF91CF911F915A
:1046A0000F91FF90EF900895EF92FF920F931F9359
:1046B000CF93DF931F92CDB7DEB78C0169837A0168
:1046C00041E050E0BE016F5F7F4F0E94092342E04E
:1046D00050E0B701C8010E9430230F90DF91CF91C5
:1046E0001F910F91FF90EF900895CF93DF9300D02B
:1046F000CDB7DEB7AE014F5F5F4F63EE0E9454232C
:1047000029813A81322723273227A4EAB4E40E9480
:104710000C2E8D5492410F900F90DF91CF91089500
:10472000CF93DF9300D0CDB7DEB7AE014F5F5F4FC1
:1047300065EE0E94542329813A81322723273227AC
:10474000ADE7B0E00E940C2E06970F900F90DF911E
:10475000CF9108954F925F926F927F928F929F9226
:10476000AF92BF92CF92DF92EF92FF92CF93DF93FF
:10477000EC016A017B012CE3822E912CA12CB12C3F
:10478000CB01BA01A50194010E94C52D6D83CA0118
:10479000B901A50194010E94C52D6C83C701B60122
:1047A00020E13EE040E050E00E94C52DCA01B90181
:1047B00028E130E040E050E00E94C52D6B83C70146
:1047C000B60120E831E541E050E00E94C52D188295
:1047D00063E9862E6EEF962EAA24AA94BA2C8881BD
:1047E000782F7370C12CD12C7601C394772319F0E4
:1047F000C12CD12C7601260137019DE6490E91E0AE
:10480000591E611C711C241535054605570578F0A5
:10481000240135014C185D086E087F0873016201A0
:104820002C0D3D1D4E1D5F1D8F5F8883D8CF81E00D
:1048300089836981862F8150990BFC01E25AFB4FD5
:10484000E491711103C0623009F4EF5F8E2F90E0A4
:10485000B0E0A0E0281739074A075B0738F0281BAB
:10486000390B4A0B5B0B6F5F6983E3CF2F5F2A83A2
:10487000DF91CF91FF90EF90DF90CF90BF90AF90FE
:104880009F908F907F906F905F904F900895FC0164
:104890009F012F5F3F4F80818F7E803269F080E0E3
:1048A0002AE0919130ED390F3A3040F4829F900D1B
:1048B000112480ED890FF5CFF901EACF0895EF9229
:1048C000FF920F931F93CF93DF93EC017B018A013B
:1048D000CB010E9447248883C70103960E94472486
:1048E0008983C70106960E9447248A83C8010E94D3
:1048F00047248B83C80103960E9447248C83C801F8
:1049000006960E9447248D83DF91CF911F910F91CE
:10491000FF90EF900895DC0150E0EEE5F4E081E0D7
:10492000861730F49491490F511D8F5F3196F8CF5F
:10493000633038F0CD0183709927892B11F44F5FD4
:104940005F4F9D012D5F3F4F3695279536952795F3
:104950006DE671E0A69FC001A79F900DB69F900DD8
:1049600011240197820F931F840F951F0895FC0156
:1049700080814281618190E00E948B24069667E0ED
:1049800070E00E949D2D0895EF92FF920F931F9368
:10499000CF93DF93EC0188814A81698190E00E9486
:1049A0008B249C01A8E1B0E00E940C2E2B817B019E
:1049B0008C01E20EF11C011D111DA8019701ACE351
:1049C000B0E00E941B2E2C817B018C01E20EF11CB9
:1049D000011D111DA80197010E941B2E2D81620F40
:1049E000711D811D911DDF91CF911F910F91FF903E
:1049F000EF900895282F30E094E0359527959A950B
:104A0000E1F7922F990F990F291B220F820F08951A
:104A1000282F6AE00E94912D982F880F890F880F08
:104A2000820F089586FF15C0982F9F71492F50E07F
:104A300024E0559547952A95E1F7242F220F220F60
:104A4000342F321B232F220F290F85FD245F822F45
:104A50000895282F30E094E0359527959A95E1F751
:104A6000922F990F990F291B220F280FF0CF1F9219
:104A70000F920FB60F9211242F933F938F939F9312
:104A8000AF93BF938091BA059091BB05A091BC05EF
:104A9000B091BD053091B90526E0230F2D3768F19F
:104AA00029E8230F0396A11DB11D2093B90580931A
:104AB000BA059093BB05A093BC05B093BD0580914A
:104AC000B5059091B605A091B705B091B8050196CE
:104AD000A11DB11D8093B5059093B605A093B705B0
:104AE000B093B805BF91AF919F918F913F912F9156
:104AF0000F900FBE0F901F9018950296A11DB11D2B
:104B0000D4CF2FB7F8946091BA057091BB0580910E
:104B1000BC059091BD052FBF08953FB7F8948091D3
:104B2000B5059091B605A091B705B091B80526B529
:104B3000A89B05C02F3F19F00196A11DB11D3FBFD5
:104B4000BA2FA92F982F8827BC01CD01620F711DA4
:104B5000811D911D43E0660F771F881F991F4A959D
:104B6000D1F708958F929F92AF92BF92CF92DF922A
:104B7000EF92FF926B017C010E948D254B015C013D
:104B8000C114D104E104F104E9F00E94002B0E9459
:104B90008D25681979098A099B09683E734081054A
:104BA000910570F321E0C21AD108E108F10888EEFE
:104BB000880E83E0981EA11CB11CC114D104E1042D
:104BC000F10429F7FF90EF90DF90CF90BF90AF9066
:104BD0009F908F900895789484B5836084BD85B547
:104BE000836085BDEEE6F0E0808181608083E1E84E
:104BF000F0E082E08083808181608083E0E8F0E003
:104C0000808181608083E1EBF0E08081846080833B
:104C1000E0EBF0E080818160808386E880937A0019
:104C20001092C1000895843081F028F48230E9F0B8
:104C30008330F9F00895883071F0893091F0853033
:104C4000B9F4809180008F7D03C0809180008F77C0
:104C50008093800008958091B0008F778093B0009A
:104C600008958091B0008F7DF9CF84B58F7784BD92
:104C7000089584B58F7DFBCFCF93DF9390E0FC0147
:104C8000EF57FB4F249188569B4FFC01849188235A
:104C9000C9F090E0880F991FFC01ED53FB4FA591DF
:104CA000B491FC01E754FB4FC591D49161110DC043
:104CB0009FB7F8948C91209582238C938881282328
:104CC00028839FBFDF91CF910895623051F49FB741
:104CD000F8943C91822F809583238C93E8812E2B2E
:104CE000EFCF8FB7F894EC912E2B2C938FBFEACF98
:104CF0001F93CF93DF93282F30E0F901E659FB4F44
:104D00008491F901EF57FB4FD491F901E856FB4F1D
:104D1000C491CC23A9F0162F81110E941326EC2FE9
:104D2000F0E0EE0FFF1FE754FB4FA591B4918FB752
:104D3000F894EC91111108C0D095DE23DC938FBF5D
:104D4000DF91CF911F910895DE2BF8CFCF93DF93A2
:104D5000282F30E0F901E659FB4F8491F901EF5714
:104D6000FB4FD491F901E856FB4FC491CC23A1F03D
:104D700081110E941326EC2FF0E0EE0FFF1FE1558A
:104D8000FB4FA591B491EC91ED2381E090E009F403
:104D900080E0DF91CF91089580E090E0FACFFC01B0
:104DA000918D228D892F90E0805C9F4F821B91090D
:104DB0008F7399270895FC01918D828D981731F09A
:104DC000828DE80FF11D858D90E008958FEF9FEFA4
:104DD0000895FC01918D828D981761F0A28DAE0F20
:104DE000BF2FB11D5D968C91928D9F5F9F73928FA7
:104DF00090E008958FEF9FEF0895FC01538D448D4F
:104E0000252F30E0842F90E0821B930B541710F075
:104E1000CF960895019708958CE498E2892B49F084
:104E200080E090E0892B29F00E944C2881110C949D
:104E300000000895FC01A48DA80FB92FB11DA35A3D
:104E4000BF4F2C91848D90E001968F739927848FAA
:104E5000A689B7892C93A089B1898C9180648C93A1
:104E6000938D848D981306C00288F389E02D80818C
:104E70008F7D80830895CF93DF93EC01888D882305
:104E8000B9F0AA89BB89E889F9898C9185FD03C0AD
:104E9000808186FD0DC00FB607FCF7CF8C9185FF92
:104EA000F2CF808185FFEDCFCE010E941A27E9CF96
:104EB000DF91CF910895EF92FF920F931F93CF93BD
:104EC000DF93EC0181E0888F9B8D8C8D981316C049
:104ED000E889F989808185FF11C0EE89FF896083A7
:104EE000E889F98980818064808381E090E0DF91A6
:104EF000CF911F910F91FF90EF900895F62E0B8D9B
:104F000010E00F5F1F4F0F731127E02E8C8D8E1155
:104F10000CC00FB607FCFACFE889F989808185FFBC
:104F2000F5CFCE010E941A27F1CFEB8DEC0FFD2FAC
:104F3000F11DE35AFF4FF0820B8FEA89FB898081D4
:104F40008062D2CFCF92DF92EF92FF921F93CF93E6
:104F5000DF93EC016A017B01122F60E874E88EE1B7
:104F600090E0A70196010E94C52D21503109410909
:104F700051095695479537952795E889F98982E033
:104F80008083211580E1380798F0E889F98910823B
:104F900060E472E48FE090E0A70196010E94C52DC5
:104FA0002150310941095109569547953795279563
:104FB000EC85FD853083EE85FF852083188EEC8996
:104FC000FD891083EA89FB89808188698083EA8969
:104FD000FB8980818F7D8083DF91CF911F91FF902E
:104FE000EF90DF90CF9008951F920F920FB60F921F
:104FF00011242F938F939F93EF93FF93E091CE050E
:10500000F091CF058081E091D405F091D50582FD26
:105010001BC090818091D7058F5F8F732091D80539
:10502000821741F0E091D705F0E0E254FA4F958FF6
:105030008093D705FF91EF919F918F912F910F90C2
:105040000FBE0F901F9018958081F4CF1F920F9282
:105050000FB60F9211242F933F934F935F936F934B
:105060007F938F939F93AF93BF93EF93FF938EEBB9
:1050700095E00E941A27FF91EF91BF91AF919F9108
:105080008F917F916F915F914F913F912F910F90F1
:105090000FBE0F901F9018958EEB95E00E94CF26C3
:1050A00021E0892B09F420E0822F0895EEEBF5E052
:1050B0001382128288EE93E0A0E0B0E084839583AF
:1050C000A683B78383E892E09183808385EC90E0A8
:1050D0009587848784EC90E09787868780EC90E0C2
:1050E000918B808B81EC90E0938B828B82EC90E0B3
:1050F000958B848B86EC90E0978B868B118E128E2D
:10510000138E148E0895AF92BF92CF92DF92EF92DA
:10511000FF920F931F93CF93DF936C017B018B0161
:10512000040F151FEB015E01AE18BF08C017D107B1
:1051300059F06991D601ED91FC910190F081E02D3B
:10514000C6010995892B79F7C501DF91CF911F9190
:105150000F91FF90EF90DF90CF90BF90AF900895A8
:10516000FB0101900020E9F73197AF01461B570B77
:10517000DC01ED91FC910280F381E02D0994EF9226
:10518000FF920F931F93CF93DF938C017B01D0E0AD
:10519000C0E0F701EC0FFD1F6491662361F0D801B8
:1051A000ED91FC910190F081E02DC8010995892BCA
:1051B00011F02196EECFCE01DF91CF911F910F918B
:1051C000FF90EF9008956115710511F00C94B028CF
:1051D00090E080E00895DC01ED91FC910190F08178
:1051E000E02D09946AEC71E00C94B0280F931F93A2
:1051F000CF93DF93EC010E94BF288C01CE010E9467
:10520000F228800F911FDF91CF911F910F91089588
:105210000F931F93CF93DF938C01D0E0C0E0611513
:10522000710519F00E94B028EC01C8010E94F22813
:105230008C0F9D1FDF91CF911F910F9108958F9239
:105240009F92AF92BF92EF92FF920F931F93CF93D3
:10525000DF93CDB7DEB7A1970FB6F894DEBF0FBED0
:10526000CDBF7C01FA01CB0119A2223008F42AE05B
:105270008E010F5D1F4F822E912CB12CA12CBF01EE
:10528000A50194010E94C52DF901CA016A300CF5EF
:10529000605DD8016E938D01232B242B252B79F78C
:1052A00090E080E0109721F0BD01C7010E94B02876
:1052B000A1960FB6F894DEBF0FBECDBFDF91CF91A0
:1052C0001F910F91FF90EF90BF90AF909F908F90A4
:1052D0000895695CDECFCF92DF92EF92FF920F9339
:1052E0001F93CF93DF932115310581F4DC01ED91FC
:1052F000FC910190F081E02D642FDF91CF911F91FF
:105300000F91FF90EF90DF90CF9009942A303105F4
:1053100001F52AE077FF1DC06A017B01EC016DE217
:105320000E94EB288C0144275527BA014C195D09CE
:105330006E097F092AE0CE010E941F29800F911F6C
:10534000DF91CF911F910F91FF90EF90DF90CF9061
:105350000895DF91CF911F910F91FF90EF90DF9013
:10536000CF900C941F299A01AB01770F660B770B36
:105370000C946B290F931F93CF93DF93EC010E9442
:10538000B3298C01CE010E94F228800F911FDF917A
:10539000CF911F910F9108952115310541F4DC0142
:1053A000ED91FC910190F081E02D642F09940C9413
:1053B0001F299A01462F50E070E060E00C94CC2940
:1053C0000F931F93CF93DF93EC010E94D9298C0197
:1053D000CE010E94F228800F911FDF91CF911F9183
:1053E0000F9108959A01AB0170E060E00C94CC2914
:1053F0002F923F924F925F926F927F928F929F92E5
:10540000AF92BF92CF92DF92EF92FF921F93CF9312
:10541000DF93EC016A017B01722EAB019601CB0197
:10542000B6010E94632D61E972E0811126C0460138
:105430005701E894B7F82FEF3FEF4FE75FE7C5015B
:10544000B4010E94632D81110CC02FEF3FEF4FE795
:105450005FE7C501B4010E946E2B65E972E0181682
:1054600064F02FEF3FEF4FE75FE4C701B6010E9402
:10547000CD2C1816B4F469E972E0CE01DF91CF911A
:105480001F91FF90EF90DF90CF90BF90AF909F90D3
:105490008F907F906F905F904F903F902F900C94E3
:1054A000B0282FEF3FEF4FE75FECC701B6010E9436
:1054B0006E2B87FDE0CF20E030E0A901C701B601E7
:1054C0000E946E2B312C212C87FF09C06DE2CE018A
:1054D0000E94EB281C01F7FAF094F7F8F09410E022
:1054E00060E070E080E09FE3711641F020E030E082
:1054F00040E251E40E94732B1F5FF6CFA701960193
:105500000E94022B2B013C010E94EC2B4B015C0101
:105510002AE0BC01A401CE010E941F297C01E20CFB
:10552000F31C1123B1F1C501B4010E941B2C9B0196
:10553000AC01C301B2010E94012B4B015C016EE280
:10554000CE010E94EB28E80EF91E115010F120E068
:1055500030E040E251E4C501B4010E94D22C2B019D
:105560003C010E94EC2B4B014AE050E0CE010E942E
:10557000F229E80EF91EB40190E080E00E941B2C95
:105580009B01AC01C301B2010E94012B4B015C01E4
:10559000DCCFC701DF91CF911F91FF90EF90DF909B
:1055A000CF90BF90AF909F908F907F906F905F90C3
:1055B0004F903F902F9008950C94F8290F931F93CC
:1055C000CF93DF93EC010E94F8298C01CE010E9459
:1055D000F228800F911FDF91CF911F910F910895B5
:1055E00008950E94EB250E94F02A0E94ED15CCE060
:1055F000D7E20E94CD1A2097E1F30E940C27F9CF41
:1056000008955058BB27AA270E94192B0C94932C5D
:105610000E94852C38F00E948C2C20F039F49F3F9A
:1056200019F426F40C94822C0EF4E095E7FB0C940C
:105630007C2CE92F0E94A42C58F3BA176207730739
:105640008407950720F079F4A6F50C94C62C0EF487
:10565000E0950B2EBA2FA02D0B01B90190010C0182
:10566000CA01A0011124FF27591B99F0593F50F49A
:10567000503E68F11A16F040A22F232F342F4427F2
:10568000585FF3CF469537952795A795F0405395EA
:10569000C9F77EF41F16BA0B620B730B840BBAF0BA
:1056A0009150A1F0FF0FBB1F661F771F881FC2F725
:1056B0000EC0BA0F621F731F841F48F48795779539
:1056C0006795B795F7959E3F08F0B0CF9395880FF3
:1056D00008F09927EE0F9795879508950E94582C0A
:1056E00008F481E008950E94872B0C94932C0E946B
:1056F0008C2C58F00E94852C40F029F45F3F29F053
:105700000C947C2C51110C94C72C0C94822C0E946C
:10571000A42C68F39923B1F3552391F3951B550BF2
:10572000BB27AA2762177307840738F09F5F5F4F74
:10573000220F331F441FAA1FA9F335D00E2E3AF0B3
:10574000E0E832D091505040E695001CCAF72BD0CB
:10575000FE2F29D0660F771F881FBB1F261737071C
:105760004807AB07B0E809F0BB0B802DBF01FF274E
:1057700093585F4F3AF09E3F510578F00C947C2C83
:105780000C94C72C5F3FE4F3983ED4F3869577954D
:105790006795B795F7959F5FC9F7880F911D969507
:1057A000879597F90895E1E0660F771F881FBB1F63
:1057B000621773078407BA0720F0621B730B840B10
:1057C000BA0BEE1F88F7E09508950E94EC2B6894C1
:1057D000B1110C94C72C08950E94AC2C88F09F57EF
:1057E00098F0B92F9927B751B0F0E1F0660F771F05
:1057F000881F991F1AF0BA95C9F714C0B13091F0FB
:105800000E94C62CB1E008950C94C62C672F782F07
:105810008827B85F39F0B93FCCF3869577956795BF
:10582000B395D9F73EF490958095709561957F4F2B
:105830008F4F9F4F0895E89409C097FB3EF49095D1
:105840008095709561957F4F8F4F9F4F9923A9F059
:10585000F92F96E9BB279395F695879577956795E8
:10586000B795F111F8CFFAF4BB0F11F460FF1BC02C
:105870006F5F7F4F8F4F9F4F16C0882311F096E9BF
:1058800011C0772321F09EE8872F762F05C066236D
:1058900071F096E8862F70E060E02AF09A95660F26
:1058A000771F881FDAF7880F9695879597F90895DF
:1058B000990F0008550FAA0BE0E8FEEF1616170621
:1058C000E807F907C0F012161306E407F50798F089
:1058D000621B730B840B950B39F40A2661F0232BA2
:1058E000242B252B21F408950A2609F4A140A6951E
:1058F0008FEF811D811D089597F99F6780E870E003
:1059000060E008959FEF80EC089500240A94161635
:10591000170618060906089500240A94121613069D
:10592000140605060895092E0394000C11F488232B
:1059300052F0BB0F40F4BF2B11F460FF04C06F5F47
:105940007F4F8F4F9F4F089557FD9058440F551F1D
:1059500059F05F3F71F04795880F97FB991F61F0F1
:105960009F3F79F087950895121613061406551F68
:10597000F2CF4695F1DF08C0161617061806991FD4
:10598000F1CF86957105610508940895E894BB27C9
:1059900066277727CB0197F908950E94582C08F4C1
:1059A0008FEF08950E94E52C0C94932C0E94852C77
:1059B00038F00E948C2C20F0952311F00C947C2C54
:1059C0000C94822C11240C94C72C0E94A42C70F3EC
:1059D000959FC1F3950F50E0551F629FF001729F94
:1059E000BB27F00DB11D639FAA27F00DB11DAA1FA3
:1059F000649F6627B00DA11D661F829F2227B00DF0
:105A0000A11D621F739FB00DA11D621F839FA00D7A
:105A1000611D221F749F3327A00D611D231F849FCA
:105A2000600D211D822F762F6A2F11249F57504021
:105A30009AF0F1F088234AF0EE0FFF1FBB1F661F9C
:105A4000771F881F91505040A9F79E3F510580F065
:105A50000C947C2C0C94C72C5F3FE4F3983ED4F359
:105A6000869577956795B795F795E7959F5FC1F709
:105A7000FE2B880F911D9695879597F908950E94A2
:105A8000AC2CE8F09E37E8F09639B8F49E3848F42C
:105A9000672F782F8827985FF9CF86957795679538
:105AA00093959539D0F3B62FB1706B0F711D811D91
:105AB00020F487957795679593950C94682D0C94B1
:105AC000832D0C94C72C0E94582C880B990B089599
:105AD000882371F4772321F09850872B762F07C005
