:100000000C946B020C9493020C9493020C94A31C1A
:100010000C94A31C0C94A31C0C9493020C949302B8
:100020000C9493020C940C1F0C9493020C94930266
:100030000C9493020C9493020C9493020C949302EC
:100040000C9403250C9493020C94C0270C94F22773
:100050000C9493020C9493020C9493020C949302CC
:100060000C949E210C94930200407A10F35A00A045
:10007000724E18090010A5D4E80000E87648170071
:1000800000E40B54020000CA9A3B000000E1F505B1
:10009000000080969800000040420F000000A086FB
:1000A00001000000102700000000E803000000002D
:1000B0006400000000000A000000000001000000D1
:1000C00000002C76D888DC674F0823DFC1DFAE59EB
:1000D000E1B1B796E5E3E453C63AE651997696E87E
:1000E000E6C28426EB898C9B62ED407C6FFCEFBC02
:1000F0009C9F40F2BAA56FA5F490055A2AF75C932D
:100100006B6CF9676DC11BFCE0E40D47FEF520E662
:10011000B500D0ED902E0300943577050080841E45
:10012000080000204E0A000000C80C333333330FA0
:10013000986E12831141EF8D2114893BE65516CF3D
:10014000FEE6DB18D1844B381BF77C1D901DA4BB49
:10015000E424203284725E228100C9F124ECA1E5FE
:100160003D272043656C736975733A200020204851
:10017000253A200054657374205349373032303AA1
:10018000200020446174653A200054657374205245
:1001900054433A20004E657720446174652F5469BA
:1001A0006D653A2000446174652F54696D653A208D
:1001B000005374616E6462790041542B434D475380
:1001C0003D220020526567697374657265642C2056
:1001D000726F616D696E670020556E6B6E6F776E22
:1001E0000020526567697374726174696F6E206470
:1001F000656E696564002043757272656E746C7912
:1002000020736561726368696E672061206E65772F
:10021000206F70657261746F720020526567697338
:1002200074657265642C20686F6D65206E657477E7
:100230006F726B00204E6F7420726567697374650E
:1002400072656400205374617475733A2000205203
:10025000656D61696E696E6720004E6574776F72B7
:100260006B3A200053696D3A20002076200020531D
:1002700069676E616C3A2000436F6E6E65637465EA
:10028000643A2000202620494D454920004D6F64E6
:10029000656D3A2000202D3E2000506F776572205A
:1002A0006F66662061667465723A20004572726FEF
:1002B00072206D61782073796D626F6C3A002859F5
:1002C000592F4D4D2F44442C48483A4D4D29204537
:1002D0006E74657220446174652C2054696D6520CC
:1002E0003A0020456E7465722049643A0020456EDC
:1002F000746572204E756D6265723A004E6F74209F
:100300005365740043757272656E743A2000362D21
:10031000506F776572204F666600352D53657420E7
:10032000446174652F54696D6500342D53657420E4
:10033000494400332D4368616E67652F4164642032
:100340004D6173746572204E756D62657200322D59
:1003500054657374204D6F64656D2F534D53003198
:100360002D54657374204861726477617265004D25
:10037000656E753A004E657720446174652F546947
:100380006D653A200020536176656420210020537A
:1003900061766564202100536D732053656E643A65
:1003A000004E756D626572204E6F74205365740047
:1003B00020696E20746865206C61737420686F75A5
:1003C00072002D000A43617574696F6E21205765B4
:1003D000696768742000436865636B205468652012
:1003E000004C4F57204241545445525920210A0095
:1003F000457863656C6C656E740063003000476F10
:100400006F640042616400494420003D006B672E28
:10041000000A417420000A31366820000A3134682D
:1004200020000A31326820000A2036682000683A2D
:1004300020002B000A54696D6520000A4261740097
:10044000562800290A5369673D0020543D000A4898
:100450003D0025004641494C004F4B002F001F1C1A
:100460001F1E1F1E1F1F1E1F1E1F0000000900034E
:100470000200000405080000000000000000000069
:10048000000102040810204080010204081020012D
:1004900002040810204080400404040404040404FE
:1004A0000202020202020303030303030202030027
:1004B000000000230026002900000000002500287D
:1004C000002B0000000000240027002A0000C90BB8
:1004D0008F202228E20B11241FBECFEFD8E0DEBF11
:1004E000CDBF12E0A0E0B1E0E6E0F3E602C0059087
:1004F0000D92A839B107D9F726E0A8E9B2E001C00A
:100500001D92A535B207E1F712E0CAE6D2E004C0B9
:100510002197FE010E94D22DC736D107C9F70E944C
:10052000BD2A0C9476310C940000CF92DF92EF92AA
:10053000FF920F931F93CF93DF93EB017B0124E096
:10054000E20EF11C8B016C01C61AD70AC601800F9E
:10055000911F0E942931F80181938F01EE15FF054B
:10056000A9F7CE01DF91CF911F910F91FF90EF90EE
:10057000DF90CF9008950F931F93CF93DF938C015B
:10058000EB010E9429318883C80101960E9429311C
:100590008983CE01DF91CF911F910F910895CF9361
:1005A000DF93EB010E9429318883CE01DF91CF9147
:1005B0000895FF920F931F93CF93DF93EC01F62ED4
:1005C00008811981C8010E942931F81621F06F2D88
:1005D000C8010E943131CE01DF91CF911F910F915F
:1005E000FF900895EF92FF920F931F93CF93DF93A5
:1005F00000D0CDB7DEB78C017B019A838983FB01E4
:100600006081CE0101960E94D9020F5F1F4F1A83AD
:100610000983F7016181CE0101960E94D902C701C9
:100620000F900F90DF91CF911F910F91FF90EF905E
:100630000895AF92BF92CF92DF92EF92FF920F9305
:100640001F93CF93DF9300D0CDB7DEB78B016B0143
:1006500024E0C20ED11C7B015C01A61AB70AC501B9
:100660008E0D9F1D9A838983F70161917F01CE01D1
:1006700001960E94D902EC14FD0489F7C8010F907D
:100680000F90DF91CF911F910F91FF90EF90DF902E
:10069000CF90BF90AF900895CF93DF9300D0CDB7A8
:1006A000DEB79A83898360910101CE0101960E9491
:1006B000D90281E091E00F900F90DF91CF910895E2
:1006C000DC01ED91FC910190F081E02D09940A97F5
:1006D00034F467ED71E08AE794E00C94AF28089554
:1006E000CF93DF93EC01898190E00E9467034AE099
:1006F00050E069818AE794E00E94A5296BE171E0EE
:100700008AE794E00E94AF288A8190E00E94670304
:100710004AE050E06A818AE794E00E94A5296BE1F3
:1007200071E08AE794E00E94AF28688170E060532E
:10073000784F4AE050E08AE794E00E94BE2961E2E7
:1007400071E08AE794E00E94AF288B8190E00E94DC
:1007500067034AE050E06B818AE794E00E94A52994
:1007600067E471E08AE794E00E94AF288C8190E012
:100770000E9467034AE050E06C818AE794E00E949F
:10078000A52967E471E08AE794E00E94AF288D8193
:1007900090E00E9467034AE050E06D818AE794E0B0
:1007A0000E94AC296CEC71E08AE794E0DF91CF9174
:1007B0000C94D4288AE794E00E94BE286FE673E088
:1007C0008AE794E00E94C2286FE573E08AE794E02C
:1007D0000E94C2286EE473E08AE794E00E94C22877
:1007E00063E373E08AE794E00E94C2286AE273E060
:1007F0008AE794E00E94C2286AE173E08AE794E005
:100800000E94C2286EE073E08AE794E00E94C2284A
:1008100010922603109225030895CF9329ED33E01B
:10082000F90101900020E9F79F012A5D334082170A
:10083000130698F4C82F6CEA72E08AE794E00E94ED
:100840008B284AE050E06C2F8AE794E00E94AC29A4
:100850001092D90380E0CF91089581E0FCCFBC01D4
:1008600088EB95E00C94D4288AE794E00E94BE2897
:1008700061EB71E08AE794E00E948B286AE070E007
:1008800080E090E00E947E2560E08DE00E9444269A
:1008900060E083E00E94442668EE73E080E090E030
:1008A0000C947E2561E08FE00E94082660E08EE0D7
:1008B0000E94082660E08FE00C9444268EE00E949F
:1008C000722621E0892B09F020E0822F08958F9273
:1008D0009F92AF92BF92DF92EF92FF920F931F937E
:1008E000CF93DF9300D01F92CDB7DEB70E945E0496
:1008F000811106C060E070E0CB010E947E25F6CF3A
:1009000093E0D92E812C912C54018394DA948FEFAB
:10091000D81225C061E08FE00E94442660E08FE09D
:100920000E94442661E08FE00E94442660E08FE050
:100930000E9444262B81205869817A8190E0822F81
:100940000F900F900F90DF91CF911F910F91FF901B
:10095000EF90DF90BF90AF909F908F90089507E049
:1009600010E0EE24E394F12CEC0EFD1EED0CF11CD6
:1009700061E08FE00E9444268EE00E947226B5015D
:10098000A401002E04C0440F551F661F771F0A9450
:10099000D2F7F7012081892B51F0422B408360E090
:1009A0008FE00E9444260150110910F7AFCF409507
:1009B0004223F4CFCF92DF92EF92FF92CF93DF9357
:1009C000D82FC0E0C12CD12C7601CD1741F00E9468
:1009D0006704C60ED71EE81EF91ECF5FF6CF2C2F78
:1009E00030E050E040E0C701B6010E94B32DCA01DB
:1009F000B901DF91CF91FF90EF90DF90CF900895F4
:100A00000E94BB1E1092200360E084E00E944426F6
:100A100060E087E00E94442660E088E00C94442671
:100A20008091CB028823B1F00E94000588EB9BE007
:100A3000909305018093040180E490E0909303017A
:100A40008093020184E08093060181E0809320037B
:100A50000C94A51E08958091CB028823B1F00E94CA
:100A6000000580E293E0909305018093040180E407
:100A700090E0909303018093020184E0809306014B
:100A800081E0809320030C94A51E08958091CB02F1
:100A9000882331F1809120038823F1F060910001D7
:100AA000809106010E9444268091000191E08927EF
:100AB000809300016091040170910501811104C0CF
:100AC000609102017091030190E080E046E455E0FE
:100AD0000E94991E0C94A51E0E94BB1E0C9400053A
:100AE0000895AF92BF92CF92DF92EF92FF920F9351
:100AF0001F93CF93DF9300D0CDB7DEB77C015B01AE
:100B0000042F10E01017A8F46501C10ED11CF601E6
:100B10006081FA82E982CE0101960E94D902F60133
:100B20008081811101C0102FFFEFEF1AFF0A1F5FB4
:100B3000E9CF0F900F90DF91CF911F910F91FF9010
:100B4000EF90DF90CF90BF90AF900895EF92FF921B
:100B50000F931F93CF93DF938B01040F111DEB01B4
:100B60007C01E61AF70AC017D10739F0C7018C0FCC
:100B70009D1F0E9429318993F6CF1882DF91CF9172
:100B80001F910F91FF90EF900895EF92FF920F93B6
:100B90001F93CF93DF93C82FD62F0E94000580911B
:100BA000CB02882381F1DF5FC23639F1C23739F1D8
:100BB000C73639F5C7E001E010E08D2F8150990B61
:100BC0007C010D1700F561E08C2F0E94442664EF34
:100BD00071E080E090E00E947E2560E08C2F0E9412
:100BE0004426E016F10631F064EF71E080E090E019
:100BF0000E947E250F5F1F4FE4CFC4E0DCCFC8E02A
:100C0000DACFC0E0D8CFDF91CF911F910F91FF9045
:100C1000EF9008950F931F93CF93DF938C01EB0117
:100C200089E794E00E94412364E670E00E947D2DF4
:100C3000F8017183608389E794E00E945C23843625
:100C400030F48883DF91CF911F910F91089583E64F
:100C5000F8CF0E94642E21E0892B09F020E0822F3A
:100C60000895CF92DF92EF92FF920F931F93CF934D
:100C7000DF936B017C01D42F20E030E0A9010E94BA
:100C80003A2BC5E087FFC4E020E030E0A901C701AE
:100C9000B6010E94992C87FD0BC020E030E040E2B5
:100CA00051E4C701B6010E943A2B18160CF0C3E0BC
:100CB00009E313E02D2F4C2FC701B6010E94042E2B
:100CC000DF91CF911F910F91FF90EF90DF90CF9028
:100CD0000895CF92DF92EF92FF920F931F93CF93DD
:100CE000DF9300D0CDB7DEB77B016A01BC0188E994
:100CF00092E00E946D2E90E080E001E010E028E993
:100D000032E0C016D10674F0AE014F5F5F4FB701FD
:100D1000C9010E948E2E009729F00F5F1F4F30E00F
:100D200020E0EFCF0F900F90DF91CF911F910F91A7
:100D3000FF90EF90DF90CF900895CF93DF93EC0179
:100D400083E00E94DA040E94E92B688379838A8316
:100D50009B8383E00E94DA040E94E92B68837983F5
:100D60008A839B83DF91CF910895CF92DF92EF9298
:100D7000FF921F93CF93DF9300D000D0CDB7DEB7A3
:100D8000182FCE0101960E949D06209121033091DB
:100D90002203409123035091240369817A818B813E
:100DA0009C810E94CD2A6B017C01609107017091AA
:100DB000080190E080E00E94E72B9B01AC01C70195
:100DC000B6010E943F2B20E030E040E251E40E9457
:100DD0009E2C0E940B2D20E030E040E251E40E9466
:100DE0003F2B6B017C01111128C0C982DA82EB8292
:100DF000FC8220E030E046E953E469817A818B810E
:100E00009C810E94992C181644F480E090E0A6E999
:100E1000B3E489839A83AB83BC8369817A818B81B4
:100E20009C810F900F900F900F90DF91CF911F91A9
:100E3000FF90EF90DF90CF9008952DEC3CEC4CE4C8
:100E40005DE30E943A2B87FFD0CF19821A821B8262
:100E50001C82CFCFCF92DF92EF92FF92CF93DF939E
:100E600000D000D000D0CDB7DEB781E293E00E9481
:100E70009D0661E084E00E94442668E97AE380E010
:100E800090E00E947E2560E087E00E94442619825F
:100E90001A821B821C82CE0101960E949D0661E28D
:100EA00073E08EE290E00E941903209121033091BB
:100EB0002203409123035091240369817A818B811D
:100EC0009C810E94CD2A6B017C0120E030E04AEF3A
:100ED00054E40E943A2B87FF11C063E082E70E942E
:100EE000C50526960FB6F894DEBF0FBECDBFDF91C5
:100EF000CF91FF90EF90DF90CF900895C701B6019A
:100F00000E94B82B609307017093080186E390E07C
:100F10009E838D83CE0105960E94D90287E390E0DF
:100F20009E838D8360910801CE0105960E94D902AF
:100F300062E087E6D4CF8EE480937C006BE470E0BF
:100F400080E090E00E947E2580917A00806480930A
:100F50007A0080917A0086FDFCCF80917800209104
:100F60007900322F282F032E000C440B550B64EB15
:100F70007BE281E190E00E94B32DCA01B901645681
:100F800071098109910908950E949B070E94E92B2C
:100F900020E030E04AE754E40E943F2B20E030E0BC
:100FA00040E251E40E949E2C0E940B2D20E030E094
:100FB00040E251E40E943F2B6093D8027093D90223
:100FC0008093DA029093DB020895BF92CF92DF9272
:100FD000EF92FF920F931F93CF93DF93CDB7DEB7BE
:100FE0002C970FB6F894DEBF0FBECDBF8C0168E61C
:100FF000DC018D919C910E940420F80180819181F7
:10100000DC01ED91FC910190F081E02D60E009950B
:10101000F801808191810E948C20D80112968C93D6
:10102000882341F140E050E0BA01CE0107960E94CA
:10103000762386E0FE013796DE01119601900D922F
:101040008A95E1F729813A814B815C816D817E81AE
:1010500080E090E02C960FB6F894DEBF0FBECDBFB7
:10106000DF91CF911F910F91FF90EF90DF90CF9084
:10107000BF90089547E068E6F801808191810E9461
:1010800086208730A9F084E0D80112968C9340E046
:1010900050E0BA01CE0101960E94762386E0FE015F
:1010A0003196DE01179601900D928A95E1F7C1CF36
:1010B000F80180819181DC01ED91FC910284F3853E
:1010C000E02D09958F770E94C624E82EF8018081D3
:1010D0009181DC01ED91FC910284F385E02D09956D
:1010E0000E94C624D82EF80180819181DC01ED9107
:1010F000FC910284F385E02D09950E94DE24C82E20
:10110000F80180819181DC01ED91FC910284F385ED
:10111000E02D0995F80180819181DC01ED91FC9130
:101120000284F385E02D09950E94C624B82EF801AB
:1011300080819181DC01ED91FC910284F385E02DA9
:101140000995F82EF80180819181DC01ED91FC91E7
:101150000284F385E02D09950E94C62490E08C015D
:101160000053184FF7FE02C00C591F4F8F2D8F7779
:101170000E94C624005D09838A83BB82CC82DD8203
:10118000EE8260CFEF92FF920F931F93CF93DF9386
:101190008C01EB0168E6DC018D919C910E9404209A
:1011A000F80180819181DC01ED91FC910190F08149
:1011B000E02D67E00995F801E080F1808D810E94C3
:1011C000D424688179817695762F662777956795FF
:1011D0007727682BC7010E946003D801ED90FC902F
:1011E0008C810E94D4246881798136E0660F771F54
:1011F0003A95E1F760787727682BC7010E94600372
:10120000F801E080F1808B810E94D424688179818B
:1012100045E0660F771F4A95E1F760787727682BDE
:10122000C7010E9460038A812881398128303105F5
:1012300019F4811101C087E0D801ED90FC900E9463
:10124000D4246881798193E0660F771F9A95E1F73E
:10125000607C7727682BC7010E946003F8018081BA
:1012600091810E948C20D80112968C93DF91CF91AE
:101270001F910F91FF90EF9008951F93CF93DF93ED
:10128000EC01162F68E6888199810E9404208881EC
:101290009981DC01ED91FC910190F081E02D612FAD
:1012A0000995888199810E948C20182F8A83811149
:1012B0001AC041E068E6888199810E9486208130C9
:1012C00039F084E08A83812FDF91CF911F910895B7
:1012D00088819981DC01ED91FC910284F385E02DF8
:1012E0000995182FF0CF10E0EECFCF93DF9300D009
:1012F00000D000D01F92CDB7DEB764E574E085E082
:1013000093E00E94402EBC01CE0101960E946D2EFA
:1013100069E574E0CE0106960E94402E6AE871E00D
:101320008AE794E00E948B286EE087E293E00E94B7
:101330003D09BE0187FD40C08091290381113CC059
:101340006A5F7F4F8AE794E00E94AF2862E871E00D
:101350008AE794E00E948B2887E293E00E94E507E9
:101360002093190330931A0340931B0350931C03DB
:1013700060931D0370931E0389E193E00E94700344
:1013800064E771E08AE794E00E948B2889E794E0A3
:101390000E94BF22BE01811116C06F5F7F4F8AE796
:1013A00094E00E94D42827960FB6F894DEBF0FBEB3
:1013B000CDBFDF91CF9108956F5F7F4F8AE794E0B3
:1013C0000E94D428DDCF6A5F7F4F8AE794E00E94B5
:1013D000AF2861E071E08CEC92E00E940A066DE6B5
:1013E00071E08AE794E00E948B284AE050E0609127
:1013F00001018AE794E00E94A52962E671E08AE78C
:1014000094E00E948B286091CC027091CD024AE05A
:1014100050E08AE794E00E948629C5CF0F931F937E
:10142000CF93DF93EC01062F142F68E68881998112
:101430000E94042088819981DC01ED91FC9101904A
:10144000F081E02D602F099588819981DC01ED9173
:10145000FC910190F081E02D612F0995888199819F
:101460000E948C208A83DF91CF911F910F91089564
:10147000AF92BF92CF92DF92EF92FF920F931F93A2
:10148000CF93DF93EC018B016FE00E943D09482F61
:101490004F776FE0CE010E940E0A68E6888199813D
:1014A0000E94042088819981DC01ED91FC910190DA
:1014B000F081E02D60E00995E880F980D701ED9199
:1014C000FC91C080D180F80185810E94D424682FCE
:1014D000C701F6010995E880F980D701ED91FC91EB
:1014E000C080D180F80184810E94D424682FC70174
:1014F000F6010995E880F980D701ED91FC91C08053
:10150000D180F80183810E94D424682FC701F6019D
:101510000995D801EC90B3E6F12CBE1520F4ECE966
:10152000EE0E80E8F82EC8010E948324811101C0CC
:1015300087E0A880B980D501ED91FC91C080D18071
:101540000E94D424682FC501F6010995C880D9806E
:10155000D601ED91FC91A080B180F80182810E94BA
:10156000D424682FC601F5010995C880D980D80117
:1015700011968C910E94D4248F29682F70E0C601A7
:101580000E94600308811981D801ED91FC91C0800F
:10159000D1808E2D0E94D424682FC801F6010995B0
:1015A000888199810E948C208A83DF91CF911F913D
:1015B0000F91FF90EF90DF90CF90BF90AF90089584
:1015C000EF92FF920F931F93CF93DF93CDB7DEB7C8
:1015D0002C970FB6F894DEBF0FBECDBF7A01AB01DA
:1015E000BC01CE0107960E942B24CE0107960E94D3
:1015F000902440E15EE0E49E9001E59E300DF49E73
:10160000300D11248901330F220B330BAB01BC01C8
:10161000400F511F621F731FCE0101960E94762357
:1016200086E0FE013196DE01179601900D928A95B3
:10163000E1F7BE01695F7F4F87E293E00E94380ABD
:101640002C960FB6F894DEBF0FBECDBFDF91CF91C1
:101650001F910F91FF90EF900895CF92DF92EF923C
:10166000FF92CF93DF9300D000D000D01F92CDB770
:10167000DEB71F82BE01695F7F4F81E090E00E946C
:10168000CF020E94C4076B017C01C092D802D092A5
:10169000D902E092DA02F092DB022AE037ED43E56C
:1016A00050E40E943A2B87FF52C01A821982BE0171
:1016B0006F5F7F4F81E090E00E94F2021F8287E21D
:1016C00093E00E94E5072093190330931A03409397
:1016D0001B0350931C0360931D0370931E038F81A3
:1016E0006EE0882309F44CC087E293E00E943D0934
:1016F000482F47646EE087E293E00E940E0A84E17F
:1017000090E09A8389831B821C821D821E82BE0107
:101710006F5F7F4F87E293E00E94C2086FE087E22D
:1017200093E00E943D09482F4C7F6FE087E293E0F1
:101730000E940E0A27960FB6F894DEBF0FBECDBFEB
:10174000DF91CF91FF90EF90DF90CF9008958F8140
:101750008111B5CF2AE939E949E550E4C701B6015D
:101760000E94992C87FDABCF81E090E09A8389831A
:10177000BE016F5F7F4F0E94F20281E08F839FCF97
:1017800087E293E00E943D098C7B482F44606EE025
:10179000CDCF20E046E065E08AE794E00E94761D28
:1017A00089E794E00E94BE22E7E2F3E08AEE94E04B
:1017B00091838083128240E050E0BA0189E193E096
:1017C0000C9476238AE794E00C941B1D2F923F9291
:1017D0004F925F926F927F928F929F92AF92BF9241
:1017E000CF92DF92EF92FF920F931F93CF93DF93ED
:1017F00000D0CDB7DEB762E370E080E090E00E94F9
:101800007E2588EE482E83E0582E612C712C98E7B7
:10181000292E312C2CE3E22EF12C8AE794E00E9451
:10182000B61B8C011A82198289836AE070E080E01D
:1018300090E00E947E2517FF68C00E944D254B0155
:101840005C018091010390910203A0910303B09188
:101850000403A5019401281B390B4A0B5B0BCA0139
:10186000B901A30192010E94912D2A303105ACF2F9
:101870008092010390920203A0920303B0920403AA
:1018800080912503909126030A96909326038093D6
:1018900025039101281B390BC901B7010E947D2D39
:1018A0008C01CB01B7010E947D2D6C012E363105D4
:1018B00051F48AE794E00E94BE286AE972E08AE760
:1018C00094E00E948B284AE050E0B6018AE794E059
:1018D0000E947F2967E471E08AE794E00E94AF28C4
:1018E0004AE050E0B8018AE794E00E947F2965E968
:1018F00072E08AE794E00E948B280C0D1D1D012BDD
:1019000009F08BCF0E94340488CF0D30110579F097
:101910000A30110561F0BE016F5F7F4F89ED93E0E2
:101920000E944E2E8AE794E00E94BE2876CF80E087
:101930000F900F90DF91CF911F910F91FF90EF903B
:10194000DF90CF90BF90AF909F908F907F906F90DF
:101950005F904F903F902F900895CF93DF93EB01CE
:101960001092D9038AE794E00E94BE2864E073E0F5
:101970008AE794E00E948B28C330D10509F56AE01C
:1019800071E08CED92E00E942906882391F06CEFC3
:1019900072E08AE794E00E948B286DEE72E08AE79D
:1019A00094E00E948B280E94E60BDF91CF910C946B
:1019B000E60B6CED72E08AE794E00E94AF28EDCF71
:1019C000C430D10549F46EEC72E08AE794E00E94DD
:1019D000AF2862EE72E0E3CF259739F787E293E014
:1019E0000E94E5072093190330931A0340931B03C9
:1019F00050931C0360931D0370931E0389E193E0D1
:101A00000E947003BC018AE794E00E94D4286EEB28
:101A100072E0C5CF2F923F924F925F927F928F924A
:101A20009F92AF92BF92CF92DF92EF92FF920F936D
:101A30001F93CF93DF93CDB7DEB72C970FB6F894F3
:101A4000DEBF0FBECDBF1C017B014A0129012DB7AE
:101A50003EB73C872B87FA011082FB0101900020E2
:101A6000E9F7CF01861B970B0396281B390B0FB69E
:101A7000F8943EBF0FBE2DBF4DB75EB74F5F5F4FAF
:101A80006A016CE271E0C7010E94742E892B31F566
:101A9000002321F16CE271E0C6010E946D2EB701B6
:101AA000C6010E944E2E0E944D257B018C0120E034
:101AB00030E0A9016B83FC828D831E832F833887DE
:101AC00049875A8788EB95E00E949B2618161906CD
:101AD00054F488EB95E00E94B526F4CFB701C60117
:101AE0000E946D2EE0CFB60188EB95E00E94D428CD
:101AF000712C0E944D259B01AC0160E070E080E0FC
:101B000090E0AB80BC80CD80DE80EF80F8840985DA
:101B10001A850E94F22D273E33404105510561058B
:101B200071058105910509F028F588EB95E00E9483
:101B30009B26892BF1F288EB95E00E94B526182FA1
:101B40001A8219828983BE016F5F7F4FC4010E9490
:101B50004E2E1A3019F01FE9171598F5B101C4017E
:101B60000E94742E892B51F4B201C4010E94742E7C
:101B7000892B21F186E4F40180831182C401EB8476
:101B8000FC840FB6F894FEBE0FBEEDBE2C960FB6C9
:101B9000F894DEBF0FBECDBFDF91CF911F910F91A3
:101BA000FF90EF90DF90CF90BF90AF909F908F907D
:101BB0007F905F904F903F902F900895F401108296
:101BC000712C7394B2CF0F93CF93DF93D82FC5E0CE
:101BD00001E029E231E049E353E060E371E084E3AE
:101BE00091E00E940A0D80913903863409F046C0C5
:101BF00064EF71E080E090E00E947E25C15041F7E3
:101C000067ED71E089E393E00E946D2EDD2309F416
:101C10005FC06CE574E08AE293E00E94402EBC0154
:101C200089E393E00E944E2E0DC06CE574E08AE2D9
:101C300093E00E94402EBC0189E393E00E944E2E67
:101C4000CA3070F463E074E08AE293E00E94402EB0
:101C5000BC0189E393E0DF91CF910F910C944E2E5C
:101C600086EF8C0F69E574E0853070F3CF506EEF2E
:101C700073E0C53048F360EF73E0E6CF6CE270E0EC
:101C800089E393E00E94592E892B09F4B9CF42E0F1
:101C900050E061E271E089E393E00E946906BC01D3
:101CA00089E393E00E946D2E41E050E06AE371E029
:101CB00089E393E00E946906BC0189E393E00E94F6
:101CC0006D2E89E393E00E94222EC82FD111ADCF53
:101CD000DF91CF910F9108957F928F929F92AF9253
:101CE000BF92CF92DF92EF92FF920F931F93CF9309
:101CF000DF93CDB7DEB72A970FB6F894DEBF0FBEDD
:101D0000CDBF87E293E00E94E5075C836D8323E308
:101D100033E343E550E46091D8027091D902809199
:101D2000DA029091DB020E94CD2A26E636E646E6EC
:101D30005FE30E943F2B20E030E048EC52E40E9439
:101D40009E2C0E940B2D0E94B82B762E1F82188687
:101D500019861A86BE01695F7F4F8AE390E00E9470
:101D600095022F81388549855A856091D4027091FA
:101D7000D5028091D6029091D7020E94CD2A20E010
:101D800030E040E251E40E949E2C0E940B2D20E0A6
:101D900030E040E251E40E943F2B6B017C01109245
:101DA000D9038090D8029090D902A090DA02B09026
:101DB000DB0223E333E343E550E4C501B4010E94B1
:101DC000992C87FD89C126E636E646E650E4C50132
:101DD000B4010E943A2B18160CF47EC161EE73E038
:101DE00089E393E00E94402EBC0189ED93E00E94BC
:101DF0006D2E10E067E074E089E393E00E94402ECE
:101E0000BC0189ED93E00E944E2E6EEC72E089EDEC
:101E100093E00E944E2E6BE074E089E393E00E9411
:101E2000402EBC0189ED93E00E944E2E6091D402B9
:101E30007091D5028091D6029091D70241E00E9424
:101E40003106BC0189ED93E00E944E2E6DE074E0F6
:101E500089E393E00E94402EBC0189ED93E00E944B
:101E60004E2E61E174E089E393E00E94402EBC01B4
:101E700089ED93E00E944E2E809109014AE069E3CA
:101E800073E090E00E94B52EBC0189ED93E00E94C2
:101E90004E2E6EE274E089E393E00E94402EBC0176
:101EA00089ED93E00E944E2E20E030E0A901C701A9
:101EB000B6010E94992C18165CF462E374E089E381
:101EC00093E00E94402EBC0189ED93E00E944E2ECB
:101ED00041E0C701B6010E943106BC0189ED93E0E3
:101EE0000E944E2E6DE074E089E393E00E94402E44
:101EF000BC0189ED93E00E944E2E64E374E089E317
:101F000093E00E94402EBC0189ED93E00E944E2E8A
:101F10008C814AE069E373E090E00E94B52EBC0139
:101F200089ED93E00E944E2E0D8167E471E089ED0A
:101F300093E00E944E2E0A3058F46CEF73E089E370
:101F400093E00E94402EBC0189ED93E00E944E2E4A
:101F50004AE069E373E0802F90E00E94B52EBC0157
:101F600089ED93E00E944E2E112319F16EE474E086
:101F700089E393E00E94402EBC0189ED93E00E942A
:101F80004E2E809101014AE069E373E090E00E94E7
:101F9000B52EBC0189ED93E00E944E2E62E574E0FF
:101FA00089E393E00E94402EBC0189ED93E00E94FA
:101FB0004E2E6AE474E089E393E00E94402EBC0157
:101FC00089ED93E00E944E2E4AE069E373E0809130
:101FD000CC029091CD020E94B52EBC0189ED93E018
:101FE0000E944E2E6AEF73E089E393E00E94402E38
:101FF000BC0189ED93E00E944E2E6BE374E089E30F
:1020000093E00E94402EBC0189ED93E00E944E2E89
:102010006BE074E089E393E00E94402EBC0189EDFF
:1020200093E00E944E2E6091D8027091D902809167
:10203000DA029091DB0241E00E943106BC0189ED99
:1020400093E00E944E2E60E474E089E393E00E94E6
:10205000402EBC0189ED93E00E944E2E4AE069E3D8
:1020600073E0872D90E00E94B52EBC0189ED93E0CE
:102070000E944E2E62E574E089E393E00E94402EB8
:10208000BC0189ED93E00E944E2E63E474E089E385
:1020900093E00E94402EBC0189ED93E00E944E2EF9
:1020A00081E00E94E30D69E373E089ED93E02A96F5
:1020B0000FB6F894DEBF0FBECDBFDF91CF911F9159
:1020C0000F91FF90EF90DF90CF90BF90AF909F90D7
:1020D0008F907F900C944E2E11E08CCECF92DF9299
:1020E000FF920F931F93CF93DF9366ED73E089E325
:1020F00093E00E94402EBC018AE794E00E94AF2842
:102100006AE572E08AE794E00E94C22883E2F82E32
:10211000C0E010E0D0E099E1C92ED12C68EE73E068
:1021200080E090E00E947E2501E029E231E049ED67
:1021300053E06CE371E082E491E00E940A0D892B88
:1021400061F06AE370E089ED93E00E94592E0097F8
:1021500021F004960E94222EC82F69E471E08AE7DC
:1021600094E00E94AF284AE050E06F2D8AE794E0A7
:102170000E94A52961E571E08AE794E00E94AF28FA
:102180004AE050E069E18AE794E00E94A5296EE404
:1021900072E08AE794E00E948B284AE050E0B601A2
:1021A0006D1B71098AE794E00E947F2964E472E064
:1021B0008AE794E00E948B2864E372E0CC2341F02C
:1021C0006AE172E0C13021F0C230F9F466EF71E0EB
:1021D0008AE794E00E948B288AE794E00E94BE2858
:1021E000C13089F18C2F8D7F09F5D150FA94DF5FD2
:1021F000D93110F4F11092CF8C2FDF91CF911F9134
:102200000F91FF90DF90CF90089561EE71E0C330A1
:1022100041F068ED71E0C43021F0C530E9F663ECBF
:1022200071E08AE794E00E94C228D6CFC53059F009
:10223000C33029F4153138F41F5FD150D8CF153190
:10224000D8F3C0E0D4CFD9E1D2CFFF920F931F9340
:10225000CF93DF93CDB7DEB729970FB6F894DEBFE3
:102260000FBECDBF1092FE0266ED73E089E393E0EE
:102270000E94402EBC018AE794E00E94AF2865EAE4
:1022800071E08AE794E00E948B2889E2F82E809121
:10229000FE02863008F074C06CED75E080E090E0DE
:1022A0000E947E2515E001E029E231E049E353E098
:1022B00066E571E08CE591E00E940A0D63E671E04D
:1022C0008AE794E00E94AF2880913903863441F474
:1022D00064EF71E080E090E00E947E25115019F7D4
:1022E00042E050E069E172E089E393E00E94690610
:1022F000BC0189E393E00E946D2E41E050E06AE367
:1023000071E089E393E00E946906BC01CE01019669
:102310000E946D2E41E050E06BE171E089E393E0B3
:102320000E9469060E94222E8C0142E050E06AE37E
:1023300071E089E393E00E946906BC0189E393E0C0
:102340000E946D2E8091FE028F5F8093FE02053108
:1023500011050CF49CCF42E050E06EE271E089E39D
:1023600093E00E9469060E94222EAC01552769E382
:1023700073E0CE0101960E94E00AF092FE0287CF40
:102380008932B8F464E574E089E393E00E94402E5A
:10239000BC018AE794E00E94D42829960FB6F894ED
:1023A000DEBF0FBECDBFDF91CF911F910F91FF9088
:1023B000089565E971E08AE794E00E948B2887E23E
:1023C00093E00E94E5072093190330931A0340938A
:1023D0001B0350931C0360931D0370931E0389E13C
:1023E00093E00E947003D4CF2F923F924F925F925E
:1023F0006F927F928F929F92AF92BF92CF92DF9215
:10240000EF92FF920F931F93CF93DF93CDB7DEB779
:1024100066970FB6F894DEBF0FBECDBF3B01542EBA
:10242000EDB6FEB6FE8AED8AFC0101900020E9F7C8
:1024300031978F01081B190B68012FEFC21AD20ABE
:102440004DB75EB74C195D090FB6F8945EBF0FBE6D
:102450004DBF6DB77EB76F5F7F4F7B01BC01C7017A
:102460000E946D2E8DB79EB78C199D090FB6F894FA
:102470009EBF0FBE8DBFADB7BEB711964D01A60171
:1024800070E060E0CD010E94472E6701C701800F18
:10249000911FF70122242394312C8E179F0739F0C6
:1024A00021912C32D1F7BFEF2B1A3B0AF6CF510105
:1024B000AA0CBB1CEDB7FEB7EA19FB090FB6F894DE
:1024C000FEBF0FBEEDBF2DB73EB72F5F3F4F3A8720
:1024D0002987A50170E060E0C9010E94472E4DB731
:1024E0005EB74A195B090FB6F8945EBF0FBE4DBFC9
:1024F0006DB77EB76F5F7F4F7C876B87A50170E0FC
:1025000060E08B859C850E94472EA985BA85ED9257
:10251000FC92EB85FC859182808230E020E041E0F6
:1025200050E02017310701F1D6018D916D012F5F29
:102530003F4F8C32B1F7FD0131971082CA01880FED
:10254000991FE985FA85E80FF91FB183A083EB8510
:10255000FC858E0F9F1FB401620F731FDC016D930A
:102560007C934F5F5F4FDDCF0E944D257B018C0137
:1025700020E030E0A9016983FA828B831C832D83DC
:102580003E834F835887912C812C830130E020E0DB
:1025900040E050E0BA016D861E872F87388B498B4B
:1025A0005A8B6B8B7C8B0E944D259B01AC0160E0AC
:1025B00070E080E090E0A980BA80CB80DC80ED8084
:1025C000FE800F8118850E94F22DAD84BE84C12C3F
:1025D000D12CE12CF12C00E010E00E94FB2D08F042
:1025E00085C088EB95E00E949B26892BE1F288EB61
:1025F00095E00E94B526482E552049F010EA811634
:10260000910408F45EC01092D903912C812CCB84E4
:10261000DC84E984FA8410E000E00215130509F374
:102620003601D6018D919C91FC0101900020E9F7C3
:10263000AF0141505109481B590B5701D701ED918A
:10264000FC91E40FF51F2081241148C0480F591F49
:10265000FA014082F2E0CF0ED11C22E0E20EF11C22
:10266000D3016D917C91F501808191810E94642E4E
:10267000892BC9F5552021F0F401E752FC4F108257
:10268000C801ED88FE880FB6F894FEBE0FBEEDBE01
:1026900066960FB6F894DEBF0FBECDBFDF91CF9127
:1026A0001F910F91FF90EF90DF90CF90BF90AF9070
:1026B0009F908F907F906F905F904F903F902F9062
:1026C0000895F401E752FC4F80832FEF821A920A9B
:1026D00030EA8316910409F09ACF95CF70E060E05C
:1026E0000E94472EB7CF0F5F1F4F97CF8FEF9FEFFF
:1026F000C8CFCF9326E040E855E260E070E088EB79
:1027000095E00E946E27C1E063E671E08AE794E0FD
:102710000E94AF2865E671E088EB95E00E94D4281E
:1027200041E064EF71E088E691E00E94F411892BAA
:1027300081F1CA3039F560E08DE00E9444266AE1FB
:1027400074E080E090E00E947E2561E08DE00E94D0
:10275000082661E08DE00E94442660E971E080E097
:1027600090E00E947E2526E040E855E260E070E0BF
:1027700088EB95E00E946E2761E771E08AE794E0BC
:102780000E94AF28CF5FC63109F0BECF80E0CF9165
:10279000089581E0FCCFCF93DF931092FE0266EDA7
:1027A00073E089E393E00E94402EBC018AE794E045
:1027B0000E94AF2864E672E08AE794E00E948B28CA
:1027C000C0E0D6E08091FE028630E8F488E791E030
:1027D0000E942F0441E064EF71E081E891E00E94E3
:1027E000F411C82F843018F4D093FE02EBCF68EEBA
:1027F00073E080E090E00E947E258091FE028F5F72
:102800008093FE02DFCF42E050E067E471E089EDA3
:1028100093E00E946906BC018AE794E00E94D428F4
:102820008C2FDF91CF910895EF92FF920F931F931A
:10283000CF93DF9300D0CDB7DEB77C018B018AE167
:1028400089831A8269EB71E088EB95E00E948B28FE
:10285000B70188EB95E00E94AF2869E172E088EB50
:1028600095E00E94D42840E060EE7EE286E991E0A7
:102870000E94F411892BB1F4B80188EB95E00E9415
:10288000AF28BE016F5F7F4F88EB95E00E94D42890
:1028900040E060EE7EE28EE991E00E94F41121E0DA
:1028A000892B09F020E0822F0F900F90DF91CF91BC
:1028B0001F910F91FF90EF900895BC0188EB95E078
:1028C0000E94D42840E060ED77E080EC91E00E9427
:1028D000F41121E0181619060CF020E0822F08955B
:1028E000CF93DF93EB01BC0188EB95E00E94D428E5
:1028F00040E0BE0183EB91E00E94F41121E0892BBE
:1029000009F020E0822FDF91CF9108950F93CF93AC
:10291000DF93D82F68EE73E08DEC91E00E94701485
:102920008823D9F1CAE001E029E231E049ED53E022
:1029300069ED71E08FED91E00E940A0D8091D9035D
:10294000863479F5C15079F78AE0109239038B30DB
:1029500051F56CE270E089ED93E00E94592E892BCD
:1029600011F1D53031F466EE71E089E393E00E9415
:102970004E2E43E050E06AE371E089ED93E00E945F
:102980006906BC0189E393E00E944E2EE9E3F3E07F
:1029900001900020E9F732971082DF91CF910F91DB
:1029A00008958BE0D2CF6AEE71E089E393E0DF9186
:1029B000CF910F910C944E2E88EB95E00E949B26B0
:1029C000181619065CF488EB95E00E94B5266AE0BB
:1029D00070E080E090E00E947E25EECF1092D90357
:1029E00062EF71E088EB95E00E94D42841E068E84E
:1029F00073E189EF91E00E94F41143E050E06BEC49
:102A000071E089ED93E00C946906CF92DF92EF922A
:102A1000FF92CF93DF931092FF02C090D802D09024
:102A2000D902E090DA02F090DB022AE939E949E5BF
:102A300050E4C701B6010E94992C87FDA9C026E683
:102A400036E646E850E4C701B6010E943A2B181654
:102A50000CF49EC061E08DE00E94082661E08DE0EC
:102A60000E9444266CE271E080E090E00E947E25A6
:102A70000E942B0566ED73E089E393E00E94402EEF
:102A8000BC018AE794E00E94AF286DE872E08AE713
:102A900094E00E948B280E947913882309F463C074
:102AA00069E574E089E393E00E94402EBC018AE767
:102AB00094E00E94AF2864E872E08AE794E00E9404
:102AC0008B280E94DC14BC018AE794E00E94D42881
:102AD0000E94CB1381113AC00E946E10C82FD82FCC
:102AE000DB7FD13009F043C00E94100568E772E037
:102AF0008AE794E00E948B2884E092E00E945D14B3
:102B00008BE192E00E945D14D093FF028C2F0E9413
:102B1000861469E373E08AE794E00E94AF286EE6CA
:102B200072E08AE794E00E948B2881E00E94E30D26
:102B300069E373E08AE794E00E94D428DF91CF91A3
:102B4000FF90EF90DF90CF900C94251162E08130E0
:102B5000D9F161E08230C1F1DF91CF91FF90EF9028
:102B6000DF90CF9008950E9400051092FF0264E567
:102B700074E089E393E00E94402EBC018AE794E070
:102B8000DF91CF91FF90EF90DF90CF900C94D428FD
:102B900022E030E0B701A6018AE794E00E94A82A6B
:102BA0006AE672E08AE794E00E948B2861EE73E0A7
:102BB00089E393E00E94402EBC018AE794E00E94E2
:102BC000D4281092FF0263E082E7DF91CF91FF905B
:102BD000EF90DF90CF900C94C50561E083E00E94F8
:102BE000082661E083E00E94442640E855E260E068
:102BF00070E08AE794E00E94A11D61E088E00E94F5
:102C0000082660E088E00E94442661E087E00E9498
:102C1000082660E087E00E94442661E084E00E948C
:102C2000082660E084E00E94442662E082E00E9480
:102C3000082682E00E947226892B39F481E0809375
:102C4000CB0261E087E00E94442680911F0386301A
:102C500088F482E00E947226892B61F480911F0320
:102C60008F5F80931F036CE271E080E090E00E9430
:102C70007E25EBCF60E087E00E9444266AE071E0A9
:102C80008DEE92E00E946D2E6AE071E08CED92E094
:102C90000E946D2E8AEE94E00E94F21F89E794E074
:102CA0000E94BF220E942D0B45E06EEC72E082E88C
:102CB00090E00E94A60541E16CED72E088E890E0AA
:102CC0000E94A6056AE071E08CED92E00E94290660
:102CD00065E272E0811102C06CED72E089E393E07D
:102CE0000E946D2E8AE794E00E94BE2864E372E0A1
:102CF0008AE794E00E94AF2866E372E08AE794E0F6
:102D00000E94AF2861E271E08AE794E00E94AF2858
:102D100069E373E08AE794E00E94AF2861E271E022
:102D20008AE794E00E94AF286EEC72E08AE794E0B4
:102D30000E94AF2861E271E08AE794E00E94AF2828
:102D40004091D8025091D9026091DA027091DB0271
:102D500022E030E08AE794E00E94A82A61E271E074
:102D60008AE794E00E94AF2889E193E00E94700313
:102D7000BC018AE794E00E94AF2861E273E08EE232
:102D800090E00E94950286E390E00E9429318093B2
:102D9000070187E390E00E9429318093080146E40F
:102DA00055E064EF71E080E090E00E94991E0E947F
:102DB000BB1E0E94520480911F03863008F4C5C0D8
:102DC00061E084E00E9444266AE372E08AE794E0CE
:102DD0000E94D42810921F0380911F03863050F068
:102DE00060E084E00E94442680911F038630C8F48E
:102DF0000C942A0782E00E947226892B89F7809121
:102E00001F038F5F80931F0364EF71E080E090E009
:102E10000E947E2563E671E08AE794E00E94AF2875
:102E2000DBCF6FE372E08AE794E00E94D42861E090
:102E300087E00E94442610921F0380911F03863072
:102E4000E0F060E087E00E94442680911F03863016
:102E500058F161E088E00E94442610921F0380919F
:102E60001F03863008F459C081E08093CA020E9493
:102E7000DA0360E088E00C94442682E00E94722627
:102E8000892BF9F680911F038F5F80931F0364EFF6
:102E900071E080E090E00E947E2563E671E08AE7C1
:102EA00094E00E94AF28C9CF6AE071E08CED92E017
:102EB0000E942906811127C081E00E94B50661E0C9
:102EC00071E08CEC92E00E940A068091FF02811171
:102ED00002C00E9405158091FF028823B1F10E9473
:102EE0006C0E69ED73E08CED92E00E9414146CEDB1
:102EF00072E08AE794E00E94D42869ED73E08AE7E3
:102F000094E00C94D42861EA73E08AE794E00E948C
:102F1000C22862E082E70C94C50582E00E94722616
:102F2000892B09F0A1CF80911F038F5F80931F032E
:102F300064EF71E080E090E00E947E2563E671E03E
:102F40008AE794E00E94AF288ACF0895CF92DF925B
:102F5000EF92FF921F93CF93DF93CDB7DEB7289701
:102F60000FB6F894DEBF0FBECDBF87E293E00E949C
:102F7000E507152F2093190330931A0340931B0381
:102F800050931C0360931D0370931E035093000322
:102F90008AE0888761E071E08CEC92E00E940A068A
:102FA00063E472E08AE794E00E94AF284AE050E0D0
:102FB000609101018AE794E00E94A52968E472E02B
:102FC0008AE794E00E94AF286091CC027091CD0214
:102FD0004AE050E08AE794E00E947F2981E00E9465
:102FE000B5066093D4027093D5028093D602909375
:102FF000D7026FE472E08AE794E00E94AF28409124
:10300000D4025091D5026091D6027091D70222E08D
:1030100030E08AE794E00E94AA2ABE01685F7F4FF1
:1030200089E090E00E94CF02909100038885C12C36
:10303000D12C7601981709F444C019821A821B8298
:103040001C82BE016F5F7F4F82E390E00E94950279
:1030500064ED72E082E390E00E9419032091D402B3
:103060003091D5024091D6025091D70269817A8180
:103070008B819C810E94CD2A6B017C01163009F066
:10308000BDC064ED72E08AE090E00E9419036CEC30
:1030900072E08AE190E00E94F2028AE290E00E94EF
:1030A0004C0320E030E040E85FE3C701B6010E9436
:1030B000992C181634F48091CB02811102C0109320
:1030C000090180910901811371C06AE071E08CED02
:1030D00092E00E942906811169C08091FF0281114E
:1030E00002C00E9405158091FF02882309F45EC08A
:1030F0000E946C0E20E030E040E85FE3C701B601BB
:103100000E94992C87FDAEC064EC73E089E393E0E4
:103110000E94402EBC0189ED93E00E944E2E20E0DB
:1031200030E040E85FE3C701B6010E94992C181611
:103130005CF462EC73E089E393E00E94402EBC01F2
:1031400089ED93E00E944E2E41E0C701B6010E9436
:103150003106BC0189ED93E00E944E2E6DE074E0D3
:1031600089E393E00E94402EBC0189ED93E00E9428
:103170004E2E60EB73E089E393E00E94402EBC0189
:1031800089ED93E00E944E2E69ED73E08CED92E0A4
:103190000E94141460ED77E080E090E00E947E25AC
:1031A00060ED77E080E090E00E947E2588858117C1
:1031B00049F089E090E09A838983612FCE010196DE
:1031C0000E94D9029091000380910901981306C0D2
:1031D00064ED72E08AE390E00E9419030E943404D7
:1031E00028960FB6F894DEBF0FBECDBFDF91CF910A
:1031F0001F91FF90EF90DF90CF9008951C3079F4ED
:1032000064ED72E08EE090E00E9419036CEC72E0D5
:1032100082E290E00E94F2028BE290E040CF1E300A
:1032200079F464ED72E082E190E00E9419036CECA5
:1032300072E08EE190E00E94F2028CE290E02FCFEB
:10324000103109F02ECF64ED72E086E190E00E942B
:1032500019036CEC72E086E290E00E94F2028DE2CB
:1032600090E01DCF1F8219821A821B821C821E824F
:103270001D82BE016F5F7F4F8AE090E00E94950241
:10328000BE016B5F7F4F8AE190E00E94BB0268E263
:1032900074E089E393E00E94402EBC0189ED93E045
:1032A0000E944E2E69817A818B819C8141E00E942F
:1032B0003106BC0189ED93E00E944E2E6CE574E06E
:1032C00089E393E00E94402EBC0189ED93E00E94C7
:1032D0004E2E4AE069E373E08D819E810E94B52EF7
:1032E000BC0189ED93E00E944E2EBE01695F7F4FC5
:1032F0008AE290E00E94CF026CE574E089E393E0FB
:103300000E94402EBC0189ED93E00E944E2E8F81D9
:103310004AE069E373E090E00E94B52EBC0189EDBC
:1033200093E00E944E2EBE016F5F7F4F8EE090E0D3
:103330000E949502BE016B5F7F4F82E290E00E9487
:10334000BB0262E274E089E393E00E94402EBC017C
:1033500089ED93E00E944E2E69817A818B819C8158
:1033600041E00E943106BC0189ED93E00E944E2E9F
:103370006CE574E089E393E00E94402EBC0189ED86
:1033800093E00E944E2E4AE069E373E08D819E81B6
:103390000E94B52EBC0189ED93E00E944E2EBE0125
:1033A000695F7F4F8BE290E00E94CF026CE574E092
:1033B00089E393E00E94402EBC0189ED93E00E94D6
:1033C0004E2E8F814AE069E373E090E00E94B52EB3
:1033D000BC0189ED93E00E944E2EBE016F5F7F4FCE
:1033E00082E190E00E949502BE016B5F7F4F8EE10B
:1033F00090E00E94BB026CE174E089E393E00E94DC
:10340000402EBC0189ED93E00E944E2E69817A81A5
:103410008B819C8141E00E943106BC0189ED93E0E3
:103420000E944E2E6CE574E089E393E00E94402EEA
:10343000BC0189ED93E00E944E2E4AE069E373E0FF
:103440008D819E810E94B52EBC0189ED93E00E9482
:103450004E2EBE01695F7F4F8CE290E00E94CF024A
:103460006CE574E089E393E00E94402EBC0189ED95
:1034700093E00E944E2E8F814AE069E373E090E072
:103480000E94B52EBC0189ED93E00E944E2EBE0134
:103490006F5F7F4F86E190E00E949502BE016B5FF7
:1034A0007F4F86E290E00E94BB0266E174E089E310
:1034B00093E00E94402EBC0189ED93E00E944E2EC5
:1034C00069817A818B819C8141E00E943106BC0137
:1034D00089ED93E00E944E2E6CE574E089E393E061
:1034E0000E94402EBC0189ED93E00E944E2E4AE0DE
:1034F00069E373E08D819E810E94B52EBC0189ED48
:1035000093E00E944E2EBE01695F7F4F8DE290E0F6
:103510000E94CF026CE574E089E393E00E94402EA4
:10352000BC0189ED93E00E944E2E8F814AE069E351
:1035300073E090E00E94B52E22CECF93DF93CDB7FB
:10354000DEB729970FB6F894DEBF0FBECDBF8091CE
:10355000CA02882309F404C10E94E60B89ED93E0B6
:103560000E94222E8330910509F44DC044F481302D
:103570009105C1F00297D9F00E94DA0315C0853099
:10358000910509F49FC00CF46FC00697A9F70E943B
:10359000340429960FB6F894DEBF0FBECDBFDF917D
:1035A000CF9108950E9475091092D903F2CF8091AE
:1035B000FF02811102C00E9405158091FF0288233D
:1035C00099F30E946C0E67E973E08AE794E00E9429
:1035D0008B2869ED73E08CED92E00E94141469E58C
:1035E00074E0811102C064E574E08AE293E00E9415
:1035F000402EBC018AE794E00E94D42860E08DE070
:103600000E944426D1CF63E070E089ED93E00E94F0
:10361000AD0C81E10E940D04882309F4BACF80919A
:10362000D90341E16AE071E0882311F069ED73E0AC
:1036300088E890E00E94710541E16CED72E088E855
:1036400090E00E94A6058AE794E00E94BE2869EDFA
:1036500073E08AE794E00E94AF286EE873E08AE79F
:1036600094E00E94C228A0CF64E070E089ED93E06E
:103670000E94AD0C85E00E940D04882309F489CFD7
:1036800045E06DE171E082E890E00E94710545E05F
:1036900069ED73E082E890E00E94710545E06EEC10
:1036A00072E082E890E00E94A6058AE794E00E941A
:1036B000BE286EEC72E08AE794E00E94AF2865E8CD
:1036C00073E0CDCF65E070E089ED93E00E94AD0C32
:1036D0008EE00E940D04882309F45BCF41E050E0A6
:1036E0006AE371E089ED93E00E946906BC01CE01B6
:1036F00001960E946D2E42E050E06AE371E089ED90
:1037000093E00E946906BC0189E393E00E946D2E5C
:1037100050E040E069E373E0CE0101960E94E00AC8
:1037200065E773E08AE794E00E948B2887E293E0E4
:103730000E94E5072093190330931A0340931B035B
:1037400050931C0360931D0370931E0389E193E063
:103750000E947003BC018AE794E00E94D42824CF21
:103760000E94A61716CF90E080E008952091DB0418
:103770003091DC0428173907B9F4909199048091AD
:103780009A04981789F0E0919904F0E0E556FB4F10
:1037900080812091990430E02F5F3F4F2F733327B2
:1037A0002093990490E008958FEF9FEF0895EF9292
:1037B000FF920F931F93CF93DF93DC015C96ED9004
:1037C000FC905D97E114F10479F481E090E01396A8
:1037D0009C938E93129790E080E0DF91CF911F91A0
:1037E0000F91FF90EF9008955196ED91FC915297B3
:1037F00050968C915097982F90950FB75E962C917C
:103800005E97122F127021FD6095F894208111238C
:1038100019F1282B2083E7012197F1F728E0462FA3
:1038200050E0308160FF1AC0382B3083E7012197C8
:10383000F1F7BA0175956795215089F7112381F049
:103840008081892380830FBF5C968D919C91019725
:10385000F1F781E090E0C1CF2923DCCF3923E5CF18
:103860009081892BEFCF08952091DB043091DC0407
:103870002817390771F49091990480919A04981748
:1038800041F0E0919904F0E0E556FB4F808190E033
:1038900008958FEF9FEF08952091DB043091DC04B1
:1038A0002817390771F480919A042091990490E0C7
:1038B000805C9F4F821B910960E470E00E947D2D27
:1038C000089590E080E00895E091DB04F091DC043D
:1038D000E817F90769F4A389B4899C9185898095D3
:1038E00089238C931092DC041092DB0481E008950C
:1038F00080E00895CF93DF93EC018A8D9B8D892B17
:1039000001F18091DB049091DC048C179D07C9F0D4
:10391000009711F00E94641C8E8D8E7F8E8F109206
:103920009A0410929904D093DC04C093DB04EB89D1
:10393000FC8980819D89892B808381E0DF91CF91F3
:10394000089580E0FBCF1F920F920FB60F921124C3
:103950002F933F934F935F936F937F938F939F9397
:10396000AF93BF93EF93FF93E091DB04F091DC04FE
:10397000309749F0A685B7858585968D91FF14C04F
:103980009C918923A1F4FF91EF91BF91AF919F91F9
:103990008F917F916F915F914F913F912F910F90F8
:1039A0000FBE0F901F9018959C91892361F7A389F2
:1039B000B4899C918589809589238C938689978980
:1039C0000197F1F7608D718DA685B785558538E033
:1039D00020E0CB010197F1F7822F90E09595879534
:1039E000282F4C91452309F02068315091F7868D9E
:1039F00081FD209580919A0490E001968F7399271C
:103A000030919904381799F0A0919A04B0E0A55626
:103A1000BB4F2C9380939A04828D938D0197F1F77D
:103A2000A389B4898C919589892B8C93ACCF868D91
:103A30008160868FF1CF29E532E0FC01318320835C
:103A40000C94641C1F93CF93DF93EC01162F6E8DA3
:103A50006695617081E06827812F0E94442661E0AD
:103A6000812F0E940826812F110F990BFC01EF571F
:103A7000FB4FE491E88BFC01E856FB4FE491F0E04A
:103A8000EE0FFF1FE754FB4F859194919A8B898B22
:103A9000DF91CF911F9108951F93CF93DF93EC0196
:103AA000162F60E0812F0E9408268E8D81FD04C0B4
:103AB00061E0812F0E9444261C87812F110F990BF2
:103AC000FC01EF57FB4FE491ED87FC01E856FB4FFB
:103AD000E491F0E0EE0FFF1FE155FB4F85919491CB
:103AE0009F878E87DF91CF911F9108951F93CF936A
:103AF000DF93EC01162F1B821A8288EE93E0A0E080
:103B0000B0E08C839D83AE83BF8389E592E0998387
:103B100088831F8A1E8A198E188E1B8E1A8E1D8E00
:103B20001C8E8E8D8E7F20FB81F98E8F642FCE01AF
:103B30000E94221D612FCE01DF91CF911F910C9425
:103B40004C1DCF93DF93EC019A01AB011B8E1A8EB3
:103B5000198E188E1F8A1E8A60E874E88EE190E044
:103B60000E94B32DF901C90103972430310510F4E7
:103B700081E090E09D8F8C8F6C85673108F054C098
:103B8000C901969587958431910508F452C04397F1
:103B90009F8B8E8BC9010597369710F481E090E0DA
:103BA000998F888FC901880F991F280F391F369563
:103BB0002795369527952D30310508F43DC02C50BA
:103BC00031093B8F2A8F9091680084E0683054F06F
:103BD00081E06E303CF082E0643124F081E06631B7
:103BE00009F480E0892B809368009C852DE630E005
:103BF000983064F09E301CF1943134F09631FCF032
:103C000030E020E0963111F42CE630E03C8B2B8B39
:103C10009830C4F481E001C0880F9A95EAF78D8B43
:103C20008C8D9D8D0197F1F7CE01DF91CF910C9492
:103C30007A1C81E090E0ACCF21E030E0C2CF2BE6EF
:103C400030E0E4CF9E3014F49850E4CF963114F471
:103C50009E50E0CF80E4963111F380E0E0CFCF9228
:103C6000DF92EF92FF920F931F9369017A01611522
:103C700071058105910509F053C081E090E0A0E055
:103C8000B0E08093E6049093E704A093E804B09337
:103C9000E9041093E5040093E404809170008E7FA2
:103CA000809370008091B0008C7F8093B0008091F1
:103CB000B100877F8093B1008091B6008F7D8093A3
:103CC000B600809170008D7F809370008091B1006C
:103CD00084608093B1008091B1008C7F8093B100AB
:103CE00020E034E244EF5AE4C701B6010E949E2C62
:103CF00020E030E040E85CE30E949E2C0E94B12B63
:103D000020E031E0C901861B970B9093DE0480937D
:103D1000DD041F910F91FF90EF90DF90CF900895F9
:103D20006093E6047093E7048093E8049093E904B9
:103D3000B0CF0F931F938A012FE632E143E85AE395
:103D40000E942F1E1F910F9108951092E00410926F
:103D5000E1041092E2041092E3041092DF048091D7
:103D6000DD049091DE048093B200E0E7F0E0808112
:103D7000816080830895E0E7F0E080818E7F80831A
:103D800008958091E0049091E104A091E204B09143
:103D9000E3040196A11DB11D8093E0049093E1041A
:103DA000A093E204B093E3048091E0049091E104D5
:103DB000A091E204B091E3044091E6045091E7043D
:103DC0006091E8047091E90484179507A607B70786
:103DD00010F18091DF0481111EC081E08093DF0427
:103DE0008091E0049091E104A091E204B091E30499
:103DF000841B950BA60BB70B8093E0049093E10412
:103E0000A093E204B093E304E091E404F091E504AC
:103E100009951092DF0408951F920F920FB60F922A
:103E200011242F933F934F935F936F937F938F93BF
:103E30009F93AF93BF93EF93FF938091DD04909195
:103E4000DE048093B2000E94C11EFF91EF91BF91EA
:103E5000AF919F918F917F916F915F914F913F9122
:103E60002F910F900FBE0F901F90189580911E05F7
:103E700090911F05891B990B089590911F058091C2
:103E80001E052FEF3FEF981748F4E92FF0E0E05EB2
:103E9000FA4F208130E09F5F90931F05C90108957C
:103EA000E0911F0580911E05E81730F4F0E0E05E18
:103EB000FA4F808190E008958FEF9FEF0895089565
:103EC000CF93DF93EC01E091F604F091F704309783
:103ED000F1F090911F0580911E059817C0F090E0B9
:103EE000292F30E02617370754F4DE01A20FB31F45
:103EF0004C91205E3A4FD9014C939F5FF1CF1092C5
:103F00001F0560931E05CB01DF91CF910994DF91CE
:103F1000CF910895E091F804F091F904309729F0D9
:103F20001092FC041092FB0409940895CF93DF9340
:103F30001F92CDB7DEB769832091FA042223F9F0EE
:103F40002091FB04203258F021E030E0FC01338363
:103F5000228390E080E00F90DF91CF9108958091CF
:103F6000FC04E82FF0E0E350FB4F998190838F5FD2
:103F70008093FC048093FB0481E090E0ECCF61E04F
:103F8000CE0101960E945D21F7CFCF92DF92EF9292
:103F9000FF920F931F93CF93DF937C01CB018A0194
:103FA0002091FA04222389F0EB016B01C40ED51E87
:103FB000CC15DD0569F06991D701ED91FC91019077
:103FC000F081E02DC7010995F3CF642F0E945D2198
:103FD000C801DF91CF911F910F91FF90EF90DF907B
:103FE000CF90089510921F0510921E051092FC04A8
:103FF0001092FB040E94A0208AE89FE10E94892180
:1040000080E69FE10C94842181E08093FA04609320
:104010001D051092FC041092FB0408950C940420DA
:104020000F93062F21E04091FB046DEF74E0809127
:104030001D050E9406211092FC041092FB041092B0
:10404000FA040F9108954F925F926F927F92AF9210
:10405000BF92CF92EF92FF920F931F93CF93DF9374
:104060005C01F62ED42F28013901EE2019F10E94AF
:104070000420CE2DC43008F0C3E0C150B8F028E0D1
:10408000C29FC0011124A301920104C05695479517
:10409000379527958A95D2F7B901D501ED91FC9115
:1040A0000190F081E02DC5010995E7CF60E0C501E1
:1040B0000E9410204D2FD13208F040E22C2D60E2FA
:1040C00075E08F2D0E94BE2010921F0580931E0563
:1040D000DF91CF911F910F91FF90EF90CF90BF9004
:1040E000AF907F906F905F904F900895CF92EF9236
:1040F0000F931F93C22EE12C00E010E098010E9464
:1041000023201F910F91EF90CF90089521E00C9400
:10411000762021E00C94762061E00C941020EAEEE9
:10412000F4E01382128288EE93E0A0E0B0E0848392
:104130009583A683B7838BE692E09183808308956D
:104140001092AD0581E08093AB051092AA0561E065
:1041500082E10E94442661E083E10E944426E9EB6B
:10416000F0E080818E7F808380818D7F808380E2FC
:104170008093B80085E48093BC000895413208F034
:1041800043C09091AD059111FCCF91E09093AD05A6
:104190002093AB052FEF2093400510928505240F47
:1041A000209384059093AC059091AC05880F892BE2
:1041B0008093AC058091AA05813009F51092AA057B
:1041C0008091AC058093BB008091BC0083FDF8CF4B
:1041D00085EC8093BC008091AD058130E1F3809146
:1041E0008505841710F440918505A6E8B5E0962F63
:1041F000FB018E2F891B841720F0842F089585EEF4
:10420000E8CF8D918193F5CF40E0F7CF0F93413206
:1042100008F04BC09091AD059111FCCF92E09093C6
:10422000AD050093AB059FEF909340051092850577
:1042300040938405362FA6E8B5E0FB019E2F931B23
:10424000941770F11092AC059091AC05880F892BF2
:104250008093AC058091AA05813029F51092AA05BA
:104260008091AC058093BB008091BC0083FDF8CFAA
:1042700085EC8093BC00222321F08091AD05823033
:10428000D1F3809140058F3F91F0809140058032BD
:1042900081F080914005803371F084E00F910895A2
:1042A00091919D93CBCF85EEE4CF81E0F7CF80E075
:1042B000F5CF82E0F3CF83E0F1CF20916205260FA6
:1042C0003327331F21323105ECF42091AD05FC0179
:1042D00090E080E0243069F082E00895A0916205CA
:1042E0002191AC014C595A4FA40FB52FB11D2C93FD
:1042F0000196861798F380916205680F60936205B6
:1043000080E0089581E008959093A7058093A60525
:1043100008959093A9058093A805089585ED80934D
:10432000BC008091BC0084FDFCCF1092AD050895C7
:1043300085EC8093BC001092AD0508951F920F92FA
:104340000FB60F9211242F933F934F935F936F9368
:104350007F938F939F93AF93BF93EF93FF9380913E
:10436000B900887F803609F44CC008F03FC088321D
:1043700009F4A8C018F5803109F49CC0B8F488236A
:1043800009F4F9C0883009F495C0FF91EF91BF910D
:10439000AF919F918F917F916F915F914F913F91DD
:1043A0002F910F900FBE0F901F901895883109F430
:1043B00089C0803251F78093400515C0803409F4DC
:1043C0009EC048F48033B9F38833F9F680934005F2
:1043D0000E949821DACF803509F485C0883509F428
:1043E00096C0883491F60E948E21CFCF883909F487
:1043F0008CC038F5883729F050F4883611F08037B2
:1044000021F683E08093AD051092410557C08838AE
:1044100009F47BC0803919F0803809F0B6CF80915B
:104420004105803208F071C0E091410581E08E0FB6
:10443000809341058091BB00F0E0EE5BFA4F8083F2
:104440003DC0803B39F0E0F4803A09F479C0883A05
:1044500009F09BCF84E08093AD0510926305109224
:104460006205E091A805F091A90509958091620582
:1044700081110FC081E0809362051092640509C02C
:10448000803C09F476C0883C09F473C0883B09F08D
:104490007CCFE091630581E08E0F80936305F0E0AF
:1044A000EC59FA4F80818093BB0090916305809115
:1044B000620529C08091AC058093BB0085EC809398
:1044C000BC0063CF9091850580918405981758F5BD
:1044D000E091850581E08E0F80938505F0E0EA5735
:1044E000FA4F8081E9CFE091850581E08E0F8093BE
:1044F00085058091BB00F0E0EA57FA4F80839091E8
:104500008505809184059817C8F285E8D8CFE09199
:10451000850581E08E0F809385058091BB00F0E0DA
:10452000EA57FA4F80838091AB0581115CCF81E01F
:104530008093AA0584EA8093BC001092AD0525CF34
:104540000E94982180914105803230F4E09141052C
:10455000F0E0EE5BFA4F10826091410570E0E0916F
:10456000A605F091A70582E495E009951092410512
:104570000CCF85ECE0CF1092400535CF08958AEE40
:1045800094E00E94F21F60E470E08AEE94E00E94E2
:104590000E208AEE94E00E948C20811103C081E0FD
:1045A0008093AE058091AE050895EF92FF920F9330
:1045B0001F93CF93DF938B017A0160E470E08AEE62
:1045C00094E00E940E20D0E0C0E0CE15DF0554F448
:1045D0000C0F1D1FF80160818AEE94E00E94961F67
:1045E0002196F3CF8AEE94E0DF91CF911F910F9146
:1045F000FF90EF900C948C20EF92FF920F931F93FB
:10460000CF93DF938B017A0160E470E08AEE94E04F
:104610000E948920E801CE01801B910B8E159F0519
:1046200034F48AEE94E00E943D1F8993F4CF81E038
:1046300090E0DF91CF911F910F91FF90EF9008953F
:10464000EF92FF920F931F93CF93DF931F92CDB7FB
:10465000DEB78C0169837A0141E050E0BE016F5FF3
:104660007F4F0E94D52242E050E0B701C8010E946E
:10467000FC220F90DF91CF911F910F91FF90EF904F
:104680000895CF93DF9300D0CDB7DEB7AE014F5F73
:104690005F4F63EE0E94202329813A81322723272E
:1046A0003227A4EAB4E40E94D82D8D5492410F9091
:1046B0000F90DF91CF910895CF93DF9300D0CDB7C6
:1046C000DEB7AE014F5F5F4F65EE0E942023298168
:1046D0003A81322723273227ADE7B0E00E94D82D58
:1046E00006970F900F90DF91CF9108954F925F92B0
:1046F0006F927F928F929F92AF92BF92CF92DF92F2
:10470000EF92FF92CF93DF93EC016A017B012CE3E0
:10471000822E912CA12CB12CCB01BA01A5019401C0
:104720000E94912D6D83CA01B901A50194010E94D7
:10473000912D6C83C701B60120E13EE040E050E0DE
:104740000E94912DCA01B90128E130E040E050E01B
:104750000E94912D6B83C701B60120E831E541E04D
:1047600050E00E94912D188263E9862E6EEF962EFE
:10477000AA24AA94BA2C8881782F7370C12CD12CCA
:104780007601C394772319F0C12CD12C7601260130
:1047900037019DE6490E91E0591E611C711C2415DC
:1047A00035054605570578F0240135014C185D089C
:1047B0006E087F08730162012C0D3D1D4E1D5F1DAB
:1047C0008F5F8883D8CF81E089836981862F81506C
:1047D000990BFC01E25AFB4FE491711103C0623066
:1047E00009F4EF5F8E2F90E0B0E0A0E028173907C2
:1047F0004A075B0738F0281B390B4A0B5B0B6F5FCE
:104800006983E3CF2F5F2A83DF91CF91FF90EF90F1
:10481000DF90CF90BF90AF909F908F907F906F90E0
:104820005F904F900895FC019F012F5F3F4F808163
:104830008F7E803269F080E02AE0919130ED390F6F
:104840003A3040F4829F900D112480ED890FF5CF0E
:10485000F901EACF0895EF92FF920F931F93CF9340
:10486000DF93EC017B018A01CB010E941324888332
:10487000C70103960E9413248983C70106960E94EC
:1048800013248A83C8010E9413248B83C8010396D2
:104890000E9413248C83C80106960E9413248D83E2
:1048A000DF91CF911F910F91FF90EF900895DC0160
:1048B00050E0EEE5F4E081E0861730F49491490F82
:1048C000511D8F5F3196F8CF633038F0CD01837082
:1048D0009927892B11F44F5F5F4F9D012D5F3F4F4B
:1048E00036952795369527956DE671E0A69FC00110
:1048F000A79F900DB69F900D11240197820F931FD3
:10490000840F951F0895FC0180814281618190E0B0
:104910000E945724069667E070E00E94692D089572
:10492000EF92FF920F931F93CF93DF93EC01888157
:104930004A81698190E00E9457249C01A8E1B0E07F
:104940000E94D82D2B817B018C01E20EF11C011DF0
:10495000111DA8019701ACE3B0E00E94E72D2C8166
:104960007B018C01E20EF11C011D111DA8019701B4
:104970000E94E72D2D81620F711D811D911DDF9118
:10498000CF911F910F91FF90EF900895282F30E065
:1049900094E0359527959A95E1F7922F990F990F05
:1049A000291B220F820F0895282F6AE00E945D2D97
:1049B000982F880F890F880F820F089586FF15C0E2
:1049C000982F9F71492F50E024E0559547952A95DF
:1049D000E1F7242F220F220F342F321B232F220F17
:1049E000290F85FD245F822F0895282F30E094E061
:1049F000359527959A95E1F7922F990F990F291BD5
:104A0000220F280FF0CF1F920F920FB60F92112492
:104A10002F933F938F939F93AF93BF938091B40550
:104A20009091B505A091B605B091B7053091B30549
:104A300026E0230F2D3768F129E8230F0396A11DE7
:104A4000B11D2093B3058093B4059093B505A09351
:104A5000B605B093B7058091AF059091B005A091D0
:104A6000B105B091B2050196A11DB11D8093AF05AE
:104A70009093B005A093B105B093B205BF91AF91EB
:104A80009F918F913F912F910F900FBE0F901F908C
:104A900018950296A11DB11DD4CF2FB7F89460913F
:104AA000B4057091B5058091B6059091B7052FBFFB
:104AB00008953FB7F8948091AF059091B005A0910B
:104AC000B105B091B20526B5A89B05C02F3F19F0DE
:104AD0000196A11DB11D3FBFBA2FA92F982F88277E
:104AE000BC01CD01620F711D811D911D43E0660F58
:104AF000771F881F991F4A95D1F708958F929F922B
:104B0000AF92BF92CF92DF92EF92FF926B017C0146
:104B10000E9459254B015C01C114D104E104F10448
:104B2000E9F00E94CC2A0E945925681979098A095E
:104B30009B09683E73408105910570F321E0C21A1C
:104B4000D108E108F10888EE880E83E0981EA11CC8
:104B5000B11CC114D104E104F10429F7FF90EF90D6
:104B6000DF90CF90BF90AF909F908F9008957894F2
:104B700084B5836084BD85B5836085BDEEE6F0E0D5
:104B8000808181608083E1E8F0E082E08083808141
:104B900081608083E0E8F0E0808181608083E1EBE8
:104BA000F0E0808184608083E0EBF0E080818160D0
:104BB000808386E880937A001092C1000895843043
:104BC00081F028F48230E9F08330F9F008958830DC
:104BD00071F0893091F08530B9F4809180008F7D3B
:104BE00003C0809180008F7780938000089580912A
:104BF000B0008F778093B00008958091B0008F7DD2
:104C0000F9CF84B58F7784BD089584B58F7DFBCFB0
:104C1000CF93DF9390E0FC01EF57FB4F2491885630
:104C20009B4FFC0184918823C9F090E0880F991F65
:104C3000FC01ED53FB4FA591B491FC01E754FB4FF0
:104C4000C591D49161110DC09FB7F8948C912095B6
:104C500082238C938881282328839FBFDF91CF9163
:104C60000895623051F49FB7F8943C91822F80955B
:104C700083238C93E8812E2BEFCF8FB7F894EC91A0
:104C80002E2B2C938FBFEACF1F93CF93DF93282F28
:104C900030E0F901E659FB4F8491F901EF57FB4FE2
:104CA000D491F901E856FB4FC491CC23A9F0162FFB
:104CB00081110E94DF25EC2FF0E0EE0FFF1FE7547B
:104CC000FB4FA591B4918FB7F894EC91111108C0E6
:104CD000D095DE23DC938FBFDF91CF911F91089594
:104CE000DE2BF8CFCF93DF93282F30E0F901E65980
:104CF000FB4F8491F901EF57FB4FD491F901E8562E
:104D0000FB4FC491CC23A1F081110E94DF25EC2F31
:104D1000F0E0EE0FFF1FE155FB4FA591B491EC9130
:104D2000ED2381E090E009F480E0DF91CF910895D8
:104D300080E090E0FACFFC01918D228D892F90E0E8
:104D4000805C9F4F821B91098F7399270895FC0106
:104D5000918D828D981731F0828DE80FF11D858D30
:104D600090E008958FEF9FEF0895FC01918D828D63
:104D7000981761F0A28DAE0FBF2FB11D5D968C917B
:104D8000928D9F5F9F73928F90E008958FEF9FEFBA
:104D90000895FC01538D448D252F30E0842F90E041
:104DA000821B930B541710F0CF9608950197089526
:104DB00088E198E2892B49F080E090E0892B29F086
:104DC0000E94182881110C9400000895FC01A48D04
:104DD000A80FB92FB11DA35ABF4F2C91848D90E01D
:104DE00001968F739927848FA689B7892C93A08900
:104DF000B1898C9180648C93938D848D981306C0B7
:104E00000288F389E02D80818F7D80830895CF9380
:104E1000DF93EC01888D8823B9F0AA89BB89E889E2
:104E2000F9898C9185FD03C0808186FD0DC00FB688
:104E300007FCF7CF8C9185FFF2CF808185FFEDCF06
:104E4000CE010E94E626E9CFDF91CF910895EF923F
:104E5000FF920F931F93CF93DF93EC0181E0888F34
:104E60009B8D8C8D981316C0E889F989808185FF08
:104E700011C0EE89FF896083E889F98980818064A7
:104E8000808381E090E0DF91CF911F910F91FF909F
:104E9000EF900895F62E0B8D10E00F5F1F4F0F73EC
:104EA0001127E02E8C8D8E110CC00FB607FCFACFA7
:104EB000E889F989808185FFF5CFCE010E94E62639
:104EC000F1CFEB8DEC0FFD2FF11DE35AFF4FF08278
:104ED0000B8FEA89FB8980818062D2CFCF92DF92EB
:104EE000EF92FF921F93CF93DF93EC016A017B0156
:104EF000122F60E874E88EE190E0A70196010E940D
:104F0000912D215031094109510956954795379501
:104F10002795E889F98982E08083211580E13807A7
:104F200098F0E889F989108260E472E48FE090E0FB
:104F3000A70196010E94912D215031094109510983
:104F40005695479537952795EC85FD853083EE85F9
:104F5000FF852083188EEC89FD891083EA89FB89FF
:104F6000808188698083EA89FB8980818F7D808345
:104F7000DF91CF911F91FF90EF90DF90CF90089538
:104F80001F920F920FB60F9211242F938F939F931E
:104F9000EF93FF93E091C805F091C9058081E091FE
:104FA000CE05F091CF0582FD1BC090818091D10587
:104FB0008F5F8F732091D205821741F0E091D10568
:104FC000F0E0E854FA4F958F8093D105FF91EF916F
:104FD0009F918F912F910F900FBE0F901F9018955A
:104FE0008081F4CF1F920F920FB60F9211242F934E
:104FF0003F934F935F936F937F938F939F93AF9361
:10500000BF93EF93FF9388EB95E00E94E626FF9114
:10501000EF91BF91AF919F918F917F916F915F9130
:105020004F913F912F910F900FBE0F901F901895A9
:1050300088EB95E00E949B2621E0892B09F420E073
:10504000822F0895E8EBF5E01382128288EE93E058
:10505000A0E0B0E084839583A683B7838DE792E0D8
:105060009183808385EC90E09587848784EC90E041
:105070009787868780EC90E0918B808B81EC90E025
:10508000938B828B82EC90E0958B848B86EC90E006
:10509000978B868B118E128E138E148E0895AF927D
:1050A000BF92CF92DF92EF92FF920F931F93CF9315
:1050B000DF936C017B018B01040F151FEB015E0177
:1050C000AE18BF08C017D10759F06991D601ED910C
:1050D000FC910190F081E02DC6010995892B79F7AB
:1050E000C501DF91CF911F910F91FF90EF90DF905D
:1050F000CF90BF90AF900895FB0101900020E9F799
:105100003197AF01461B570BDC01ED91FC910280FA
:10511000F381E02D0994EF92FF920F931F93CF93A9
:10512000DF938C017B01D0E0C0E0F701EC0FFD1FA5
:105130006491662361F0D801ED91FC910190F081BA
:10514000E02DC8010995892B11F02196EECFCE01F3
:10515000DF91CF911F910F91FF90EF90089561150E
:10516000710511F00C947C2890E080E00895DC013A
:10517000ED91FC910190F081E02D09946AEC71E0D1
:105180000C947C280F931F93CF93DF93EC010E9424
:105190008B288C01CE010E94BE28800F911FDF91C9
:1051A000CF911F910F9108950F931F93CF93DF938A
:1051B0008C01D0E0C0E06115710519F00E947C28D7
:1051C000EC01C8010E94BE288C0F9D1FDF91CF917A
:1051D0001F910F9108958F929F92AF92BF92EF927D
:1051E000FF920F931F93CF93DF93CDB7DEB7A197B5
:1051F0000FB6F894DEBF0FBECDBF7C01FA01CB0124
:1052000019A2223008F42AE08E010F5D1F4F822E72
:10521000912CB12CA12CBF01A50194010E94912DCC
:10522000F901CA016A300CF5605DD8016E938D01F9
:10523000232B242B252B79F790E080E0109721F089
:10524000BD01C7010E947C28A1960FB6F894DEBF6D
:105250000FBECDBFDF91CF911F910F91FF90EF90C7
:10526000BF90AF909F908F900895695CDECFCF92F2
:10527000DF92EF92FF920F931F93CF93DF9321154D
:10528000310581F4DC01ED91FC910190F081E02D7C
:10529000642FDF91CF911F910F91FF90EF90DF90DE
:1052A000CF9009942A30310501F52AE077FF1DC01F
:1052B0006A017B01EC016DE20E94B7288C01442752
:1052C0005527BA014C195D096E097F092AE0CE0104
:1052D0000E94EB28800F911FDF91CF911F910F91BA
:1052E000FF90EF90DF90CF900895DF91CF911F91C5
:1052F0000F91FF90EF90DF90CF900C94EB289A01E4
:10530000AB01770F660B770B0C9437290F931F9324
:10531000CF93DF93EC010E947F298C01CE010E9484
:10532000BE28800F911FDF91CF911F910F9108959B
:105330002115310541F4DC01ED91FC910190F081E2
:10534000E02D642F09940C94EB289A01462F50E02D
:1053500070E060E00C9498290F931F93CF93DF9334
:10536000EC010E94A5298C01CE010E94BE28800F6D
:10537000911FDF91CF911F910F9108959A01AB0179
:1053800070E060E00C9498292F923F924F925F92C8
:105390006F927F928F929F92AF92BF92CF92DF9245
:1053A000EF92FF921F93CF93DF93EC016A017B0191
:1053B000722EAB019601CB01B6010E942F2D6BE836
:1053C00072E0811126C046015701E894B7F82FEF2B
:1053D0003FEF4FE75FE7C501B4010E942F2D811118
:1053E0000CC02FEF3FEF4FE75FE7C501B4010E940C
:1053F0003A2B6FE872E0181664F02FEF3FEF4FE79B
:105400005FE4C701B6010E94992C1816B4F463E951
:1054100072E0CE01DF91CF911F91FF90EF90DF906E
:10542000CF90BF90AF909F908F907F906F905F9044
:105430004F903F902F900C947C282FEF3FEF4FE739
:105440005FECC701B6010E943A2B87FDE0CF20E058
:1054500030E0A901C701B6010E943A2B312C212C62
:1054600087FF09C06DE2CE010E94B7281C01F7FA40
:10547000F094F7F8F09410E060E070E080E09FE3D3
:10548000711641F020E030E040E251E40E943F2BF1
:105490001F5FF6CFA70196010E94CE2A2B013C0187
:1054A0000E94B82B4B015C012AE0BC01A401CE0193
:1054B0000E94EB287C01E20CF31C1123B1F1C50121
:1054C000B4010E94E72B9B01AC01C301B2010E9411
:1054D000CD2A4B015C016EE2CE010E94B728E80E96
:1054E000F91E115010F120E030E040E251E4C50116
:1054F000B4010E949E2C2B013C010E94B82B4B0151
:105500004AE050E0CE010E94BE29E80EF91EB40127
:1055100090E080E00E94E72B9B01AC01C301B20147
:105520000E94CD2A4B015C01DCCFC701DF91CF91F6
:105530001F91FF90EF90DF90CF90BF90AF909F9022
:105540008F907F906F905F904F903F902F90089535
:105550000C94C4290F931F93CF93DF93EC010E9407
:10556000C4298C01CE010E94BE28800F911FDF91BB
:10557000CF911F910F91089508950E94B7250E9421
:10558000BC2A0E94ED15C8EDD6E20E949D1A209714
:10559000E1F30E94D826F9CF08955058BB27AA27D7
:1055A0000E94E52A0C945F2C0E94512C38F00E9436
:1055B000582C20F039F49F3F19F426F40C944E2C0B
:1055C0000EF4E095E7FB0C94482CE92F0E94702C18
:1055D00058F3BA17620773078407950720F079F428
:1055E000A6F50C94922C0EF4E0950B2EBA2FA02D5C
:1055F0000B01B90190010C01CA01A0011124FF2780
:10560000591B99F0593F50F4503E68F11A16F0407A
:10561000A22F232F342F4427585FF3CF4695379579
:105620002795A795F0405395C9F77EF41F16BA0B3E
:10563000620B730B840BBAF09150A1F0FF0FBB1FEC
:10564000661F771F881FC2F70EC0BA0F621F731F35
:10565000841F48F4879577956795B795F7959E3F92
:1056600008F0B0CF9395880F08F09927EE0F979523
:10567000879508950E94242C08F481E008950E94E3
:10568000532B0C945F2C0E94582C58F00E94512CE4
:1056900040F029F45F3F29F00C94482C51110C94F0
:1056A000932C0C944E2C0E94702C68F39923B1F328
:1056B000552391F3951B550BBB27AA276217730738
:1056C000840738F09F5F5F4F220F331F441FAA1FCC
:1056D000A9F335D00E2E3AF0E0E832D09150504088
:1056E000E695001CCAF72BD0FE2F29D0660F771F36
:1056F000881FBB1F261737074807AB07B0E809F01C
:10570000BB0B802DBF01FF2793585F4F3AF09E3FA0
:10571000510578F00C94482C0C94932C5F3FE4F3E3
:10572000983ED4F3869577956795B795F7959F5FE3
:10573000C9F7880F911D9695879597F90895E1E02F
:10574000660F771F881FBB1F621773078407BA078E
:1057500020F0621B730B840BBA0BEE1F88F7E095E9
:1057600008950E94B82B6894B1110C94932C08955D
:105770000E94782C88F09F5798F0B92F9927B7513D
:10578000B0F0E1F0660F771F881F991F1AF0BA95E5
:10579000C9F714C0B13091F00E94922CB1E0089585
:1057A0000C94922C672F782F8827B85F39F0B93F77
:1057B000CCF3869577956795B395D9F73EF4909598
:1057C0008095709561957F4F8F4F9F4F0895E89416
:1057D00009C097FB3EF490958095709561957F4F39
:1057E0008F4F9F4F9923A9F0F92F96E9BB279395E7
:1057F000F695879577956795B795F111F8CFFAF4F7
:10580000BB0F11F460FF1BC06F5F7F4F8F4F9F4F27
:1058100016C0882311F096E911C0772321F09EE885
:10582000872F762F05C0662371F096E8862F70E0EB
:1058300060E02AF09A95660F771F881FDAF7880FC5
:105840009695879597F90895990F0008550FAA0B1B
:10585000E0E8FEEF16161706E807F907C0F0121683
:105860001306E407F50798F0621B730B840B950B86
:1058700039F40A2661F0232B242B252B21F40895DB
:105880000A2609F4A140A6958FEF811D811D089578
:1058900097F99F6780E870E060E008959FEF80ECE3
:1058A000089500240A941616170618060906089586
:1058B00000240A9412161306140605060895092EEC
:1058C0000394000C11F4882352F0BB0F40F4BF2B5B
:1058D00011F460FF04C06F5F7F4F8F4F9F4F08959B
:1058E00057FD9058440F551F59F05F3F71F0479591
:1058F000880F97FB991F61F09F3F79F08795089576
:10590000121613061406551FF2CF4695F1DF08C094
:10591000161617061806991FF1CF869571056105B1
:1059200008940895E894BB2766277727CB0197F959
:1059300008950E94242C08F48FEF08950E94B12C42
:105940000C945F2C0E94512C38F00E94582C20F0AF
:10595000952311F00C94482C0C944E2C11240C948B
:10596000932C0E94702C70F3959FC1F3950F50E01B
:10597000551F629FF001729FBB27F00DB11D639F01
:10598000AA27F00DB11DAA1F649F6627B00DA11DA7
:10599000661F829F2227B00DA11D621F739FB00D4D
:1059A000A11D621F839FA00D611D221F749F3327BD
:1059B000A00D611D231F849F600D211D822F762F56
:1059C0006A2F11249F5750409AF0F1F088234AF033
:1059D000EE0FFF1FBB1F661F771F881F915050409F
:1059E000A9F79E3F510580F00C94482C0C94932C01
:1059F0005F3FE4F3983ED4F3869577956795B79526
:105A0000F795E7959F5FC1F7FE2B880F911D96953F
:105A1000879597F908950E94782CE8F09E37E8F072
:105A20009639B8F49E3848F4672F782F8827985F06
:105A3000F9CF86957795679593959539D0F3B62FDD
:105A4000B1706B0F711D811D20F487957795679557
:105A500093950C94342D0C944F2D0C94932C0E9400
:105A6000242C880B990B0895882371F4772321F057
:105A70009850872B762F07C0662311F499270DC005
:105A80009051862B70E060E02AF09A95660F771FA0
:105A9000881FDAF7880F9695879597F908959F3FA5
:105AA00031F0915020F4879577956795B795880FD9
:105AB000911D9695879597F90895991B79E004C0F3
:105AC000991F961708F0961B881F7A95C9F780953D
:105AD0000895AA1BBB1B51E107C0AA1FBB1FA61735
