:100000000C9420020C9448020C9448020C94251C79
:100010000C94251C0C94251C0C9448020C9448024A
:100020000C9448020C94B31B0C9448020C944802A4
:100030000C9448020C9448020C9448020C94480218
:100040000C944A1A0C9448020C94181A0C94F21945
:100050000C9448020C9448020C9448020C944802F8
:100060000C94941A0C94480200407A10F35A00A0A1
:10007000724E18090010A5D4E80000E87648170071
:1000800000E40B54020000CA9A3B000000E1F505B1
:10009000000080969800000040420F000000A086FB
:1000A00001000000102700000000E803000000002D
:1000B0006400000000000A000000000001000000D1
:1000C00000002C76D888DC674F0823DFC1DFAE59EB
:1000D000E1B1B796E5E3E453C63AE651997696E87E
:1000E000E6C28426EB898C9B62ED407C6FFCEFBC02
:1000F0009C9F40F2BAA56FA5F490055A2AF75C932D
:100100006B6CF9676DC11BFCE0E40D47FEF520E662
:10011000B500D0ED902E0300943577050080841E45
:10012000080000204E0A000000C80C333333330FA0
:10013000986E12831141EF8D2114893BE65516CF3D
:10014000FEE6DB18D1844B381BF77C1D901DA4BB49
:10015000E424203284725E228100C9F124ECA1E5FE
:100160003D27362D506F776572204F666600352D1E
:1001700053657420446174652F54696D6500342D96
:1001800053657420494400332D4368616E67652FC1
:10019000416464204D6173746572204E756D6265B3
:1001A0007200322D53656E64205465737420534D74
:1001B0005300312D54657374204861726477617205
:1001C00065004D656E753A004572726F72206D6103
:1001D000782073796D626F6C3A004E6577204461C8
:1001E00074652F54696D653A2000446174652F541D
:1001F000696D653A20004E6574776F726B3A200026
:1002000053696D3A2000205369676E616C3A200093
:10021000436F6E6E65637465643A20002026204942
:100220004D454920004D6F64656D3A200043686577
:10023000636B20546865200020762000290A5369EA
:10024000673D005628000A42617400630020543D57
:100250000025000A483D0030000A54696D65200001
:100260002B00683A20000A417420006B672E003D85
:1002700000494420004C4F572042415454455259A4
:1002800020210A001F1C1F1E1F1E1F1F1E1F1E1FB6
:1002900000000000240027002A00000000090003DD
:1002A000020000040508000000000000000000003B
:1002B000002043656C736975733A2000202048253F
:1002C0003A200054657374205349373032303A2055
:1002D0000020446174653A200054657374205254C0
:1002E000433A2000206973206E6F7420612076618C
:1002F0006C69642073656C656374696F6E2E00426F
:10030000796521004E657720446174652F54696DCD
:10031000653A2000205361766564202100205361F6
:100320007665642021004641494C00536D7320538B
:10033000656E643A0041542B434D47523D004E6573
:100340006C796775004C79677532004C7967753147
:1003500000204E20004D3A20004F6666000A3136DC
:100360006820000A31346820000A31326820000A0F
:100370002036682000427965204F6C64204D6173FF
:10038000746572203A280041542B434D47533D2257
:1003900000457863656C6C656E7400476F6F640030
:1003A0004F4B00426164002F002859592F4D4D2FAB
:1003B00044442C48483A4D4D2920456E74657220BE
:1003C000446174652C2054696D65203A0020456EA7
:1003D0007465722049643A0020456E746572204E3F
:1003E000756D6265723A004E6F74205365740043F8
:1003F000757272656E743A200000000000230026BA
:1004000000290000000000250028002B000404043F
:1004100004040404040202020202020303030303AD
:1004200003020203010204081020408001020408B4
:100430001020010204081020408040009D1C3A2733
:1004400011241FBECFEFD8E0DEBFCDBF12E0A0E089
:10045000B1E0EAE0FCE502C005900D92A23EB107D2
:10046000D9F726E0A2EEB2E001C01D92A339B2078F
:10047000E1F712E0CFE1D2E004C02197FE010E9433
:10048000AB2DCE31D107C9F70E94681D0C94F82D11
:100490000C9400006115710581059105E1F581E07D
:1004A00090E0A0E0B0E08093BE059093BF05A093DC
:1004B000C005B093C1058DE898E09093BD05809389
:1004C000BC05809170008E7F809370008091B00099
:1004D0008C7F8093B0008091B100877F8093B100C2
:1004E0008091B6008F7D8093B600809170008D7FE3
:1004F000809370008091B10084608093B1008091FE
:10050000B1008C7F8093B10083E890E09093BB05AD
:100510008093BA0508956093BE057093BF058093DC
:10052000C0059093C105C7CF9091B9059111FCCF3B
:1005300091E09093B9059093B8052FEF2093B705FC
:100540001092B605260F2093B5059093B4059091AF
:10055000B405880F892B8093B4058091B305813051
:10056000F9F41092B3058091B4058093BB0080919B
:10057000BC0083FDF8CF85EC8093BC008091B90569
:100580008130E1F38091B605861710F46091B605CD
:10059000A3E9B5E0E3E7F5E080E0861303C0089542
:1005A00085EEEACF9D9191938F5FF7CF8091710592
:1005B00090917205891B990B089508950895EF9203
:1005C000FF920F931F93CF93DF938C017B01D0E0B9
:1005D000C0E0F701EC0FFD1F6491662361F0D801C4
:1005E000ED91FC910190F081E02DC8010995892BD6
:1005F00011F02196EECFCE01DF91CF911F910F9197
:10060000FF90EF900895AF92BF92CF92DF92EF925A
:10061000FF920F931F93CF93DF936C017B018B01AC
:10062000040F151FEB015E01AE18BF08C017D107FC
:1006300059F06991D601ED91FC910190F081E02D86
:10064000C6010995892B79F7C501DF91CF911F91DB
:100650000F91FF90EF90DF90CF90BF90AF900895F3
:10066000FC01538D448D252F30E0842F90E0821BB8
:10067000930B541710F0CF96089501970895FC013D
:10068000918D828D981761F0A28DAE0FBF2FB11D95
:100690005D968C91928D9F5F9F73928F90E00895ED
:1006A0008FEF9FEF0895FC01918D828D981731F0A7
:1006B000828DE80FF11D858D90E008958FEF9FEFFB
:1006C0000895FC01918D228D892F90E0805C9F4FD1
:1006D000821B91098F739927089582EC95E00E94FF
:1006E000610321E0892B09F420E0822F089580E046
:1006F00090E0892B29F00E946D0381110C94000079
:100700000895FC01A48DA80FB92FB11DA35ABF4FA6
:100710002C91848D90E001968F739927848FA68900
:10072000B7892C93A089B1898C9180648C93938D27
:10073000848D981306C00288F389E02D80818F7D17
:1007400080830895EF92FF920F931F93CF93DF93CF
:10075000EC0181E0888F9B8D8C8D981316C0E88901
:10076000F989808185FF11C0EE89FF896083E8895E
:10077000F98980818064808381E090E0DF91CF916E
:100780001F910F91FF90EF900895F62E0B8D10E0C2
:100790000F5F1F4F0F731127E02E8C8D8E110CC031
:1007A0000FB607FCFACFE889F989808185FFF5CF7C
:1007B000CE010E948103F1CFEB8DEC0FFD2FF11DD7
:1007C000E35AFF4FF0820B8FEA89FB8980818062B8
:1007D000D2CFCF93DF93EC01888D8823B9F0AA891B
:1007E000BB89E889F9898C9185FD03C0808186FDEC
:1007F0000DC00FB607FCF7CF8C9185FFF2CF80813B
:1008000085FFEDCFCE010E948103E9CFDF91CF912B
:100810000895843081F028F48230E9F08330F9F0D3
:100820000895883071F0893091F08530B9F4809165
:1008300080008F7D03C0809180008F77809380003F
:1008400008958091B0008F778093B00008958091D3
:10085000B0008F7DF9CF84B58F7784BD089584B5BE
:100860008F7DFBCFCF93DF93282F30E0F901E65641
:10087000FD4F8491F901EC5DFB4FD491F901E35FE9
:10088000FB4FC491CC23A1F081110E940904EC2FED
:10089000F0E0EE0FFF1FE750FC4FA591B491EC91F3
:1008A000ED2381E090E009F480E0DF91CF9108959D
:1008B00080E090E0FACF1F93CF93DF93282F30E0B2
:1008C000F901E656FD4F8491F901EC5DFB4FD4919F
:1008D000F901E35FFB4FC491CC23A9F0162F8111DE
:1008E0000E940904EC2FF0E0EE0FFF1FED5FFB4FBD
:1008F000A591B4918FB7F894EC91111108C0D095DF
:10090000DE23DC938FBFDF91CF911F910895DE2B03
:10091000F8CFCF93DF9390E0FC01EC5DFB4F249187
:10092000835F9B4FFC0184918823C9F090E0880F7E
:10093000991FFC01E057FD4FA591B491FC01ED5FBB
:10094000FB4FC591D49161110DC09FB7F8948C9164
:10095000209582238C938881282328839FBFDF9151
:10096000CF910895623051F49FB7F8943C91822F53
:10097000809583238C93E8812E2BEFCF8FB7F8944B
:10098000EC912E2B2C938FBFEACF3FB7F894809138
:10099000C3039091C403A091C503B091C60326B5CB
:1009A000A89B05C02F3F19F00196A11DB11D3FBFA7
:1009B000BA2FA92F982F8827BC01CD01620F711D76
:1009C000811D911D43E0660F771F881F991F4A956F
:1009D000D1F708958F929F92AF92BF92CF92DF92FC
:1009E000EF92FF926B017C010E94C5044B015C01F8
:1009F000C114D104E104F104B9F00E94C5046819DE
:100A000079098A099B09683E73408105910580F345
:100A100021E0C21AD108E108F10888EE880E83E0CF
:100A2000981EA11CB11CE4CFFF90EF90DF90CF90F7
:100A3000BF90AF909F908F9008952FB7F8946091DA
:100A4000BF037091C0038091C1039091C2032FBF77
:100A50000895DC0150E0E4E8F2E081E0861730F42C
:100A60009491490F511D8F5F3196F8CF633038F064
:100A7000CD0183709927892B11F44F5F5F4F9D0142
:100A80002D5F3F4F36952795369527956DE671E09A
:100A9000A69FC001A79F900DB69F900D11240197AE
:100AA000820F931F840F951F08954F925F926F924C
:100AB0007F928F929F92AF92BF92CF92DF92EF92EE
:100AC000FF92CF93DF93EC016A017B012CE3822E2E
:100AD000912CA12CB12CCB01BA01A50194010E944B
:100AE0003E2D6D83CA01B901A50194010E943E2DDE
:100AF0006C83C701B60120E13EE040E050E00E9477
:100B00003E2DCA01B90128E130E040E050E00E94EA
:100B10003E2D6B83C701B60120E831E541E050E08E
:100B20000E943E2D188263E9862E6EEF962EAA242F
:100B3000AA94BA2C8881782F7370C12CD12C76019D
:100B4000C394772319F0C12CD12C760126013701EB
:100B50009DE6490E91E0591E611C711C2415350556
:100B60004605570578F0240135014C185D086E08DC
:100B70007F08730162012C0D3D1D4E1D5F1D8F5FAF
:100B80008883D8CF81E089836981862F8150990B32
:100B9000FC01EC57FD4FE491711103C0623009F480
:100BA000EF5F8E2F90E0B0E0A0E0281739074A07EA
:100BB0005B0738F0281B390B4A0B5B0B6F5F6983AF
:100BC000E3CF2F5F2A83DF91CF91FF90EF90DF90EB
:100BD000CF90BF90AF909F908F907F906F905F90DD
:100BE0004F900895FC019F012F5F3F4F80818F7EC2
:100BF000803269F080E02AE0919130ED390F3A308F
:100C000040F4829F900D112480ED890FF5CFF901FA
:100C1000EACF089585ED8093BC008091BC0084FDEF
:100C2000FCCF1092B905089520919B03260F33271E
:100C3000331F21323105ECF42091B905FC0190E01D
:100C400080E0243069F082E00895A0919B03219117
:100C5000AC0145585C4FA40FB52FB11D2C930196E4
:100C6000861798F380919B03680F60939B0380E045
:100C7000089581E008951092B90581E08093B80548
:100C80001092B30561E082E10E945B0461E083E1C0
:100C90000E945B04E9EBF0E080818E7F808380819D
:100CA0008D7F808380E28093B80085E48093BC00D0
:100CB00008950895E091720580917105E81730F468
:100CC000F0E0ED58FA4F808190E008958FEF9FEFAC
:100CD000089590917205809171052FEF3FEF98175D
:100CE00048F4E92FF0E0ED58FA4F208130E09F5FA3
:100CF00090937205C9010895CF92DF92EF92FF920F
:100D00000F931F93CF93DF937C01CB018A01209136
:100D10007005222389F0EB016B01C40ED51ECC15A2
:100D2000DD0569F06991D701ED91FC910190F081A9
:100D3000E02DC7010995F3CF642F0E941406C80166
:100D4000DF91CF911F910F91FF90EF90DF90CF90A7
:100D50000895CF93DF931F92CDB7DEB769832091BB
:100D600070052223F9F020916D05203258F021E022
:100D700030E0FC013383228390E080E00F90DF912C
:100D8000CF91089580916E05E82FF0E0E55AFC4F71
:100D9000998190838F5F80936E0580936D0581E0CC
:100DA00090E0ECCF61E0CE0101960E941406F7CFEF
:100DB00020916D0581E0213208F044C08091B90591
:100DC0008111FCCF80916F0592E09093B90591E07D
:100DD0009093B8059FEF9093B7051092B6052093B6
:100DE000B505ABE5B3E0E3E9F5E090E0291331C0E8
:100DF0001092B4059091B405880F892B8093B405A7
:100E00008091B305813049F51092B3058091B40506
:100E10008093BB008091BC0083FDF8CF85EC80936C
:100E2000BC008091B9058230E1F38091B7058F3F16
:100E3000B1F08091B7058032A1F08091B705803381
:100E400091F084E010926E0510926D05109270057D
:100E500008953D9131939F5FC9CF85EEE0CF80E04B
:100E6000F1CF82E0EFCF83E0EDCF21E0209370055A
:100E700020E420936F0510926E0510926D05FC0121
:100E8000608185E696E00E94A90685E696E00C94CE
:100E9000D8061F93CF93DF93162FC1E7D6E0A88122
:100EA000B98191E09093700598E690936F05109248
:100EB0006E0510926D05ED91FC9111970190F081F6
:100EC000E02D682FCD01099588819981DC01ED9194
:100ED000FC910190F081E02D612F09958881998125
:100EE0000E94D8068A83DF91CF911F9108951092B6
:100EF0005703109258031092590310925A031092FC
:100F000056038091BA059091BB058093B200E0E74B
:100F1000F0E080818160808308952091C903309141
:100F2000CA032817390771F49091C7038091C80349
:100F3000981741F0E091C703F0E0EA5EFC4F808132
:100F400090E008958FEF9FEF0895EF92FF920F9337
:100F50001F93CF93DF93DC015C96ED90FC905D973F
:100F6000E114F10479F481E090E013969C938E9360
:100F7000129790E080E0DF91CF911F910F91FF9049
:100F8000EF9008955196ED91FC91529750968C9167
:100F90005097982F90950FB75E962C915E97122FD1
:100FA000127021FD6095F8942081112319F1282BEE
:100FB0002083E7012197F1F728E0462F50E03081A8
:100FC00060FF1AC0382B3083E7012197F1F7BA018F
:100FD00075956795215089F7112381F080818923C8
:100FE00080830FBF5C968D919C910197F1F781E012
:100FF00090E0C1CF2923DCCF3923E5CF9081892B25
:10100000EFCF2091C9033091CA032817390771F433
:101010008091C8032091C70390E0805C9F4F821BA2
:10102000910960E470E00E942A2D089590E080E02C
:1010300008952091C9033091CA0328173907B9F4DC
:101040009091C7038091C803981789F0E091C70376
:10105000F0E0EA5EFC4F80812091C70330E02F5F13
:101060003F4F2F7333272093C70390E008958FEFEE
:101070009FEF089590E080E00895E0E7F0E0808140
:101080008E7F80831092E30260E084E00E945B0424
:1010900060E087E00E945B0460E088E00C945B0401
:1010A000EF92FF920F931F93CF93DF93C82F162FCA
:1010B0000E943D088091D003882341F11F5F08E022
:1010C000C23721F007E0C73609F000E0C1E0D0E008
:1010D000812F8150990B7C0161E0802F0E945B047D
:1010E00064EF71E080E090E00E94EA0460E0802F0D
:1010F0000E945B04EC16FD0631F064EF71E080E0C5
:1011000090E00E94EA042196C11730F3DF91CF915D
:101110001F910F91FF90EF900895CF938091D0038E
:10112000882341F18091E3028823E1F0C091050119
:101130006C2F809104010E945B0481E0C827C0935A
:1011400005016091020170910301C11104C0609119
:1011500000017091010190E080E00E944A02CF916D
:101160000C947707809170008E7F80937000CF91F0
:101170000C943D08CF9108958F929F92AF92BF92A9
:10118000DF92EF92FF920F931F93CF93DF9300D0E4
:101190001F92CDB7DEB78EE00E943204892B31F06A
:1011A00060E070E0CB010E94EA04F5CF93E0D92E15
:1011B000812C912C54018394DA948FEFD81225C09E
:1011C00061E08FE00E945B0460E08FE00E945B04BE
:1011D00061E08FE00E945B0460E08FE00E945B04AE
:1011E0002B81205869817A8190E0822F0F900F9097
:1011F0000F90DF91CF911F910F91FF90EF90DF90B3
:10120000BF90AF909F908F90089507E010E0EE247C
:10121000E394F12CEC0EFD1EED0CF11C61E08FE06F
:101220000E945B048EE00E943204B501A401002EEE
:1012300004C0440F551F661F771F0A94D2F7F701A9
:101240002081892B51F0422B408360E08FE00E9487
:101250005B040150110910F7AFCF40954223F4CF42
:101260008F929F92AF92BF92CF92DF92EF92FF92B6
:10127000CF93DF93EC010E94BC086B017C010E94BC
:10128000BC08C60ED71EE81EF91E0E94BC086C0DD5
:101290007D1D8E1D9F1D23E0C22ED12CE12CF12C33
:1012A000A70196010E94602DCA01B9010E94962BE8
:1012B000688379838A839B830E94BC084B015C010D
:1012C0000E94BC08860E971EA81EB91E0E94BC086C
:1012D000680D791D8A1D9B1DA70196010E94602D36
:1012E000CA01B9010E94962B688379838A839B8304
:1012F000DF91CF91FF90EF90DF90CF90BF90AF90B4
:101300009F908F900895DC01ED91FC910190F08108
:10131000E02D0994DF92EF92FF920F931F93CF93EA
:10132000DF93CDB7DEB72C970FB6F894DEBF0FBEB4
:10133000CDBF809171069091720621E020937005D7
:1013400028E620936F0510926E0510926D05DC0162
:10135000ED91FC910190F081E02D60E00995809184
:101360007106909172060E94D806809373068823B6
:1013700031F140E050E0BA01CE0101960E945505DE
:1013800086E0FE013196DE01179601900D928A9556
:10139000E1F72F81388549855A856B857C8580E00A
:1013A00090E02C960FB6F894DEBF0FBECDBFDF9154
:1013B000CF911F910F91FF90EF90DF90089567E01C
:1013C00088E60E949402109272058093710587301E
:1013D000A1F084E08093730640E050E0BA01CE01B2
:1013E00007960E94550586E0FE013796DE011196AC
:1013F00001900D928A95E1F7C3CF8091710690918B
:101400007206DC01ED91FC910284F385E02D0995D3
:101410008F77282F30E0F4E035952795FA95E1F79E
:10142000922F990F990F022F091B000F080F80911F
:10143000710690917206DC01ED91FC910284F385B6
:10144000E02D09959C01A4E035952795AA95E1F733
:101450002F703327922F990F990FF22EF91AFF0C44
:10146000F80E8091710690917206DC01ED91FC916D
:101470000284F385E02D099586FF7CC0982F9F712B
:10148000292F30E0E4E035952795EA95E1F7322FF2
:10149000330F330F122F131B110F190F85FD145F1C
:1014A0008091710690917206DC01ED91FC910284AD
:1014B000F385E02D09958091710690917206DC010B
:1014C000ED91FC910284F385E02D09959C0144E0A7
:1014D000359527954A95E1F72F703327922F990F6D
:1014E000990FE22EE91AEE0CE80E809171069091A8
:1014F0007206DC01ED91FC910284F385E02D0995E3
:10150000D82E8091710690917206DC01ED91FC91CC
:101510000284F385E02D0995AC0164E0559547956B
:101520006A95E1F74F705527942F990F990F242F43
:10153000291B220F280F30E0A9014053584FD7FE36
:1015400002C04C595F4F8D2D8F77405D4F83282F00
:1015500030E094E0359527959A95E1F7922F990F11
:10156000990F291B220F280F2887E9861A87FB86E7
:101570000C870FCF9C0174E0359527957A95E1F79C
:101580002F703327922F990F990F122F191B110FBC
:10159000180F86CFCF93DF93EC0162E080E40E94C6
:1015A000940210927205809371058230F0F385E603
:1015B00096E00E946906888385E696E00E946906A7
:1015C000898381E090E0DF91CF910895CF93DF93FD
:1015D00000D000D0CDB7DEB783EE8C83CE01049669
:1015E0000E943507CE0101960E94CA0A29813A81DC
:1015F000322723273227A4EAB4E40E947F2D8D549A
:10160000924164E670E00E942A2D70936C0560930D
:101610006B0585EE8B83CE0103960E943507CE01C4
:1016200001960E94CA0A29813A813227232732274C
:10163000ADE7B0E00E947F2D0697843648F4809392
:1016400019010F900F900F900F90DF91CF91089597
:1016500083E6F5CFCF93A0917106B091720691E029
:101660009093700598E690936F0510926E05109216
:101670006D05ED91FC9111970190F081E02D682F9F
:10168000CD01099580917106909172060E94D8064D
:10169000C82F8093730681111DC061E088E60E9407
:1016A00094021092720580937105813031F084E0CC
:1016B000809373068C2FCF9108958091710690913D
:1016C0007206DC01ED91FC910284F385E02D099511
:1016D000C82FF0CFC0E0EECFAF92BF92CF92DF9293
:1016E000EF92FF920F931F93CF93DF9300D000D020
:1016F00000D0CDB7DEB78C016B010E94F205E82E59
:10170000C80103960E94F205B82EC80106960E94F1
:10171000F205A82E8BEC94E00E94F205082F8EECC7
:1017200094E00E94F205182F81ED94E00E94F205EA
:10173000F82E4A2D6B2D8E2D90E00E9429059C01DC
:10174000A8E1B0E00E947F2D9B01AC01200F311D6C
:10175000411D511DACE3B0E00E948E2D9B01AC01F8
:10176000210F311D411D511D0E948E2D40E15EE073
:10177000C49E9001C59E300DD49E300D1124890168
:10178000330F220B330B0F0D111D211D311DAB012A
:10179000BC01400F511F621F731FCE0101960E94B2
:1017A0005505E9801A81FB80DC80CD80BE808FE00A
:1017B0000E942A0B682F6F778FE00E944907809163
:1017C00071069091720621E02093700528E620931F
:1017D0006F0510926E0510926D05DC01ED91FC9184
:1017E0000190F081E02D60E00995A0917106B09123
:1017F00072060AE08B2D602F0E940A2D682F660F5B
:10180000680F660F6B0DED91FC9111970190F081BF
:10181000E02DCD010995A0917106B09172068C2D35
:10182000602F0E940A2D682F660F680F660F6C0DDF
:10183000ED91FC9111970190F081E02DCD0109957A
:10184000A0917106B09172068D2D602F0E940A2D15
:10185000682F660F680F660F6D0DED91FC91119763
:101860000190F081E02DCD010995B3E60CE90E0D54
:1018700090E8D92EBE1510F00E2DD12C4F2D612FD2
:101880008E2D90E00E942905069667E070E00E9488
:10189000162D682F811101C067E08091710690912B
:1018A0007206DC01ED91FC910190F081E02D09952B
:1018B000A0917106B09172068AE0E82E8F2D6E2DF0
:1018C0000E940A2D682F660F680F660F6F0DED914D
:1018D000FC9111970190F081E02DCD010995812FA8
:1018E0006E2D0E940A2D682F660F680F660F610F1C
:1018F000862F8D29682F70E0809171069091720675
:101900000E948309A0917106B0917206802F6E2DFE
:101910000E940A2D682F660F680F660F600FED9109
:10192000FC9111970190F081E02DCD0109958091F6
:101930007106909172060E94D806809373062696CF
:101940000FB6F894DEBF0FBECDBFDF91CF911F91D0
:101950000F91FF90EF90DF90CF90BF90AF900895E0
:10196000CF92DF92EF92FF920F931F93CF936B0171
:101970007C0120E030E0A9010E94EE2AC5E087FF4B
:10198000C4E020E030E0A901C701B6010E94462C66
:1019900087FD0BC020E030E040E251E4C701B60112
:1019A0000E94EE2A18160CF0C3E00BEC14E021E0C4
:1019B0004C2FC701B6010E945627CF911F910F915E
:1019C000FF90EF90DF90CF900895CF92DF92EF924B
:1019D000FF92CF93DF9300D000D0CDB7DEB7CE011A
:1019E00001960E9430092091C7043091C8044091AB
:1019F000C9045091CA0469817A818B819C810E94BB
:101A0000812A6B017C01609117017091180190E0AF
:101A100080E00E94942B9B01AC01C701B6010E949B
:101A2000F32A20E030E040E251E40E944B2C0E9477
:101A3000B82C20E030E040E251E40E94F32A6B0130
:101A40007C012DEC3CEC4CE45DE30E94EE2A87FD2A
:101A500027C0C982DA82EB82FC8220E030E046E9CE
:101A600053E469817A818B819C810E94462C1816EF
:101A700044F480E090E0A6E9B3E489839A83AB83E1
:101A8000BC8369817A818B819C810F900F900F902C
:101A90000F90DF91CF91FF90EF90DF90CF9008955E
:101AA00019821A821B821C82D8CFFB010190002070
:101AB000E9F73197AF01461B570BDC01ED91FC9123
:101AC0000280F381E02D09948F929F92AF92BF9292
:101AD000EF92FF920F931F93CF93DF93CDB7DEB7B3
:101AE000A1970FB6F894DEBF0FBECDBF7C01FA01FF
:101AF000CB0119A2223008F42AE08E010F5D1F4F9E
:101B0000822E912CB12CA12CBF01A50194010E9421
:101B10003E2DF901CA016A300CF5605DD8016E9363
:101B20008D01232B242B252B79F790E080E0109753
:101B300021F0BD01C7010E94550DA1960FB6F89482
:101B4000DEBF0FBECDBFDF91CF911F910F91FF90F0
:101B5000EF90BF90AF909F908F900895695CDECF1B
:101B6000482F50E070E060E02AE084E796E00C94B3
:101B7000640D4F925F926F927F928F929F92AF927D
:101B8000BF92CF92DF92EF92FF920F931F93CF936A
:101B90006B017C01742EAC019B010E94DC2C60E582
:101BA00071E0811126C046015701E894B7F82FEF84
:101BB0003FEF4FE75FE7C501B4010E94DC2C8111C4
:101BC0000CC02FEF3FEF4FE75FE7C501B4010E9464
:101BD000EE2A64E571E0181664F02FEF3FEF4FE74F
:101BE0005FE4C701B6010E94462C1816ACF468E504
:101BF00071E084E796E0CF911F910F91FF90EF90F5
:101C0000DF90CF90BF90AF909F908F907F906F901C
:101C10005F904F900C94550D2FEF3FEF4FE75FEC27
:101C2000C701B6010E94EE2A87FDE1CF20E030E037
:101C3000A901C701B6010E94EE2A10E000E087FF6B
:101C40000AC06DE284E796E00E94A5078C01F7FACE
:101C5000F094F7F8F094C0E060E070E080E09FE37B
:101C60007C1641F020E030E040E251E40E94F32A8B
:101C7000CF5FF6CFA70196010E94822A2B013C017B
:101C80000E94652B4B015C012AE0BC01A40184E7A2
:101C900096E00E94640D7C01E00EF11ECC23D1F190
:101CA000C501B4010E94942B9B01AC01C301B20198
:101CB0000E94812A4B015C016EE284E796E00E945B
:101CC000A507E80EF91EC15028F120E030E040E2FF
:101CD00051E4C501B4010E944B2C2B013C010E9430
:101CE000652B4B01B12CA12C2AE0B501A40184E79E
:101CF00096E00E94640DE80EF91EC501B4010E9431
:101D0000942B9B01AC01C301B2010E94812A4B01BB
:101D10005C01D9CFC701CF911F910F91FF90EF9038
:101D2000DF90CF90BF90AF909F908F907F906F90FB
:101D30005F904F90089562E971E00C94550DCF9338
:101D4000DF930E94B00DEC0184E796E00E949B0EA9
:101D50008C0F9D1FDF91CF910895CF93DF93BC012E
:101D600084E796E00E94DF02EC0184E796E00E949F
:101D70009B0E8C0F9D1FDF91CF910895CF93DF9322
:101D800042E00E94B90DEC0184E796E00E949B0EB0
:101D90008C0F9D1FDF91CF910895CF92DF92EF922C
:101DA000FF920F931F93CF93DF93EC016B01770F9B
:101DB000EE08FF08F7FE23C0E881F9810190F08169
:101DC000E02D6DE209958C0144275527BA014C1985
:101DD0005D096E097F092AE0CE010E94640D080F9B
:101DE000191FCE010E949B0E800F911FDF91CF9192
:101DF0001F910F91FF90EF90DF90CF9008952AE010
:101E0000B701A6010E94640D8C01EBCF0F931F93C5
:101E1000CF93DF938C01D0E0C0E06115710519F01C
:101E20000E94550DEC01C8010E949B0E8C0F9D1F56
:101E3000DF91CF911F910F91089584E796E00E9462
:101E40009B0E82EC91E00E94AD0E82EB91E00E942D
:101E5000AD0E82EA91E00E94AD0E87E891E00E940B
:101E6000AD0E8EE791E00E94AD0E8EE691E00E94ED
:101E7000AD0E82E691E00C94AD0E6115710511F086
:101E80000C94550D90E080E00895CF93DF93CFE55B
:101E9000D6E089810E94B00D6CE571E084E796E0A0
:101EA0000E943D0F8A810E94B00D6CE571E084E7CD
:101EB00096E00E943D0F488150E04053584F70E03B
:101EC00060E02AE084E796E00E94640D68E872E032
:101ED00084E796E00E943D0F8B810E94B00D65EE75
:101EE00071E084E796E00E943D0F8C810E94B00D66
:101EF00065EE71E084E796E00E943D0F8D81DF91F1
:101F0000CF910C94B00DCF9327E234E0F90101900A
:101F10000020E9F79F01285234408217130678F415
:101F2000C82F68EC71E084E796E00E94DF028C2FF6
:101F30000E949F0E1092270480E0CF91089581E0C7
:101F4000FCCF0F931F93CF93DF9300D0CDB7DEB7B5
:101F500062E370E080E090E00E94EA0484E796E0AB
:101F60000E9419088C011A82198289836AE070E044
:101F700080E090E00E94EA0417FDF0CF0D301105DB
:101F800059F00A30110541F0BE016F5F7F4F87E2C3
:101F900094E00E94B82DE2CF80E00F900F90DF9187
:101FA000CF911F910F9108952F923F924F925F9280
:101FB0007F928F929F92AF92BF92CF92DF92EF92D9
:101FC000FF920F931F93CF93DF93CDB7DEB72A977E
:101FD0000FB6F894DEBF0FBECDBF2C018B014A01B6
:101FE0002DB63EB6FA011082FB0101900020E9F700
:101FF000CF01861B970B0396EDB6FEB6E81AF90AD9
:102000000FB6F894FEBE0FBEEDBE2DB73EB72F5FE4
:102010003F4F69016EE571E0C8010E94DE2D892BFA
:1020200021F56EE571E0C6010E94D72DB801C60109
:102030000E94B82D0E941D057B018C0120E030E03C
:10204000A9016B83FC828D831E832F833887498788
:102050005A8782EC95E00E9461031816190654F421
:1020600082EC95E00E943F03F4CFB801C6010E94C4
:10207000D72DE0CFB60182EC95E00E94060F712CBF
:102080000E941D059B01AC0160E070E080E090E0E3
:10209000AB80BC80CD80DE80EF80F88409851A8516
:1020A0000E94992D273E3340410551056105710578
:1020B0008105910511F008F04DC082EC95E00E9479
:1020C0006103892BE9F282EC95E00E943F03182F0F
:1020D0001A8219828983BE016F5F7F4FC4010E94FB
:1020E000B82D1A3019F01FE9171590F5B201C40187
:1020F0000E94DE2D892B59F46EED72E0C4010E941E
:10210000DE2D892B11F186E4F40180831182C40154
:102110000FB6F8943EBE0FBE2DBE2A960FB6F894A9
:10212000DEBF0FBECDBFDF91CF911F910F91FF900A
:10213000EF90DF90CF90BF90AF909F908F907F9067
:102140005F904F903F902F900895F4011082712C72
:102150007394B3CF62E671E084E796E00E94060FC5
:10216000D2CF0F931F93CF93DF938C01EB010E948B
:10217000342A8883C80101960E94342A8983CE01BB
:10218000DF91CF911F910F910895CF92DF92EF923F
:10219000FF920F931F93CF93DF93EB017B0124E01A
:1021A000E20EF11C8B016C01C61AD70AC601800F22
:1021B000911F0E94342AF80181938F01EE15FF05CB
:1021C000A9F7CE01DF91CF911F910F91FF90EF9072
:1021D000DF90CF900895CF93DF93EB010E94342AD4
:1021E0008883CE01DF91CF910895CF92DF92EF9255
:1021F000FF920F931F93CF93DF938B01C42F7B012B
:102200006C01C61AD70AC6018E0D9F1D0E94342A82
:10221000F70181937F018E2F801B8C17A0F3C00FD5
:10222000D12FD11D1882DF91CF911F910F91FF9077
:10223000EF90DF90CF900895CF92DF92EF92FF92D0
:102240000F931F93CF93DF9300D0CDB7DEB76B0111
:102250007A01BC0184EE92E00E94D72D01E010E0EB
:1022600024EE32E0AE014F5F5F4FB601C9010E941C
:102270009927009739F00F5F1F4F30E020E0E016FC
:10228000F10684F70F900F90DF91CF911F910F917E
:10229000FF90EF90DF90CF900895CF93C5E04BEC87
:1022A00054E068E671E08CE691E00E94D40F8091E2
:1022B000CB04863481F464EF71E080E090E00E940A
:1022C000EA04C15061F762E172E08BEC94E00E9495
:1022D000D72DC0E027C06CE270E08BEC94E00E9448
:1022E000C32D892B81F342E050E068E872E08BEC6B
:1022F00094E00E941C11BC018BEC94E00E94D72D4D
:1023000041E050E062E771E08BEC94E00E941C1128
:10231000BC018BEC94E00E94D72D8BEC94E00E94E2
:102320007427C82F67EA73E081E094E00E94922747
:10233000BC018BEC94E00E94B82D63EA73E0CA30D4
:1023400068F086EF8C0F60EA73E0853038F0CF508C
:102350006BE973E0C53010F061E973E081E094E06F
:102360000E949227BC018BEC94E0CF910C94B82D85
:102370007F928F929F92AF92BF92CF92DF92EF9215
:10238000FF920F931F93CF93DF93CDB7DEB72A97BA
:102390000FB6F894DEBF0FBECDBF0E948A095C83E2
:1023A0006D83C090CB03D090CC03E090CD03F09030
:1023B000CE0323E333E343E550E4C701B6010E94B3
:1023C000812A26E636E646E65FE30E94F32A20E00D
:1023D00030E048EC52E40E944B2C0E94B82C0E9442
:1023E000652B762E1F82188619861A86BE01695FB4
:1023F0007F4F8AE390E00E94C5102F813885498580
:102400005A856091FC037091FD038091FE039091C9
:10241000FF030E94812A20E030E040E251E40E9464
:102420004B2C0E94B82C20E030E040E251E40E94A6
:10243000F32A4B015C011092270423E333E343E5C5
:1024400050E4C701B6010E94462C87FD84C126E6F0
:1024500036E646E650E4C701B6010E94EE2A181699
:102460000CF479C165E772E08BEC94E00E9492274E
:10247000BC0187E294E00E94D72D10E061E772E092
:102480008BEC94E00E949227BC0187E294E00E94CA
:10249000B82D60E174E087E294E00E94B82D6FE609
:1024A00072E08BEC94E00E949227BC0187E294E0FA
:1024B0000E94B82D6091FC037091FD038091FE0392
:1024C0009091FF030E94B00CBC0187E294E00E944F
:1024D000B82D6BE672E08BEC94E00E949227BC0171
:1024E00087E294E00E94B82D66E672E08BEC94E0FF
:1024F0000E949227BC0187E294E00E94B82D4AE036
:102500006BEC74E084E190E00E94C027BC0187E29C
:1025100094E00E94B82D62E672E08BEC94E00E9499
:102520009227BC0187E294E00E94B82D20E030E0C1
:10253000A901C501B4010E94462C18165CF460E69E
:1025400072E08BEC94E00E949227BC0187E294E059
:102550000E94B82DC501B4010E94B00CBC0187E2F5
:1025600094E00E94B82D6BE672E08BEC94E00E9440
:102570009227BC0187E294E00E94B82D69E572E0E1
:102580008BEC94E00E949227BC0187E294E00E94C9
:10259000B82D8C814AE06BEC74E090E00E94C0277B
:1025A000BC0187E294E00E94B82D0D8165EE71E0D8
:1025B00087E294E00E94B82D0A3058F467E572E093
:1025C0008BEC94E00E949227BC0187E294E00E9489
:1025D000B82D4AE06BEC74E0802F90E00E94C02799
:1025E000BC0187E294E00E94B82D112319F163E544
:1025F00072E08BEC94E00E949227BC0187E294E0A9
:102600000E94B82D809119014AE06BEC74E090E0D3
:102610000E94C027BC0187E294E00E94B82D61E5CA
:1026200072E08BEC94E00E949227BC0187E294E078
:102630000E94B82D6DE472E08BEC94E00E9492272A
:10264000BC0187E294E00E94B82D4AE06BEC74E094
:1026500080916B0590916C050E94C027BC0187E2B8
:1026600094E00E94B82D6BE472E08BEC94E00E9441
:102670009227BC0187E294E00E94B82D66E472E0E4
:102680008BEC94E00E949227BC0187E294E00E94C8
:10269000B82D6FE672E08BEC94E00E949227BC01AB
:1026A00087E294E00E94B82D6091CB037091CC0337
:1026B0008091CD039091CE030E94B00CBC0187E2C3
:1026C00094E00E94B82D63E472E08BEC94E00E94E9
:1026D0009227BC0187E294E00E94B82D4AE06BEC9F
:1026E00074E0872D90E00E94C027BC0187E294E04F
:1026F0000E94B82D61E572E08BEC94E00E94922775
:10270000BC0187E294E00E94B82D6CE372E08BEC90
:1027100094E00E949227BC0187E294E00E94B82DC9
:102720000E944D116BEC74E087E294E02A960FB69C
:10273000F894DEBF0FBECDBFDF91CF911F910F91F7
:10274000FF90EF90DF90CF90BF90AF909F908F90D1
:102750007F900C94B82D11E091CE0E94CE2D21E0F7
:10276000892B09F020E0822F0895CF93DF93EC01AD
:102770001092270484E796E00E949B0E6FEE73E0B0
:1027800084E796E00E94DF02C330D10509F566E0D8
:1027900071E086E194E00E94AD13882391F067EE2A
:1027A00073E084E796E00E94DF0268ED73E084E75F
:1027B00096E00E94DF020E94A10FDF91CF910C945E
:1027C0001D0F66E174E084E796E00E943D0FEDCFB7
:1027D000C430D10549F460E174E084E796E00E94DA
:1027E0003D0F6DEC73E0E3CF259739F70E948A091E
:1027F00020935F0630936006409361065093620613
:1028000060936306709364060E94450FBC0184E7E1
:1028100096E00E94060F69EA73E0C9CF2F923F92BB
:102820004F925F926F927F928F929F92AF92BF92E0
:10283000CF92DF92EF92FF920F931F93CF93DF938C
:10284000CDB7DEB766970FB6F894DEBF0FBECDBF2B
:102850003B01542EEDB6FEB6FE8AED8AFC010190D6
:102860000020E9F731978F01081B190B68012FEF42
:10287000C21AD20A4DB75EB74C195D090FB6F8946B
:102880005EBF0FBE4DBF6DB77EB76F5F7F4F7B01E1
:10289000BC01C7010E94D72D8DB79EB78C199D0929
:1028A0000FB6F8949EBF0FBE8DBFADB7BEB71196E1
:1028B0004D01A60170E060E0CD010E94B12D6701DD
:1028C000C701800F911FF70122242394312CE817B0
:1028D000F90739F021912C32D1F7BFEF2B1A3B0ABF
:1028E000F6CF5101AA0CBB1CEDB7FEB7EA19FB09E4
:1028F0000FB6F894FEBF0FBEEDBF2DB73EB72F5FEA
:102900003F4F3A872987A50170E060E0C9010E9426
:10291000B12D4DB75EB74A195B090FB6F8945EBF8B
:102920000FBE4DBF6DB77EB76F5F7F4F7C876B87E4
:10293000A50170E060E08B859C850E94B12DA98582
:10294000BA85ED92FC92EB85FC859182808230E025
:1029500020E041E050E02017310701F1D6018D91D0
:102960006D012F5F3F4F8C32B1F7FD01319710821F
:10297000CA01880F991FE985FA85E80FF91FB1830D
:10298000A083EB85FC858E0F9F1FB401620F731F20
:10299000DC016D937C934F5F5F4FDDCF0E941D057F
:1029A0007B018C0120E030E0A9016983FA828B83EE
:1029B0001C832D833E834F835887912C812C830168
:1029C00030E020E040E050E0BA016D861E872F879E
:1029D000388B498B5A8B6B8B7C8B0E941D059B011E
:1029E000AC0160E070E080E090E0A980BA80CB802C
:1029F000DC80ED80FE800F8118850E94992DAD84CA
:102A0000BE84C12CD12CE12CF12C00E010E00E94FE
:102A1000A22D08F085C082EC95E00E946103892B0D
:102A2000E1F282EC95E00E943F03482E552049F0E8
:102A300010EA8116910408F45EC010922704912CCC
:102A4000812CCB84DC84E984FA8410E000E0021558
:102A5000130509F33601D6018D919C91FC0101907B
:102A60000020E9F7AF0141505109481B590B5701AC
:102A7000D701ED91FC91E40FF51F2081241148C08E
:102A8000480F591FFA014082F2E0CF0ED11C22E01C
:102A9000E20EF11CD3016D917C91F5018081918151
:102AA0000E94CE2D892BC9F5552021F0F401E95D56
:102AB000FB4F1082C801ED88FE880FB6F894FEBE69
:102AC0000FBEEDBE66960FB6F894DEBF0FBECDBF4B
:102AD000DF91CF911F910F91FF90EF90DF90CF90FA
:102AE000BF90AF909F908F907F906F905F904F902E
:102AF0003F902F900895F401E95DFB4F80832FEF05
:102B0000821A920A30EA8316910409F09ACF95CF7F
:102B100070E060E00E94B12DB7CF0F5F1F4F97CFDD
:102B20008FEF9FEFC8CF0F931F93CF93DF9300D00A
:102B3000CDB7DEB78C018AE189831A8267E873E03A
:102B400082EC95E00E94DF0266E174E082EC95E0A1
:102B50000E943D0F6DEA72E082EC95E00E94060F44
:102B600040E060EE7EE284E791E00E940E14892B43
:102B7000B1F4B80182EC95E00E943D0FBE016F5F99
:102B80007F4F82EC95E00E94060F40E060EE7EE20F
:102B90008CE791E00E940E1421E0892B09F020E0DF
:102BA000822F0F900F90DF91CF911F910F91089579
:102BB000BC0182EC95E00E94060F40E060ED77E0FA
:102BC00088E891E00E940E1421E0181619060CF016
:102BD00020E0822F0895CF92DF92EF92FF920F9321
:102BE0001F93CF93DF93CDB7DEB729970FB6F89435
:102BF000DEBF0FBECDBF1092FB03C090CB03D090C1
:102C0000CC03E090CD03F090CE032AE939E949E501
:102C100050E4C701B6010E94462C87FDE3C226E6B8
:102C200036E646E850E4C701B6010E94EE2A1816BF
:102C30000CF4D8C261E08DE00E94890461E08DE06F
:102C40000E945B046CE271E080E090E00E94EA0484
:102C50008091D0038823B1F00E943D0880E293E088
:102C6000909303018093020180E490E0909301012E
:102C70008093000184E08093040181E08093E3026B
:102C80000E9477076DE272E08BEC94E00E9492273D
:102C9000BC0184E796E00E943D0F65E272E084E7A4
:102CA00096E00E94DF02E091D205F091D30582E028
:102CB0008083E091CE05F091CF051082E091D005A0
:102CC000F091D10587E680831092DA05E091D60570
:102CD000F091D70586E08083E091D405F091D50589
:102CE000808188698083E091D405F091D505808149
:102CF0008F7D808311E002E097E6F92E26E0E22E38
:102D000065E971E084E796E00E943D0F67E971E0B4
:102D100082EC95E00E94060F41E064EF71E08AE9E1
:102D200091E00E940E14892B09F479C21A3009F03F
:102D300042C060E08DE00E945B046AE174E080E0E4
:102D400090E00E94EA0461E08DE00E94890461E065
:102D50008DE00E945B0460E971E080E090E00E94F9
:102D6000EA04E091D205F091D3050083E091CE050D
:102D7000F091CF051082E091D005F091D105F0825D
:102D80001092DA05E091D605F091D705E082E09146
:102D9000D405F091D505808188698083E091D405C0
:102DA000F091D50580818F7D808363EA71E084E7AF
:102DB00096E00E943D0F1F5F163109F0A1CF0E94DF
:102DC0003D081092FB03D6C1109227046AEA71E015
:102DD00082EC95E00E94060F41E068E873E181EB28
:102DE00091E00E940E1443E050E063E971E087E255
:102DF00094E00E941C11BC0184E796E00E94060F3B
:102E00001092E2026DE272E08BEC94E00E94922755
:102E1000BC0184E796E00E943D0F60E072E084E729
:102E200096E00E94DF0210E006E08091E202863028
:102E3000F8F46CEB71E082EC95E00E94060F41E043
:102E400064EF71E085EC91E00E940E14182F84303D
:102E500018F40093E202E9CF68EE73E080E090E0BE
:102E60000E94EA048091E2028F5F8093E202DDCF4C
:102E700042E050E065EE71E087E294E00E941C11B0
:102E8000BC0184E796E00E94060F111196C16DE225
:102E900072E08BEC94E00E949227BC0184E796E0FC
:102EA0000E943D0F66EF71E084E796E00E94DF022A
:102EB00000E0E12C83E2F82E68EE73E080E090E021
:102EC0000E94EA0447E254E06AED71E080EE91E08E
:102ED0000E94D40F892B61F06AE370E087E294E0EE
:102EE0000E94C32D009721F004960E947427082F9A
:102EF00065E971E084E796E00E943D0F013009F436
:102F00002CC1023009F01DC11150FA941F5F193114
:102F100010F4F110D1CF102F1B7F113009F02AC10E
:102F20008091D0038823A9F00E943D0888EB9BE0A4
:102F3000909303018093020180E490E0909301015B
:102F40008093000184E0809304011093E3020E94C7
:102F5000770760E172E084E796E00E94DF0287EE87
:102F600091E00E94D8158EEF91E00E94D81581E083
:102F70008093FB0368E072E082EC95E00E94060F0C
:102F800040E068EE73E084E192E00E940E14892B29
:102F9000D9F51AE047E254E061E272E087E292E09C
:102FA0000E94D40F80912704863409F0D8C01150B4
:102FB00089F78AE01092CB048B3009F0D2C06CE222
:102FC00070E087E294E00E94C32D892B09F4C9C008
:102FD000053031F46EE272E08BEC94E00E94B82D83
:102FE00043E050E062E771E087E294E00E941C1148
:102FF000BC018BEC94E00E94B82DEBECF4E0019066
:103000000020E9F7329710826BEC74E084E796E0D9
:103010000E943D0F66E072E084E796E00E94DF02C6
:103020000E944D116BEC74E084E796E00E94060F5D
:103030001092E2026DE272E08BEC94E00E94922723
:10304000BC0184E796E00E943D0F6AEE71E084E7E0
:1030500096E00E94DF0209E28091E202863008F0E9
:1030600087C06CED75E080E090E00E94EA0415E016
:103070004BEC54E06AE372E080E492E00E94D40FEB
:1030800065E971E084E796E00E943D0F8091CB04F2
:10309000863441F464EF71E080E090E00E94EA043D
:1030A000115031F742E050E06DEA72E08BEC94E0B1
:1030B0000E941C11BC018BEC94E00E94D72D41E0D2
:1030C00050E062E771E08BEC94E00E941C11BC01BF
:1030D000CE0101960E94D72D41E050E06CE571E0F1
:1030E0008BEC94E00E941C110E9474277C0142E04A
:1030F00050E062E771E08BEC94E00E941C11BC018F
:103100008BEC94E00E94D72D8091E2028F5F809338
:10311000E20285E1E816F1040CF49ECF42E050E0B3
:1031200060E671E08BEC94E00E941C110E94742711
:10313000BC017727CE0101960E946C0B0093E2023E
:103140008BCF053051F0033031F484E08E1528F038
:10315000E3941150DBCE00E0D9CE19E1D7CE8BE05D
:1031600029CF62E372E08BEC94E00E94B82D4CCF43
:10317000893238F466E273E08BEC94E00E94922787
:1031800016C06AED71E084E796E00E94DF020E94BB
:103190008A0920935F06309360064093610650933E
:1031A000620660936306709364060E94450FBC013B
:1031B00084E796E00E94060F06C062E0113059F1E4
:1031C00061E0123041F129960FB6F894DEBF0FBED0
:1031D000CDBFDF91CF911F910F91FF90EF90DF90C6
:1031E000CF90089542E0C701B6010E94B90D68E38F
:1031F00072E084E796E00E94DF0265E772E08BEC04
:1032000094E00E949227BC0184E796E00E94060F9A
:103210001092FB0363E082E70E945008D4CF60EA7B
:1032200073E08BEC94E00E949227BC0184E796E067
:103230000E943D0F6CE172E084E796E00E94DF029D
:1032400082EC95E00E946103181619060CF0BCCDC3
:1032500082EC95E00E943F036AE070E080E090E03D
:103260000E94EA04EDCFFF920F931F93CF93DF9359
:10327000EC01F62E08811981C8010E94342AF81643
:1032800021F06F2DC8010E943C2ACE01DF91CF9121
:103290001F910F91FF9008950F931F93CF93DF938A
:1032A00000D0CDB7DEB78B019A838983FB016081A3
:1032B000CE0101960E943319C8010F900F90DF9143
:1032C000CF911F910F910895AF92BF92CF92DF924D
:1032D000EF92FF920F931F93CF93DF9300D0CDB760
:1032E000DEB78B016B0124E0C20ED11C7B015C01B7
:1032F000A61AB70AC5018E0D9F1D9A838983F7010F
:1033000061917F01CE0101960E943319EC14FD04F6
:1033100089F7C8010F900F90DF91CF911F910F9106
:10332000FF90EF90DF90CF90BF90AF900895EF9215
:10333000FF920F931F93CF93DF9300D0CDB7DEB7EB
:103340008C017B019A838983FB016081CE01019608
:103350000E9433190F5F1F4F1A830983F7016181A0
:10336000CE0101960E943319C7010F900F90DF9193
:10337000CF911F910F91FF90EF900895AF92BF9260
:10338000CF92DF92EF92FF920F931F93CF93DF9331
:1033900000D0CDB7DEB77C015B01042F10E06501E2
:1033A000C10ED11CF6016081FA82E982CE0101963C
:1033B0000E943319F6018081811101C0102FFFEFA7
:1033C000EF1AFF0A1F5F101750F30F900F90DF9155
:1033D000CF911F910F91FF90EF90DF90CF90BF9012
:1033E000AF9008951F920F920FB60F9211242F9352
:1033F0003F934F935F936F937F938F939F93AF937D
:10340000BF93EF93FF9382EC95E00E948103FF91BD
:10341000EF91BF91AF919F918F917F916F915F914C
:103420004F913F912F910F900FBE0F901F901895C5
:103430001F920F920FB60F9211242F938F939F9389
:10344000EF93FF93E091D205F091D3058081E09155
:10345000D805F091D90582FD1BC090818091DB05D4
:103460008F5F8F732091DC05821741F0E091DB05BF
:10347000F0E0EE53FA4F958F8093DB05FF91EF91CB
:103480009F918F912F910F900FBE0F901F901895C5
:103490008081F4CF1F920F920FB60F9211242F93B9
:1034A0003F938F939F93AF93BF938091BF0390916E
:1034B000C003A091C103B091C2033091BE0326E0C6
:1034C000230F2D3768F129E8230F0396A11DB11DA5
:1034D0002093BE038093BF039093C003A093C103C6
:1034E000B093C2038091C3039091C403A091C5031C
:1034F000B091C6030196A11DB11D8093C3039093A3
:10350000C403A093C503B093C603BF91AF919F912D
:103510008F913F912F910F900FBE0F901F90189594
:103520000296A11DB11DD4CF1F920F920FB60F921C
:1035300011242F933F934F935F936F937F938F93B8
:103540009F93AF93BF93EF93FF938091B900887FD0
:10355000803609F44AC0F0F5883209F4A7C018F59E
:10356000803109F49BC0B8F4882309F4F9C088308D
:1035700009F494C0FF91EF91BF91AF919F918F910A
:103580007F916F915F914F913F912F910F900FBE5F
:103590000F901F901895883109F488C0803251F738
:1035A0008093B70514C0803409F49DC040F4803383
:1035B000B9F38833F9F68093B70585ECB0C0803550
:1035C00009F485C0883509F496C0883499F60E94BC
:1035D0000A06D0CF883909F48CC038F5883729F02D
:1035E00050F4883611F0803729F683E08093B905CE
:1035F0001092BD0357C0883809F47BC0803919F098
:10360000803809F0B7CF8091BD03803208F071C0D7
:10361000E091BD0381E08E0F8093BD038091BB00DC
:10362000F0E0E356FC4F80833DC0803B39F0E0F48E
:10363000803A09F479C0883A09F09CCF84E08093FD
:10364000B90510929C0310929B03E091D103F09175
:10365000D203099580919B0381110FC081E0809373
:103660009B0310927B0309C0803C09F4A6CF883CE1
:1036700009F4A3CF883B09F07DCFE0919C0381E062
:103680008E0F80939C03F0E0E558FC4F808180937F
:10369000BB0090919C0380919B0329C08091B4054D
:1036A0008093BB0085EC8093BC0064CF9091B605FD
:1036B0008091B505981758F5E091B60581E08E0F19
:1036C0008093B605F0E0ED56FA4F8081E9CFE091A6
:1036D000B60581E08E0F8093B6058091BB00F0E0C7
:1036E000ED56FA4F80839091B6058091B5059817F5
:1036F000C8F285E8D8CFE091B60581E08E0F8093BF
:10370000B6058091BB00F0E0ED56FA4F80838091C2
:10371000B80581115CCF81E08093B30584EA809382
:10372000BC001092B90526CF85EC8093BC001092A6
:10373000B9058091BD03803230F4E091BD03F0E023
:10374000E356FC4F10826091BD0370E0E091D3031B
:10375000F091D4038DE993E009951092BD030ACF4F
:103760001092B70534CF1F920F920FB60F9211240B
:103770002F933F934F935F936F937F938F939F9379
:10378000AF93BF93EF93FF938091BA059091BB05E0
:103790008093B2008091570390915803A0915903F0
:1037A000B0915A030196A11DB11D809357039093C8
:1037B0005803A0935903B0935A03809157039091F3
:1037C0005803A0915903B0915A034091BE055091FE
:1037D000BF056091C0057091C10584179507A607C4
:1037E000B70710F18091560381111EC081E08093CC
:1037F00056038091570390915803A0915903B091BB
:103800005A03841B950BA60BB70B80935703909319
:103810005803A0935903B0935A03E091BC05F0916B
:10382000BD05099510925603FF91EF91BF91AF919D
:103830009F918F917F916F915F914F913F912F91C8
:103840000F900FBE0F901F9018951F920F920FB6FA
:103850000F9211242F933F934F935F936F937F9316
:103860008F939F93AF93BF93EF93FF93E091C9031F
:10387000F091CA03309749F0A685B7858585968D66
:1038800091FF14C09C918923A1F4FF91EF91BF9106
:10389000AF919F918F917F916F915F914F913F91E8
:1038A0002F910F900FBE0F901F9018959C91892318
:1038B00061F7A389B4899C918589809589238C932C
:1038C000868997890197F1F7608D718DA685B785F7
:1038D000558538E020E0CB010197F1F7822F90E089
:1038E00095958795282F4C91452309F020683150F4
:1038F00091F7868D81FD20958091C80390E0019617
:103900008F7399273091C703381799F0A091C80396
:10391000B0E0AA5EBC4F2C938093C803828D938D38
:103920000197F1F7A389B4898C919589892B8C93A0
:10393000ACCF868D8160868FF1CF1092C505109235
:10394000C40588EE93E0A0E0B0E08093C6059093B4
:10395000C705A093C805B093C9052EE131E03093A7
:10396000C3052093C20525EC30E03093CF052093AA
:10397000CE0524EC30E03093D1052093D00520EC27
:1039800030E03093D3052093D20521EC30E0309322
:10399000D5052093D40522EC30E03093D705209351
:1039A000D60526EC30E03093D9052093D805109247
:1039B000DB051092DC051092DD051092DE051092F9
:1039C0006806109267068093690690936A06A09332
:1039D0006B06B0936C0620E331E0309366062093CB
:1039E000650610927706109276068093780690937B
:1039F0007906A0937A06B0937B0682E491E09093D7
:103A000075068093740610928B0610928A061092A7
:103A10008D0610928C0610928F0610928E061092D0
:103A2000910610929006609192066E7F6D7F609372
:103A300092066695617081E0682786E00E945B04CB
:103A400061E086E00E948904EAE2F4E0E491E09318
:103A50008406E3E1F4E0E491F0E0EE0FFF1FED5F98
:103A6000FB4F85919491909386068093850660E044
:103A700085E00E9489048091920681FD04C061E086
:103A800085E00E945B0485E080938006E9E2F4E033
:103A9000E491E0938106E2E1F4E0E491F0E0EE0FDE
:103AA000FF1FE750FC4F859194919093830680937C
:103AB000820685E696E090937206809371061092D6
:103AC000730640E050E0BA018FE596E00C9455058E
:103AD000CF93DF93CDB7DEB765970FB6F894DEBF0F
:103AE0000FBECDBF789484B5836084BD85B58360F7
:103AF00085BD80916E00816080936E0082E080932E
:103B0000810080918100816080938100809180009C
:103B10008160809380008091B10084608093B100C7
:103B20008091B00081608093B00086E880937A0035
:103B30001092C10061E083E00E94890461E083E0AB
:103B40000E945B0410928F0610928E0610928D06D2
:103B500010928C0610928B0610928A068DEC90E0E3
:103B6000909391068093900680918006873108F0AB
:103B70004BC025E530E030938B0620938A062BEC72
:103B800030E030938D0620938C0620E930E03093AE
:103B90008F0620938E062091680094E0883054F0C0
:103BA00091E08E303CF092E0843124F091E0863157
:103BB00009F490E0922B909368002DE630E0883075
:103BC00074F08E300CF492C084313CF086310CF4E9
:103BD0008DC030E020E0863111F42CE630E03093E7
:103BE00088062093870688300CF083C091E001C0DE
:103BF000990F8A95EAF7892F80938906809190061C
:103C0000909191060197F1F780918E0690918F0621
:103C1000892B49F1E091C903F091CA0306E0E4372A
:103C2000F00709F1309739F0A389B4899C9185890F
:103C3000809589238C93809192068E7F8093920643
:103C40001092C8031092C70384E796E09093CA03CA
:103C50008093C903E0918706F09188068081909156
:103C60008906892B808361E088E00E94890460E0F6
:103C700088E00E945B0461E087E00E94890460E0C4
:103C800087E00E945B0461E084E00E94890460E0B8
:103C900084E00E945B0462E082E00E94890482E08A
:103CA0000E943204892B39F481E08093D00361E0D3
:103CB00087E00E945B048091CF03863040F582E06C
:103CC0000E943204892B19F565E971E084E796E0DA
:103CD0000E943D0F8091CF038F5F8093CF036CE2F2
:103CE00071E080E090E00E94EA04E5CF2BE630E04E
:103CF00076CF8E3014F4885079CF863114F48E50FC
:103D000075CF863111F480E477CF80E075CF60E025
:103D100087E00E945B0466E071E08AEE93E00E9417
:103D2000D72D66E071E086E194E00E94D72D1092D5
:103D300072051092710510926E0510926D050E9429
:103D40003B068DED92E09093D2038093D1038EEDEC
:103D500092E09093D4038093D3031A86BE01665FEA
:103D60007F4F81E090E00E94EB108EE480937C0016
:103D70006BE470E080E090E00E94EA0480917A00B9
:103D8000806480937A0080917A0086FDFCCF8091D8
:103D9000780020917900322F282F032E000C440B3D
:103DA000550B64EB7BE281E190E00E94602DCA013B
:103DB000B90164567109810991090E94962B20E08E
:103DC00030E04AE754E40E94F32A20E030E040E289
:103DD00051E40E944B2C0E94B82C20E030E040E2DD
:103DE00051E40E94F32A6B017C01C092CB03D09274
:103DF000CC03E092CD03F092CE032AE037ED43E509
:103E000050E40E94EE2A87FFB9C11A821982BE01CE
:103E10006F5F7F4F81E090E00E9497191A860E94A1
:103E20008A0920935F0630936006409361065093A1
:103E3000620660936306709364068A85882309F49A
:103E4000B6C18EE00E942A0B682F67648EE00E9444
:103E50004907809171069091720621E020937005C8
:103E600028E620936F0510926E0510926D05DC0117
:103E7000ED91FC910190F081E02D67E0099570E0F3
:103E800060E080917106909172060E94830970E053
:103E900060E080917106909172060E94830960E84B
:103EA00070E080917106909172060E94830960E82B
:103EB00070E080917106909172060E948309809152
:103EC0007106909172060E94D806809373068FE067
:103ED0000E942A0B682F6C7F8FE00E94490745E003
:103EE00060E174E082E890E00E94F51041E166E153
:103EF00074E088E890E00E94F51084E796E00E9464
:103F00009B0E67E472E084E796E00E943D0F69E44F
:103F100072E084E796E00E943D0F68E872E084E773
:103F200096E00E943D0F66E174E084E796E00E940F
:103F30003D0F68E872E084E796E00E943D0F60E183
:103F400074E084E796E00E943D0F68E872E084E741
:103F500096E00E943D0F0E94450FBC0184E796E069
:103F60000E943D0F68E872E084E796E00E943D0FF2
:103F70006091CB037091CC038091CD039091CE03DF
:103F80000E94BE0E67EC74E08EE290E00E94C510C5
:103F900067E171E086E390E00E94B11064EF71E0A8
:103FA00080E090E00E944A02809170008E7F8093B2
:103FB000700061E08FE00E94890460E08EE00E9462
:103FC000890460E08FE00E945B048091CF0386301B
:103FD00008F4ADC061E084E00E945B046DE472E02F
:103FE00084E796E00E94060F1092CF031091CF0352
:103FF000163008F4E4C060E084E00E945B041630F0
:1040000008F00CC187EC94E00E94300961E084E084
:104010000E945B0468E97AE380E090E00E94EA0491
:1040200060E087E00E945B0419821A821B821C8276
:10403000CE0101960E94300960E672E084E796E0C6
:104040000E943D0F6091C7047091C8048091C9041B
:104050009091CA0442E00E94B90D62E572E084E7E3
:1040600096E00E943D0F69817A818B819C8142E0BC
:104070000E94B90D6AE572E084E796E00E943D0F68
:104080002091C7043091C8044091C9045091CA04DA
:1040900069817A818B819C810E94812A0E94BE0E57
:1040A0002091C7043091C8044091C9045091CA04BA
:1040B00069817A818B819C810E94812A6B017C01BC
:1040C00020E030E04AEF54E40E94EE2A87FF8DC0E2
:1040D00063E082E70E94500867E672E084E796E0BA
:1040E0000E943D0F2091C7043091C8044091C9043B
:1040F0005091CA0469817A818B819C810E94812AB6
:104100000E94BE0E6DE672E084E796E00E943D0FCD
:10411000409117015091180170E060E02AE084E7B7
:1041200096E00E94640D84E796E00E949B0E8091C9
:104130000004882309F470C20E94A10F87E294E072
:104140000E9474278330910509F4C7C10CF0CCC0DC
:104150008130910509F4ECC0029709F492C167E23D
:1041600074E084E796E00E943D0F84EE92E00E94A6
:10417000AD0E84E796E00E949B0EACC18A8581114A
:104180004ECE2AE939E949E550E4C701B6010E945B
:10419000462C87FD44CE81E090E09A838983BE015E
:1041A0006F5F7F4F0E94971981E08A8738CE8EE03B
:1041B0000E942A0B8C7B682F64608EE08ECE82E09A
:1041C0000E943204892B09F016CF1F5F1093CF0392
:1041D00064EF71E080E090E00E94EA0465E971E03C
:1041E00084E796E00E943D0F01CFC701B6010E940F
:1041F000652B709318016093170167E171E086E306
:1042000090E00E94971967EC74E08EE290E00E94C3
:10421000641962E087E60E94500874CF67E772E095
:1042200084E796E00E94060F61E087E00E945B044D
:104230001092CF031091CF03163060F060E087E05A
:104240000E945B041630D8F081E0809300040E9445
:104250001D0F6DCF82E00E943204892B79F71F5F1A
:104260001093CF0364EF71E080E090E00E94EA04D5
:1042700065E971E084E796E00E943D0FDBCF6BE7D4
:1042800072E084E796E00E943D0F66E071E086E10F
:1042900094E00E94AD13811122C00E94E50C0E949F
:1042A000E60A8091FB03811102C00E94EB15809108
:1042B000FB03882309F43BCF0E94B81187E294E006
:1042C0000E94931566E174E084E796E00E94060F71
:1042D00067E274E084E796E00E94060F28CF62E070
:1042E00082E70E94500823CF8530910509F44EC122
:1042F0000CF420C1069709F032CF8FEF92E00E94B4
:10430000AD0E1092000462E370E080E090E00E9445
:10431000EA0460E08DE00E945B0460E083E00E94BC
:104320005B0468EE73E080E090E00E94EA0474C0F1
:1043300066E273E086ED93E00E949227BC01CE0115
:1043400001960E94D72D60EA73E0CE010A960E9482
:10435000922769ED72E084E796E00E94DF028EE02A
:104360000E942A0BBE0187FD64C0809173068111F3
:1043700060C0665F7F4F84E796E00E94060F61EDA4
:1043800072E084E796E00E94DF020E948A0920938F
:104390005F06309360064093610650936206609317
:1043A0006306709364060E94450F63EC72E084E735
:1043B00096E00E94DF021092720510927105109231
:1043C0006E0510926D050E943B068DED92E0909374
:1043D000D2038093D1038EED92E09093D403809327
:1043E000D30311E01093700580E480936F0585E698
:1043F00096E00E94D806811102C01093D5038091E7
:10440000D503BE0181111CC06F5F7F4F84E796E02A
:104410000E94060F0E941D0F80E090E0892B09F496
:1044200086CE0E946D03882309F481CE0E9400008D
:104430007ECE6F5F7F4F84E796E00E94060FB5CF78
:10444000665F7F4F84E796E00E943D0F0E94E60A78
:104450006CEB72E084E796E00E94DF028091190124
:104460000E94B00D61EB72E084E796E00E94DF02EB
:1044700060916B0570916C0584E796E00E94CD0E0B
:10448000C9CF8091FB03811102C00E94EB1580917E
:10449000FB038823F9F00E94B8116BE273E084E714
:1044A00096E00E94DF0287E294E00E94931560EAA2
:1044B00073E0811102C066E273E081E094E00E9443
:1044C0009227BC0184E796E00E94060F60E08DE031
:1044D0000E945B04109227049FCF83E090E00E942B
:1044E000B51381E10E94830F882309F495CF809151
:1044F000270441E166E071E0882311F067E274E08F
:1045000088E890E00E94BE1941E166E174E088E825
:1045100090E00E94F51084E796E00E949B0E67E20F
:1045200074E084E796E00E943D0F8DE193E00E94E5
:10453000AD0ED0CF84E090E00E94B51385E00E94DC
:10454000830F882309F468CF45E064E872E082E8CD
:1045500090E00E94BE1945E067E274E082E890E0D6
:104560000E94BE1945E060E174E082E890E00E949C
:10457000F51084E796E00E949B0E60E174E084E70A
:1045800096E00E943D0F84E193E0D1CF85E090E07A
:104590000E94B5138EE00E94830F882309F43CCF5C
:1045A00041E050E062E771E087E294E00E941C1174
:1045B000BC01CE0101960E94D72D42E050E062E797
:1045C00071E087E294E00E941C11BC018BEC94E046
:1045D0000E94D72D70E060E0CE0101960E946C0B26
:1045E00064E073E084E796E00E94DF020E948A099B
:1045F00020935F06309360064093610650936206F5
:1046000060936306709364060E94450FBC0184E7C3
:1046100096E00E94060F5ECF0E948A09752E2093B5
:104620005F06309360064093610650936206609384
:104630006306709364068AE08D870E94E60A6AE842
:1046400072E084E796E00E943D0F809119010E947C
:10465000B00D6FE872E084E796E00E943D0F609134
:104660006B0570916C0584E796E00E94CD0E0E9468
:10467000E50C6093FC037093FD038093FE0390931D
:10468000FF0366E972E084E796E00E943D0F6091C7
:10469000FC037091FD038091FE039091FF030E9443
:1046A000BE0EBE01635F7F4F89E090E00E94EB1079
:1046B000B6E07B1223C06CEF73E08AE090E00E94CA
:1046C00064196BE675E08AE190E00E94971969E150
:1046D00071E08AE290E00E944C198D85781649F0CD
:1046E00089E090E09A838983672DCE0101960E942C
:1046F000331989E593E00E94AD0E0BCEECE07E12FB
:1047000011C06CEF73E08EE090E00E9464196BE6DC
:1047100075E082E290E00E94971969E171E08BE216
:1047200090E0D9CFFEE07F1211C06CEF73E082E120
:1047300090E00E9464196BE675E08EE190E00E94C3
:10474000971969E171E08CE290E0C5CF20E1E22E9B
:104750007E1011C06CEF73E086E190E00E94641956
:104760006BE675E086E290E00E94971969E171E0DE
:104770008DE290E0B0CF94E1F92E7F10AECF809122
:10478000FB03811102C00E94EB158091FB0388237B
:1047900009F4A3CF89E990E00E94342A882309F420
:1047A000D2C06BE972E084E796E00E94060F6EE9E2
:1047B00072E084E796E00E943D0F1A86BE01665FB4
:1047C0007F4F89E990E00E94EB108A850E94B00D2E
:1047D0008A8581508A87BE01665F7F4F89E990E0B4
:1047E0000E944C196FE972E084E796E00E943D0F49
:1047F0008A850E949F0E66E174E081E094E00E9449
:1048000092271C01612C0E941D057B018C0120E078
:1048100030E0A9016E87FF86888B198B2A8B3B8B32
:104820004C8B5D8B61EA72E082EC95E00E94060F92
:1048300010922704912C812C0E941D059B01AC0134
:1048400060E070E080E090E0AE84BF84C888D988E2
:10485000EA88FB880C891D890E94992D27383341ED
:1048600041055105610571058105910509F0B0F516
:1048700082EC95E00E946103892BF1F282EC95E0D5
:104880000E943F03182F1A8219828983BE016F5F2D
:104890007F4F87E294E00E94B82D1A30B9F467E2A6
:1048A00074E084E796E00E943D0F6FEA72E087E2D1
:1048B00094E00E94DE2D009739F08114910421F4D8
:1048C00002960E9474274C011092270460E971E05F
:1048D00087E294E00E94DE2D892B51F262EB72E0B8
:1048E00084E796E00E943D0F882D0E949F0E811064
:1048F000CCC11EE164EF71E080E090E00E94EA0428
:104900001150C1F76394862D0E949F0E8820B9F044
:1049100065E773E08BEC94E00E9492270E94931568
:1049200041E166E071E088E890E00E94BE1941E153
:1049300066E174E088E890E00E94F51004C004E0AD
:10494000061508F060CF66E071E086E194E00E9411
:10495000AD138111C2CE61ED72E084E796E00E9452
:10496000060F0E94B8111C8619821A821B821C82B3
:104970001B861A86BE016F5F7F4F8AE090E00E941F
:10498000C510BE01665F7F4F8AE190E00E94B110C2
:104990006FE673E08BEC94E00E949227BC0187E203
:1049A00094E00E94B82D69817A818B819C810E945C
:1049B000B00CBC0187E294E00E94B82D67EA73E076
:1049C0008BEC94E00E949227BC0187E294E00E9465
:1049D000B82D4AE06BEC74E08A859B850E94C02765
:1049E000BC0187E294E00E94B82DBE01645F7F4F56
:1049F0008AE290E00E94EB1067EA73E08BEC94E0AF
:104A00000E949227BC0187E294E00E94B82D8C8519
:104A10004AE06BEC74E090E00E94C027BC0187E2A2
:104A200094E00E94B82DBE016F5F7F4F8EE090E052
:104A30000E94C510BE01665F7F4F82E290E00E9437
:104A4000B11069E673E08BEC94E00E949227BC0100
:104A500087E294E00E94B82D69817A818B819C81E4
:104A60000E94B00CBC0187E294E00E94B82D67EA76
:104A700073E08BEC94E00E949227BC0187E294E003
:104A80000E94B82D4AE06BEC74E08A859B850E94F9
:104A9000C027BC0187E294E00E94B82DBE01645F8C
:104AA0007F4F8BE290E00E94EB1067EA73E08BECA3
:104AB00094E00E949227BC0187E294E00E94B82D06
:104AC0008C854AE06BEC74E090E00E94C027BC014A
:104AD00087E294E00E94B82DBE016F5F7F4F82E1B4
:104AE00090E00E94C510BE01665F7F4F8EE190E0AE
:104AF0000E94B11063E673E08BEC94E00E94922771
:104B0000BC0187E294E00E94B82D69817A818B8193
:104B10009C810E94B00CBC0187E294E00E94B82DF9
:104B200067EA73E08BEC94E00E949227BC0187E275
:104B300094E00E94B82D4AE06BEC74E08A859B8576
:104B40000E94C027BC0187E294E00E94B82DBE01FC
:104B5000645F7F4F8CE290E00E94EB1067EA73E0A5
:104B60008BEC94E00E949227BC0187E294E00E94C3
:104B7000B82D8C854AE06BEC74E090E00E94C02771
:104B8000BC0187E294E00E94B82DBE016F5F7F4FA9
:104B900086E190E00E94C510BE01665F7F4F86E20D
:104BA00090E00E94B1106DE573E08BEC94E00E9400
:104BB0009227BC0187E294E00E94B82D69817A8136
:104BC0008B819C810E94B00CBC0187E294E00E9422
:104BD000B82D67EA73E08BEC94E00E949227BC0149
:104BE00087E294E00E94B82D4AE06BEC74E08A857D
:104BF0009B850E94C027BC0187E294E00E94B82DEB
:104C0000BE01645F7F4F8DE290E00E94EB1067EA87
:104C100073E08BEC94E00E949227BC0187E294E061
:104C20000E94B82D8C854AE06BEC74E090E00E9405
:104C3000C027BC0187E294E00E94B82D87E294E08F
:104C40000E94931564ED72E0811102C06AED72E07A
:104C500084E796E00E94060F67E274E084E796E03E
:104C60000E943D0F6FE972E084E796E00E943D0FDD
:104C700066E174E084E796E00E94060F60ED77E05D
:104C800080E090E00E94EA0428CD0E941D057B018F
:104C90008C0120E030E0A9016E87FF86888B198B9C
:104CA0002A8B3B8B4C8B5D8B65E373E082EC95E04C
:104CB0000E94DF02482C512CB20182EC95E00E9448
:104CC000CD0E1092CB040E941D059B01AC0160E04B
:104CD00070E080E090E0AE84BF84C888D988EA881C
:104CE000FB880C891D890E94992D27383341410585
:104CF0005105610571058105910511F008F05BC052
:104D000082EC95E00E946103892B09F44BC082EC90
:104D100095E00E943F03182F1A8219828983BE01F1
:104D20006F5F7F4F8BEC94E00E94B82D1A3041F7F3
:104D300068EB72E08BEC94E00E94DE2D892BE9F0A9
:104D40006CE270E08BEC94E00E94C32D8C010E5F4E
:104D50001F4F62E270E0C8010E94C32D009739F036
:104D6000DC011C92B8018AEE93E00E94D72DB8E5D1
:104D7000B093CB041092CC04C3CF8091CB04883580
:104D800071F46DE070E08BEC94E00E94C32DFC01A7
:104D900010826CEC74E087E294E00E94D72D1092B0
:104DA000CB04AECF6FEB72E087E294E00E94DE2D81
:104DB000892B09F488CF65E573E084E796E00E94CB
:104DC000DF0267E274E084E796E00E943D0F61E550
:104DD00073E084E796E00E94DF026AEE73E084E706
:104DE00096E00E943D0F63EC72E084E796E00E943B
:104DF0003D0F60EA73E084E796E00E94060F67E2E9
:104E000074E080EA93E00E94AD13882369F18BE49B
:104E100093E00E94AD0E6AEE73E0C1010E94AD13F3
:104E2000811107C064E971E0C1010E94AD138823BC
:104E3000F9F085E493E00E94AD0E86E0682E8824A8
:104E4000839468EC72E082EC95E00E943D0FB20121
:104E500082EC95E00E94CD0E40E068E873E184E1C9
:104E600092E00E940E144ECD8EE393E00E94AD0EB0
:104E7000812CE7CF82E491E09093750680937406CD
:104E80008091C9039091CA038457964071F4E091D0
:104E90008706F09188069081809189068095892304
:104EA00080831092CA031092C9030895EF920F9362
:104EB0001F93CF93DF93E80134E047FD34E1042EE4
:104EC000000C550B57FF03C0519541955109E32E36
:104ED000022F242FAE010E94ED27CE01DF91CF914A
:104EE0001F910F91EF900895FC0188279927E8946E
:104EF00021912032E9F3293010F02E30C8F32B3203
:104F000041F02D3239F4689404C00E94CB27820FFF
:104F1000911D219120532A30C0F31EF49095819564
:104F20009F4F0895FB01DC0105900D920020E1F7F1
:104F30000895FA01A191B081009719F41097E1F05A
:104F4000CD01DC01CD010D90002011F4C00113C092
:104F5000FB012191222319F02015D9F7F3CFFB0192
:104F60002191201519F41E92119606C02223C1F733
:104F70000D900020A1F7D001FA01A193B08308950C
:104F8000BB274A3031F4992322F4BDE290958195F4
:104F90009F4F0C94D4277AE0979F902D879F802D68
:104FA000910D11240895BB27FB015527AA27880FCF
:104FB000991FAA1FA41710F0A41B83955051B9F78D
:104FC000A05DAA3308F0A95DA193009779F7B1110C
:104FD000B1931192CB010C94242AA9E0B0E0E3EF45
:104FE000F7E20C94502A6A01F22EB02E102FFBE348
:104FF000AF2EA01608F41BE31F5F012F27E0AE01C0
:105000004F5F5F4F0E944C29BC018981982F997096
:10501000913009F43FC09BE2E1FC04C09E2D9170E9
:10502000E0FC3AC05E2D5071E82FE87083FF46C067
:1050300084E0911101C083E0EF2DE81B8F1508F08B
:10504000E0E0D6018E2F20E2552351F1992329F07B
:10505000D6019C93C60101966C0196012D5F3F4FCE
:10506000E2FE24C08EE4D6018C9391E411969C93C9
:10507000119712968C93D9018E2F90E281111BC04B
:10508000E20FF32FF11D10828EEF9FEF2996ECE0D7
:105090000C946C2A9DE2C6CF90E2C4CF2D93815030
:1050A0008111FCCFCE0ED11CE0E0D0CF8EE6D60130
:1050B0008C9391E6DBCF9D938150E0CF482F4470D5
:1050C00082FF3DC084E0911101C083E08F1510F490
:1050D000EF2DE81BD6018E2F20E2552309F19923ED
:1050E00029F0D6019C93C60101966C0196012D5FB3
:1050F0003F4FE2FE1BC089E4D6018C938EE41196EB
:105100008C93119786E412968C93D9018E2F90E29E
:10511000882309F4B5CF9D938150FACF2D93815008
:105120008111FCCFCE0ED11CE0E0D9CF89E6D601AB
:105130008C938EE611968C93119786E6E4CF9B01B3
:1051400077FF02C030E020E0A1E0B0E0911102C0A2
:10515000B0E0A0E0F9013196AE0FBF1F8B2C912C6F
:10516000BB2009F461C05401EFEFAE1ABE0AAA0DCC
:10517000BB1DFA161B0619F014F04F2D4A1B5111D6
:1051800088C0E3FC59C07601A42FB0E2A1114FC042
:10519000C40ED11C992309F45BC040E0D6011196DE
:1051A000F60190836D01552309F448C0012F060FC5
:1051B0009A81582F507184FF03C0913309F4015034
:1051C00010160CF047C0093008F008E0EEE2FE2EA1
:1051D0005B01A01AB10885019194819491082F3F39
:1051E000320729F4D601FC92F60131966F0162175D
:1051F000730794F1021713077CF5DB01A21BB30BB5
:10520000AA24A394B12CAC0EBD1EAA0DBB1D1196F1
:105210008C9121503109D601119628153905F4F0E9
:10522000F60180836D01DBCFB12CA12CA0CFF7015B
:10523000B1937F01A150AACF9111B0CFD601942F85
:1052400050E302C05D9391509111FCCFC40ED11C6C
:1052500040E0ACCF01E0BACF80E3DBCF6217730749
:1052600031F4963388F4953311F4552369F0F6013F
:105270008083FD01842F90E2811108C0A40FB11D2D
:105280001C9290E080E002CF81E3F1CF91938150B6
:10529000F3CF911183CF8ACF283008F027E033274E
:1052A000DA01990F311D87FD916000966105710546
:1052B00039F432602E5F3D9330E32A95E1F708958B
:1052C0009F3F30F080387105610509F03C5F3C5F1D
:1052D0003D93913008F08068911DDF93CF931F9329
:1052E0000F93FF92EF92192F987F9695E92F96953D
:1052F0009695E90FFF27EE53FF4F99273327EE24AA
:10530000FF24A701E70105900894079428F4360FBD
:10531000E71EF81E491F511D660F771F881F991F32
:105320000694A1F70590079428F4E70EF81E491F8C
:10533000561FC11D770F881F991F661F0694A1F77E
:105340000590079428F4F80E491F561FC71FD11D5A
:10535000880F991F661F771F0694A1F70590079481
:1053600020F4490F561FC71FD81F990F661F771FBC
:10537000881F0694A9F784911095177041F0D6956F
:10538000C79557954795F794E7941A95C1F7E8E6BE
:10539000F0E068941590159135916591959105907F
:1053A0007FE27395E118F10A430B560BC90BD00944
:1053B000C0F7E10CF11E431F561FC91FD01D7EF41C
:1053C000703311F48A95E6CFE894015030F0080F5D
:1053D0000AF40027021708F4202F2395022F7A33AE
:1053E00028F079E37D932A95E9F710C07D932A95FB
:1053F00089F6069497956795379517951794E11850
:10540000F10A430B560BC90BD00998F023957E91F6
:1054100073957A3308F070E37C932013B8F77E918C
:1054200070617D9330F0839571E37D9370E32A95ED
:10543000E1F71124EF90FF900F911F91CF91DF9131
:10544000992787FD90950895DC01FC01672F7191E4
:105450007723E1F7329704C07C916D93708362915A
:10546000AE17BF07C8F30895F999FECF92BD81BD6D
:10547000F89A992780B50895262FF999FECF1FBA7B
:1054800092BD81BD20BD0FB6F894FA9AF99A0FBE6D
:10549000019608952F923F924F925F926F927F9262
:1054A0008F929F92AF92BF92CF92DF92EF92FF9234
:1054B0000F931F93CF93DF93CDB7DEB7CA1BDB0BE0
:1054C0000FB6F894DEBF0FBECDBF09942A88398885
:1054D00048885F846E847D848C849B84AA84B9848C
:1054E000C884DF80EE80FD800C811B81AA81B98198
:1054F000CE0FD11D0FB6F894DEBF0FBECDBFED01AC
:1055000008955058BB27AA270E94992A0C940C2C66
:105510000E94FE2B38F00E94052C20F039F49F3FAA
:1055200019F426F40C94FB2B0EF4E095E7FB0C9495
:10553000F52BE92F0E941D2C58F3BA176207730749
:105540008407950720F079F4A6F50C943F2C0EF40F
:10555000E0950B2EBA2FA02D0B01B90190010C0183
:10556000CA01A0011124FF27591B99F0593F50F49B
:10557000503E68F11A16F040A22F232F342F4427F3
:10558000585FF3CF469537952795A795F0405395EB
:10559000C9F77EF41F16BA0B620B730B840BBAF0BB
:1055A0009150A1F0FF0FBB1F661F771F881FC2F726
:1055B0000EC0BA0F621F731F841F48F4879577953A
:1055C0006795B795F7959E3F08F0B0CF9395880FF4
:1055D00008F09927EE0F9795879508950E94D12B93
:1055E00008F481E008950E94072B0C940C2C0E9473
:1055F000052C58F00E94FE2B40F029F45F3F29F063
:105600000C94F52B51110C94402C0C94FB2B0E9404
:105610001D2C68F39923B1F3552391F3951B550B7A
:10562000BB27AA2762177307840738F09F5F5F4F75
:10563000220F331F441FAA1FA9F335D00E2E3AF0B4
:10564000E0E832D091505040E695001CCAF72BD0CC
:10565000FE2F29D0660F771F881FBB1F261737071D
:105660004807AB07B0E809F0BB0B802DBF01FF274F
:1056700093585F4F3AF09E3F510578F00C94F52B0C
:105680000C94402C5F3FE4F3983ED4F386957795D5
:105690006795B795F7959F5FC9F7880F911D969508
:1056A000879597F90895E1E0660F771F881FBB1F64
:1056B000621773078407BA0720F0621B730B840B11
:1056C000BA0BEE1F88F7E09508950E94252C88F00C
:1056D0009F5798F0B92F9927B751B0F0E1F0660FB6
:1056E000771F881F991F1AF0BA95C9F714C0B130F7
:1056F00091F00E943F2CB1E008950C943F2C672F4D
:10570000782F8827B85F39F0B93FCCF38695779525
:105710006795B395D9F73EF490958095709561950E
:105720007F4F8F4F9F4F0895E89409C097FB3EF439
:1057300090958095709561957F4F8F4F9F4F9923DE
:10574000A9F0F92F96E9BB279395F695879577955C
:105750006795B795F111F8CFFAF4BB0F11F460FF1C
:105760001BC06F5F7F4F8F4F9F4F16C0882311F074
:1057700096E911C0772321F09EE8872F762F05C088
:10578000662371F096E8862F70E060E02AF09A9523
:10579000660F771F881FDAF7880F9695879597F918
:1057A0000895990F0008550FAA0BE0E8FEEF1616B2
:1057B0001706E807F907C0F012161306E407F50705
:1057C00098F0621B730B840B950B39F40A2661F079
:1057D000232B242B252B21F408950A2609F4A1401C
:1057E000A6958FEF811D811D089597F99F6780E829
:1057F00070E060E008959FEF80EC089500240A9423
:105800001616170618060906089500240A9412169B
:105810001306140605060895092E0394000C11F4CE
:10582000882352F0BB0F40F4BF2B11F460FF04C07B
:105830006F5F7F4F8F4F9F4F089557FD9058440FD4
:10584000551F59F05F3F71F04795880F97FB991FDF
:1058500061F09F3F79F0879508951216130614069C
:10586000551FF2CF4695F1DF08C016161706180629
:10587000991FF1CF86957105610508940895E89404
:10588000BB2766277727CB0197F908950E94D12B74
:1058900008F48FEF08950E945E2C0C940C2C0E944B
:1058A000FE2B38F00E94052C20F0952311F00C946B
:1058B000F52B0C94FB2B11240C94402C0E941D2CD6
:1058C00070F3959FC1F3950F50E0551F629FF00153
:1058D000729FBB27F00DB11D639FAA27F00DB11D6C
:1058E000AA1F649F6627B00DA11D661F829F2227F5
:1058F000B00DA11D621F739FB00DA11D621F839F7C
:10590000A00D611D221F749F3327A00D611D231F51
:10591000849F600D211D822F762F6A2F11249F579F
:1059200050409AF0F1F088234AF0EE0FFF1FBB1FA2
:10593000661F771F881F91505040A9F79E3F510561
:1059400080F00C94F52B0C94402C5F3FE4F3983ED0
:10595000D4F3869577956795B795F795E7959F5F0B
:10596000C1F7FE2B880F911D9695879597F908959D
:105970000E94252CE8F09E37E8F09639B8F49E385E
:1059800048F4672F782F8827985FF9CF8695779509
:10599000679593959539D0F3B62FB1706B0F711D44
:1059A000811D20F487957795679593950C94E12C4C
:1059B0000C94FC2C0C94402C0E94D12B880B990B3E
:1059C0000895882371F4772321F09850872B762F40
:1059D00007C0662311F499270DC09051862B70E003
:1059E00060E02AF09A95660F771F881FDAF7880F14
:1059F0009695879597F908959F3F31F0915020F43F
:105A0000879577956795B795880F911D969587959A
:105A100097F90895991B79E004C0991F961708F02B
:105A2000961B881F7A95C9F780950895AA1BBB1B02
:105A300051E107C0AA1FBB1FA617B70710F0A61B8E
:105A4000B70B881F991F5A95A9F780959095BC01AF
:105A5000CD01089597FB072E16F4009407D077FD2B
:105A600009D00E94162D07FC05D03EF49095819533
:105A70009F4F0895709561957F4F0895A1E21A2E6A
:105A8000AA1BBB1BFD010DC0AA1FBB1FEE1FFF1FE2
:105A9000A217B307E407F50720F0A21BB30BE40B32
:105AA000F50B661F771F881F991F1A9469F7609579
:105AB0007095809590959B01AC01BD01CF01089533
:105AC000052E97FB1EF400940E94772D57FD07D0FA
:105AD0000E943E2D07FC03D04EF40C94772D509578
